:100000009DC100000C941C170C9447170C94721798
:100010000C949D170C94C8170C94F3170C941E188D
:100020000C944918BCC10000BAC10000B8C100005E
:10003000B6C100000C94221EB2C10000B0C1000085
:10004000AEC10000ACC10000AAC10000A8C1000000
:10005000A6C10000A4C10000A2C100000C94741845
:100060009EC100000C947B1B0C94B11B98C1000036
:1000700096C1000094C1000092C1000090C1000030
:100080008EC100008CC100008AC1000088C1000040
:100090000C94071C0C943D1C82C10000E0C30000BE
:1000A0007EC100007CC100007AC1000078C1000060
:1000B00076C1000074C1000072C1000070C1000070
:1000C0006EC100006CC100000C94AB1E0C94931C1C
:1000D0000C94C91C64C100000C941F1D0C94551D88
:1000E0005EC10000A519A81997199B19A119DF195C
:1000F000AC19B019B619BA19BE19C419C819CC1956
:10010000DF19D219D619DA19FB26B9281E29212997
:10011000FD273028EB26F226CF260129F028FD28DE
:10012000212921292129BA2600000A0B02090C0DD8
:100130000E0807030401000000000000000000009A
:1001400000000000000000000000000000000000AF
:10015000000000001211100000000000000000006C
:10016000000000000000000000000000000001028C
:1001700010202008081020401020408002010201B9
:100180000804020101020408102040808040201071
:1001900008040201800402018040201008040201CA
:1001A0000804020101020408102040800102040832
:1001B000102040800505050507050808080802020B
:1001C00002020A0A080804040404010101010101F1
:1001D00001010303030303030303040707070C0CD4
:1001E0000C0C0C0C0C0C020202020606060606069B
:1001F00006060B0B0B0B0B0B0B0B00002200250054
:1002000028002B002E0031003400020100000501FF
:1002100008010B0100002100240027002A002D0006
:100220003000330001010000040107010A0102004F
:100230001D3A2774694E53E8F5D2CF9C81A6BBCDF9
:10024000D0F7EAB9A4839E25381F02514C6B7687FC
:100250009ABDA0F3EEC9D46F7255481B06213C4AE3
:1002600057706D3E230419A2BF9885D6CBECF113CD
:100270000E2934677A5D40FBE6C1DC8F92B5A8DEBB
:10028000C3E4F9AAB7908D362B0C11425F786594C0
:1002900089AEB3E0FDDAC77C61465B0815322F59A1
:1002A00044637E2D30170AB1AC8B96C5D8FFE22689
:1002B0003B1C01524F6875CED3F4E9BAA7809DEB81
:1002C000F6D1CC9F82A5B8031E3924776A4D50A180
:1002D000BC9B86D5C8EFF24954736E3D20071A6C5B
:1002E00071564B1805223F8499BEA3F0EDCAD7354D
:1002F000280F12415C7B66DDC0E7FAA9B4938EF843
:10030000E5C2DF8C91B6AB100D2A3764795E43B23B
:10031000AF8895C6DBFCE15A47607D2E3314097F18
:100320006245580B16312C978AADB0E3FED9C40054
:100330002E037907DA1B661CF21C7E1D11241FBEDA
:10034000CFEFD1E2DEBFCDBF00E00CBF13E0A0E0F5
:10035000B2E0E0ECFCE500E00BBF02C007900D92BC
:10036000A83BB107D9F728E0A8EBB3E001C01D9284
:10037000A23BB207E1F711E0CEE9D1E000E006C010
:1003800021970109802FFE010E94EE2CC839D10768
:1003900080E00807A9F70E94A02A0C945E2E30CEB8
:1003A00080E090E008958091EC0390E02091ED03CF
:1003B000821B910908959091ED038091EC039817A9
:1003C00050F4E92FF0E0E251FC4F208130E09F5FD4
:1003D0009093ED0302C02FEF3FEFC9010895E09124
:1003E000ED038091EC03E81730F4F0E0E251FC4FAC
:1003F000808190E008958FEF9FEF08950895CF9347
:10040000DF93EC01E091C403F091C5033097F1F064
:100410009091ED038091EC039817C0F090E0292FA4
:1004200030E02617370754F4DE01A20FB31F4C91BA
:10043000D901A251BC4F4C939F5FF1CF1092ED03B5
:100440006093EC03CB01DF91CF911994DF91CF91B1
:100450000895E091C603F091C703309729F01092F8
:10046000CA031092C90319940895CF92DF92EF92B4
:10047000FF920F931F93CF93DF937C01CB018A01EF
:100480002091C803222389F0EB016B01C40ED51E15
:10049000CC15DD0561F06991D701ED91FC910190DA
:1004A000F081E02DC7011995F3CF642F96D1C801D3
:1004B000DF91CF911F910F91FF90EF90DF90CF9040
:1004C0000895CF93DF931F92CDB7DEB76983209154
:1004D000C8032223D1F02091C903203240F021E04B
:1004E00030E0FC013383228380E090E014C08091EF
:1004F000CA03E82FF0E0E553FC4F998190838F5FAA
:100500008093CA038093C90304C061E0CE010196C1
:1005100064D181E090E00F90DF91CF910895FC01CC
:100520001382128288EE93E0A0E0B0E0848395838A
:10053000A683B78389E992E091838083089510921E
:10054000ED031092EC031092CA031092C90389D0F4
:1005500089E292E06FD18FEF91E067C181E08093F3
:10056000C8036093EB031092CA031092C903089565
:100570000F93062F21E04091C9036BEC73E080914B
:10058000EB03D5D01092CA031092C9031092C8038E
:100590000F9108954F925F926F927F92AF92BF92A8
:1005A000CF92EF92FF920F931F93CF93DF935C0153
:1005B000F62ED42F28013901EE2011F1CFDFCE2DF8
:1005C000C43008F0C3E0C150C0F028E0C29FC001B1
:1005D0001124A301920104C056954795379527959C
:1005E0008A95D2F7CA01B901D501ED91FC9101902C
:1005F000F081E02DC5011995E6CF60E0C501B8DFB7
:100600004D2FD13208F040E22C2D6EEE73E08F2D8D
:1006100046D01092ED038093EC03DF91CF911F91B0
:100620000F91FF90EF90CF90BF90AF907F906F9021
:100630005F904F900895CF92EF920F931F93C22E29
:10064000E12C00E010E09801A5DF1F910F91EF90E1
:10065000CF90089521E0EFCF61E08ACF88EB93E05F
:100660005ECF10927B0481E080937904109278042D
:1006700061E084E10E941C1A61E085E10E941C1A7D
:10068000E9EBF0E080818E7F808380818D7F8083A5
:1006900088E48093B80085E48093BC0008954132DB
:1006A00008F043C090917B049111FCCF91E09093AE
:1006B0007B04209379042FEF20930E0410925304AF
:1006C000240F2093520490937A0490917A04880F17
:1006D000892B80937A0480917804813061F41092A0
:1006E000780480917A048093BB008091BC0083FDE4
:1006F000F8CF85EC01C085EE8093BC0080917B042F
:100700008130E1F380915304841710F44091530435
:10071000A4E5B4E0962FFB018E2F891B841718F4F3
:100720008D918193F9CF842F089580E008950F93E0
:10073000413208F04AC090917B049111FCCF32E025
:1007400030937B04009379043FEF30930E041092B2
:10075000530440935204562FA4E5B4E0FB013E2F0E
:10076000351B341718F431913D93F9CF10927A0468
:1007700030917A04880F832B80937A0480917804D7
:10078000813061F41092780480917A048093BB00E8
:100790008091BC0083FDF8CF85EC01C085EE80938D
:1007A000BC00222321F080917B048230D1F3809120
:1007B0000E048F3F79F080910E04803241F08091D9
:1007C0000E04803331F094E005C091E003C092E064
:1007D00001C093E0892F0F91089540913004262F96
:1007E00030E0240F311D21323105DCF420917B04EF
:1007F0002430C9F4FC0180E090E0861758F4309171
:1008000030042191DC01AE5CBB4FA30FB11D2C93D2
:100810000196F3CF80913004680F6093300480E03C
:10082000089581E0089582E008959093750480937F
:10083000740408959093770480937604089585ED69
:100840008093BC008091BC0084FDFCCF10927B049F
:10085000089585EC8093BC0010927B0408951F924C
:100860000F920FB60F9211240BB60F922F933F9356
:100870004F935F936F937F938F939F93AF93BF93A8
:10088000EF93FF938091B900887F803609F49DC073
:1008900070F5883209F45CC090F4803109F455C0D9
:1008A00038F4882309F4F3C0883009F44EC0F2C04C
:1008B000883109F44DC0803209F45EC0EBC0803449
:1008C00009F469C050F4803309F456C0883309F044
:1008D000E1C080930E04BDDFDDC0803509F44FC058
:1008E000883509F45DC0883409F0D4C0D2C0883995
:1008F00009F4C3C0A8F4883709F467C038F488360F
:1009000009F463C0803709F460C0C4C0883809F4B2
:10091000B4C0803909F45FC0803809F0BBC05BC047
:10092000803B09F482C038F4803A09F466C0883A02
:1009300009F47BC0AFC0803C09F4A3C0883C09F433
:10094000A0C0883B09F486C0A5C080917A0410C07D
:100950009091530480915204981770F5E0915304DC
:1009600081E08E0F80935304F0E0EC5AFB4F8081BE
:100970008093BB0085EC82C080930E048AC0E09116
:10098000530481E08E0F809353048091BB00F0E00C
:10099000EC5AFB4F808390915304809152046AC0BB
:1009A000E091530481E08E0F809353048091BB004B
:1009B000F0E0EC5AFB4F808380917904811169C08B
:1009C00081E08093780484EA5DC083E080937B04B7
:1009D00010920F04CFCF80910F04803208F04DC0E9
:1009E000E0910F0481E08E0F80930F048091BB0093
:1009F000F0E0E05FFB4F8083BDCF2BDF80910F04E1
:100A0000803230F4E0910F04F0E0E05FFB4F1082A1
:100A100060910F0470E0E0917404F091750480E13E
:100A200094E0199510920F0435C084E080937B0404
:100A30001092310410923004E0917604F091770422
:100A4000199580913004811105C081E080933004B4
:100A500010923204E091310481E08E0F80933104D2
:100A6000F0E0EE5CFB4F80818093BB0090913104FD
:100A700080913004981708F47DCF85E88093BC00FE
:100A800009C085EC8093BC0010927B0403C01092D7
:100A90000E04D5DEFF91EF91BF91AF919F918F91A1
:100AA0007F916F915F914F913F912F910F900BBE6E
:100AB0000F900FBE0F901F901895FF920F931F93EA
:100AC000CF93DF93C62F142FF22E032F682F88EBBE
:100AD00093E044DD6C2F88EB93E0F3DCCF2DD02F37
:100AE000CE01810F911D8C01C017D10729F06991AA
:100AF00088EB93E0E6DCF8CF88EB93E0ADDD91E0A6
:100B0000811190E0892FDF91CF911F910F91FF907C
:100B10000895CF93DF931F92CDB7DEB749839E012F
:100B20002F5F3F4F41E0C9DF0F90DF91CF910895D4
:100B30003F924F925F926F927F928F929F92AF926D
:100B4000BF92CF92DF92EF92FF920F931F93CF93BA
:100B5000DF9300D000D0CDB7DEB7D82EC62E4D83A0
:100B600079010E94BE184B015C01312C1E829D81CF
:100B7000892F90E09C838B832801612C712CED815F
:100B80003E1698F56D2D88EB93E0E8DC6C2D88EB34
:100B900093E097DC88EB93E05FDD6D2D88EB93E0CD
:100BA000DDDC4B815C81431951094132510514F060
:100BB00040E250E06D2D88EB93E04CDD88EB93E054
:100BC000F2DB892B09F442C00115110569F10E947D
:100BD000BE18DC01CB0188199909AA09BB09841543
:100BE0009505A605B70500F131C001151105B9F14C
:100BF0000E94BE18DC01CB0188199909AA09BB091A
:100C000020E030E080179107A207B30740F1FD8193
:100C10002F2F30E04E81842F440F990B82179307BA
:100C2000F4F48FEF8E831BC0F7012E81E20FF11DCC
:100C300027FDFA95FA83E98388EB93E0BCDBE98131
:100C4000FA818083FE81FF5FFE83B8CF88EB93E05B
:100C500003DD8D81813208F080E2380E90CF8E81E5
:100C600026960FB6F894DEBF0FBECDBFDF91CF91B1
:100C70001F910F91FF90EF90DF90CF90BF90AF90BA
:100C80009F908F907F906F905F904F903F900895CE
:100C90000F931F9389019A0141E04ADF1F910F9141
:100CA0000895EF92FF920F931F93CF93DF931F92BC
:100CB000CDB7DEB7182F062FF42EE22E20910602B4
:100CC00030910702AE014F5F5F4FE2DF898141E063
:100CD00050E001C0440FFA94EAF7EE2011F0482BDF
:100CE00002C0409548234983602F812F12DF0F9067
:100CF000DF91CF911F910F91FF90EF900895DF92B8
:100D0000EF92FF920F931F93CF93DF931F92CDB774
:100D1000DEB7182FF62EE42ED22E20910602309147
:100D20000702AE014F5F5F4FB3DF882331F12E2DF5
:100D300030E02D1931092F5F3F4F81E090E002C074
:100D4000880F991FDA94E2F70197022E01C0880FED
:100D50000A94EAF7402F50E0BA0102C0660F771FED
:100D60002A95E2F7482F4095998149238623482BFD
:100D700049836F2D812FCDDE01C080E00F90DF9180
:100D8000CF911F910F91FF90EF90DF90089528E68B
:100D9000FC01208308950F93062F23E042E06AE1CF
:100DA000FC018081ACDF0F9108950F93062F22E0A4
:100DB00044E06BE1FC018081A2DF0F9108950F9365
:100DC000062F22E044E06CE1FC01808198DF0F9166
:100DD00008950F931F93CF93DF93EC0100910602C8
:100DE000109107029C012F5F3F4F42E063E488812E
:100DF0009FDE89819A81982789279827DF91CF9153
:100E00001F910F9108950F931F93CF93DF93EC01E0
:100E100000910602109107029C012F5F3F4F42E0B4
:100E200065E4888185DE89819A81982789279827BA
:100E3000DF91CF911F910F9108950F931F93CF933F
:100E4000DF93EC0100910602109107029C012F5FD5
:100E50003F4F42E067E488816BDE89819A81982761
:100E600089279827DF91CF911F910F910895262F01
:100E700046E06BE6FC01808114CF0F93062F23E040
:100E800042E06BE6FC0180813ADF0F910895CF9339
:100E9000DF93EC0161E0F1DF60E0CE0186DF60E02E
:100EA000CE018DDF60E0CE01DF91CF91E0CFCF9317
:100EB000C82F88EB93E043DB6C2F8CE794E06BDF6B
:100EC0008CE794E0CF91E3CFCF93DF93EC018CE7F5
:100ED00094E07FDF998388838CE794E094DF9B83A1
:100EE0008A838CE794E0A9DF9D838C83DF91CF9187
:100EF00008958CE794E04BCF8F929F92AF92BF9270
:100F0000CF92DF92EF92FF920F931F93CF93DF93D5
:100F100000D000D0CDB7DEB78091F9078150823084
:100F200010F483E001C080E08093F9078091F80716
:100F30008150823010F483E001C080E08093F80794
:100F4000CE010196C1DFE091A408F091A50820919F
:100F5000740230917502409176025091770260815F
:100F60007181828193810E94522C181664F16981EB
:100F70007A81072E000C880B990B0E94A22B2091DE
:100F80007C0230917D0240917E0250917F020E944E
:100F9000562C6093FA077093FB078093FC0790939D
:100FA000FD078091F907882331F0833039F0082E4E
:100FB000000C990B05C082E090E002C081E090E057
:100FC0008093F90711C08091F807882331F08330AE
:100FD00039F0082E000C990B05C082E090E002C0A9
:100FE00081E090E08093F80782E090E00E94C816CC
:100FF000E091A408F091A50840815181628173813C
:1010000080E090E00E94C4166091990870919A085F
:1010100080919B0890919C080E94A02B2AE037EDBC
:1010200043E25CE30E94562CAB01BC0181E090E0FE
:101030000E94C41680909D0890909E08A0909F08E2
:10104000B090A00820E030E040E85FEBC501B401BB
:101050000E949C2B0091A4081091A508882319F1E7
:10106000F801C080D180E280F380A7019601C5011C
:10107000B4010E94372B4B015C0120E030E040E0DE
:1010800054E3C701B6010E94562C9B01AC01C50177
:10109000B4010E94522C181634F087EA92E0909323
:1010A000FF078093FE078091A308882331F087EA29
:1010B00092E09093FF078093FE07809191089091B2
:1010C0009208A0919308B0919408BC01CD016F5F84
:1010D0007F4F8F4F9F4F609391087093920880933A
:1010E0009308909394080E94A02B9B01AC016091FF
:1010F00095087091960880919708909198080E94A1
:10110000562CF801608371838283938380919908C0
:1011100090919A08A0919B08B0919C080196A11DFE
:10112000B11D8093990890939A08A0939B08B0935F
:101130009C0826960FB6F894DEBF0FBECDBFDF9198
:10114000CF911F910F91FF90EF90DF90CF90BF90C4
:10115000AF909F908F9008950F931F93CF93DF933D
:10116000EEEFF7E080EBDF011D928A95E9F781EA67
:1011700098E097838683C4EAD8E0D0933F08C09371
:101180003E0805E918E0158B048BF0936908E0939D
:101190006808F583E48321E030E0DC012D933C9383
:1011A0008BEB92E09387828726EA38E039832883A5
:1011B00040E050E060E87FEB40939D0850939E082C
:1011C00060939F087093A0084AE057ED63E27CE3C8
:1011D000D8014D935D936D937C931397CFE7D8E03F
:1011E00086E490E2ADE3B2E488839983AA83BB836B
:1011F00081E09FEDA7E2B9E880938308909384088B
:10120000A0938508B093860886EA94E8A0EDB8E735
:101210008093870890938808A0938908B0938A08E0
:1012200087E49AEAA0E8BCE480938B0890938C084A
:10123000A0938D08B0938E08A7EAB4E0B383A2838D
:10124000EFE9F4E01196FC93EE9388E593E0918347
:1012500080839383828389EF97E09583848388EFEB
:1012600097E0978386838FE898E015969C938E93FA
:1012700014971396DC93CE93129717963C932E9364
:10128000169724E0EAEFF7E0DF011D922A95E9F7CF
:10129000C0EFD7E02AE0FE0111922A95E9F7EBE8CA
:1012A000F4E024E1DF011D922A95E9F7DC01ED93DA
:1012B000FC938FE090E09183808386E592E09383B6
:1012C000828388E392E09583848384E192E097832C
:1012D000868388E092E09187808781E090E0A0E0BB
:1012E000B0E089839A83AB83BC8380E090E0DFDD4C
:1012F00081E08D83DF91CF911F910F9108958091AF
:10130000F007811103C081E08093F0070895EF9208
:10131000FF920F931F93CF93DF93DC01EA01F90152
:1013200014968D919C91159712960D911C9113977F
:10133000080F191F2881398118964D915C911997D2
:101340004217530728F04D915C911197452B39F1C5
:101350007801E21AF30A18964D915C911997481B8F
:10136000590B4E0D5F1D4617570794F1A901460F03
:10137000571F40175107E0F0F182E0823383228348
:101380006E197F0975836483161617061CF4382FAF
:10139000292F02C030E020E03683278313C018963F
:1013A0008D919C911997821B930B8617970784F058
:1013B000718360833383228315821482178216829D
:1013C00088819981680F791F7983688380E001C0E3
:1013D00081E0DF91CF911F910F91FF90EF900895E1
:1013E000CF92DF92EF92FF92CF93DF936B017C015C
:1013F00084E48C9DE0018D9DD00D1124CD54DB4FF4
:101400008AA99BA9009721F00E94BC2D1BAA1AAAA9
:1014100084E48C9DF0018D9DF00D1124ED54FB4F63
:1014200086A997A9009711F00E94BC2D84E48C9D99
:10143000F0018D9DF00D1124ED54FB4F138A128A9B
:10144000168A178A108E118E128E138E148E158E98
:10145000168E178E10A211A281E090E093A382A3B2
:1014600015A214A216A217A210A611A613A612A6C0
:1014700015A614A616A617A610AA11AA13AA12AA90
:1014800015AA14AA17AA16AA11AE10AE12AE13AE60
:1014900014AE15AEDF01DE961D921D921D921C92B8
:1014A0001397EE5BFF4F11821082DF91CF91FF9077
:1014B000EF90DF90CF9008950F931F93CF93DF931A
:1014C000EB01DC018D919C91FC01A681B781E88143
:1014D000F98123E0EE0FFF1F2A95E1F712962D9177
:1014E0003C911397E20FF31F00811181AC85BD85FC
:1014F0009D01220F331FDC0112968D919C91139751
:10150000D901A80FB91F8D919C9124813581232B7E
:1015100019F461E070E002C062E070E0869F900123
:10152000879F300D969F300D112488859985289FBF
:10153000B001299F700D389F700D1124EC81FD8141
:101540002E9FC0012F9F900D3E9F900D1124800F64
:10155000911FFA019183808373836283DF91CF911E
:101560001F910F9108952F923F924F925F926F9229
:101570007F928F929F92AF92BF92CF92DF92EF9223
:10158000FF920F931F93CF93DF9300D000D0CDB77E
:10159000DEB7DC011496ED91FC9115970190F08176
:1015A000E02D808591859A838983A281B381BC8354
:1015B000AB83FB0181909190A190B190C12CD12C73
:1015C0007601C814D904EA04FB040CF05DC0448021
:1015D0005580668077804085518562857385CF010F
:1015E00040969E838D83A081B1819D0183E0220F6F
:1015F000331F8A95E1F7A981BA8112968D919C914A
:101600001397D901A80FB91F2D903C90119704840E
:10161000F585E02DEE0FFF1F8B819C81E80FF91FF0
:101620000190F081E02D14968D919C911597892B56
:1016300019F481E090E002C082E090E08E9F90017A
:101640008F9F300D9E9F300D1124249F8001259F78
:10165000100D349F100D1124249DC001259D900D67
:10166000349D900D1124A8016D817E81820D931D02
:101670000E94452EED81FE81E00FF11F9FEFC91AF8
:10168000D90AE90AF90A9DCF26960FB6F894DEBF6B
:101690000FBECDBFDF91CF911F910F91FF90EF90C3
:1016A000DF90CF90BF90AF909F908F907F906F9082
:1016B0005F904F903F902F900895CF93DF93DB0181
:1016C000A058BD4F2C91222369F024E4269FF001FD
:1016D000279FF00D1124ED54FB4FEF0119922A952D
:1016E000E9F71C9224E4269FF001279FF00D1124B6
:1016F000ED54FB4F148215821682178211861086D4
:1017000013861286118A108A17861686DF91CF916A
:1017100067CE2F923F924F925F926F927F928F92FD
:101720009F92AF92BF92CF92DF92EF92FF920F9370
:101730001F93CF93DF93CDB7DEB728970FB6F894FA
:10174000DEBF0FBECDBF24E4269FD001279FB00D82
:101750001124AD54BB4FBC83AB8314960D911D91E6
:101760002D913C911797012B022B032B09F4C1C03B
:101770002A016B017C01612C712C812C912C54016C
:10178000B887AF831496BC83AB83EF81F885389616
:10179000FE83ED83EB81FC8180819181A281B38105
:1017A00088169906AA06BB0694F5AD81BE81ED9117
:1017B000FC91E60DF71DB281B98323812A830B2F9B
:1017C000122F212C312C24143504A4F4D801ED91CE
:1017D000FC91309749F0848195810E94BC2DF801DD
:1017E000808191810E94BC2DFFEF2F1A3F0A0E5F6E
:1017F0001F4FE9CF89819A810E94BC2D2FEF821A59
:10180000920AA20AB20A34E0630E711CC3CFAF8100
:10181000B88518968D919C9119970E94BC2DEF81E7
:10182000F88582859385892B81F100E010E01C8288
:101830001B8224E42C9DC0012D9D900D11249C0140
:1018400023543B4F59012B813C81241535058CF4E1
:10185000D501ED91FC91E00FF11F848195810E94EB
:10186000BC2DEB81FC813196FC83EB83025F1F4F23
:10187000EACF84E48C9DF0018D9DF00D1124ED5490
:10188000FB4F828593850E94BC2D84E48C9DD00102
:101890008D9DB00D1124AD54BB4FBC83AB835096CE
:1018A0008D919C9151970E94BC2DEB81FC81868586
:1018B00097850E94BC2DC701B60192DDC701B60114
:1018C00028960FB6F894DEBF0FBECDBFDF91CF9143
:1018D0001F910F91FF90EF90DF90CF90BF90AF904E
:1018E0009F908F907F906F905F904F903F902F9040
:1018F000E4CE28960FB6F894DEBF0FBECDBFDF91C1
:10190000CF911F910F91FF90EF90DF90CF90BF90FC
:10191000AF909F908F907F906F905F904F903F908F
:101920002F90089524E4269FF001279FF00D1124A5
:10193000ED54FB4F828993890497029758F485E010
:1019400090E0938B828B8FEF9FEFDC01828F938FE0
:10195000A48FB58F08952F923F924F925F926F920E
:101960007F928F929F92AF92BF92CF92DF92EF922F
:10197000FF920F931F93CF93DF93CDB7DEB7AA9754
:101980000FB6F894DEBF0FBECDBF9AA389A3788FA0
:101990006F8B7A01098B1A8B2B8B3C8B84E4298902
:1019A0003A89829F6001839FD00C112486010D54D7
:1019B0001B4F89899A89AB89BC89F80180839183FF
:1019C000A283B383AB01BC01CD01A3DED601A95430
:1019D000BB4F84E0F70101900D928A95E1F7170162
:1019E000F4E02F0E311C64E070E0D80114968D9164
:1019F0009C9115970E940A2DF80191878087892B69
:101A000009F481C11E8E1D8E198E1A8E1B8E1C8E9E
:101A100018A30F8F98012C5F3F4F38A72FA3A80161
:101A2000485F5F4F5AA749A7EFA1F8A58081918130
:101A3000A281B381298D3A8D4B8D5C8D2817390792
:101A40004A075B070CF0CEC0A9A5BAA58D919C9161
:101A5000ED8DFE8DE80FF91FFE8BED8BD101ED9121
:101A6000FC91EE0FFF1FA9A1BAA18D919C91E80FE7
:101A7000F91F80819181ED89FE8991838083D10155
:101A800014962D913D914D915C9117972BA33CA3FA
:101A90004DA35EA3B8E02B0E311C62E070E08F898D
:101AA000988D0E940A2DED89FE8993838283892B6C
:101AB00009F429C1412C512C32012BA13CA14DA18B
:101AC0005EA142165306640675060CF025C151014D
:101AD000F4E0AF0EB11CD101ED90FC90EE0CFF1CB8
:101AE000ED89FE89028113810E0D1F1D68E070E0F3
:101AF00081E090E00E940A2DD8018D939C93ED899E
:101B0000FE8982819381FC01EE0DFF1DC080D18092
:101B1000C114D10409F4F7C084E0F501D6010190A5
:101B20000D928A95E1F7F8E02F0E311CF6018081C5
:101B30009181A281B381181619061A061B060CF0B2
:101B40004BC064E070E00E940A2DD60115969C936C
:101B50008E931497892B09F4D6C0E12CF12C812C9B
:101B6000912C5401F60180819181A281B381881664
:101B70009906AA06BB0684F5F601048115810E0DAF
:101B80001F1D80E1F101DE01119601900D928A95F1
:101B9000E1F7F0E12F0E311CA801BE016F5F7F4F0E
:101BA000A9A1BAA114968D919C91159785DCF60197
:101BB00026813781D80112968D919C911397820FBF
:101BC000931F97838683BFEF8B1A9B0AAB0ABB0ACE
:101BD000E4E0EE0EF11CC6CFFFEF4F1A5F0A6F0A6A
:101BE0007F0A6BCF6EE070E08F89988D0E940A2D7E
:101BF000AF8DB8A11B969C938E931A97A12CB12CF4
:101C0000C12CD12CE12CF12C24E4E989FA892E9FF6
:101C1000C0012F9F900D11249C0123543B4F3E8BFC
:101C20002D8B88248394912C4F89588DC416D5060A
:101C30000CF041C0D1014D905D906D907D901D01E3
:101C4000ED89FE89008111810A0D1B1D77FC5BC0A7
:101C5000D80111969C928E92411451046104710432
:101C600049F0C2010E94242DF80195838483892BB9
:101C700031F449C0D80115961C921E921497F801B0
:101C8000538242828481958197838683918780875E
:101C90001386128681E090E045284628472811F4F3
:101CA00080E090E0E80EF91EFFEFCF1ADF0A2EE089
:101CB000A20EB11CB9CF84E4A989BA898A9F800198
:101CC0008B9F100D11240D541B4FF801158614869F
:101CD000C70133E0880F991F3A95E1F70E94242D40
:101CE000D80151969C938E935097892B61F0C70130
:101CF000880F991F0E94242DF80197878687892BCA
:101D000011F080E01CC04F89588D69897A898B89D0
:101D10009C89FFDC81E013C0298D3A8D4B8D5C8D51
:101D20002F5F3F4F4F4F5F4F298F3A8F4B8F5C8F05
:101D30004D8D5E8D4C5F5F4F5E8F4D8F75CEAA9639
:101D40000FB6F894DEBF0FBECDBFDF91CF911F91CC
:101D50000F91FF90EF90DF90CF90BF90AF909F904A
:101D60008F907F906F905F904F903F902F9008954D
:101D70002F923F924F925F926F927F928F929F929B
:101D8000AF92BF92CF92DF92EF92FF920F931F9389
:101D9000CF93DF93CDB7DEB768970FB6F894DEBF69
:101DA0000FBECDBF9C8B8B8B69017A0124E42C9DE7
:101DB000C0012D9D900D11249C012D543B4F5901C4
:101DC000FB0120813181F501358B248BDC01A75388
:101DD000BB4FFB01349624E001900D922A95E1F768
:101DE000DC01A353BB4FFB01389624E001900D9218
:101DF0002A95E1F7DC01AF52BB4FFB013C9624E092
:101E000001900D922A95E1F7DC01AF51BB4FFB0128
:101E1000709684E001900D928A95E1F78B010C5E3B
:101E20001F4FF50186A597A5A0A9B1A918161906F7
:101E30000CF064C0880F991F880F991F0E94242DF1
:101E4000F50193AB82AB892B09F4B5C0812C912CA1
:101E5000412C512C32019501225D3F4F3E8B2D8B41
:101E6000C501C296988F8F8BF496FA8BE98BB301DC
:101E7000A2012FEF421A520A620A720AED89FE8904
:101E800080819181A281B381481759076A077B0736
:101E900054F5EF89F88D20803180280C391C80E1C1
:101EA000F801DE01119601900D928A95E1F7005F2D
:101EB0001F4FA101BE016F5F7F4FEB89FC898481B9
:101EC0009581FADAE989FA8920813181F1018281EB
:101ED0009381820F931FE989FA8991838083F4E0CB
:101EE0008F0E911CC4CFF50184A995A90E94242DC1
:101EF000F50197AB86AB892B09F45DC0F8018081B1
:101F00009181A281B38124E42C9DF0012D9DF00DDF
:101F10001124ED54FB4FAC01BD014D7F21E030E0B9
:101F2000452B462B472B11F020E030E033A322A3B2
:101F300024E42C9DF0012D9DF00D1124ED54FB4F58
:101F40000197A109B10921E030E00297A105B1058F
:101F500010F020E030E035A324A324E42C9DC00140
:101F60002D9D900D1124DC01A752BB4FF801349632
:101F700024E001900D922A95E1F7FC01ED54FB4F0E
:101F8000868D978DA0A1B1A1B7FF10C0B095A09587
:101F9000909581959F4FAF4FBF4F82AF93AFA4AF46
:101FA000B5AF168E178E10A211A20AC012AE13AED4
:101FB00014AE15AE05C0C701B60112DA81E001C04A
:101FC00080E068960FB6F894DEBF0FBECDBFDF91FC
:101FD000CF911F910F91FF90EF90DF90CF90BF9026
:101FE000AF909F908F907F906F905F904F903F90B9
:101FF0002F900895CF92DF92EF92FF92CF93DF93CD
:1020000010923B0524E4269FF001279FF00D112438
:10201000ED54FB4F15A614A620E030E0C12CD12CC6
:10202000DF011A96C1E0D0E0C416D506D4F4ED91D4
:10203000FC911197E20FF31FE280F3801E141F043E
:1020400054F4E480F580F782E682F186E086138618
:102050001286D183C083EFEFCE1ADE0A225F3F4F94
:10206000E3CF24E4269FF001279FF00D1124ED54C7
:10207000FB4F13A612A611AE10AEDF01DE961D9225
:102080001D921D921C92139782E090E0938B828B9D
:10209000DF91CF91FF90EF90DF90CF90089524E4EF
:1020A000269FF001279FF00D1124ED54FB4F138A5A
:1020B000128A2FCB24E4269FF001279FF00D1124D4
:1020C000ED54FB4F8289938981309105C8F08530AA
:1020D000910518F0059769F008958FEF9FEFDC01E7
:1020E000828F938FA48FB58F85E090E0938B828B46
:1020F00008958FEF9FEFDC01828F938FA48FB58FB0
:10210000089524E4249FF001259FF00D1124ED543F
:10211000FB4F2EE0AC01249FC001259F900D1124A0
:102120000284F385E02DE80FF91F81E080933B05E1
:102130008285938591878087408551852681378167
:1021400081E090E04217530711F080E090E0918326
:10215000808308952F923F924F925F926F927F9269
:102160008F929F92AF92BF92CF92DF92EF92FF92A7
:102170000F931F93CF93DF93CDB7DEB7C055D1092F
:102180000FB6F894DEBF0FBECDBF9EAF8DAF4BA78D
:102190005CA76DA77EA76801790184E48C9D80010E
:1021A0008D9D100D1124F801ED54FB4F22853385D0
:1021B00025963FAF2EAF259782899389029709F024
:1021C0005FC186A597A5A0A9B1A9892B8A2B8B2BC6
:1021D00029F484E090E0938B828B52C184899589A5
:1021E0004DAD5EAD4817590709F04AC186A997A9B8
:1021F00098AB8FA71CAE1BAE1FAA18AE19AE1AAEB5
:102200008F01DF019E962796BFAFAEAF2797F2965C
:102210002996FFAFEEAF29979801285C3F4F2B9688
:102220003FAF2EAF2B97A8014A5D5F4F2D965FAF52
:102230004EAF2D97C80182962F969FAF8EAF2F97E6
:102240001A976196BFAFAEAF61972796EEADFFAD1F
:10225000279780819181A281B3812FA938AD49ADA3
:102260005AAD281739074A075B070CF0E8C02996D2
:10227000EEADFFAD2997808191812BAD3CAD280F4C
:10228000391F3CAB2BABD90112960D90BC91A02D00
:102290002196BFAFAEAF2197B695A795B695A795F6
:1022A0002396BFAFAEAF23972B96EEADFFAD2B9726
:1022B00080819181892B09F497C02D96AEADBFAD79
:1022C0002D978D909D90AD90BC902FA438A8F901CA
:1022D0000190F081E02DFAABE9AB1EAA1DAA23966E
:1022E0008EAD9FAD2397ADA9BEA9A817B9070CF075
:1022F0007BC02F96AEADBFAD2F978D919C91892B52
:1023000071F1E9A9FAA94080518062807380A3012C
:102310009201C501B4010E949C2B181664F0D101F2
:102320002D913D914D915C91C501B4010E94522CBB
:1023300018160CF48CC0A3019201C501B4010E94CF
:102340009C2B87FF0CC0F101208131814281538198
:10235000C501B4010E949C2B882309F478C06196C2
:10236000AEADBFAD61978D919C91892B69F1E9A9C3
:10237000FAA94080518062807380A3019201C50157
:10238000B4010E94522C181664F4D1012D913D9194
:102390004D915C91C501B4010E949C2B18160CF064
:1023A00056C0A3019201C501B4010E949C2B81116A
:1023B0000BC0F1012081318142815381C501B401FB
:1023C0000E949C2B87FD43C02DA93EA92F5F3F4F44
:1023D0003EAB2DAB34E0230E311C49A95AA94C5F0A
:1023E0005F4F5AAB49AB7BCFEBA9FCA960817181F0
:1023F00021964EAD5FAD21978FA598A90E94452EDD
:1024000023968EAD9FAD2397880F991F880F991F34
:102410002FA538A9280F391F38AB2FA78FA998AD42
:10242000A9ADBAAD0196A11DB11D8FAB98AFA9AFF3
:10243000BAAFABADBCAD1496BCAFABAF06CF81E0CD
:1024400090E0D801D9969C938E93D89719C084E4D4
:102450008C9DF0018D9DF00D1124ED54FB4F868D68
:10246000978DA0A1B1A1892B8A2B8B2B09F059C282
:1024700084E090E0938B828B86AD97AD93A782A783
:1024800084E48C9DF0018D9DF00D1124ED54FB4FE3
:10249000828993898230910579F482AD93ADA4ADA0
:1024A000B5AD181619061A061B060CF041C2E1E07C
:1024B000F0E0FAABE9AB05C0049709F039C21AAAFB
:1024C00019AA8EE02DAD3EAD829F8001839F100D35
:1024D000112425964EAD5FAD2597040F151FD80129
:1024E00012962D913C9113972115310509F420C2C4
:1024F00016968D919C9117979AA789A7FE01319600
:1025000084E1DF011D928A95E9F7C98ADA8AEB8AAC
:10251000FC8AE9A9FAA9EF2B09F451C084E48C9D47
:10252000F0018D9DF00D1124ED54FB4FDF01DE967F
:102530008D909D90AD90BC9082AD93ADA4ADB5ADA6
:1025400088169906AA06BB06D1F5D80114964D91B6
:102550005C9115971896ED91FC911997349684E04B
:10256000DE01559601900D928A95E1F78D899E893D
:1025700008969E8B8D8BF80160857185860F971F5D
:102580009187808780859185240F351F821B930B4F
:1025900097FD04C0840F951F9187808784E48C9DEC
:1025A000F0018D9DF00D1124EF50FB4F21E0821AB8
:1025B0009108A108B10880829182A282B3829E0113
:1025C0002B5E3F4FAE01475D5F4F64E170E0C80195
:1025D0000E948709282E312C2114310409F08AC168
:1025E0008CE090E0A0E0B0E08D839E83AF83B8875D
:1025F0009E01235E3F4FAE01475D5F4F64E070E098
:10260000C8010E948709282E312C2114310409F0B9
:1026100071C180E190E0A0E0B0E08D839E83AF8344
:10262000B8874D8D5E8DBE01655D7F4F8F8D98A102
:102630000E94452E8BA19CA1009761F06D8D7E8D2F
:102640004BE250E04C0F5D1F640F751F49A15AA16A
:102650000E94452E1DA21EA21FA218A68DAD9EADE2
:10266000880F991F98AF8FAB24E42C9DC0012D9D3E
:10267000900D11248D549B4FDC011496BCAFABAF71
:10268000FC0138962196FFAFEEAF21978DA09EA05A
:10269000AFA0B8A4EBADFCAD80819181A281B381E4
:1026A00088169906AA06BB060CF0CDC02196AEADE1
:1026B000BFAD2197ED91FC91C401880F991F880F40
:1026C000991FE80FF91FA081B1818C9181110AC077
:1026D000BFEF8B1A9B0AAB0ABB0A8DA29EA2AFA2C8
:1026E000B8A6D4CF8330A1F30280F381E02D2FA9C7
:1026F00038ADE20FF31F408151815CAB4BAB452BF2
:1027000039F389859A85AB85BC850196A11DB11DDC
:1027100089879A87AB87BC879E01235E3F4FAE01B6
:10272000475D5F4F64E070E0C8010E94870990E058
:10273000009709F0DEC08D819E81AF81B885049637
:10274000A11DB11D8D839E83AF83B8874D8D5E8D96
:10275000BE016B5D7F4F8F8D98A10E94452E8BA18E
:102760009CA1009761F06D8D7E8DA5E2B0E0AC0F6D
:10277000BD1F6A0F7B1F49A15AA10E94452E1EAAA8
:102780001DAA412C512C3201EBA9FCA98081918119
:10279000A281B381481659066A067B060CF098CFD1
:1027A000EBA9FCA9848195812DA93EA9280F391F89
:1027B00038AB2FA7D90112966D917C9113979E018A
:1027C000235E3F4FAE01475D5F4FC8010E948709FE
:1027D00090E0009709F08DC0EFA5F8A98281938160
:1027E000092E000CAA0BBB0B4D815E816F81788591
:1027F000840F951FA61FB71F8D839E83AF83B88755
:10280000608171814D8D5E8D8F8D98A10E94452EC6
:102810008BA19CA1009761F0AFA5B8A96D917C91A7
:102820002D8D3E8D620F731F49A15AA10E94452E26
:10283000BFEF4B1A5B0A6B0A7B0AEDA9FEA934961F
:10284000FEABEDABA1CF89859A85AB85BC85892B85
:102850008A2B8B2B09F44EC08AE190E0A0E0B0E017
:1028600089839A83AB83BC832DAD3EADC901330F01
:10287000AA0BBB0B8D879E87AF87B88B4D895E896E
:10288000BE016F5F7F4F8F89988D0E94452E8B8D83
:102890009C8D009761F06D897E8941E050E04C0F7E
:1028A0005D1F640F751F498D5A8D0E94452E89A5A5
:1028B0009AA5D80117969C938E93169711961C9201
:1028C0001E92E9A9FAA9EF2B99F184E48C9DF001FD
:1028D0008D9DF00D1124EF50FB4F80819181A281DD
:1028E000B3810196A11DB11D80839183A283B3831F
:1028F0001FC01C0129A93AA9232BD1F42328C1F018
:1029000084E48C9DF0018D9DF00D1124ED54FB4F5E
:1029100081E090E095A784A785E090E0938B828B7F
:1029200007C083E090E0938B828B81E090E0A6CD9E
:10293000C05BDF4F0FB6F894DEBF0FBECDBFDF9197
:10294000CF911F910F91FF90EF90DF90CF90BF90AC
:10295000AF909F908F907F906F905F904F903F903F
:102960002F900895CF92DF92EF92FF920F931F93D3
:1029700024E4269FF001279FF00D1124ED54FB4F16
:10298000228933892115310509F453C06B017C017B
:1029900021303105B9F482A593A59C012F5F3F4FEB
:1029A00033A722A7092E000CAA0BBB0B028D138D97
:1029B000248D358D80179107A207B307D1F5C70184
:1029C000B60118DB84E48C9DF0018D9DF00D11247F
:1029D000ED54FB4F82899389039759F582A593A5FE
:1029E0009C012F5F3F4F33A722A7092E000CAA0B93
:1029F000BB0B468D578D60A171A184179507A60763
:102A0000B707BCF086AD97AD93A782A784E090E0AE
:102A1000938B828B82AD93ADA4ADB5AD181619061C
:102A20001A061B0634F4EE5BFF4F81E090E09183C1
:102A300080831F910F91FF90EF90DF90CF900895CA
:102A400024E4269FF001279FF00D1124ED54FB4F45
:102A5000828993890497B1F482A593A5019693A7DF
:102A600082A7092E000CAA0BBB0B46895789608DE3
:102A7000718D84179507A607B70721F485E090E0CC
:102A8000938B828B08952F923F924F925F926F9219
:102A90007F928F929F92AF92BF92CF92DF92EF92EE
:102AA000FF920F931F93CF93DF93CDB7DEB72E978F
:102AB0000FB6F894DEBF0FBECDBF49835A836B8338
:102AC0007C834901442E552E24E4249DF001259D4C
:102AD000F00D1124ED54FB4F2288338891012450CE
:102AE00031092230310508F0DFC0DC0111961C925B
:102AF0001E9213961C921E92129715861486A12C74
:102B0000B12C60E070E09F01265F3F4F38872F8334
:102B10007F013CE0E30EF11CDF015096BA87A987E4
:102B20009F01225F3F4F3C872B87681579050CF08A
:102B30006FC0EF81F885A081B1819D012A0D3B1DF9
:102B40003E872D87D9012D913C911197232B09F0B8
:102B500059C018960D911C9119971296ED91FC9100
:102B60001397FE83ED8316962D913C911797D7010D
:102B70004D915C91DA01E3E0AA0FBB1FEA95E1F702
:102B8000E985FA85C080D180FD01EC0DFD1D440F63
:102B9000551FAB85BC85CD90DC904C0D5D1DDA01D9
:102BA0006D937C93D7014D915C9111974F5F5F4F6F
:102BB0004D935C9313830283AD85BE851B963C9336
:102BC0002E931A970217130748F4201B310B3183F9
:102BD0002083158214821782168214C0AD85BE85AB
:102BE0001496CD90DC9015974D815E814C0D5D1D46
:102BF000401B510B518340832C193D09358324839D
:102C0000D782C6826F5F7F4FBEE0AB0EB11C8DCF07
:102C100024E4249D8001259D100D11240D541B4F8B
:102C2000F80124853585DC0111963C932E9340896B
:102C3000518913965C934E93129746855785159646
:102C40005C934E931497232BB1F5B5E02B1631040A
:102C500091F510923B05828D938DA48DB58DAE01BB
:102C60004F5F5F4F64E070E08F3F9F4FAF4FBF4FAC
:102C700059F480E290E00E94552269817A818B812B
:102C80009C81A4010CDA17C08FE190E00E945522CC
:102C9000D8019B961C921E929A9781E090E05396E1
:102CA0009C938E93529707C015861486FC0111825F
:102CB0001082138212822E960FB6F894DEBF0FBEDA
:102CC000CDBFDF91CF911F910F91FF90EF90DF90DB
:102CD000CF90BF90AF909F908F907F906F905F90BC
:102CE0004F903F902F900895EF92FF920F931F9374
:102CF000CF93DF937C018B01EA010E943C23811179
:102D000021C08091820290918302049711F183E0A7
:102D100090E090938302809382021BC0888181118E
:102D2000F0CF28ED38EB45E050E060E070E0CB01FB
:102D30000E94C525AE01B801C7010E94D325C80174
:102D40000E949E2580913C0590913D05892B31F391
:102D5000D8CFDF91CF911F910F91FF90EF90089501
:102D6000CF93DF932091820230918302243031058A
:102D700041F0EB010E94D325CE01DF91CF910C945D
:102D80009E25DF91CF9108950C94B3290C94A82926
:102D90000C9496290C94AE250C943929089560E082
:102DA00070E080E090E00C9417230895AF92BF92FA
:102DB000CF92DF92EF92FF920F931F93CF93DF9307
:102DC0001F921F92CDB7DEB75C0169017A018B01BA
:102DD00080E090E0C114D104E104F104F1F0C114E9
:102DE000D10421E0E206F10410F4A60102C04FEF85
:102DF0005FEF9E012F5F3F4FB801C5010E94442A3B
:102E00008F3F2FEF920749F029813A81C21AD30AE6
:102E1000E108F108020F131FDDCF0F900F90DF9133
:102E2000CF911F910F91FF90EF90DF90CF90BF90C7
:102E3000AF900895089508951F920F920FB60F92C4
:102E400011240BB60F922F933F934F935F936F9381
:102E50007F938F939F93AF93BF93EF93FF93E091F3
:102E60008802F09189021995FF91EF91BF91AF917E
:102E70009F918F917F916F915F914F913F912F9192
:102E80000F900BBE0F900FBE0F901F9018951F92C2
:102E90000F920FB60F9211240BB60F922F933F9300
:102EA0004F935F936F937F938F939F93AF93BF9352
:102EB000EF93FF93E0918A02F0918B021995FF91B5
:102EC000EF91BF91AF919F918F917F916F915F91A2
:102ED0004F913F912F910F900BBE0F900FBE0F900F
:102EE0001F9018951F920F920FB60F9211240BB6D8
:102EF0000F922F933F934F935F936F937F938F9393
:102F00009F93AF93BF93EF93FF93E0918C02F09167
:102F10008D021995FF91EF91BF91AF919F918F9184
:102F20007F916F915F914F913F912F910F900BBEC9
:102F30000F900FBE0F901F9018951F920F920FB613
:102F40000F9211240BB60F922F933F934F935F93E1
:102F50006F937F938F939F93AF93BF93EF93FF9361
:102F6000E0918E02F0918F021995FF91EF91BF9140
:102F7000AF919F918F917F916F915F914F913F9111
:102F80002F910F900BBE0F900FBE0F901F901895B2
:102F90001F920F920FB60F9211240BB60F922F9320
:102FA0003F934F935F936F937F938F939F93AF93D1
:102FB000BF93EF93FF93E0918402F09185021995FE
:102FC000FF91EF91BF91AF919F918F917F916F9101
:102FD0005F914F913F912F910F900BBE0F900FBEBD
:102FE0000F901F9018951F920F920FB60F921124F9
:102FF0000BB60F922F933F934F935F936F937F93F3
:103000008F939F93AF93BF93EF93FF93E0918602CB
:10301000F09187021995FF91EF91BF91AF919F9128
:103020008F917F916F915F914F913F912F910F9071
:103030000BBE0F900FBE0F901F9018951F920F920E
:103040000FB60F9211240BB60F922F933F934F930D
:103050005F936F937F938F939F93AF93BF93EF9300
:10306000FF93E0919002F09191021995FF91EF91F9
:10307000BF91AF919F918F917F916F915F914F9190
:103080003F912F910F900BBE0F900FBE0F901F908E
:1030900018951F920F920FB60F9211240BB60F9234
:1030A0002F933F934F935F936F937F938F939F9350
:1030B000AF93BF93EF93FF93E0919202F09193024D
:1030C0001995FF91EF91BF91AF919F918F917F9152
:1030D0006F915F914F913F912F910F900BBE0F9089
:1030E0000FBE0F901F9018951F920F920FB60F9260
:1030F00011242F933F938F939F93AF93BF9380910E
:103100003F0590914005A0914105B0914205309155
:103110003E0523E0230F2D3720F40196A11DB11D9C
:1031200005C026E8230F0296A11DB11D20933E0580
:1031300080933F0590934005A0934105B0934205CD
:103140008091430590914405A0914505B0914605B5
:103150000196A11DB11D8093430590934405A09352
:103160004505B0934605BF91AF919F918F913F91D7
:103170002F910F900FBE0F901F9018952FB7F894B6
:1031800060913F0570914005809141059091420505
:103190002FBF08953FB7F89480914305909144055F
:1031A000A0914505B091460526B5A89B05C02F3FC7
:1031B00019F00196A11DB11D3FBFBA2FA92F982F5D
:1031C0008827820F911DA11DB11DBC01CD0142E0D8
:1031D000660F771F881F991F4A95D1F708958F9220
:1031E0009F92AF92BF92CF92DF92EF92FF926B01CC
:1031F0007C01D0DF4B015C01C114D104E104F10476
:10320000F1F018DEC7DFDC01CB0188199909AA09A2
:10321000BB09883E9340A105B10570F321E0C21AB5
:10322000D108E108F10888EE880E83E0981EA11C01
:10323000B11CC114D104E104F10421F7DDCFFF90EA
:10324000EF90DF90CF90BF90AF909F908F900895B8
:10325000789484B5826084BD84B5816084BD85B571
:10326000826085BD85B5816085BDEEE6F0E0808138
:1032700081608083E1E8F0E0108280818260808359
:10328000808181608083E0E8F0E0808181608083DC
:10329000E1EBF0E0808184608083E0EBF0E080810E
:1032A00081608083E1E9F0E08081826080838081B9
:1032B00081608083E0E9F0E0808181608083E1EAE1
:1032C000F0E0808182608083808181608083E0EA99
:1032D000F0E0808181608083E1E2F1E080818260C2
:1032E0008083808181608083E0E2F1E08081816081
:1032F0008083EAE7F0E0808184608083808182605F
:103300008083808181608083808180688083109247
:10331000C100089590E0FC013197E231F10508F019
:103320004EC08827EE58FF4F8F4F0C94EE2C8091A3
:1033300080008F7703C0809180008F7D8093800014
:10334000089580918000877FF9CF84B58F7702C080
:1033500084B58F7D84BD08958091B0008F7703C0C0
:103360008091B0008F7D8093B0000895809190008F
:103370008F7707C0809190008F7D03C0809190006F
:10338000877F8093900008958091A0008F7707C079
:103390008091A0008F7D03C08091A000877F8093E3
:1033A000A0000895809120018F7707C080912001AF
:1033B0008F7D03C080912001877F80932001089535
:1033C000CF93DF9390E0FC01E259FE4F2491FC0182
:1033D000EC54FE4F8491882361F190E0880F991F8F
:1033E000FC01EC5EFD4FC591D491FC01E650FE4F0F
:1033F000A591B491611109C09FB7F8948881209577
:1034000082238883EC912E230BC0623061F49FB736
:10341000F8948881322F309583238883EC912E2B6A
:103420002C939FBF06C08FB7F894E8812E2B28837A
:103430008FBFDF91CF9108951F93CF93DF93282FF4
:1034400030E0F901E85DFE4F8491F901E259FE4F49
:10345000D491F901EC54FE4FC491CC23B9F0162F4E
:10346000811158DFEC2FF0E0EE0FFF1FE650FE4F0A
:10347000A591B4919FB7F894111104C08C91D09587
:10348000D82302C0EC91DE2BDC939FBFDF91CF915C
:103490001F910895FC01918D228D892F90E0805C11
:1034A0009F4F821B91098F7399270895FC01918D7D
:1034B000828D981731F0828DE80FF11D858D90E097
:1034C00008958FEF9FEF0895FC01918D828D9817DD
:1034D00061F0828DDF01A80FB11D5D968C91928DF8
:1034E0009F5F9F73928F90E008958FEF9FEF0895F5
:1034F000FC01538D448D252F30E0842F90E0821BFA
:10350000930B541710F0CF96089501970895FC017E
:10351000848DDF01A80FB11DA35ABF4F2C91848D5C
:1035200090E001968F739927848FA689B7892C9391
:10353000A089B1898C91837080648C93938D848DE4
:10354000981306C00288F389E02D80818F7D8083E7
:103550000895EF92FF920F931F93CF93DF93EC01A7
:1035600081E0888F9B8D8C8D981305C0E889F9893F
:10357000808185FD25C0F62E0B8D10E00F5F1F4F5B
:103580000F731127E02E8C8DE8120BC00FB607FCCD
:10359000FACFE889F989808185FFF5CFCE01B7DFC1
:1035A000F2CF8B8DFE01E80FF11DE35AFF4FF08241
:1035B0009FB7F8940B8FEA89FB89808180620AC0EB
:1035C0009FB7F894EE89FF896083E889F989808143
:1035D0008370806480839FBF81E090E0DF91CF9112
:1035E0001F910F91FF90EF900895CF93DF93EC011F
:1035F000888D8823C1F0EA89FB89808185FD05C01B
:10360000A889B9898C9186FD0EC00FB607FCF5CF4D
:10361000808185FFF2CFA889B9898C9185FFEDCF94
:10362000CE0175DFE8CFDF91CF910895CF92DF9281
:10363000EF92FF921F93CF93DF93EC016A017B011E
:10364000122FE889F98982E080834115514E610586
:103650007105B1F060E079E08DE390E0A70196019B
:103660000E94CC2CDA01C9010197A109B109B695D4
:10367000A795979587959C01211580E13807A8F0BB
:10368000E889F989108260E874E88EE190E0A7018A
:1036900096010E94CC2CDA01C9010197A109B10958
:1036A000B695A795979587959C01EC85FD85308308
:1036B000EE85FF852083188EEC89FD891083EA89C9
:1036C000FB89808180618083EA89FB8980818860B1
:1036D0008083EA89FB89808180688083EA89FB890D
:1036E00080818F7D8083DF91CF911F91FF90EF903C
:1036F000DF90CF9008951F920F920FB60F92112472
:103700000BB60F922F938F939F93EF93FF93E091BC
:103710005705F09158058081E0915D05F0915E05B7
:1037200082FD12C09081809160058F5F8F73209120
:103730006105821751F0E0916005F0E0E95BFA4F16
:10374000958F8093600501C08081FF91EF919F91DB
:103750008F912F910F900BBE0F900FBE0F901F9067
:1037600018951F920F920FB60F9211240BB60F925D
:103770002F933F934F935F936F937F938F939F9379
:10378000AF93BF93EF93FF9387E495E0C0DEFF9183
:10379000EF91BF91AF919F918F917F916F915F91C9
:1037A0004F913F912F910F900BBE0F900FBE0F9036
:1037B0001F901895E7E4F5E01382128288EE93E0FB
:1037C000A0E0B0E084839583A683B7838FE593E080
:1037D0009183808385EC90E09587848784EC90E0EA
:1037E0009787868780EC90E0918B808B81EC90E0CE
:1037F000938B828B82EC90E0958B848B86EC90E0AF
:10380000978B868B118E128E138E148E08951F92B5
:103810000F920FB60F9211240BB60F922F938F9326
:103820009F93EF93FF93E091F405F091F50580816C
:10383000E091FA05F091FB0582FD12C09081809124
:10384000FD058F5F8F732091FE05821751F0E09187
:10385000FD05F0E0EC51FA4F958F8093FD0501C016
:103860008081FF91EF919F918F912F910F900BBECF
:103870000F900FBE0F901F9018951F920F920FB6CA
:103880000F9211240BB60F922F933F934F935F9398
:103890006F937F938F939F93AF93BF93EF93FF9318
:1038A00084EE95E034DEFF91EF91BF91AF919F914F
:1038B0008F917F916F915F914F913F912F910F90D9
:1038C0000BBE0F900FBE0F901F901895E4EEF5E021
:1038D0001382128288EE93E0A0E0B0E084839583A7
:1038E000A683B7838FE593E0918380838DEC90E08E
:1038F000958784878CEC90E09787868788EC90E0AA
:10390000918B808B89EC90E0938B828B8AEC90E09A
:10391000958B848B8EEC90E0978B868B118E128E1C
:10392000138E148E08951F920F920FB60F921124CA
:103930000BB60F922F938F939F93EF93FF93E0918A
:103940009106F09192068081E0919706F091980699
:1039500082FD12C0908180919A068F5F8F732091B3
:103960009B06821751F0E0919A06F0E0EF57F94F6D
:10397000958F80939A0601C08081FF91EF919F916E
:103980008F912F910F900BBE0F900FBE0F901F9035
:1039900018951F920F920FB60F9211240BB60F922B
:1039A0002F933F934F935F936F937F938F939F9347
:1039B000AF93BF93EF93FF9381E896E0A8DDFF916B
:1039C000EF91BF91AF919F918F917F916F915F9197
:1039D0004F913F912F910F900BBE0F900FBE0F9004
:1039E0001F901895E1E8F6E01382128288EE93E0CA
:1039F000A0E0B0E084839583A683B7838FE593E04E
:103A00009183808385ED90E09587848784ED90E0B5
:103A10009787868780ED90E0918B808B81ED90E099
:103A2000938B828B82ED90E0958B848B86ED90E07A
:103A3000978B868B118E128E138E148E08951F9283
:103A40000F920FB60F9211240BB60F922F938F93F4
:103A50009F93EF93FF93E0912E07F0912F078081C2
:103A6000E0913407F091350782FD12C0908180917A
:103A700037078F5F8F7320913807821751F0E091DD
:103A80003707F0E0E25EF84F958F8093370701C06B
:103A90008081FF91EF919F918F912F910F900BBE9D
:103AA0000F900FBE0F901F9018951F920F920FB698
:103AB0000F9211240BB60F922F933F934F935F9366
:103AC0006F937F938F939F93AF93BF93EF93FF93E6
:103AD0008EE197E01CDDFF91EF91BF91AF919F9137
:103AE0008F917F916F915F914F913F912F910F90A7
:103AF0000BBE0F900FBE0F901F901895EEE1F7E0F0
:103B00001382128288EE93E0A0E0B0E08483958374
:103B1000A683B7838FE593E09183808385E391E06B
:103B20009587848784E391E09787868780E391E097
:103B3000918B808B81E391E0938B828B82E391E088
:103B4000958B848B86E391E0978B868B118E128EFA
:103B5000138E148E0895CF92DF92EF92FF920F93FF
:103B60001F93CF93DF936C017A018B01C0E0D0E00B
:103B7000CE15DF0581F0D8016D918D01D601ED9153
:103B8000FC910190F081E02DC6011995892B11F06F
:103B90002196EECF7E01C701DF91CF911F910F914A
:103BA000FF90EF90DF90CF9008958230A9F028F435
:103BB000882349F0813051F00895843021F1E8F0F4
:103BC000853039F1089510926E00089580916F004C
:103BD0008D7F80936F000895809170008D7F80931A
:103BE000700081E08093B0008091B100887F846094
:103BF0008093B1001092B3000895809171008D7F81
:103C0000809371000895809172008D7F809372007F
:103C10000895809173008D7F809373000895CF93F2
:103C2000C82F80919402C81307C0EEE2F2E084919D
:103C30009FEF9093940201C08FEFB7DF60E08C2F6D
:103C4000CF91FACB1F920F920FB60F9211240BB6A1
:103C50000F922F933F934F935F936F937F938F9325
:103C60009F93AF93BF93EF93FF938091BE07909183
:103C7000BF07A091C007B091C107892B8A2B8B2B5E
:103C800051F19091BB07E091BC07F091BD07808195
:103C9000892780838091BE079091BF07A091C007BC
:103CA000B091C107181619061A061B06BCF48091BC
:103CB000BE079091BF07A091C007B091C1070197BF
:103CC000A109B1098093BE079093BF07A093C007D5
:103CD000B093C10703C080919402A1DFFF91EF91DF
:103CE000BF91AF919F918F917F916F915F914F9114
:103CF0003F912F910F900BBE0F900FBE0F901F9012
:103D0000189540E052EC61E070E080E090E006D071
:103D100061E08DE055DB60E08DE08ECB8130910578
:103D200071F01CF4892B39F008958230910559F017
:103D3000039769F0089526E087E495E00BC026E03C
:103D400084EE95E007C026E081E896E003C026E017
:103D50008EE197E06BCC1F920F920FB60F92112459
:103D60000BB60F922F933F934F935F936F937F9375
:103D70008F939F93AF93BF93EF93FF938FE89DEF44
:103D800090932501809324018091EE079091EF0795
:103D9000019719F461E08DE04FDB0E94842AFF91C6
:103DA000EF91BF91AF919F918F917F916F915F91B3
:103DB0004F913F912F910F900BBE0F900FBE0F9020
:103DC0001F9018958FE89DEF909325018093240113
:103DD000A3E7B0E08C918E7F8C93E0E2F1E08081EC
:103DE0008C7F8083E1E2F1E08081877E8083808127
:103DF0008460808380818C7F80838C9181608C93B0
:103E0000089581E008956F927F928F929F92AF9272
:103E1000BF92CF92DF92EF92FF920F931F93CF93B7
:103E2000DF933C017B015A0101E010E00E151F05F4
:103E300064F568018FEFC81AD80AE801CC0FDD1FBE
:103E4000CA0DDB1D8880998081149104E1F06DE634
:103E500073E0C4010E94552E892B19F4198218822F
:103E600012C060E773E0C4010E94552E892B59F4FB
:103E7000EC14FD0441F06801E2E0CE0ED11C198281
:103E800018821B821A828601D1CF81E0F3018083E0
:103E9000B501C7010E94DE29F3019283818380E08E
:103EA00090E0DF91CF911F910F91FF90EF90DF9005
:103EB000CF90BF90AF909F908F907F906F9008951C
:103EC00082EC97E0089580E008950F931F93CF93BD
:103ED000DF938B01BA01E901198218829801012E42
:103EE000000C440B550BFC01818192810E94D61677
:103EF000019621F01983088380E001C081E0DF9101
:103F0000CF911F910F9108950F931F93CF93DF933C
:103F10001F921F92CDB7DEB7FB018A01B9019E0146
:103F20002F5F3F4FAF01FC01818192810E94F529F3
:103F3000019639F089819A81F8019183808380E02C
:103F400001C081E00F900F90DF91CF911F910F91F1
:103F50000895FC01808108950895089581E0FB0192
:103F6000808380E0089508951092EA070895FC0187
:103F7000818192810C94D529CF93DF93CDB7DEB7A1
:103F80002A970FB6F894DEBF0FBECDBFAC01CB01B0
:103F900060E070E049835A836B837C83092E000CB8
:103FA000AA0BBB0B8D839E83AF83B8879E01275FCF
:103FB0003F4FAE014F5F5F4F68E070E08091D907DF
:103FC0009091DA0782DF811108C081E029853A8566
:103FD0002830310519F480E001C081E02A960FB63F
:103FE000F894DEBF0FBECDBFDF91CF9108950F9340
:103FF0001F93CF93DF931F921F92CDB7DEB78B0134
:104000009E012F5F3F4FAC018091D9079091DA0755
:104010005CDF811108C081E029813A8120173107D6
:1040200019F480E001C081E00F900F90DF91CF91F3
:104030001F910F910895CF93DF93EC011092DD074C
:104040001092DC071092E9071092E807AC0160E0DB
:1040500070E0CB010E944F10AE0161E070E080E0A3
:1040600090E00E944F108091D9079091DA07DF917C
:10407000CF9179CF4F925F926F927F928F929F9262
:10408000AF92BF92CF92DF92EF92FF920F931F9366
:10409000CF93DF931F921F92CDB7DEB79C016C01C7
:1040A00097FF03C087E0C80ED11C43E0D594C794A6
:1040B0004A95E1F7C90168E070E00E94B92C5C0103
:1040C00089010E5F1F4F8091D7079091D807801705
:1040D00091070CF0AEC08091D5079091D60700975C
:1040E00031F00E94BC2D1092D8071092D707C8015A
:1040F0000E94242D9093D6078093D507892B19F41D
:1041000000E010E033C01093D8070093D70791C0A8
:1041100089819A81E80EF91E8AE0E816F10409F017
:1041200078C149E050E060E070E08EED97E00E94D9
:10413000762A6091E8077091E907882309F49BC10A
:104140008091E60790E08617970781F4BC018EEE18
:1041500090E012DF8091E8079091E9070196992796
:104160009093E9078093E8070F5F1F4F0C151D051B
:104170000CF47BC1AB2809F460C1C12CD12C7601B1
:1041800000E010E098012252384FAE014F5F5F4FC0
:1041900061E070E08091D9079091DA07B5DE811176
:1041A0004CC18FEFC81AD80AE80AF80A80E9C81685
:1041B0008FE5D80681E0E806F1043CF06091E8075D
:1041C0007091E9078DEE90E02DC089819A81080FEA
:1041D000191F0A30110541F549E050E060E070E038
:1041E0008EED97E00E94762A6091E8077091E907CA
:1041F0008823B1F08091E60790E08617970709F0D1
:104200001CC1BC018EEE90E0B7DE8091E807909172
:10421000E907019699279093E9078093E8070DC174
:104220008FEE90E0A9DEA9CF0A3011050CF4AACFD9
:1042300004C100E010E00C151D050CF078C0412C05
:10424000512C3201E12CF12C480193E0880C991C8F
:104250009A95E1F72091D5073091D607C701880DCF
:10426000991D280F391FAE014F5F5F4F61E070E06D
:104270008091D9079091DA0747DE8111DEC08FEF78
:10428000481A580A680A780A80E948168FE55806DD
:1042900081E0680671043CF06091E8077091E907DD
:1042A0008DEE90E037C089819A81E80EF91E8AE090
:1042B000E816F104B1F549E050E0B4018091D5076A
:1042C0009091D6070E94762A6091E8077091E907DD
:1042D0008823F1F08091D5079091D607FC01E80D75
:1042E000F91D808590E08617970709F0A4CFBC01DF
:1042F0008EEE90E041DE8091E8079091E90701960B
:1043000099279093E9078093E8070F5F1F4F93CF9A
:104310008FEE90E031DE412C512C3201E12CF12C5A
:1043200099CF8AE0E816F1040CF494CF84CFA1145D
:10433000B10409F4A3C0412C512C3201E12CF12C21
:1043400097012252384FAE014F5F5F4F61E070E03E
:104350008091D9079091DA07D7DD81116EC08FEF78
:10436000481A580A680A780A80E948168FE55806FC
:1043700081E0680671043CF06091E8077091E907FC
:104380008DEE90E03EC089819A81E80EF91E8AE0A8
:10439000E816F104C1F549E050E060E070E08EED10
:1043A00097E00E94762A6091E8077091E9078823D8
:1043B00031F18091E60790E08617970709F05EC01B
:1043C000BC018EEE90E0D8DD83E0000F111F8A95CE
:1043D000E1F78091D5079091D607A5016EED77E0C2
:1043E000800F911F0E94452E8091E8079091E90768
:1043F000019699279093E9078093E8073FC08FEED5
:1044000090E0BADD98CF8AE0E816F1040CF498CF7A
:1044100035C08AE0E816F1040CF0A8CE97012252CC
:10442000384FAE014F5F5F4F61E070E08091D90778
:104430009091DA0769DD882319F080E090E022C0CE
:104440008FEF481A580A680A780A80E948168FE5FB
:10445000580681E0680671040CF45ACE6091E807B2
:104460007091E9078DEE90E087DD412C512C3201EF
:10447000E12CF12CD3CF8FEE90E0F6CF8091D507D1
:104480009091D6070F900F90DF91CF911F910F91D0
:10449000FF90EF90DF90CF90BF90AF909F908F9064
:1044A0007F906F905F904F900895CF92DF92EF9240
:1044B000FF920F931F93CF93DF931F92CDB7DEB779
:1044C0006C017B018A01452B39F0AB0160E070E0A3
:1044D000C8010E94722A8983B701C6014DDD81118E
:1044E0000DC00115110551F0B701C80180DD811122
:1044F00005C061E070E0CE01019679DD0F90DF919B
:10450000CF911F910F91FF90EF90DF90CF90089582
:10451000CF92DF92EF92FF92CF93DF93CDB7DEB7CA
:1045200028970FB6F894DEBF0FBECDBF6B01E12C0C
:10453000F12CC982DA82EB82FC822D833E834F8389
:104540005887AE014F5F5F4F68E070E0AEDF28969E
:104550000FB6F894DEBF0FBECDBFDF91CF91FF90B5
:10456000EF90DF90CF9008958F929F92AF92BF927D
:10457000CF92DF92EF92FF920F931F93CF93DF932F
:10458000EC017B01CA01690175DD009749F42FEF49
:104590003FEFA90161E070E0CE01BADF81E03AC0EF
:1045A000FC0180809180A280B380CB31D10561F085
:1045B000CC31D105E9F4BC016C5F7F4FA5019401BA
:1045C000C7010E94B80E09C0AC014C5F5F4F950156
:1045D0008401B601C7010E94AB0CF82E882341F07C
:1045E000A501940161E070E0CE0192DF8F2D12C031
:1045F000A501940160E070E0CE01DF91CF911F91A1
:104600000F91FF90EF90DF90CF90BF90AF909F9071
:104610008F907ECFDF91CF911F910F91FF90EF9000
:10462000DF90CF90BF90AF909F908F9008950F93A1
:104630001F93CF93DF93EC018B0142DC9093DA0759
:104640008093D907009739F0A801BE01DCDBEC01AB
:10465000892B19F40BC0CCE7D3E08091D907909156
:10466000DA077ADC1092DA071092D907CE01DF91CF
:10467000CF911F910F9108958091D9079091DA07FA
:1046800068CC2F923F924F925F926F927F928F925F
:104690009F92AF92BF92CF92DF92EF92FF920F93D1
:1046A0001F93CF93DF93CDB7DEB76B970FB6F89418
:1046B000DEBF0FBECDBF2091DD07222309F425C246
:1046C0005D8B4C8B688B798B8A8B9B8B9A01AB01B2
:1046D000BC01CE0101967C010E94431510E038E038
:1046E000232E312CEA8EFB8E89819A8118161906A9
:1046F0000CF006C21F861E861D861C8689819A8143
:10470000AC85BD85A817B9070CF0EFC1EB81FC8122
:10471000AE85BF85EA0FFB1F208131813093D4071E
:104720002093D30784819581428153815093D2078E
:104730004093D107468157815093D0074093CF07CC
:10474000820F931F9C01990F440B550B2E8B3F8BAF
:10475000488F598FC12CD12C76012E893F89488DE5
:10476000598DC216D306E406F50608F0A2C11F82D1
:104770006091D3077091D4078B01072E000C220B98
:10478000330BD701C6010496A11DB11D80179107F7
:10479000A207B30728F4E091D107F091D2070AC02D
:1047A000E4E0F0E0E61BF70BEC0DFD1D8091CF0778
:1047B0009091D007E80FF91F4080512C612C712C8B
:1047C000D701C6010596A11DB11D80179107A2074B
:1047D000B30728F4E091D107F091D2070AC0E5E0D1
:1047E000F0E0E61BF70BEC0DFD1D8091CF079091DB
:1047F000D007E80FF91F8081582AD701C601069615
:10480000A11DB11D80179107A207B30728F4E091FD
:10481000D107F091D2070AC0E6E0F0E0E61BF70B03
:10482000EC0DFD1D8091CF079091D007E80FF91F87
:104830008081682AD701C6010796A11DB11D801786
:104840009107A207B30728F4E091D107F091D207AE
:104850000AC0E7E0F0E0E61BF70BEC0DFD1D8091D0
:10486000CF079091D007E80FF91F8081782A460181
:10487000570148E0840E911CA11CB11C08151905B4
:104880002A053B0508F4B4C0C016D106E206F306BB
:1048900038F48091D1079091D2078C0D9D1D09C0ED
:1048A000C601861B970B2091CF073091D007820F4E
:1048B000931F68E070E09BDBE091D307F091D40791
:1048C0009F010F2E000C440B550BD301C201880D24
:1048D000991DAA1DBB1D281739074A075B07C8F099
:1048E00082169306A406B50638F42091D1073091BC
:1048F000D207C601089609C0C1018E1B9F0B8C0D03
:104900009D1D2091CF073091D007820F931FB201D8
:1049100099C08601BF01685071096C197D09821622
:104920009306A406B50638F42091D1073091D2073A
:10493000C601089609C0C1018E1B9F0B8C0D9D1DE1
:104940002091CF073091D007820F931F50DB8091C9
:10495000D3079091D407B101681B790B600F711FC9
:10496000640D751D8091CF079091D00740DB809139
:10497000D3079091D407AC0148505109FA01E01BCC
:10498000F10BAC01092E000C660B770B8416950613
:10499000A606B70638F42091D1073091D207C80196
:1049A00008960AC09101281B390BC901800F911F7D
:1049B0002091CF073091D007820F931FAF0160E0A5
:1049C00070E090D58F832091D3073091D407A10157
:1049D000421B530B9A01200F311F240D351D40E05F
:1049E00050E0682F8091CF079091D00761D550C0DB
:1049F000C016D106E206F306C8F46C197D09809151
:104A0000D1079091D2078C0D9D1DF1DA8091D307CB
:104A10009091D407B101681B790B6C0D7D1D640D5D
:104A2000751D8091CF079091D0070CC0C601861BE1
:104A3000970B2091CF073091D007B201685F7F4F6D
:104A4000820F931FD4DA8091D3079091D407AC01E1
:104A5000092E000C660B770B84169506A606B70682
:104A600038F42091D1073091D207C60108960AC0C8
:104A7000D101A81BB90BCD018C0D9D1D2091CF0735
:104A80003091D007820F931FA20160E070E02AD519
:104A90008F8361E070E0CE010796A9DA182FB8E0A5
:104AA0004B0E511C611C711CC40CD51CE61CF71C60
:104AB00054CE8C859D85880F991FED81FE81E80F6E
:104AC000F91F488959896A897B89808191810E946F
:104AD00081104C855D854F5F5F4F5D874C878E856C
:104AE0009F8508969F878E8709CE2C893D894889A6
:104AF00059896A897B898A8D9B8D0E944315F4CDE3
:104B0000112319F08C899D8996DA6B960FB6F8946B
:104B1000DEBF0FBECDBFDF91CF911F910F91FF90F0
:104B2000EF90DF90CF90BF90AF909F908F907F904D
:104B30006F905F904F903F902F900895CF93DF93A9
:104B4000EC01AC0160E070E0CB019BDDAE0161E007
:104B500070E080E090E0DF91CF9193CDCF93809192
:104B6000D9079091DA07AFD9C82F81110BC060E047
:104B700070E0CB010E945D0B61E070E080E090E0AE
:104B80000E945D0B8C2FCF9108950F931F93890185
:104B90009A01AB01BC018091D9079091DA07DDD968
:104BA0001F910F9108953F924F925F926F927F9263
:104BB0008F929F92AF92BF92CF92DF92EF92FF922D
:104BC0000F931F93CF93DF93CDB7DEB763970FB6E5
:104BD000F894DEBF0FBECDBF6C018B015A018091EE
:104BE000DD07882331F08091DD07882309F429C38C
:104BF0000AC06DED77E08091D9079091DA07AED9C0
:104C000081111FC3F0CF8091DC071A82198288239B
:104C100009F46CC0E0E94E2EEFE55E2E6624639445
:104C2000712CE12CF12C97012B53384FAE014F5FC3
:104C30005F4F61E070E08091D9079091DA0764D905
:104C4000982E81114FC089819A81E80EF91EE114D6
:104C5000F10409F447C081E0481A5108610871085D
:104C600039F46091E8077091E9078DEE90E031C06A
:104C7000AAE0EA16F10489F549E050E060E070E04E
:104C800085EC97E033D46091E8077091E9078823B9
:104C9000F1F08091CD0790E086179707D9F4BC0119
:104CA0008EEE90E069D988E0E5ECF7E0DE01199638
:104CB00001900D928A95E1F78091E8079091E907BC
:104CC000019699279093E9078093E8070BC08FEE30
:104CD00090E052D91A82198205C0BAE0EB16F104AD
:104CE0000CF4A1CF81E029813A8125C0E12CF12C7F
:104CF00078E0672E712C29E030E02C0F3D1F2E0D3F
:104D00003F1DAE014F5F5F4FB3016E197F09809168
:104D1000D9079091DA07F8D8982E29813A81811124
:104D200009C0E20EF31EE114F10421F0E8E0EE16F2
:104D3000F1040CF381E0121613060CF080E09110E0
:104D40007DC2882309F47DC28091DC07811104C0F3
:104D500019861A861B861C8689859A85AB85BC8533
:104D60008031910508F06DC2FC018827EC57FF4F98
:104D70008F4F34C6D6011696ED91FC91179780811E
:104D80009181A281B38189839A83AB83BC83AE0175
:104D90004F5F5F4F64E070E085E190E04CC18D852E
:104DA0009E8568D9009731F42FEF3FEFA90161E0AC
:104DB00070E00EC0FC01C080D180E280F380A801C9
:104DC000C701B6010E94FA0FA701960160E070E0EA
:104DD0008DE190E031C24D855E859801B6018BE191
:104DE00090E007C04D855E852FEF3FEFB6018CE167
:104DF00090E0BADB26C2D6011496ED91FC9115978E
:104E000000811181F80182809380A080B18060E1EF
:104E1000462E512C612C712C49825A826B827C82E5
:104E200088E090E0A0E0B0E08D839E83AF83B887F8
:104E30009E012F5E3F4FAE014F5F5F4F68E070E015
:104E40008091D9079091DA0740D8882319F000E0C3
:104E500010E0BAC089899A890897C9F7D801ED90FE
:104E6000FC90B8E0EB0EF11CEE0CFF1CEE0CFF1CEE
:104E7000C701EAD58C01892B51F349825A826B8292
:104E80007C82C7010F2C000CAA0BBB0B8D839E8369
:104E9000AF83B8879E012F5E3F4FAE014F5F5F4FDC
:104EA00068E070E08091D9079091DA070ED88111FF
:104EB0008BC089899A89089709F086C0D601129615
:104EC000ED91FC9113974081518162817381D801EA
:104ED0004D935D936D937C931397448155816681C7
:104EE000778114964D935D936D937C9317974085CE
:104EF00051856285738518964D935D936D937C9370
:104F00001B9784859585A685B785F8018487958745
:104F1000A687B787108A118A128A138A84E090E0E4
:104F2000A0E0B0E0848B958BA68BB78B809182023A
:104F300090918302A0E0B0E0808F918FA28FB38F19
:104F4000C5010B2C000CAA0BBB0B848F958FA68F71
:104F5000B78FF401D801909680E090E08A159B0508
:104F600054F44191519160E070E04D935D936D93E5
:104F70007D930196F3CF9E012F5E3F4FA801B701AD
:104F80008091D9079091DA070E94651F81111CC09A
:104F900089899A89E816F906B9F4A70160E070E0FA
:104FA000C801A0D28B8B9E012F5E3F4FAE014D5E9C
:104FB0005F4F61E070E08091D9079091DA070E941D
:104FC000651F81E08093DC07C80163960FB6F894F3
:104FD000DEBF0FBECDBFDF91CF911F910F91FF902C
:104FE000EF90DF90CF90BF90AF909F908F907F9089
:104FF0006F905F904F903F90BFC58D859E85AF8528
:10500000B8890097A105B10521F481E08093DB0701
:1050100018C130D8009789F481E090E0A0E0B0E0BA
:1050200089839A83AB83BC83AE014F5F5F4F64E09B
:1050300070E082E190E039DA04C1BC01C6010E944F
:10504000B30A19821A821B821C82AE014F5F5F4F26
:1050500064E070E082E190E028DA8111F2C0D5CFFF
:10506000D6011496ED91FC9115970190F081E02DF9
:10507000008511858FEF89830115110509F472C030
:10508000D8014D905C906280738020E030E060E059
:1050900070E080E090E0841595050CF5F801A281A0
:1050A000B381A20FB31F1296ED91FC911397EE0FEF
:1050B000FF1FE60DF71D0190F081E02D16960D9073
:1050C000BC91A02DEA9FA001EB9F500DFA9F500DBF
:1050D0001124640F751F0196285F3F4FDCCF83E1D9
:1050E00090E00E94BC1F8111ACC0C12CD12CE12CDE
:1050F000F12CE414F5047CF5D8011296ED91FC91A5
:105100001397EC0DFD1DA080B180A281B381AA0F81
:10511000BB1FA60DB71D2D913C9186819781289FBD
:105120004001299F900C389F900C1124B401C501B7
:105130000E94F71F382E940140E050E06981C501BC
:10514000B7D18983B8E0CB0ED11C31107AC0EFEF14
:10515000EE1AFE0ACECF61E070E0CE0101960E9409
:10516000F71F6FC060E070E083E190E00E94BC1F19
:1051700068C040E050E060E070E081E190E095D9E7
:1051800081115FC0C12CD12C7601C701B6010E94EC
:10519000920C80913B05882321F0A801C701B6013C
:1051A00070DAA801C701B6010E94890BFFEFCF1A80
:1051B000DF0AEF0AFF0A82E0C816D104E104F10415
:1051C00021F71092DD071092DC071092E907109288
:1051D000E8078091D9079091DA070E94B41F31C087
:1051E00081E090E090933D0580933C0540E050E0E5
:1051F00060E070E086E190E01ECF81E0D5018C9305
:1052000020C08D859E850E943A20009731F42FEFB3
:105210003FEFA90161E070E00DC0FC01C080D180CA
:10522000E280F380C701B6010E945A10A7019601DF
:1052300060E070E08EE190E06BD903C0C8010E948D
:105240001B2063960FB6F894DEBF0FBECDBFDF9173
:10525000CF911F910F91FF90EF90DF90CF90BF9073
:10526000AF909F908F907F906F905F904F903F9006
:105270000895CF92DF92EF92FF92CF93DF93EC01EC
:10528000C12CD12C7601C701B6010E94920CAE014F
:10529000C701B601F6D9AE01C701B6010E94890B5C
:1052A0008091D5079091D607009729F065D4109288
:1052B000D6071092D5078FEFC81AD80AE80AF80A5D
:1052C00082E0C816D104E104F104E9F68091DC071C
:1052D000882359F040E050E060E070E084E190E025
:1052E000E4D8F82E1092DC0701C0F12C8091DD0784
:1052F000882341F01092DD0781E090E090938302D3
:10530000809382028091D9079091DA070E94B71F9B
:105310008091D9079091DA070E94AC1F8F2DDF9101
:10532000CF91FF90EF90DF90CF900895CF93DF93D0
:10533000EC01AC0160E070E0CB010E94B214AE0160
:1053400061E070E080E090E0DF91CF910C94B214C6
:1053500060E070E0CB010E94201561E070E080E029
:1053600090E00C942015CF92DF92EF92FF920F9372
:105370001F93CF93DF93EC016A017B0100E010E003
:1053800098010E94AA1001E010E020E030E0B7018F
:10539000A601CE010E94AA10DF91CF911F910F911B
:1053A000FF90EF90DF90CF90089568EE73E080E07B
:1053B00090E00E94EF1880E090E0089526E040E041
:1053C00050E16EE070E087E495E00E94161B87E4F0
:1053D00095E00E944A1A892B29F087E495E00E9403
:1053E000641AF5CF80E090E00895CF92DF92EF92BB
:1053F000FF920F931F93CF93DF936B017A01E90123
:105400001982188287E495E00E944A1A8E159F053A
:1054100080F18601CC24C39485E6D82E8091EA07DA
:10542000811122C087E495E00E94641A85369105B7
:10543000A9F7C092EA07F801D1928F01888199817A
:10544000019699838883EACF87E495E00E94641AE5
:105450008F3FFFEF9F0741F0F80181938F01888113
:105460009981019699838883888199818E159F05FA
:1054700058F380E090E0DF91CF911F910F91FF9062
:10548000EF90DF90CF9008950F931F93CF93DF930A
:10549000EA01890187E495E00E94AB1DF801D18300
:1054A000C08380E090E0DF91CF911F910F9108952C
:1054B000CF93DF93EC01DC01A40FB51F240F351F40
:1054C000CD018C1B9D0B8217930740F49D91E62F15
:1054D000E927F0E0E15DFD4F6491F2CF862FDF9187
:1054E000CF9108959A01AB016FEFE2CFCF93FC010A
:1054F000E60FF71FE40FF51FC081F4DF91E0C8133A
:1055000090E0892FCF9108958091ED0791E0980F59
:105510009093ED07882349F021E030E03093EF07C6
:105520002093EE078093ED07089578940E947C07FE
:10553000F8948091ED0781508093ED070C94C61686
:10554000DF92EF92FF920F931F93CF93DF931F92FF
:10555000CDB7DEB71092EC071092EB070E94281926
:105560000E94811E0091590310915A03F801118283
:10557000108260E070E080E090E00E94CF160E9410
:10558000AC087894C80181569F4F0E94CE1682E0E5
:1055900090E00E94CA161982AE014F5F5F4F62E031
:1055A00070E0F801828193810E94741689818823BA
:1055B00029F081E0F801EB55FF4F80830E94D5165A
:1055C000F8940E94E21EF80180819181892B29F4D0
:1055D00081E0EB55FF4F9081911180E08093EB07C4
:1055E000789478947801F5EAEF0EF11CDD24D394D9
:1055F0008091EB07882349F11982AE014F5F5F4F1D
:1056000062E070E0F801828193810E94B016898186
:10561000882311F0F701D082F80180819181892BD4
:1056200039F481E0F7019081911103C080E001C05D
:1056300081E08093EC079091EC0781E0911180E08C
:105640008093EB070E94011FD3CF0E947F0982E065
:1056500090E00E94CC16F89480E090E00F90DF91EB
:10566000CF911F910F91FF90EF90DF9008955058C8
:10567000BB27AA270ED0DCC0CDD030F0D2D020F08E
:1056800031F49F3F11F41EF4C2C00EF4E095E7FB25
:10569000B8C0E92FDED080F3BA176207730784071A
:1056A000950718F071F49EF5F6C00EF4E0950B2EF8
:1056B000BA2FA02D0B01B90190010C01CA01A00164
:1056C0001124FF27591B99F0593F50F4503E68F1BF
:1056D0001A16F040A22F232F342F4427585FF3CF00
:1056E000469537952795A795F0405395C9F77EF4D1
:1056F0001F16BA0B620B730B840BBAF09150A1F01A
:10570000FF0FBB1F661F771F881FC2F70EC0BA0F9F
:10571000621F731F841F48F4879577956795B79527
:10572000F7959E3F08F0B3CF9395880F08F099271F
:10573000EE0F97958795089540D008F481E008957D
:10574000E89409C097FB3EF490958095709561951B
:105750007F4F8F4F9F4F9923A9F0F92F96E9BB27D1
:105760009395F695879577956795B795F111F8CF4D
:10577000FAF4BB0F11F460FF1BC06F5F7F4F8F4FB8
:105780009F4F16C0882311F096E911C0772321F0AE
:105790009EE8872F762F05C0662371F096E8862F46
:1057A00070E060E02AF09A95660F771F881FDAF79D
:1057B000880F9695879597F90895990F0008550FCA
:1057C000AA0BE0E8FEEF16161706E807F907C0F087
:1057D00012161306E407F50798F0621B730B840B8F
:1057E000950B39F40A2661F0232B242B252B21F469
:1057F00008950A2609F4A140A6958FEF811D811D09
:10580000089597F99F6780E870E060E008959FEF42
:1058100080EC089500240A94161617061806090647
:10582000089500240A941216130614060506089516
:10583000092E0394000C11F4882352F0BB0F40F49E
:10584000BF2B11F460FF04C06F5F7F4F8F4F9F4FDE
:10585000089557FD9058440F551F59F05F3F71F060
:105860004795880F97FB991F61F09F3F79F08795C7
:105870000895121613061406551FF2CF4695F1DF50
:1058800008C0161617061806991FF1CF86957105E0
:10589000610508940895E894BB2766277727CB0114
:1058A00097F908958ADF08F48FEF08950BD0C0CFE1
:1058B000B1DF28F0B6DF18F0952309F0A2CFA7CF0B
:1058C0001124EACFC6DFA0F3959FD1F3950F50E0E6
:1058D000551F629FF001729FBB27F00DB11D639FA2
:1058E000AA27F00DB11DAA1F649F6627B00DA11D48
:1058F000661F829F2227B00DA11D621F739FB00DEE
:10590000A11D621F839FA00D611D221F749F33275D
:10591000A00D611D231F849F600D211D822F762FF6
:105920006A2F11249F5750408AF0E1F088234AF0F3
:10593000EE0FFF1FBB1F661F771F881F915050403F
:10594000A9F79E3F510570F05CCFA6CF5F3FECF307
:10595000983EDCF3869577956795B795F795E7952B
:105960009F5FC1F7FE2B880F911D9695879597F93C
:10597000089597FB072E16F4009406D077FD08D003
:1059800035D007FC05D03EF4909581959F4F089542
:10599000709561957F4F0895A1E21A2EAA1BBB1B3B
:1059A000FD010DC0AA1FBB1FEE1FFF1FA217B307EB
:1059B000E407F50720F0A21BB30BE40BF50B661F01
:1059C000771F881F991F1A9469F7609570958095C5
:1059D00090959B01AC01BD01CF010895EE0FFF1F13
:1059E000881F8BBF0790F691E02D1994AA1BBB1B53
:1059F00051E107C0AA1FBB1FA617B70710F0A61BCF
:105A0000B70B881F991F5A95A9F780959095BC01EF
:105A1000CD0108950F931F93CF93DF93869F80014D
:105A2000879F100D969F100D1124C8010DD0EC0119
:105A3000009721F0A80160E070E030D1CE01DF9145
:105A4000CF911F910F9108950F931F93CF93DF93E1
:105A50008230910510F482E090E0E091B008F0917E
:105A6000B10820E030E0A0E0B0E0309719F14081CB
:105A700051810281138148175907C8F0841795078F
:105A800069F4109731F012960C93129713961C93A9
:105A900027C00093B0081093B10822C0211531052A
:105AA00019F04217530718F49A01BD01EF01DF0105
:105AB000F801DBCF21153105F9F0281B390B243013
:105AC000310580F48A819B816115710521F0FB010C
:105AD0009383828304C09093B1088093B008FE0141
