:10000000B6C100000C94461F0C94711F0C949C1FE9
:100010000C94C71F0C94F21F0C941D200C944820C4
:100020000C9473200C9498080C943C090C94790956
:10003000CFC100000C941327CBC10000C9C1000040
:10004000C7C10000C5C10000C3C10000C1C100009C
:10005000BFC10000BDC10000BBC100000C949E20C8
:10006000B7C100000C946C240C94A224B1C1000010
:10007000AFC10000ADC10000ABC10000A9C10000CC
:10008000A7C10000A5C10000A3C10000A1C10000DC
:100090000C94F8240C942E259BC10000F9C3000099
:1000A00097C1000095C1000093C1000091C10000FC
:1000B0008FC100008DC100008BC1000089C100000C
:1000C00087C1000085C100000C949C270C948425F6
:1000D0000C94BA257DC100000C9410260C94462681
:1000E00077C10000201FEA1EF21EFE1E0B1F2C1FF0
:1000F000391FDB21E021E521EF21F92172220322C2
:100100000B2213221D222722312240224A22722250
:1001100054225E2268229622992288228C229222E0
:10012000D0229D22A122A722AB22AF22B522B92242
:10013000BD22D022C322C722CB22EC2FAA310F32FC
:100140001232EE302131DC2FE32FC02FF231E131BA
:10015000EE31123212321232AB2F00000A0B0209BA
:100160000C0D0E0807030401000000000000000051
:10017000000000000000000000000000000000007F
:10018000000000000000121110000000000000003C
:10019000000000000000000000000000000000005F
:1001A0000102102020080810204010204080020189
:1001B000020108040201010204081020408080406E
:1001C000201008040201800402018040201008046D
:1001D000020108040201010204081020408001020B
:1001E00004081020408005050505070508080808D3
:1001F000020202020A0A08080404040401010101BF
:1002000001010101030303030303030304070707B9
:100210000C0C0C0C0C0C0C0C02020202060606065E
:10022000060606060B0B0B0B0B0B0B0B000022003C
:10023000250028002B002E003100340002010000B0
:10024000050108010B0100002100240027002A00FD
:100250002D003000330001010000040107010A01F4
:1002600002001D3A2774694E53E8F5D2CF9C81A64F
:10027000BBCDD0F7EAB9A4839E25381F02514C6B41
:1002800076879ABDA0F3EEC9D46F7255481B06213C
:100290003C4A57706D3E230419A2BF9885D6CBEC1B
:1002A000F1130E2934677A5D40FBE6C1DC8F92B50D
:1002B000A8DEC3E4F9AAB7908D362B0C11425F7803
:1002C000659489AEB3E0FDDAC77C61465B08153200
:1002D0002F5944637E2D30170AB1AC8B96C5D8FFD9
:1002E000E2263B1C01524F6875CED3F4E9BAA780D1
:1002F0009DEBF6D1CC9F82A5B8031E3924776A4DB9
:1003000050A1BC9B86D5C8EFF24954736E3D2007BF
:100310001A6C71564B1805223F8499BEA3F0EDCAA2
:10032000D735280F12415C7B66DDC0E7FAA9B4938C
:100330008EF8E5C2DF8C91B6AB100D2A3764795E7A
:1003400043B2AF8895C6DBFCE15A47607D2E33147B
:10035000097F6245580B16312C978AADB0E3FED960
:10036000C40047039207CB245725E3256F261124A9
:100370001FBECFEFD1E2DEBFCDBF00E00CBF14E067
:10038000A0E0B2E0EAE2F0E700E00BBF02C00790B5
:100390000D92A63CB107D9F72AE0A6ECB4E001C063
:1003A0001D92AE36B207E1F711E0C7EBD1E000E0F5
:1003B00006C021970109802FFE010E94A336C13B90
:1003C000D10780E00807A9F70E9491330C941338F5
:1003D00017CE80E090E008958091FA0490E020919B
:1003E000FB04821B910908959091FB048091FA040B
:1003F000981750F4E92FF0E0E450FB4F208130E0F3
:100400009F5F9093FB0402C02FEF3FEFC901089557
:10041000E091FB048091FA04E81730F4F0E0E45036
:10042000FB4F808190E008958FEF9FEF089508952E
:10043000CF93DF93EC01E091D204F091D304309795
:10044000F1F09091FB048091FA049817C0F090E0CD
:10045000292F30E02617370754F4DE01A20FB31F0F
:100460004C91D901A450BB4F4C939F5FF1CF109298
:10047000FB046093FA04CB01DF91CF911994DF91D3
:10048000CF910895E091D404F091D504309729F0EC
:100490001092D8041092D70419940895CF92DF9245
:1004A000EF92FF920F931F93CF93DF937C01CB01C9
:1004B0008A012091D604222389F0EB016B01C40E3E
:1004C000D51ECC15DD0561F06991D701ED91FC9148
:1004D0000190F081E02DC7011995F3CF642F96D1DB
:1004E000C801DF91CF911F910F91FF90EF90DF90A6
:1004F000CF900895CF93DF931F92CDB7DEB7698376
:100500002091D6042223D1F02091D704203240F04C
:1005100021E030E0FC013383228380E090E014C0CE
:100520008091D804E82FF0E0E752FB4F9981908347
:100530008F5F8093D8048093D70404C061E0CE011C
:10054000019664D181E090E00F90DF91CF91089502
:10055000FC011382128288EE93E0A0E0B0E0848375
:100560009583A683B78385E293E091838083089582
:100570001092FB041092FA041092D8041092D7043F
:1005800089D082E492E06FD188E192E067C181E096
:100590008093D6046093F9041092D8041092D70483
:1005A00008950F93062F21E04091D70469ED74E080
:1005B0008091F904D5D01092D8041092D7041092EB
:1005C000D6040F9108954F925F926F927F92AF92EF
:1005D000BF92CF92EF92FF920F931F93CF93DF932F
:1005E0005C01F62ED42F28013901EE2011F1CFDF66
:1005F000CE2DC43008F0C3E0C150C0F028E0C29F47
:10060000C0011124A301920104C056954795379566
:1006100027958A95D2F7CA01B901D501ED91FC91D0
:100620000190F081E02DC5011995E6CF60E0C5018C
:10063000B8DF4D2FD13208F040E22C2D6CEF74E082
:100640008F2D46D01092FB048093FA04DF91CF9156
:100650001F910F91FF90EF90CF90BF90AF907F9040
:100660006F905F904F900895CF92EF920F931F93EA
:10067000C22EE12C00E010E09801A5DF1F910F9140
:10068000EF90CF90089521E0EFCF61E08ACF86EC24
:1006900094E05ECF1092890581E0809387051092E7
:1006A000860561E084E10E940D2361E085E10E94FE
:1006B0000D23E9EBF0E080818E7F808380818D7F48
:1006C000808388E48093B80085E48093BC0008951B
:1006D000413208F043C0909189059111FCCF91E01F
:1006E00090938905209387052FEF20931C05109286
:1006F0006105240F209360059093880590918805EB
:10070000880F892B8093880580918605813061F45C
:1007100010928605809188058093BB008091BC0073
:1007200083FDF8CF85EC01C085EE8093BC008091FD
:1007300089058130E1F380916105841710F44091BF
:100740006105A2E6B5E0962FFB018E2F891B841769
:1007500018F48D918193F9CF842F089580E0089546
:100760000F93413208F04AC0909189059111FCCF56
:1007700032E030938905009387053FEF30931C05E5
:100780001092610540936005562FA2E6B5E0FB018B
:100790003E2F351B341718F431913D93F9CF109249
:1007A000880530918805880F832B80938805809178
:1007B0008605813061F410928605809188058093CA
:1007C000BB008091BC0083FDF8CF85EC01C085EEB5
:1007D0008093BC00222321F0809189058230D1F3DF
:1007E00080911C058F3F79F080911C05803241F08B
:1007F00080911C05803331F094E005C091E003C086
:1008000092E001C093E0892F0F91089540913E0539
:10081000262F30E0240F311D21323105DCF42091E8
:1008200089052430C9F4FC0180E090E0861758F473
:1008300030913E052191DC01A05CBA4FA30FB11DA0
:100840002C930196F3CF80913E05680F60933E058F
:1008500080E0089581E0089582E0089590938305F3
:10086000809382050895909385058093840508956B
:1008700085ED8093BC008091BC0084FDFCCF10927C
:100880008905089585EC8093BC0010928905089530
:100890001F920F920FB60F9211240BB60F922F9347
:1008A0003F934F935F936F937F938F939F93AF93F8
:1008B000BF93EF93FF938091B900887F803609F44E
:1008C0009DC070F5883209F45CC090F4803109F461
:1008D00055C038F4882309F4F3C0883009F44EC0B9
:1008E000F2C0883109F44DC0803209F45EC0EBC01B
:1008F000803409F469C050F4803309F456C0883359
:1009000009F0E1C080931C05BDDFDDC0803509F42E
:100910004FC0883509F45DC0883409F0D4C0D2C016
:10092000883909F4C3C0A8F4883709F467C038F4DB
:10093000883609F463C0803709F460C0C4C08838C1
:1009400009F4B4C0803909F45FC0803809F0BBC035
:100950005BC0803B09F482C038F4803A09F466C079
:10096000883A09F47BC0AFC0803C09F4A3C0883C3E
:1009700009F4A0C0883B09F486C0A5C08091880511
:1009800010C09091610580916005981770F5E09115
:10099000610581E08E0F80936105F0E0EE59FA4F1A
:1009A00080818093BB0085EC82C080931C058AC047
:1009B000E091610581E08E0F809361058091BB001D
:1009C000F0E0EE59FA4F80839091610580916005C7
:1009D0006AC0E091610581E08E0F8093610580918E
:1009E000BB00F0E0EE59FA4F8083809187058111BA
:1009F00069C081E08093860584EA5DC083E08093CE
:100A0000890510921D05CFCF80911D05803208F019
:100A10004DC0E0911D0581E08E0F80931D058091F2
:100A2000BB00F0E0E25EFA4F8083BDCF2BDF809108
:100A30001D05803230F4E0911D05F0E0E25EFA4FD2
:100A4000108260911D0570E0E0918205F0918305B0
:100A50008EE195E0199510921D0535C084E08093D4
:100A6000890510923F0510923E05E0918405F091B2
:100A70008505199580913E05811105C081E080931F
:100A80003E0510924005E0913F0581E08E0F809376
:100A90003F05F0E0E05CFA4F80818093BB009091CD
:100AA0003F0580913E05981708F47DCF85E8809337
:100AB000BC0009C085EC8093BC001092890503C07E
:100AC00010921C05D5DEFF91EF91BF91AF919F91E0
:100AD0008F917F916F915F914F913F912F910F90E7
:100AE0000BBE0F900FBE0F901F901895FF920F93A3
:100AF0001F93CF93DF93C62F142FF22E032F682F4F
:100B000086EC94E044DD6C2F86EC94E0F3DCCF2D92
:100B1000D02FCE01810F911D8C01C017D10729F074
:100B2000699186EC94E0E6DCF8CF86EC94E0ADDDEC
:100B300091E0811190E0892FDF91CF911F910F916A
:100B4000FF900895CF93DF931F92CDB7DEB749830F
:100B50009E012F5F3F4F41E0C9DF0F90DF91CF91A2
:100B600008953F924F925F926F927F928F929F92E1
:100B7000AF92BF92CF92DF92EF92FF920F931F93AB
:100B8000CF93DF9300D000D0CDB7DEB7D82EC62EDE
:100B90004D8379010E94E8204B015C01312C1E82BB
:100BA0009D81892F90E09C838B832801612C712C7F
:100BB000ED813E1698F56D2D86EC94E0E8DC6C2D09
:100BC00086EC94E097DC86EC94E05FDD6D2D86EC9E
:100BD00094E0DDDC4B815C814319510941325105C0
:100BE00014F040E250E06D2D86EC94E04CDD86EC94
:100BF00094E0F2DB892B09F442C00115110569F17B
:100C00000E94E820DC01CB0188199909AA09BB09D7
:100C100084159505A605B70500F131C0011511052C
:100C2000B9F10E94E820DC01CB0188199909AA09D1
:100C3000BB0920E030E080179107A207B30740F11D
:100C4000FD812F2F30E04E81842F440F990B8217A6
:100C50009307F4F48FEF8E831BC0F7012E81E20F10
:100C6000F11D27FDFA95FA83E98386EC94E0BCDB5D
:100C7000E981FA818083FE81FF5FFE83B8CF86EC35
:100C800094E003DD8D81813208F080E2380E90CF50
:100C90008E8126960FB6F894DEBF0FBECDBFDF91D2
:100CA000CF911F910F91FF90EF90DF90CF90BF9069
:100CB000AF909F908F907F906F905F904F903F90FC
:100CC00008950F931F9389019A0141E04ADF1F9114
:100CD0000F910895EF92FF920F931F93CF93DF939D
:100CE0001F92CDB7DEB7182F062FF42EE22E2091DB
:100CF000060230910702AE014F5F5F4FE2DF89814C
:100D000041E050E001C0440FFA94EAF7EE2011F000
:100D1000482B02C0409548234983602F812F12DF62
:100D20000F90DF91CF911F910F91FF90EF90089559
:100D3000DF92EF92FF920F931F93CF93DF931F9257
:100D4000CDB7DEB7182FF62EE42ED22E2091060254
:100D500030910702AE014F5F5F4FB3DF882331F15F
:100D60002E2D30E02D1931092F5F3F4F81E090E0AB
:100D700002C0880F991FDA94E2F70197022E01C092
:100D8000880F0A94EAF7402F50E0BA0102C0660FBC
:100D9000771F2A95E2F7482F4095998149238623AA
:100DA000482B49836F2D812FCDDE01C080E00F904D
:100DB000DF91CF911F910F91FF90EF90DF900895F9
:100DC00028E6FC01208308950F93062F23E042E0DC
:100DD0006AE1FC018081ACDF0F9108950F93062F2B
:100DE00022E044E06BE1FC018081A2DF0F910895D5
:100DF0000F93062F22E044E06CE1FC01808198DF34
:100E00000F9108950F931F93CF93DF93EC010091FF
:100E10000602109107029C012F5F3F4F42E063E4FE
:100E200088819FDE89819A81982789279827DF9179
:100E3000CF911F910F9108950F931F93CF93DF933D
:100E4000EC0100910602109107029C012F5F3F4FB9
:100E500042E065E4888185DE89819A819827892727
:100E60009827DF91CF911F910F9108950F931F93B2
:100E7000CF93DF93EC0100910602109107029C01D1
:100E80002F5F3F4F42E067E488816BDE89819A8162
:100E9000982789279827DF91CF911F910F91089567
:100EA000262F46E06BE6FC01808114CF0F93062FBE
:100EB00023E042E06BE6FC0180813ADF0F91089568
:100EC000CF93DF93EC0161E0F1DF60E0CE0186DFDC
:100ED00060E0CE018DDF60E0CE01DF91CF91E0CF09
:100EE000CF93C82F86EC94E043DB6C2F8AE895E023
:100EF0006BDF8AE895E0CF91E3CFCF93DF93EC01EE
:100F00008AE895E07FDF998388838AE895E094DF1B
:100F10009B838A838AE895E0A9DF9D838C83DF9198
:100F2000CF9108958AE895E04BCF9CB1892F8072CC
:100F300094FF03C081110FC002C0882361F080912B
:100F40009D0590919E05A0919F05B091A0050196E9
:100F5000A11DB11D0BC080919D0590919E05A09192
:100F60009F05B091A0050197A109B10980939D0546
:100F700090939E05A0939F05B093A005089599B105
:100F8000892F847093FF03C0882379F002C08111F8
:100F90000CC08091AB059091AC05A091AD05B091CE
:100FA000AE050196A11DB11D0BC08091AB059091BE
:100FB000AC05A091AD05B091AE050197A109B109AD
:100FC0008093AB059093AC05A093AD05B093AE05AF
:100FD00008952CB126FB882780F990E027FF03C0F5
:100FE000019779F402C0892B61F48091B905909141
:100FF000BA05A091BB05B091BC050196A11DB11D1C
:101000000BC08091B9059091BA05A091BB05B09134
:10101000BC050197A109B1098093B9059093BA0560
:10102000A093BB05B093BC0508959CB1892F807136
:1010300095FF03C0882379F002C081110CC0809114
:101040009D0590919E05A0919F05B091A0050196E8
:10105000A11DB11D0BC080919D0590919E05A09191
:101060009F05B091A0050197A109B10980939D0545
:1010700090939E05A0939F05B093A005089599B104
:10108000892F887092FF03C081110FC002C088238E
:1010900061F08091AB059091AC05A091AD05B09148
:1010A000AE050196A11DB11D0BC08091AB059091BD
:1010B000AC05A091AD05B091AE050197A109B109AC
:1010C0008093AB059093AC05A093AD05B093AE05AE
:1010D00008952CB1822F807890E0880F892F881F87
:1010E000990B26FF03C0892B79F402C0019761F4A4
:1010F0008091B9059091BA05A091BB05B091BC054E
:101100000196A11DB11D0BC08091B9059091BA0542
:10111000A091BB05B091BC050197A109B1098093CD
:10112000B9059093BA05A093BB05B093BC0508958B
:101130001F920F920FB60F9211242F933F934F934C
:101140005F938F939F93AF93BF9383B121E030E080
:10115000982F907285FD02C020E030E080744091AD
:10116000DD055091DE052417350749F521E030E013
:10117000811102C020E030E03093DC052093DB05D4
:10118000882319F091110FC002C0992361F080915A
:10119000D5059091D605A091D705B091D8050196B7
:1011A000A11DB11D41C08091D5059091D605A0919A
:1011B000D705B091D8050197A109B10916C03093A0
:1011C000DE052093DD05992319F0882311F102C073
:1011D00081111FC08091D5059091D605A091D705AA
:1011E000B091D8050196A11DB11D8093D5059093AE
:1011F000D605A093D705B093D8058091D5059091D9
:10120000D605A091D705B091D8050197A109B109DC
:101210001EC08091D5059091D605A091D705B091BB
:10122000D8050197A109B1098093D5059093D605FA
:10123000A093D705B093D8058091D5059091D60598
:10124000A091D705B091D8050196A11DB11D80933D
:10125000D5059093D605A093D705B093D805BF9137
:10126000AF919F918F915F914F913F912F910F90EF
:101270000FBE0F901F9018951F920F920FB60F92EE
:1012800011248F939F93AF93BF9380910601817038
:101290009091030190FF03C081110FC002C0882309
:1012A00061F08091C7059091C805A091C905B091E2
:1012B000CA050196A11DB11D0BC08091C705909173
:1012C000C805A091C905B091CA050197A109B10946
:1012D0008093C7059093C805A093C905B093CA052C
:1012E000BF91AF919F918F910F900FBE0F901F9064
:1012F00018951F920F920FB60F9211248F939F9300
:10130000AF93BF938091030181709091060190FF8C
:1013100003C0882379F002C081110CC08091C705F9
:101320009091C805A091C905B091CA050196A11D6B
:10133000B11D0BC08091C7059091C805A091C9054A
:10134000B091CA050197A109B1098093C70590938F
:10135000C805A093C905B093CA05BF91AF919F91ED
:101360008F910F900FBE0F901F9018950F931F93A2
:10137000CF93DF938C018EE0809FE001819FD00DA1
:101380001124C756DA4F798368835B834A83888147
:10139000998160E00E94D1228A819B8160E00E9455
:1013A000D1228881998161E00E940D238A819B81ED
:1013B00061E00E940D230230110509F47FC044F45E
:1013C00001151105E9F00130110509F448C0BEC04E
:1013D0000330110509F4A6C00430110509F0B6C0A8
:1013E0008091680081608093680080916B008062CA
:1013F00080936B0080916B00806480936B00A6C02B
:101400008091990590919A0502978431910540F455
:10141000FC01ED5CFC4F8081082E000C990B02C092
:101420008FEF9FEF41E050E065E977E00E94D21E28
:1014300080919B0590919C0502978431910540F421
:10144000FC01ED5CFC4F8081082E000C990B02C062
:101450008FEF9FEF41E050E065E178E05DC0809163
:10146000A7059091A80502978431910540F4FC01ED
:10147000ED5CFC4F8081082E000C990B02C08FEFB1
:101480009FEF41E050E06FE378E00E94D21E809130
:10149000A9059091AA0502978431910540F4FC01B9
:1014A000ED5CFC4F8081082E000C990B02C08FEF81
:1014B0009FEF41E050E06FEB77E02EC08091B505E3
:1014C0009091B60502978431910540F4FC01ED5CE2
:1014D000FC4F8081082E000C990B02C08FEF9FEF0C
:1014E00041E050E069E678E00E94D21E8091B705A5
:1014F0009091B80502978431910540F4FC01ED5CB0
:10150000FC4F8081082E000C990B02C08FEF9FEFDB
:1015100041E050E069EE77E0DF91CF911F910F91AC
:101520000C94D21E80916800846080936800809142
:10153000680082608093680080916D008160809374
:101540006D0080916C00826080936C00DF91CF9180
:101550001F910F9108952EE0269FF001279FF00D17
:101560001124E756FA4F6481758186819781089529
:101570000895CF93282F882351F0CB01BA01C22FB1
:101580000E9483348FEF8C0FCF910C94B421CF91B4
:1015900008950F931F938B019C0183E03695279547
:1015A000179507958A95D1F7F801E152FA4F2081F6
:1015B000422F50E0E62FE77021E030E002C0220F1A
:1015C000331FEA95E2F724233523232B19F0CB01AF
:1015D000019602C080E090E01F910F9108950F9353
:1015E0001F938B019C0183E03695279517950795EE
:1015F0008A95D1F7677081E090E001C0880F6A9505
:10160000EAF7F801E152FA4F452B21F480959081D9
:10161000892302C09081892B80831F910F910895A7
:10162000CF92DF92EF92FF92CF93DF936B017C0119
:1016300061E08C2D0E94D122E6012196AE01C70106
:10164000B601CDDFCE01DF91CF91FF90EF90DF901B
:10165000CF900895882341F06FEF680F70E080E02D
:1016600090E040E050E0BBCF0895662319F0613070
:1016700009F062E00C94D122662311F061E001C010
:1016800060E00C940D23CF93DF93EC0189819A8164
:10169000AB81BC810197A105B105C1F48D8188237F
:1016A000A9F06A857B858C859D8573DF99878887FE
:1016B00040E050E0BA015DDF6A857B858C859D85C1
:1016C00068DF99878887DF91CF91C4CFDF91CF9171
:1016D00008952F923F924F925F926F927F928F92D6
:1016E0009F92AF92BF92CF92DF92EF92FF920F93B1
:1016F0001F93CF93DF93CDB7DEB72E970FB6F89435
:10170000DEBF0FBECDBF8091130A9091140AA09145
:10171000150AB091160A80931F0A9093200AA0938D
:10172000210AB093220A61E070E080E090E013DFCC
:101730000E94B6342091E8023091E9024091EA0219
:101740005091EB020E940B362091A8023091A90221
:101750004091AA025091AB020E940B366093230A7B
:101760007093240A8093250A9093260AC0901F0A3A
:10177000D090200AE090210AF090220A2091AC0239
:101780003091AD024091AE025091AF02C701B60157
:101790000E940B3620911B0A30911C0A40911D0AB1
:1017A00050911E0A0E941A342091C4023091C50241
:1017B0004091C6025091C7020E940B366F83788712
:1017C00089879A872091C8023091C9024091CA0244
:1017D0005091CB02C701B6010E940B362091170A27
:1017E0003091180A4091190A50911A0A0E941B342C
:1017F0002F81388549855A850E941B342B013C0175
:101800001091CC020091CD023090CE022090CF02F8
:10181000212F302F432D522D0E9407361816B4F079
:101820001091C0020091C1023090C2022090C30208
:10183000212F302F432D522DB201C3010E947F343E
:1018400087FD04C0142D052D362C272C2091F40281
:101850003091F5024091F6025091F702612F702FFE
:10186000832D922D0E940B364B015C016093270A59
:101870007093280A8093290A90932A0A9201A3015F
:10188000612F702F832D922D0E941A342091BC025B
:101890003091BD024091BE025091BF020E940B36B2
:1018A0006B877C878D879E87C701B6019F7720E075
:1018B00030E040E45FE30E947F3487FD04C060E0D5
:1018C00070E0CB0104C060E070E080E89FE3A50118
:1018D00094010E940B36862EB72EA82E992ECE018B
:1018E00001960BDB2091D8023091D9024091DA02A7
:1018F0005091DB02682D7B2D8A2D992D0E947F341B
:10190000682F661F6627661F88E0B6DE60916B0948
:1019100070916C0980916D0990916E093ADE9093F7
:101920006A09809369092090D0023090D102009119
:10193000D2021091D3029101A801682D7B2D8A2D2E
:10194000992D0E9407361816B4F02090FC023090B2
:10195000FD020091FE021091FF029101A801682D85
:101960007B2D8A2D992D0E947F3487FD04C0282C61
:101970003B2C0A2D192D2091000330910103409139
:10198000020350910303B101C8010E940B360E946B
:10199000F1342B013C0157D4811121C0C301B201A4
:1019A00027D481111CC020E030E040E853E4C3019B
:1019B000B2010E940B352B013C01162F052D362C50
:1019C000272C20E030E0A9010E947F3487FF0BC064
:1019D000C301B20190580E94883461950AC010E09A
:1019E00000E0312C212C612F702F832D922D0E942D
:1019F000883470E080E090E00E94B434AB01BC0118
:101A00008091690990916A09B4DD2091DC023091DE
:101A1000DD024091DE025091DF02682D7B2D8A2D80
:101A2000992D0E947F34682F661F6627661F85E008
:101A300023DE2090D4023090D5020091D60210917E
:101A4000D7029101A801682D7B2D8A2D992D0E9426
:101A50000736181694F02090040330900503009187
:101A60000603109107039101A801682D7B2D8A2D93
:101A7000992D0E947F3487FF04C0822CB32CA02EA6
:101A8000912E60915D0970915E0980915F0990913E
:101A900060097FDD90935C0980935B0920910803C6
:101AA0003091090340910A0350910B03682D7B2D5F
:101AB0008A2D992D0E940B360E94F1344B015C0156
:101AC000C2D381111FC0C501B40192D381111AC0C4
:101AD00020E030E040E853E4C501B4010E940B353A
:101AE0004B015C011B01850120E030E0A9010E944F
:101AF0007F3487FF0BC0C501B40190580E94883421
:101B0000619508C0212C312C00E010E0B101C80122
:101B10000E94883470E080E090E00E94B434AB0111
:101B2000BC0180915B0990915C0923DD69817A8118
:101B3000072E000C880B990B0E94B6342091A4024A
:101B40003091A5024091A6025091A7020E941A343A
:101B50002091F8023091F9024091FA025091FB0273
:101B60000E940B362091E0023091E1024091E202A6
:101B70005091E3020E940B362091130A3091140A0F
:101B80004091150A5091160A0E941B346093130A63
:101B90007093140A8093150A9093160A20911F0AD5
:101BA0003091200A4091210A5091220A6091B0029E
:101BB0007091B1028091B2029091B3020E940B36F3
:101BC0002B853C854D855E850E941B342091EC025F
:101BD0003091ED024091EE025091EF020E940B36DF
:101BE0002091170A3091180A4091190A50911A0A47
:101BF0000E941B346093170A7093180A8093190A85
:101C000090931A0A2091F0023091F1024091F20271
:101C10005091F3026F81788589859A850E940B36F1
:101C200020911B0A30911C0A40911D0A50911E0AF6
:101C30000E941B3460931B0A70931C0A80931D0A38
:101C400090931E0A81E090E00E947E1E4091410A1E
:101C50005091420A6091430A7091440A80E090E0FA
:101C60000E947A1E80904D0A90904E0AA0904F0AD2
:101C7000B090500A20E030E040E85FEBC501B401CD
:101C80000E947F34882331F1C090410AD090420AEB
:101C9000E090430AF090440AA7019601C501B401FF
:101CA0000E941A344B015C0120E030E040E054E334
:101CB000C701B6010E940B369B01AC01C501B401FE
:101CC0000E940736181634F087E493E090932C0AAC
:101CD00080932B0A8091510A882331F087E493E0A6
:101CE00090932C0A80932B0A8091450A9091460A82
:101CF000A091470AB091480ABC01CD016F5F7F4FA8
:101D00008F4F9F4F6093450A7093460A8093470A0E
:101D10009093480A0E94B4349B01AC016091490A37
:101D200070914A0A80914B0A90914C0A0E940B369E
:101D30006093410A7093420A8093430A9093440A45
:101D40002E960FB6F894DEBF0FBECDBFDF91CF91B8
:101D50001F910F91FF90EF90DF90CF90BF90AF90C9
:101D60009F908F907F906F905F904F903F902F90BB
:101D700008952F923F924F925F926F927F928F922F
:101D80009F92AF92BF92CF92DF92EF92FF920F930A
:101D90001F93CF93DF9384E090E0F3D1EBE2FAE07E
:101DA00087E2DF011D928A95E9F780E090E0A0E8E4
:101DB000BFEB82A393A3A4A3B5A38AE097EDA3E20C
:101DC000BCE3868F978FA0A3B1A388E59CE0A0E336
:101DD000B6EF84839583A683B78387E895E4A6E46A
:101DE000BCEC80879187A287B38783E59DE8A7E352
:101DF000B4ED84879587A687B78782E899E1A9E93A
:101E0000B7E9808B918BA28BB38BCAE0D6E0D383EA
:101E1000C283ACEFB5E0B983A88387E694E011965E
:101E20009C938E9313969C938E93129715969C93E6
:101E30008E93149717969C938E93169719969C934E
:101E40008E9318971B969C938E931A971D969C932E
:101E50008E931C978FE39AE09D838C838FE29AE0A8
:101E60009B838A8381E49AE09F838E838CE0AFE139
:101E7000BAE0ED0119928A95E9F7C3E5D9E08CEC57
:101E8000DE011D928A95E9F728EE35E084E1D9015B
:101E90001D928A95E9F7358B248B83E190E0F90157
:101EA000918380838EE792E09383828388E592E03A
:101EB0009583848384E192E09783868388E092E02F
:101EC00091878087812C912C540183948092F00912
:101ED0009092F109A092F209B092F30942E150E028
:101EE00063E170E081E090E041DACC24C394C092D9
:101EF000F4091092F5098092F6099092F709A092E0
:101F0000F809B092F90980E090E00E947007C09251
:101F1000FA091092010A8092020A9092030AA09292
:101F2000040AB092050A61E088E09FDBC092060ACD
:101F30001E86EFEAF9E092E3692E608223E3722EB7
:101F40007092B00934E3232E2092B10945E3342E78
:101F50003092B20956E3452E4092B30967E3562EFC
:101F60005092B40988E38093B509A9E3A093B60918
:101F700071E3D72ED092B709B0E3B093B809D092ED
:101F8000B909D092BA09D092BB096092BC09D0922B
:101F9000BD097092BE09FD8BEC8B86E090E0A0E05D
:101FA000B0E0888F998FAA8FBB8F1B8A8F86988A03
:101FB000A98ABA8AE12CF12C8701A801970166E071
:101FC00070E080E090E02CDB9F8B8E8B688D798DAC
:101FD0008A8D9B8DDEDA9F8B8E8BCADACB8A10922C
:101FE000FB098092FC099092FD09A092FE09B09233
:101FF000FF0961E085E039DBC092000A18826C8E2F
:102000007D8E2E8E3F8E48A259A2E8E3EAA3F9E323
:10201000FBA3DCA280E38DA3DEA2DFA2D8A669A683
:10202000DAA67BA68FE699E09F838E8382E090E01C
:10203000A0E0B0E08A879B87AC87BD871D8289823C
:102040009A82AB82BC82A801970162E070E080E0D6
:1020500090E0E6DA998788876A857B858C859D85FF
:1020600098DA9987888784DACD82E4EAF2E0809171
:10207000E4029091E502A091E602B091E70280931C
:10208000130A9093140AA093150AB093160A848930
:102090009589A689B7898093170A9093180AA09307
:1020A000190AB0931A0A80899189A289B389809309
:1020B0001B0A90931C0AA0931D0AB0931E0ADF917D
:1020C000CF911F910F91FF90EF90DF90CF90BF9035
:1020D000AF909F908F907F906F905F904F903F90C8
:1020E0002F9008958091EF09811103C081E08093C2
:1020F000EF098091F509811103C081E08093F50912
:102100008091010A811103C081E08093010A8091CE
:102110006109811106C081E08093610981E699E03F
:10212000B2DA8091FB09811103C081E08093FB0941
:1021300080915309811106C081E08093530983E5A2
:1021400099E0A1CA089560E070E080E89FE70895F3
:1021500060E070E080E89FE7089560E070E080E86C
:102160009FEF089560E070E080E89FEF089560E0E1
:1021700070E080EC9FEF089560E070E080EC9FEFEE
:102180000895F5DF60935E0A70935F0A8093600A9A
:102190009093610AF1DF6093520A7093530A80931F
:1021A000540A9093550ACFDF60935A0A70935B0AE2
:1021B00080935C0A90935D0ACBDF6093560A70931C
:1021C000570A8093580A9093590AC7DF6093620AAE
:1021D0007093630A8093640A9093650AC3DF6093E7
:1021E000660A7093670A8093680A9093690A089553
:1021F000CF92DF92EF92FF92CF936B017C019B0114
:10220000AC016091560A7091570A8091580A9091DA
:10221000590A0E947F34C1E0882371F0A70196011A
:102220006091660A7091670A8091680A9091690AC4
:102230000E947F348111C0E08C2FCF91FF90EF90EE
:10224000DF90CF9008950F931F938B019C0100277F
:10225000112720783F770115110520483F4749F4A1
:10226000AB01BC016F77772781E0452B462B472BCD
:1022700009F480E01F910F910895EF92FF920F9360
:102280001F93CF93DF93DC01EA01F90114968D913E
:102290009C91159712960D911C911397080F191F79
:1022A0002881398118964D915C91199742175307EF
:1022B00028F04D915C911197452B39F17801E21A84
:1022C000F30A18964D915C911997481B590B4E0DC6
:1022D0005F1D4617570794F1A901460F571F401776
:1022E0005107E0F0F182E082338322836E197F0987
:1022F00075836483161617061CF4382F292F02C025
:1023000030E020E03683278313C018968D919C918E
:102310001997821B930B8617970784F0718360834C
:1023200033832283158214821782168288819981D1
:10233000680F791F7983688380E001C081E0DF91B5
:10234000CF911F910F91FF90EF900895CF92DF9260
:10235000EF92FF92CF93DF936B017C0184E48C9D1D
:10236000E0018D9DD00D1124CA5ED94F8AA99BA989
:10237000009721F00E9471371BAA1AAA84E48C9D51
:10238000F0018D9DF00D1124EA5EF94F86A997A901
:10239000009711F00E94713784E48C9DF0018D9DAF
:1023A000F00D1124EA5EF94F138A128A168A178AF1
:1023B000108E118E128E138E148E158E168E178E11
:1023C00010A211A281E090E093A382A315A214A20F
:1023D00016A217A210A611A613A612A615A614A639
:1023E00016A617A610AA11AA13AA12AA15AA14AA09
:1023F00017AA16AA11AE10AE12AE13AE14AE15AED9
:10240000DF01DE961D921D921D921C921397EE5BCA
:10241000FF4F11821082DF91CF91FF90EF90DF90FC
:10242000CF9008950F931F93CF93DF93EB01DC01BF
:102430008D919C91FC01A681B781E881F98123E00F
:10244000EE0FFF1F2A95E1F712962D913C911397FD
:10245000E20FF31F00811181AC85BD859D01220F24
:10246000331FDC0112968D919C911397D901A80F0F
:10247000B91F8D919C9124813581232B19F461E042
:1024800070E002C062E070E0869F9001879F300D8F
:10249000969F300D112488859985289FB001299F2A
:1024A000700D389F700D1124EC81FD812E9FC001AD
:1024B0002F9F900D3E9F900D1124800F911FFA01C8
:1024C0009183808373836283DF91CF911F910F91FA
:1024D00008952F923F924F925F926F927F928F92C8
:1024E0009F92AF92BF92CF92DF92EF92FF920F93A3
:1024F0001F93CF93DF9300D000D0CDB7DEB7DC01C0
:102500001496ED91FC9115970190F081E02D808556
:1025100091859A838983A281B381BC83AB83FB01BC
:1025200081909190A190B190C12CD12C7601C814CA
:10253000D904EA04FB040CF05DC044805580668039
:1025400077804085518562857385CF0140969E8353
:102550008D83A081B1819D0183E0220F331F8A9575
:10256000E1F7A981BA8112968D919C911397D901B7
:10257000A80FB91F2D903C9011970484F585E02D8C
:10258000EE0FFF1F8B819C81E80FF91F0190F081F6
:10259000E02D14968D919C911597892B19F481E06B
:1025A00090E002C082E090E08E9F90018F9F300DFE
:1025B0009E9F300D1124249F8001259F100D349F74
:1025C000100D1124249DC001259D900D349D900D6A
:1025D0001124A8016D817E81820D931D0E94FA371E
:1025E000ED81FE81E00FF11F9FEFC91AD90AE90AB8
:1025F000F90A9DCF26960FB6F894DEBF0FBECDBF69
:10260000DF91CF911F910F91FF90EF90DF90CF90CE
:10261000BF90AF909F908F907F906F905F904F9002
:102620003F902F900895CF93DF93DB01A45FBC4FC1
:102630002C91222369F024E4269FF001279FF00DBE
:102640001124EA5EF94FEF0119922A95E9F71C92DD
:1026500024E4269FF001279FF00D1124EA5EF94F34
:1026600014821582168217821186108613861286AE
:10267000118A108A17861686DF91CF9167CE2F9226
:102680003F924F925F926F927F928F929F92AF9202
:10269000BF92CF92DF92EF92FF920F931F93CF934F
:1026A000DF93CDB7DEB728970FB6F894DEBF0FBE25
:1026B000CDBF24E4269FD001279FB00D1124AA5E30
:1026C000B94FBC83AB8314960D911D912D913C9114
:1026D0001797012B022B032B09F4C1C02A016B01B0
:1026E0007C01612C712C812C912C5401B887AF8313
:1026F0001496BC83AB83EF81F8853896FE83ED8317
:10270000EB81FC8180819181A281B3818816990639
:10271000AA06BB0694F5AD81BE81ED91FC91E60D54
:10272000F71DB281B98323812A830B2F122F212C0D
:10273000312C24143504A4F4D801ED91FC91309788
:1027400049F0848195810E947137F80180819181DF
:102750000E947137FFEF2F1A3F0A0E5F1F4FE9CF1C
:1027600089819A810E9471372FEF821A920AA20AF8
:10277000B20A34E0630E711CC3CFAF81B8851896DE
:102780008D919C9119970E947137EF81F885828510
:102790009385892B81F100E010E01C821B8224E4E8
:1027A0002C9DC0012D9D900D11249C01205E394F60
:1027B00059012B813C81241535058CF4D501ED910F
:1027C000FC91E00FF11F848195810E947137EB81AC
:1027D000FC813196FC83EB83025F1F4FEACF84E4D8
:1027E0008C9DF0018D9DF00D1124EA5EF94F8285DC
:1027F00093850E94713784E48C9DD0018D9DB00D2E
:102800001124AA5EB94FBC83AB8350968D919C91E5
:1028100051970E947137EB81FC81868597850E94D4
:102820007137C701B60192DDC701B60128960FB610
:10283000F894DEBF0FBECDBFDF91CF911F910F91F6
:10284000FF90EF90DF90CF90BF90AF909F908F90D0
:102850007F906F905F904F903F902F90E4CE28969E
:102860000FB6F894DEBF0FBECDBFDF91CF911F91A1
:102870000F91FF90EF90DF90CF90BF90AF909F901F
:102880008F907F906F905F904F903F902F90089522
:1028900024E4269FF001279FF00D1124EA5EF94FF2
:1028A000828993890497029758F485E090E0938B8E
:1028B000828B8FEF9FEFDC01828F938FA48FB58F78
:1028C00008952F923F924F925F926F927F928F92D4
:1028D0009F92AF92BF92CF92DF92EF92FF920F93AF
:1028E0001F93CF93DF93CDB7DEB7AA970FB6F894B7
:1028F000DEBF0FBECDBF9AA389A3788F6F8B7A01FD
:10290000098B1A8B2B8B3C8B84E429893A89829F13
:102910006001839FD00C112486010A5E194F8989BA
:102920009A89AB89BC89F80180839183A283B383A0
:10293000AB01BC01CD01A3DED601A65EB94F84E098
:10294000F70101900D928A95E1F71701F4E02F0E3F
:10295000311C64E070E0D80114968D919C9115971C
:102960000E94BF36F80191878087892B09F481C1C5
:102970001E8E1D8E198E1A8E1B8E1C8E18A30F8F05
:1029800098012C5F3F4F38A72FA3A801485F5F4FE6
:102990005AA749A7EFA1F8A580819181A281B381AF
:1029A000298D3A8D4B8D5C8D281739074A075B07B7
:1029B0000CF0CEC0A9A5BAA58D919C91ED8DFE8D90
:1029C000E80FF91FFE8BED8BD101ED91FC91EE0F1D
:1029D000FF1FA9A1BAA18D919C91E80FF91F8081D9
:1029E0009181ED89FE8991838083D10114962D9187
:1029F0003D914D915C9117972BA33CA34DA35EA3F2
:102A0000B8E02B0E311C62E070E08F89988D0E9437
:102A1000BF36ED89FE8993838283892B09F429C10E
:102A2000412C512C32012BA13CA14DA15EA142169B
:102A30005306640675060CF025C15101F4E0AF0E93
:102A4000B11CD101ED90FC90EE0CFF1CED89FE89CC
:102A5000028113810E0D1F1D68E070E081E090E09F
:102A60000E94BF36D8018D939C93ED89FE898281A7
:102A70009381FC01EE0DFF1DC080D180C114D104F3
:102A800009F4F7C084E0F501D60101900D928A9512
:102A9000E1F7F8E02F0E311CF60180819181A281CF
:102AA000B381181619061A061B060CF04BC064E019
:102AB00070E00E94BF36D60115969C938E931497B2
:102AC000892B09F4D6C0E12CF12C812C912C5401D6
:102AD000F60180819181A281B38188169906AA06A8
:102AE000BB0684F5F601048115810E0D1F1D80E1E2
:102AF000F101DE01119601900D928A95E1F7F0E166
:102B00002F0E311CA801BE016F5F7F4FA9A1BAA192
:102B100014968D919C91159785DCF601268137815D
:102B2000D80112968D919C911397820F931F9783D2
:102B30008683BFEF8B1A9B0AAB0ABB0AE4E0EE0E5A
:102B4000F11CC6CFFFEF4F1A5F0A6F0A7F0A6BCFE7
:102B50006EE070E08F89988D0E94BF36AF8DB8A16E
:102B60001B969C938E931A97A12CB12CC12CD12C1F
:102B7000E12CF12C24E4E989FA892E9FC0012F9FD2
:102B8000900D11249C01205E394F3E8B2D8B8824A3
:102B90008394912C4F89588DC416D5060CF041C0F2
:102BA000D1014D905D906D907D901D01ED89FE8964
:102BB000008111810A0D1B1D77FC5BC0D8011196A5
:102BC0009C928E92411451046104710449F0C20137
:102BD0000E94D936F80195838483892B31F449C04A
:102BE000D80115961C921E921497F80153824282C6
:102BF0008481958197838683918780871386128647
:102C000081E090E045284628472811F480E090E0D4
:102C1000E80EF91EFFEFCF1ADF0A2EE0A20EB11C5C
:102C2000B9CF84E4A989BA898A9F80018B9F100D4E
:102C300011240A5E194FF80115861486C70133E086
:102C4000880F991F3A95E1F70E94D936D80151961D
:102C50009C938E935097892B61F0C701880F991F21
:102C60000E94D936F80197878687892B11F080E07A
:102C70001CC04F89588D69897A898B899C89FFDCB2
:102C800081E013C0298D3A8D4B8D5C8D2F5F3F4FB6
:102C90004F4F5F4F298F3A8F4B8F5C8F4D8D5E8DDD
:102CA0004C5F5F4F5E8F4D8F75CEAA960FB6F8942E
:102CB000DEBF0FBECDBFDF91CF911F910F91FF906F
:102CC000EF90DF90CF90BF90AF909F908F907F90CC
:102CD0006F905F904F903F902F9008952F923F926A
:102CE0004F925F926F927F928F929F92AF92BF921C
:102CF000CF92DF92EF92FF920F931F93CF93DF93C8
:102D0000CDB7DEB768970FB6F894DEBF0FBECDBF64
:102D10009C8B8B8B69017A0124E42C9DC0012D9D35
:102D2000900D11249C012A5E394F5901FB0120812D
:102D30003181F501358B248BDC01A45DB94FFB019A
:102D4000349624E001900D922A95E1F7DC01A05D14
:102D5000B94FFB01389624E001900D922A95E1F7D6
:102D6000DC01AC5CB94FFB013C9624E001900D9274
:102D70002A95E1F7DC01AC5BB94FFB01709684E06A
:102D800001900D928A95E1F78B010C5E1F4FF501C2
:102D900086A597A5A0A9B1A9181619060CF064C0BC
:102DA000880F991F880F991F0E94D936F50193ABA0
:102DB00082AB892B09F4B5C0812C912C412C512C6C
:102DC00032019501225D3F4F3E8B2D8BC501C2968E
:102DD000988F8F8BF496FA8BE98BB301A2012FEFBA
:102DE000421A520A620A720AED89FE898081918133
:102DF000A281B381481759076A077B0754F5EF8909
:102E0000F88D20803180280C391C80E1F801DE012A
:102E1000119601900D928A95E1F7005F1F4FA10175
:102E2000BE016F5F7F4FEB89FC8984819581FADA5F
:102E3000E989FA8920813181F10182819381820FB0
:102E4000931FE989FA8991838083F4E08F0E911CA6
:102E5000C4CFF50184A995A90E94D936F50197AB95
:102E600086AB892B09F45DC0F80180819181A28134
:102E7000B38124E42C9DF0012D9DF00D1124EA5E18
:102E8000F94FAC01BD014D7F21E030E0452B462BD1
:102E9000472B11F020E030E033A322A324E42C9D43
:102EA000F0012D9DF00D1124EA5EF94F0197A10963
:102EB000B10921E030E00297A105B10510F020E052
:102EC00030E035A324A324E42C9DC0012D9D900D5A
:102ED0001124DC01A45CB94FF801349624E0019080
:102EE0000D922A95E1F7FC01EA5EF94F868D978DE8
:102EF000A0A1B1A1B7FF10C0B095A0959095819504
:102F00009F4FAF4FBF4F82AF93AFA4AFB5AF168EF9
:102F1000178E10A211A20AC012AE13AE14AE15AED7
:102F200005C0C701B60112DA81E001C080E06896F1
:102F30000FB6F894DEBF0FBECDBFDF91CF911F91CA
:102F40000F91FF90EF90DF90CF90BF90AF909F9048
:102F50008F907F906F905F904F903F902F9008954B
:102F6000CF92DF92EF92FF92CF93DF9310929E0663
:102F700024E4269FF001279FF00D1124EA5EF94F0B
:102F800015A614A620E030E0C12CD12CDF011A9642
:102F9000C1E0D0E0C416D506D4F4ED91FC911197B0
:102FA000E20FF31FE280F3801E141F0454F4E48048
:102FB000F580F782E682F186E08613861286D18359
:102FC000C083EFEFCE1ADE0A225F3F4FE3CF24E447
:102FD000269FF001279FF00D1124EA5EF94F13A6FA
:102FE00012A611AE10AEDF01DE961D921D921D924B
:102FF0001C92139782E090E0938B828BDF91CF91AC
:10300000FF90EF90DF90CF90089524E4269FF00189
:10301000279FF00D1124EA5EF94F138A128A2FCBF5
:1030200024E4269FF001279FF00D1124EA5EF94F5A
:103030008289938981309105C8F08530910518F017
:10304000059769F008958FEF9FEFDC01828F938FD2
:10305000A48FB58F85E090E0938B828B08958FEFDE
:103060009FEFDC01828F938FA48FB58F089524E4A6
:10307000249FF001259FF00D1124EA5EF94F2EE008
:10308000AC01249FC001259F900D11240284F3857B
:10309000E02DE80FF91F81E080939E0682859385DD
:1030A00091878087408551852681378181E090E036
:1030B0004217530711F080E090E0918380830895D8
:1030C0002F923F924F925F926F927F928F929F9238
:1030D000AF92BF92CF92DF92EF92FF920F931F9326
:1030E000CF93DF93CDB7DEB7C055D1090FB6F894B3
:1030F000DEBF0FBECDBF9EAF8DAF4BA75CA76DA748
:103100007EA76801790184E48C9D80018D9D100D5E
:103110001124F801EA5EF94F2285338525963FAFE9
:103120002EAF259782899389029709F05FC186A502
:1031300097A5A0A9B1A9892B8A2B8B2B29F484E010
:1031400090E0938B828B52C1848995894DAD5EADA1
:103150004817590709F04AC186A997A998AB8FA7C4
:103160001CAE1BAE1FAA18AE19AE1AAE8F01DF013E
:103170009E962796BFAFAEAF2797F2962996FFAFE0
:10318000EEAF29979801285C3F4F2B963FAF2EAFAB
:103190002B97A8014A5D5F4F2D965FAF4EAF2D97DD
:1031A000C80182962F969FAF8EAF2F971A97619680
:1031B000BFAFAEAF61972796EEADFFAD2797808189
:1031C0009181A281B3812FA938AD49AD5AAD28179D
:1031D00039074A075B070CF0E8C02996EEADFFAD52
:1031E0002997808191812BAD3CAD280F391F3CABD5
:1031F0002BABD90112960D90BC91A02D2196BFAF9B
:10320000AEAF2197B695A795B695A7952396BFAF74
:10321000AEAF23972B96EEADFFAD2B9780819181BA
:10322000892B09F497C02D96AEADBFAD2D978D902B
:103230009D90AD90BC902FA438A8F9010190F08129
:10324000E02DFAABE9AB1EAA1DAA23968EAD9FAD69
:103250002397ADA9BEA9A817B9070CF07BC02F967C
:10326000AEADBFAD2F978D919C91892B71F1E9A9DE
:10327000FAA94080518062807380A3019201C50148
:10328000B4010E947F34181664F0D1012D913D9154
:103290004D915C91C501B4010E94073618160CF4DB
:1032A0008CC0A3019201C501B4010E947F3487FF45
:1032B0000CC0F1012081318142815381C501B401EB
:1032C0000E947F34882309F478C06196AEADBFAD0B
:1032D00061978D919C91892B69F1E9A9FAA94080A8
:1032E000518062807380A3019201C501B4010E94E4
:1032F0000736181664F4D1012D913D914D915C91E2
:10330000C501B4010E947F3418160CF056C0A30109
:103310009201C501B4010E947F3481110BC0F101FB
:103320002081318142815381C501B4010E947F34E3
:1033300087FD43C02DA93EA92F5F3F4F3EAB2DAB6C
:1033400034E0230E311C49A95AA94C5F5F4F5AAB98
:1033500049AB7BCFEBA9FCA96081718121964EAD71
:103360005FAD21978FA598A90E94FA3723968EAD5D
:103370009FAD2397880F991F880F991F2FA538A9F4
:10338000280F391F38AB2FA78FA998ADA9ADBAADBB
:103390000196A11DB11D8FAB98AFA9AFBAAFABAD70
:1033A000BCAD1496BCAFABAF06CF81E090E0D801C6
:1033B000D9969C938E93D89719C084E48C9DF00184
:1033C0008D9DF00D1124EA5EF94F868D978DA0A199
:1033D000B1A1892B8A2B8B2B09F059C284E090E094
:1033E000938B828B86AD97AD93A782A784E48C9D47
:1033F000F0018D9DF00D1124EA5EF94F82899389C9
:103400008230910579F482AD93ADA4ADB5AD1816B7
:1034100019061A061B060CF041C2E1E0F0E0FAAB17
:10342000E9AB05C0049709F039C21AAA19AA8EE0BF
:103430002DAD3EAD829F8001839F100D11242596F6
:103440004EAD5FAD2597040F151FD80112962D9133
:103450003C9113972115310509F420C216968D91E0
:103460009C9117979AA789A7FE01319684E1DF0105
:103470001D928A95E9F7C98ADA8AEB8AFC8AE9A95A
:10348000FAA9EF2B09F451C084E48C9DF0018D9DC5
:10349000F00D1124EA5EF94FDF01DE968D909D90CC
:1034A000AD90BC9082AD93ADA4ADB5AD8816990634
:1034B000AA06BB06D1F5D80114964D915C911597DB
:1034C0001896ED91FC911997349684E0DE0155969B
:1034D00001900D928A95E1F78D899E8908969E8BC1
:1034E0008D8BF80160857185860F971F9187808786
:1034F00080859185240F351F821B930B97FD04C097
:10350000840F951F9187808784E48C9DF0018D9DA9
:10351000F00D1124EC5AF94F21E0821A9108A1080C
:10352000B10880829182A282B3829E012B5E3F4FBE
:10353000AE01475D5F4F64E170E0C8010E943D113C
:10354000282E312C2114310409F08AC18CE090E03E
:10355000A0E0B0E08D839E83AF83B8879E01235E99
:103560003F4FAE01475D5F4F64E070E0C8010E94CD
:103570003D11282E312C2114310409F071C180E154
:1035800090E0A0E0B0E08D839E83AF83B8874D8D3F
:103590005E8DBE01655D7F4F8F8D98A10E94FA37C9
:1035A0008BA19CA1009761F06D8D7E8D4BE250E068
:1035B0004C0F5D1F640F751F49A15AA10E94FA3775
:1035C0001DA21EA21FA218A68DAD9EAD880F991F29
:1035D00098AF8FAB24E42C9DC0012D9D900D11243C
:1035E0008A5E994FDC011496BCAFABAFFC013896F4
:1035F0002196FFAFEEAF21978DA09EA0AFA0B8A4FB
:10360000EBADFCAD80819181A281B38188169906D2
:10361000AA06BB060CF0CDC02196AEADBFAD21977A
:10362000ED91FC91C401880F991F880F991FE80F35
:10363000F91FA081B1818C9181110AC0BFEF8B1A53
:103640009B0AAB0ABB0A8DA29EA2AFA2B8A6D4CF9A
:103650008330A1F30280F381E02D2FA938ADE20F72
:10366000F31F408151815CAB4BAB452B39F389850E
:103670009A85AB85BC850196A11DB11D89879A8766
:10368000AB87BC879E01235E3F4FAE01475D5F4F16
:1036900064E070E0C8010E943D1190E0009709F0DD
:1036A000DEC08D819E81AF81B8850496A11DB11DBC
:1036B0008D839E83AF83B8874D8D5E8DBE016B5D1C
:1036C0007F4F8F8D98A10E94FA378BA19CA1009704
:1036D00061F06D8D7E8DA5E2B0E0AC0FBD1F6A0F6D
:1036E0007B1F49A15AA10E94FA371EAA1DAA412C8C
:1036F000512C3201EBA9FCA980819181A281B38177
:10370000481659066A067B060CF098CFEBA9FCA96F
:10371000848195812DA93EA9280F391F38AB2FA789
:10372000D90112966D917C9113979E01235E3F4FB4
:10373000AE01475D5F4FC8010E943D1190E00097C8
:1037400009F08DC0EFA5F8A982819381092E000CA4
:10375000AA0BBB0B4D815E816F817885840F951F0D
:10376000A61FB71F8D839E83AF83B8876081718149
:103770004D8D5E8D8F8D98A10E94FA378BA19CA1F3
:10378000009761F0AFA5B8A96D917C912D8D3E8D0C
:10379000620F731F49A15AA10E94FA37BFEF4B1A5B
:1037A0005B0A6B0A7B0AEDA9FEA93496FEABEDAB72
:1037B000A1CF89859A85AB85BC85892B8A2B8B2BDC
:1037C00009F44EC08AE190E0A0E0B0E089839A83DA
:1037D000AB83BC832DAD3EADC901330FAA0BBB0B30
:1037E0008D879E87AF87B88B4D895E89BE016F5FDD
:1037F0007F4F8F89988D0E94FA378B8D9C8D009713
:1038000061F06D897E8941E050E04C0F5D1F640FCF
:10381000751F498D5A8D0E94FA3789A59AA5D8013E
:1038200017969C938E93169711961C921E92E9A957
:10383000FAA9EF2B99F184E48C9DF0018D9DF00D98
:103840001124EC5AF94F80819181A281B3810196B4
:10385000A11DB11D80839183A283B3831FC01C016E
:1038600029A93AA9232BD1F42328C1F084E48C9D03
:10387000F0018D9DF00D1124EA5EF94F81E090E09A
:1038800095A784A785E090E0938B828B07C083E0A7
:1038900090E0938B828B81E090E0A6CDC05BDF4F00
:1038A0000FB6F894DEBF0FBECDBFDF91CF911F9151
:1038B0000F91FF90EF90DF90CF90BF90AF909F90CF
:1038C0008F907F906F905F904F903F902F900895D2
:1038D000CF92DF92EF92FF920F931F9324E4269FE3
:1038E000F001279FF00D1124EA5EF94F22893389F8
:1038F0002115310509F453C06B017C0121303105DC
:10390000B9F482A593A59C012F5F3F4F33A722A74F
:10391000092E000CAA0BBB0B028D138D248D358D47
:1039200080179107A207B307D1F5C701B60118DBCD
:1039300084E48C9DF0018D9DF00D1124EA5EF94F19
:1039400082899389039759F582A593A59C012F5FDE
:103950003F4F33A722A7092E000CAA0BBB0B468DA5
:10396000578D60A171A184179507A607B707BCF012
:1039700086AD97AD93A782A784E090E0938B828B6E
:1039800082AD93ADA4ADB5AD181619061A061B0687
:1039900034F4EE5BFF4F81E090E0918380831F91D0
:1039A0000F91FF90EF90DF90CF90089524E4269F31
:1039B000F001279FF00D1124EA5EF94F8289938967
:1039C0000497B1F482A593A5019693A782A7092E27
:1039D000000CAA0BBB0B46895789608D718D84172B
:1039E0009507A607B70721F485E090E0938B828BBB
:1039F00008952F923F924F925F926F927F928F9293
:103A00009F92AF92BF92CF92DF92EF92FF920F936D
:103A10001F93CF93DF93CDB7DEB72E970FB6F894F1
:103A2000DEBF0FBECDBF49835A836B837C834901C0
:103A3000442E552E24E4249DF001259DF00D1124E3
:103A4000EA5EF94F228833889101245031092230EF
:103A5000310508F0DFC0DC0111961C921E9213960E
:103A60001C921E92129715861486A12CB12C60E030
:103A700070E09F01265F3F4F38872F837F013CE036
:103A8000E30EF11CDF015096BA87A9879F01225FE0
:103A90003F4F3C872B87681579050CF06FC0EF818D
:103AA000F885A081B1819D012A0D3B1D3E872D87A0
:103AB000D9012D913C911197232B09F059C01896EB
:103AC0000D911C9119971296ED91FC911397FE831D
:103AD000ED8316962D913C911797D7014D915C91EE
:103AE000DA01E3E0AA0FBB1FEA95E1F7E985FA8561
:103AF000C080D180FD01EC0DFD1D440F551FAB852D
:103B0000BC85CD90DC904C0D5D1DDA016D937C93EE
:103B1000D7014D915C9111974F5F5F4F4D935C932F
:103B200013830283AD85BE851B963C932E931A9713
:103B30000217130748F4201B310B318320831582B1
:103B400014821782168214C0AD85BE851496CD905E
:103B5000DC9015974D815E814C0D5D1D401B510B16
:103B6000518340832C193D0935832483D782C68233
:103B70006F5F7F4FBEE0AB0EB11C8DCF24E4249D60
:103B80008001259D100D11240A5E194FF80124852E
:103B90003585DC0111963C932E934089518913960B
:103BA0005C934E9312974685578515965C934E937A
:103BB0001497232BB1F5B5E02B16310491F5109233
:103BC0009E06828D938DA48DB58DAE014F5F5F4FA4
:103BD00064E070E08F3F9F4FAF4FBF4F59F480E2DA
:103BE00090E00E94462B69817A818B819C81A4019F
:103BF0000CDA17C08FE190E00E94462BD8019B960B
:103C00001C921E929A9781E090E053969C938E931B
:103C1000529707C015861486FC0111821082138208
:103C200012822E960FB6F894DEBF0FBECDBFDF9185
:103C3000CF911F910F91FF90EF90DF90CF90BF90A9
:103C4000AF909F908F907F906F905F904F903F903C
:103C50002F900895EF92FF920F931F93CF93DF93CE
:103C60007C018B01EA010E942D2C811121C08091E1
:103C70000E0390910F03049711F183E090E090936D
:103C80000F0380930E031BC088818111F0CF28EDB4
:103C900038EB45E050E060E070E0CB010E94B62ECA
:103CA000AE01B801C7010E94C42EC8010E948F2E28
:103CB00080919F069091A006892B31F3D8CFDF9198
:103CC000CF911F910F91FF90EF900895CF93DF93C5
:103CD00020910E0330910F032430310541F0EB01A8
:103CE0000E94C42ECE01DF91CF910C948F2EDF91D4
:103CF000CF9108950C94A4320C9499320C9487328D
:103D00000C949F2E0C942A32089560E070E080E0BD
:103D100090E00C94082C0895AF92BF92CF92DF925E
:103D2000EF92FF920F931F93CF93DF931F921F92F7
:103D3000CDB7DEB75C0169017A018B0180E090E0CC
:103D4000C114D104E104F104F1F0C114D10421E063
:103D5000E206F10410F4A60102C04FEF5FEF9E01EE
:103D60002F5F3F4FB801C5010E9435338F3F2FEFC2
:103D7000920749F029813A81C21AD30AE108F10871
:103D8000020F131FDDCF0F900F90DF91CF911F9186
:103D90000F91FF90EF90DF90CF90BF90AF9008957C
:103DA00008950895883008F070C0A82FB0E0AA0FD9
:103DB000BB1FA05FBC4F11967C936E9390E0FC01FB
:103DC0003197E730F105A0F58827EE58FF4F8F4F68
:103DD0000C94A336809169008C7F482B4093690036
:103DE000E89A089580916900837F440F551F440F1E
:103DF000551F482B40936900E99A08958091690006
:103E00008F7C74E0440F551F7A95E1F7482B40935F
:103E10006900EA9A0895809169008F7366E0440F03
:103E2000551F6A95E1F7482B40936900EB9A089576
:103E300080916A008C7F482B40936A00EC9A089529
:103E400080916A00837F440F551F440F551F482BF4
:103E500040936A00ED9A089580916A008F7C24E077
:103E6000440F551F2A95E1F7482B40936A00EE9ABC
:103E7000089580916A008F7396E0440F551F9A95BC
:103E8000E1F7482B40936A00EF9A08951F920F9232
:103E90000FB60F9211240BB60F922F933F934F93AF
:103EA0005F936F937F938F939F93AF93BF93EF93A2
:103EB000FF93E0911403F09115031995FF91EF9191
:103EC000BF91AF919F918F917F916F915F914F9132
:103ED0003F912F910F900BBE0F900FBE0F901F9030
:103EE00018951F920F920FB60F9211240BB60F92D6
:103EF0002F933F934F935F936F937F938F939F93F2
:103F0000AF93BF93EF93FF93E0911603F0911703E4
:103F10001995FF91EF91BF91AF919F918F917F91F3
:103F20006F915F914F913F912F910F900BBE0F902A
:103F30000FBE0F901F9018951F920F920FB60F9201
:103F400011240BB60F922F933F934F935F936F9370
:103F50007F938F939F93AF93BF93EF93FF93E091E2
:103F60001803F09119031995FF91EF91BF91AF914B
:103F70009F918F917F916F915F914F913F912F9181
:103F80000F900BBE0F900FBE0F901F9018951F92B1
:103F90000F920FB60F9211240BB60F922F933F93EF
:103FA0004F935F936F937F938F939F93AF93BF9341
:103FB000EF93FF93E0911A03F0911B031995FF9182
:103FC000EF91BF91AF919F918F917F916F915F9191
:103FD0004F913F912F910F900BBE0F900FBE0F90FE
:103FE0001F9018951F920F920FB60F9211240BB6C7
:103FF0000F922F933F934F935F936F937F938F9382
:104000009F93AF93BF93EF93FF93E0911003F091D1
:1040100011031995FF91EF91BF91AF919F918F91EE
:104020007F916F915F914F913F912F910F900BBEB8
:104030000F900FBE0F901F9018951F920F920FB602
:104040000F9211240BB60F922F933F934F935F93D0
:104050006F937F938F939F93AF93BF93EF93FF9350
:10406000E0911203F09113031995FF91EF91BF9125
:10407000AF919F918F917F916F915F914F913F9100
:104080002F910F900BBE0F900FBE0F901F901895A1
:104090001F920F920FB60F9211240BB60F922F930F
:1040A0003F934F935F936F937F938F939F93AF93C0
:1040B000BF93EF93FF93E0911C03F0911D031995BB
:1040C000FF91EF91BF91AF919F918F917F916F91F0
:1040D0005F914F913F912F910F900BBE0F900FBEAC
:1040E0000F901F9018951F920F920FB60F921124E8
:1040F0000BB60F922F933F934F935F936F937F93E2
:104100008F939F93AF93BF93EF93FF93E0911E0321
:10411000F0911F031995FF91EF91BF91AF919F917E
:104120008F917F916F915F914F913F912F910F9060
:104130000BBE0F900FBE0F901F9018951F920F92FD
:104140000FB60F9211242F933F938F939F93AF93AA
:10415000BF938091A2069091A306A091A406B0916E
:10416000A5063091A10623E0230F2D3720F40196F8
:10417000A11DB11D05C026E8230F0296A11DB11D8A
:104180002093A1068093A2069093A306A093A40671
:10419000B093A5068091A6069091A706A091A806C7
:1041A000B091A9060196A11DB11D8093A60690931A
:1041B000A706A093A806B093A906BF91AF919F91BF
:1041C0008F913F912F910F900FBE0F901F901895D8
:1041D0002FB7F8946091A2067091A3068091A4066F
:1041E0009091A5062FBF08953FB7F8948091A60639
:1041F0009091A706A091A806B091A90626B5A89B04
:1042000005C02F3F19F00196A11DB11D3FBFBA2F68
:10421000A92F982F8827820F911DA11DB11DBC01C8
:10422000CD0142E0660F771F881F991F4A95D1F78D
:1042300008958F929F92AF92BF92CF92DF92EF92AA
:10424000FF926B017C01D0DF4B015C01C114D104F2
:10425000E104F104F1F0A4DDC7DFDC01CB01881932
:104260009909AA09BB09883E9340A105B10570F3DD
:1042700021E0C21AD108E108F10888EE880E83E037
:10428000981EA11CB11CC114D104E104F10421F752
:10429000DDCFFF90EF90DF90CF90BF90AF909F90D9
:1042A0008F900895789484B5826084BD84B58160D0
:1042B00084BD85B5826085BD85B5816085BDEEE62E
:1042C000F0E0808181608083E1E8F0E0108280810D
:1042D00082608083808181608083E0E8F0E080817B
:1042E00081608083E1EBF0E0808184608083E0EB9B
:1042F000F0E0808181608083E1E9F0E0808182608C
:104300008083808181608083E0E9F0E0808181604A
:104310008083E1EAF0E08081826080838081816037
:104320008083E0EAF0E0808181608083E1E2F1E077
:10433000808182608083808181608083E0E2F1E01F
:10434000808181608083EAE7F0E0808184608083FF
:1043500080818260808380818160808380818068A9
:1043600080831092C10008951F93CF93DF93182F7D
:10437000EB0161E016D1209711F460E004C0CF3F5B
:10438000D10531F461E0812FDF91CF911F9145C1BB
:10439000E12FF0E0E65AFE4FE4918E2F90E0FC0111
:1043A0003197E231F10508F09DC08827E758FF4FAB
:1043B0008F4F0C94A33684B5806884BDC7BD97C069
:1043C00084B5806284BDC8BD92C080918000806841
:1043D00080938000D0938900C093880088C080912A
:1043E0008000806280938000D0938B00C0938A000D
:1043F0007EC080918000886080938000D0938D0083
:10440000C0938C0074C08091B00080688093B0002D
:10441000C093B3006CC08091B00080628093B00004
:10442000C093B40064C08091900080688093900035
:10443000D0939900C09398005AC0809190008062F8
:1044400080939000D0939B00C0939A0050C08091BD
:104450009000886080939000D0939D00C0939C0052
:1044600046C08091A00080688093A0008091A00049
:104470008F7B8093A000D093A900C093A80037C081
:104480008091A00080628093A000D093AB00C09385
:10449000AA002DC08091A00088608093A000D093D6
:1044A000AD00C093AC0023C0809120018068809350
:1044B0002001D0932901C093280119C080912001C7
:1044C000806280932001D0932B01C0932A010FC0FA
:1044D00080912001886080932001D0932D01C093AA
:1044E0002C0105C0C038D1050CF04CCF46CFDF9170
:1044F000CF911F91089590E0FC013197E231F105D1
:1045000008F04EC08827E557FF4F8F4F0C94A33615
:10451000809180008F7703C0809180008F7D809391
:104520008000089580918000877FF9CF84B58F77D0
:1045300002C084B58F7D84BD08958091B0008F77CF
:1045400003C08091B0008F7D8093B000089580916A
:1045500090008F7707C0809190008F7D03C080917D
:104560009000877F8093900008958091A0008F77BE
:1045700007C08091A0008F7D03C08091A000877F3D
:104580008093A0000895809120018F7707C08091CB
:1045900020018F7D03C080912001877F80932001BF
:1045A0000895CF93DF9390E0FC01E056FE4F2491F5
:1045B000FC01EA51FE4F8491882361F190E0880F5D
:1045C000991FFC01EA5BFD4FC591D491FC01E45DAC
:1045D000FD4FA591B491611109C09FB7F8948881EE
:1045E000209582238883EC912E230BC0623061F4E6
:1045F0009FB7F8948881322F309583238883EC917C
:104600002E2B2C939FBF06C08FB7F894E8812E2BDA
:1046100028838FBFDF91CF9108951F93CF93DF93AE
:10462000282F30E0F901E65AFE4F8491F901E05657
:10463000FE4FD491F901EA51FE4FC491CC23B9F059
:10464000162F811158DFEC2FF0E0EE0FFF1FE45D15
:10465000FD4FA591B4919FB7F894111104C08C91AE
:10466000D095D82302C0EC91DE2BDC939FBFDF9165
:10467000CF911F910895FC01918D228D892F90E09B
:10468000805C9F4F821B91098F7399270895FC01CD
:10469000918D828D981731F0828DE80FF11D858DF7
:1046A00090E008958FEF9FEF0895FC01918D828D2A
:1046B000981761F0828DDF01A80FB11D5D968C9176
:1046C000928D9F5F9F73928F90E008958FEF9FEF81
:1046D0000895FC01538D448D252F30E0842F90E008
:1046E000821B930B541710F0CF96089501970895ED
:1046F000FC01848DDF01A80FB11DA35ABF4F2C917F
:10470000848D90E001968F739927848FA689B7894D
:104710002C93A089B1898C91837080648C93938D44
:10472000848D981306C00288F389E02D80818F7DE7
:1047300080830895EF92FF920F931F93CF93DF939F
:10474000EC0181E0888F9B8D8C8D981305C0E889E2
:10475000F989808185FD25C0F62E0B8D10E00F5F55
:104760001F4F0F731127E02E8C8DE8120BC00FB670
:1047700007FCFACFE889F989808185FFF5CFCE0162
:10478000B7DFF2CF8B8DFE01E80FF11DE35AFF4F2B
:10479000F0829FB7F8940B8FEA89FB898081806251
:1047A0000AC09FB7F894EE89FF896083E889F98988
:1047B00080818370806480839FBF81E090E0DF917F
:1047C000CF911F910F91FF90EF900895CF93DF93BA
:1047D000EC01888D8823C1F0EA89FB89808185FD01
:1047E00005C0A889B9898C9186FD0EC00FB607FC5B
:1047F000F5CF808185FFF2CFA889B9898C9185FF9B
:10480000EDCFCE0175DFE8CFDF91CF910895CF9244
:10481000DF92EF92FF921F93CF93DF93EC016A0137
:104820007B01122FE889F98982E080834115514E7E
:1048300061057105B1F060E079E08DE390E0A701DA
:1048400096010E948136DA01C9010197A109B109D7
:10485000B695A795979587959C01211580E1380716
:10486000A8F0E889F989108260E874E88EE190E0A8
:10487000A70196010E948136DA01C9010197A109B9
:10488000B109B695A795979587959C01EC85FD850F
:104890003083EE85FF852083188EEC89FD89108397
:1048A000EA89FB89808180618083EA89FB89808134
:1048B00088608083EA89FB89808180688083EA89B7
:1048C000FB8980818F7D8083DF91CF911F91FF9045
:1048D000EF90DF90CF9008951F920F920FB60F9236
:1048E00011240BB60F922F938F939F93EF93FF9307
:1048F000E091BA06F091BB068081E091C006F0918C
:10490000C10682FD12C090818091C3068F5F8F73B4
:104910002091C406821751F0E091C306F0E0E655FD
:10492000F94F958F8093C30601C08081FF91EF916D
:104930009F918F912F910F900BBE0F900FBE0F90F4
:104940001F9018951F920F920FB60F9211240BB65D
:104950000F922F933F934F935F936F937F938F9318
:104960009F93AF93BF93EF93FF938AEA96E0C0DEE5
:10497000FF91EF91BF91AF919F918F917F916F9137
:104980005F914F913F912F910F900BBE0F900FBEF3
:104990000F901F901895EAEAF6E01382128288EED3
:1049A00093E0A0E0B0E084839583A683B7838EE68E
:1049B00094E09183808385EC90E09587848784ECF4
:1049C00090E09787868780EC90E0918B808B81ECDC
:1049D00090E0938B828B82EC90E0958B848B86ECBD
:1049E00090E0978B868B118E128E138E148E089505
:1049F0001F920F920FB60F9211240BB60F922F93A6
:104A00008F939F93EF93FF93E0915707F09158078F
:104A10008081E0915D07F0915E0782FD12C0908178
:104A2000809160078F5F8F7320916107821751F02B
:104A3000E0916007F0E0E95BF84F958F80936007A5
:104A400001C08081FF91EF919F918F912F910F90E5
:104A50000BBE0F900FBE0F901F9018951F920F92D4
:104A60000FB60F9211240BB60F922F933F934F93D3
:104A70005F936F937F938F939F93AF93BF93EF93C6
:104A8000FF9387E497E034DEFF91EF91BF91AF9100
:104A90009F918F917F916F915F914F913F912F9156
:104AA0000F900BBE0F900FBE0F901F901895E7E46C
:104AB000F7E01382128288EE93E0A0E0B0E08483F6
:104AC0009583A683B7838EE694E0918380838DECF3
:104AD00090E0958784878CEC90E09787868788ECB8
:104AE00090E0918B808B89EC90E0938B828B8AECA9
:104AF00090E0958B848B8EEC90E0978B868B118E5B
:104B0000128E138E148E08951F920F920FB60F926D
:104B100011240BB60F922F938F939F93EF93FF93D4
:104B2000E091F407F091F5078081E091FA07F091A8
:104B3000FB0782FD12C090818091FD078F5F8F730C
:104B40002091FE07821751F0E091FD07F0E0EC5153
:104B5000F84F958F8093FD0701C08081FF91EF9101
:104B60009F918F912F910F900BBE0F900FBE0F90C2
:104B70001F9018951F920F920FB60F9211240BB62B
:104B80000F922F933F934F935F936F937F938F93E6
:104B90009F93AF93BF93EF93FF9384EE97E0A8DDCD
:104BA000FF91EF91BF91AF919F918F917F916F9105
:104BB0005F914F913F912F910F900BBE0F900FBEC1
:104BC0000F901F901895E4EEF7E01382128288EEA2
:104BD00093E0A0E0B0E084839583A683B7838EE65C
:104BE00094E09183808385ED90E09587848784EDC0
:104BF00090E09787868780ED90E0918B808B81EDA8
:104C000090E0938B828B82ED90E0958B848B86ED88
:104C100090E0978B868B118E128E138E148E0895D2
:104C20001F920F920FB60F9211240BB60F922F9373
:104C30008F939F93EF93FF93E0919108F0919208E7
:104C40008081E0919708F091980882FD12C09081D0
:104C500080919A088F5F8F7320919B08821751F083
:104C6000E0919A08F0E0EF57F74F958F80939A08FC
:104C700001C08081FF91EF919F918F912F910F90B3
:104C80000BBE0F900FBE0F901F9018951F920F92A2
:104C90000FB60F9211240BB60F922F933F934F93A1
:104CA0005F936F937F938F939F93AF93BF93EF9394
:104CB000FF9381E898E01CDDFF91EF91BF91AF91E8
:104CC0009F918F917F916F915F914F913F912F9124
:104CD0000F900BBE0F900FBE0F901F901895E1E83C
:104CE000F8E01382128288EE93E0A0E0B0E08483C3
:104CF0009583A683B7838EE694E09183808385E3D2
:104D000091E09587848784E391E09787868780E3A5
:104D100091E0918B808B81E391E0938B828B82E396
:104D200091E0958B848B86E391E0978B868B118E37
:104D3000128E138E148E0895CF92DF92EF92FF920F
:104D40000F931F93CF93DF936C017A018B01C0E027
:104D5000D0E0CE15DF0581F0D8016D918D01D6012F
:104D6000ED91FC910190F081E02DC6011995892B00
:104D700011F02196EECF7E01C701DF91CF911F91F7
:104D80000F91FF90EF90DF90CF9008958230A9F0BF
:104D900028F4882349F0813051F00895843021F1BE
:104DA000E8F0853039F1089510926E0008958091F1
:104DB0006F008D7F80936F000895809170008D7FCC
:104DC0008093700081E08093B0008091B100887F73
:104DD00084608093B1001092B300089580917100B7
:104DE0008D7F809371000895809172008D7F8093F4
:104DF00072000895809173008D7F809373000895F1
:104E0000CF93C82F80912003C81307C0E0E6F2E0DB
:104E100084919FEF9093200301C08FEFB7DF60E094
:104E20008C2FCF91FACB1F920F920FB60F921124B5
:104E30000BB60F922F933F934F935F936F937F9394
:104E40008F939F93AF93BF93EF93FF93809121092B
:104E500090912209A0912309B0912409892B8A2BD2
:104E60008B2B51F190911E09E0911F09F0912009BF
:104E70008081892780838091210990912209A091C6
:104E80002309B0912409181619061A061B06BCF44A
:104E90008091210990912209A0912309B0912409C0
:104EA0000197A109B1098093210990932209A09348
:104EB0002309B093240903C080912003A1DFFF914F
:104EC000EF91BF91AF919F918F917F916F915F9182
:104ED0004F913F912F910F900BBE0F900FBE0F90EF
:104EE0001F90189540E052EC61E070E080E090E0A7
:104EF00006D061E08DE055DB60E08DE08ECB813047
:104F0000910571F01CF4892B39F0089582309105D8
:104F100059F0039769F0089526E08AEA96E00BC0FD
:104F200026E087E497E007C026E084EE97E003C020
:104F300026E081E898E06BCC1F920F920FB60F929B
:104F400011240BB60F922F933F934F935F936F9360
:104F50007F938F939F93AF93BF93EF93FF938FE8CC
:104F60009DEF9093250180932401809151099091A8
:104F70005209019719F461E08DE04FDB0E9475330F
:104F8000FF91EF91BF91AF919F918F917F916F9121
:104F90005F914F913F912F910F900BBE0F900FBEDD
:104FA0000F901F9018958FE89DEF909325018093A7
:104FB0002401A3E7B0E08C918E7F8C93E0E2F1E0D6
:104FC00080818C7F8083E1E2F1E08081877E808335
:104FD00080818460808380818C7F80838C918160DC
:104FE0008C93089581E008956F927F928F929F92A3
:104FF000AF92BF92CF92DF92EF92FF920F931F93E7
:10500000CF93DF933C017B015A0101E010E00E15C4
:105010001F0564F568018FEFC81AD80AE801CC0FA4
:10502000DD1FCA0DDB1D8880998081149104E1F099
:105030006CE774E0C4010E940A38892B19F41982C4
:10504000188212C06FE774E0C4010E940A38892BED
:1050500059F4EC14FD0441F06801E2E0CE0ED11CDD
:10506000198218821B821A828601D1CF81E0F30156
:105070008083B501C7010E94CF32F30192838183FF
:1050800080E090E0DF91CF911F910F91FF90EF9022
:10509000DF90CF90BF90AF909F908F907F906F9058
:1050A000089585E299E0089580E008950F931F9395
:1050B000CF93DF938B01BA01E9011982188298011D
:1050C000012E000C440B550BFC01818192810E9442
:1050D0008C1E019621F01983088380E001C081E0D5
:1050E000DF91CF911F910F9108950F931F93CF934D
:1050F000DF931F921F92CDB7DEB7FB018A01B90182
:105100009E012F5F3F4FAF01FC01818192810E9480
:10511000E632019639F089819A81F8019183808382
:1051200080E001C081E00F900F90DF91CF911F913F
:105130000F910895FC01808108950895089581E0FC
:10514000FB01808380E00895089510924D09089531
:10515000FC01818192810C94C632CF93DF93CDB74D
:10516000DEB72A970FB6F894DEBF0FBECDBFAC01F5
:10517000CB0160E070E049835A836B837C83092E06
:10518000000CAA0BBB0B8D839E83AF83B8879E0157
:10519000275F3F4FAE014F5F5F4F68E070E0809147
:1051A0003C0990913D0982DF811108C081E0298589
:1051B0003A852830310519F480E001C081E02A9653
:1051C0000FB6F894DEBF0FBECDBFDF91CF9108952B
:1051D0000F931F93CF93DF931F921F92CDB7DEB72C
:1051E0008B019E012F5F3F4FAC0180913C09909154
:1051F0003D095CDF811108C081E029813A812017D7
:10520000310719F480E001C081E00F900F90DF9129
:10521000CF911F910F910895CF93DF93EC011092DE
:10522000400910923F0910924C0910924B09AC01B1
:1052300060E070E0CB010E940518AE0161E070E013
:1052400080E090E00E94051880913C0990913D0912
:10525000DF91CF9179CF4F925F926F927F928F9231
:105260009F92AF92BF92CF92DF92EF92FF920F93F5
:105270001F93CF93DF931F921F92CDB7DEB79C0190
:105280006C0197FF03C087E0C80ED11C43E0D594A2
:10529000C7944A95E1F7C90168E070E00E946E3654
:1052A0005C0189010E5F1F4F80913A0990913B0983
:1052B000801791070CF0AEC08091380990913909A0
:1052C000009731F00E94713710923B0910923A0911
:1052D000C8010E94D9369093390980933809892BE7
:1052E00019F400E010E033C010933B0900933A0931
:1052F00091C089819A81E80EF91E8AE0E816F104CE
:1053000009F078C149E050E060E070E081E499E0A4
:105310000E94673360914B0970914C09882309F40E
:105320009BC18091490990E08617970781F4BC01E1
:105330008EEE90E012DF80914B0990914C0901961E
:10534000992790934C0980934B090F5F1F4F0C15C1
:105350001D050CF47BC1AB2809F460C1C12CD12C14
:10536000760100E010E098012F5B364FAE014F5FF1
:105370005F4F61E070E080913C0990913D09B5DE9E
:1053800081114CC18FEFC81AD80AE80AF80A80E9DF
:10539000C8168FE5D80681E0E806F1043CF060917C
:1053A0004B0970914C098DEE90E02DC089819A8156
:1053B000080F191F0A30110541F549E050E060E07F
:1053C00070E081E499E00E94673360914B0970912D
:1053D0004C098823B1F08091490990E0861797071E
:1053E00009F01CC1BC018EEE90E0B7DE80914B0944
:1053F00090914C090196992790934C0980934B0901
:105400000DC18FEE90E0A9DEA9CF0A3011050CF492
:10541000AACF04C100E010E00C151D050CF078C007
:10542000412C512C3201E12CF12C480193E0880CE5
:10543000991C9A95E1F72091380930913909C701F3
:10544000880D991D280F391FAE014F5F5F4F61E036
:1054500070E080913C0990913D0947DE8111DEC0EA
:105460008FEF481A580A680A780A80E948168FE5CB
:10547000580681E0680671043CF060914B09709118
:105480004C098DEE90E037C089819A81E80EF91EB3
:105490008AE0E816F104B1F549E050E0B4018091EA
:1054A0003809909139090E94673360914B097091D6
:1054B0004C098823F1F08091380990913909FC0159
:1054C000E80DF91D808590E08617970709F0A4CFB5
:1054D000BC018EEE90E041DE80914B0990914C0929
:1054E0000196992790934C0980934B090F5F1F4FAA
:1054F00093CF8FEE90E031DE412C512C3201E12C24
:10550000F12C99CF8AE0E816F1040CF494CF84CF03
:10551000A114B10409F4A3C0412C512C3201E12C97
:10552000F12C97012F5B364FAE014F5F5F4F61E06B
:1055300070E080913C0990913D09D7DD81116EC0EA
:105540008FEF481A580A680A780A80E948168FE5EA
:10555000580681E0680671043CF060914B09709137
:105560004C098DEE90E03EC089819A81E80EF91ECB
:105570008AE0E816F104C1F549E050E060E070E02F
:1055800081E499E00E94673360914B0970914C0966
:10559000882331F18091490990E08617970709F037
:1055A0005EC0BC018EEE90E0D8DD83E0000F111FDD
:1055B0008A95E1F78091380990913909A50161E454
:1055C00079E0800F911F0E94FA3780914B099091EA
:1055D0004C090196992790934C0980934B093FC041
:1055E0008FEE90E0BADD98CF8AE0E816F1040CF473
:1055F00098CF35C08AE0E816F1040CF0A8CE9701E8
:105600002F5B364FAE014F5F5F4F61E070E08091DE
:105610003C0990913D0969DD882319F080E090E014
:1056200022C08FEF481A580A680A780A80E948169B
:105630008FE5580681E0680671040CF45ACE60913B
:105640004B0970914C098DEE90E087DD412C512C77
:105650003201E12CF12CD3CF8FEE90E0F6CF809188
:105660003809909139090F900F90DF91CF911F91D8
:105670000F91FF90EF90DF90CF90BF90AF909F90F1
:105680008F907F906F905F904F900895CF92DF92B0
:10569000EF92FF920F931F93CF93DF931F92CDB79B
:1056A000DEB76C017B018A01452B39F0AB0160E06C
:1056B00070E0C8010E9463338983B701C6014DDDE4
:1056C00081110DC00115110551F0B701C80180DD30
:1056D000811105C061E070E0CE01019679DD0F9087
:1056E000DF91CF911F910F91FF90EF90DF90CF90BE
:1056F0000895CF92DF92EF92FF92CF93DF93CDB7D1
:10570000DEB728970FB6F894DEBF0FBECDBF6B0192
:10571000E12CF12CC982DA82EB82FC822D833E835C
:105720004F835887AE014F5F5F4F68E070E0AEDF98
:1057300028960FB6F894DEBF0FBECDBFDF91CF9194
:10574000FF90EF90DF90CF9008958F929F92AF924D
:10575000BF92CF92DF92EF92FF920F931F93CF935E
:10576000DF93EC017B01CA01690175DD009749F403
:105770002FEF3FEFA90161E070E0CE01BADF81E0D9
:105780003AC0FC0180809180A280B380CB31D105EA
:1057900061F0CC31D105E9F4BC016C5F7F4FA5010C
:1057A0009401C7010E946E1609C0AC014C5F5F4FA7
:1057B00095018401B601C7010E946114F82E882367
:1057C00041F0A501940161E070E0CE0192DF8F2DE0
:1057D00012C0A501940160E070E0CE01DF91CF918D
:1057E0001F910F91FF90EF90DF90CF90BF90AF90FF
:1057F0009F908F907ECFDF91CF911F910F91FF905F
:10580000EF90DF90CF90BF90AF909F908F900895D2
:105810000F931F93CF93DF93EC018B0142DC9093A6
:105820003D0980933C09009739F0A801BE01DCDBFB
:10583000EC01892B19F40BC0CBE8D4E080913C0932
:1058400090913D097ADC10923D0910923C09CE01FD
:10585000DF91CF911F910F91089580913C09909114
:105860003D0968CC2F923F924F925F926F927F9248
:105870008F929F92AF92BF92CF92DF92EF92FF9260
:105880000F931F93CF93DF93CDB7DEB76B970FB610
:10589000F894DEBF0FBECDBF20914009222309F44A
:1058A00025C25D8B4C8B688B798B8A8B9B8B9A0185
:1058B000AB01BC01CE0101967C010E94F91C10E0F5
:1058C00038E0232E312CEA8EFB8E89819A811816BE
:1058D00019060CF006C21F861E861D861C8689814D
:1058E0009A81AC85BD85A817B9070CF0EFC1EB8193
:1058F000FC81AE85BF85EA0FFB1F2081318130938B
:1059000037092093360984819581428153815093D0
:1059100035094093340946815781509333094093A8
:105920003209820F931F9C01990F440B550B2E8B4C
:105930003F8B488F598FC12CD12C76012E893F89FE
:10594000488D598DC216D306E406F50608F0A2C1AB
:105950001F8260913609709137098B01072E000C68
:10596000220B330BD701C6010496A11DB11D801770
:105970009107A207B30728F4E0913409F0913509A3
:105980000AC0E4E0F0E0E61BF70BEC0DFD1D809192
:10599000320990913309E80FF91F4080512C612C96
:1059A000712CD701C6010596A11DB11D8017910765
:1059B000A207B30728F4E0913409F09135090AC031
:1059C000E5E0F0E0E61BF70BEC0DFD1D80913209E0
:1059D00090913309E80FF91F8081582AD701C60139
:1059E0000696A11DB11D80179107A207B30728F4E1
:1059F000E0913409F09135090AC0E6E0F0E0E61BD9
:105A0000F70BEC0DFD1D8091320990913309E80FE1
:105A1000F91F8081682AD701C6010796A11DB11D13
:105A200080179107A207B30728F4E0913409F09199
:105A300035090AC0E7E0F0E0E61BF70BEC0DFD1DB1
:105A40008091320990913309E80FF91F8081782AFB
:105A50004601570148E0840E911CA11CB11C081599
:105A600019052A053B0508F4B4C0C016D106E206A4
:105A7000F30638F480913409909135098C0D9D1D01
:105A800009C0C601861B970B20913209309133095A
:105A9000820F931F68E070E09BDBE0913609F09184
:105AA00037099F010F2E000C440B550BD301C20187
:105AB000880D991DAA1DBB1D281739074A075B07CA
:105AC000C8F082169306A406B50638F4209134096E
:105AD00030913509C601089609C0C1018E1B9F0B84
