:10000000DCC100000C9431210C945C210C948721FC
:100010000C94B2210C94DD210C9408220C94332210
:100020000C945E220C9436090C94DA090C94170A8D
:10003000F5C100000C94FE28F1C10000EFC10000E2
:10004000EDC10000EBC10000E9C10000E7C1000004
:10005000E5C10000E3C10000E1C100000C94892269
:10006000DDC100000C9457260C948D26D7C10000EA
:10007000D5C10000D3C10000D1C10000CFC1000034
:10008000CDC10000CBC10000C9C10000C7C1000044
:100090000C94E3260C941927C1C100001FC4000072
:1000A000BDC10000BBC10000B9C10000B7C1000064
:1000B000B5C10000B3C10000B1C10000AFC1000074
:1000C000ADC10000ABC100000C9481290C946F27D6
:1000D0000C94A527A3C100000C94FB270C94312895
:1000E0009DC100000B21D520DD20E920F62017213D
:1000F0002421C623CB23D023DA23E4235D24EE235B
:10010000F623FE23082412241C242B2435245D24EA
:100110003F244924532481248424732477247D2478
:10012000BB2488248C24922496249A24A024A424DA
:10013000A824BB24AE24B224B624C9318733EC33BF
:10014000EF33CB32FE32B931C0319D31CF33BE33C4
:10015000CB33EF33EF33EF338831084AD73B3BCE15
:10016000016E84BCBFFDC12F3D6C74319ABD5683B6
:100170003DDA3D00C77F11BED9E4BB4C3E916BAA6E
:10018000AABE000000803F05A84CCDB2D44EB938BD
:1001900036A9020C50B9918688083CA6AAAA2ABEA4
:1001A000000000803F0000000A0B02090C0D0E0841
:1001B0000703040100000000000000000000000030
:1001C000000000000000000000000000000000002F
:1001D00000001211100000000000000000000000EC
:1001E00000000000000000000000000001021020DC
:1001F000200808102040102040800201020108045D
:1002000002010102040810204080804020100804F0
:100210000201800402018040201008040201080449
:10022000020101020408102040800102040810208D
:1002300040800505050507050808080802020202B6
:100240000A0A080804040404010101010101010172
:100250000303030303030303040707070C0C0C0C3D
:100260000C0C0C0C02020202060606060606060626
:100270000B0B0B0B0B0B0B0B0000220025002800B7
:100280002B002E003100340002010000050108019E
:100290000B0100002100240027002A002D0030005F
:1002A000330001010000040107010A0102001D3AA8
:1002B0002774694E53E8F5D2CF9C81A6BBCDD0F709
:1002C000EAB9A4839E25381F02514C6B76879ABDEC
:1002D000A0F3EEC9D46F7255481B06213C4A5770F3
:1002E0006D3E230419A2BF9885D6CBECF1130E29DD
:1002F00034677A5D40FBE6C1DC8F92B5A8DEC3E4CB
:10030000F9AAB7908D362B0C11425F78659489AEAF
:10031000B3E0FDDAC77C61465B0815322F594463B0
:100320007E2D30170AB1AC8B96C5D8FFE2263B1C58
:1003300001524F6875CED3F4E9BAA7809DEBF6D190
:10034000CC9F82A5B8031E3924776A4D50A1BC9B6F
:1003500086D5C8EFF24954736E3D20071A6C71566A
:100360004B1805223F8499BEA3F0EDCAD735280F5C
:1003700012415C7B66DDC0E7FAA9B4938EF8E5C252
:10038000DF8C91B6AB100D2A3764795E43B2AF882B
:1003900095C6DBFCE15A47607D2E3314097F624528
:1003A000580B16312C978AADB0E3FED9C4006D030B
:1003B0003008B6264227CE275A2811241FBECFEF79
:1003C000D1E2DEBFCDBF00E00CBF15E0A0E0B2E09F
:1003D000ECE7F6E700E00BBF02C007900D92A231F8
:1003E000B107D9F72AE0A2E1B5E001C01D92A63C11
:1003F000B207E1F711E0CDEDD1E000E006C02197B2
:100400000109802FFE010E94CC39C73DD10780E051
:100410000807A9F70E946E350C943C3BF1CD80E0B3
:1004200090E008958091460590E020914705821B59
:10043000910908959091470580914605981750F4C9
:10044000E92FF0E0E85BFA4F208130E09F5F909366
:10045000470502C02FEF3FEFC9010895E09147051E
:1004600080914605E81730F4F0E0E85BFA4F8081B0
:1004700090E008958FEF9FEF08950895CF93DF9355
:10048000EC01E0911E05F0911F053097F1F090917D
:100490004705809146059817C0F090E0292F30E07D
:1004A0002617370754F4DE01A20FB31F4C91D90170
:1004B000A85BBA4F4C939F5FF1CF109247056093B2
:1004C0004605CB01DF91CF911994DF91CF9108952B
:1004D000E0912005F0912105309729F01092240534
:1004E0001092230519940895CF92DF92EF92FF9214
:1004F0000F931F93CF93DF937C01CB018A0120914F
:100500002205222389F0EB016B01C40ED51ECC1508
:10051000DD0561F06991D701ED91FC910190F081C9
:10052000E02DC7011995F3CF642F96D1C801DF9153
:10053000CF911F910F91FF90EF90DF90CF90089592
:10054000CF93DF931F92CDB7DEB769832091220549
:100550002223D1F020912305203240F021E030E029
:10056000FC013383228380E090E014C08091240555
:10057000E82FF0E0EB5DFA4F998190838F5F8093D5
:1005800024058093230504C061E0CE01019664D167
:1005900081E090E00F90DF91CF910895FC011382EC
:1005A000128288EE93E0A0E0B0E084839583A68376
:1005B000B78381E593E09183808308951092470586
:1005C00010924605109224051092230589D088E6E2
:1005D00092E06FD18EE392E067C181E080932205C3
:1005E00060934505109224051092230508950F93FA
:1005F000062F21E04091230565E275E080914505D5
:10060000D5D01092240510922305109222050F9147
:1006100008954F925F926F927F92AF92BF92CF9266
:10062000EF92FF920F931F93CF93DF935C01F62E0F
:10063000D42F28013901EE2011F1CFDFCE2DC430A7
:1006400008F0C3E0C150C0F028E0C29FC0011124EF
:10065000A301920104C056954795379527958A9531
:10066000D2F7CA01B901D501ED91FC910190F08159
:10067000E02DC5011995E6CF60E0C501B8DF4D2F2B
:10068000D13208F040E22C2D68E475E08F2D46D081
:100690001092470580934605DF91CF911F910F91EE
:1006A000FF90EF90CF90BF90AF907F906F905F9052
:1006B0004F900895CF92EF920F931F93C22EE12C8B
:1006C00000E010E09801A5DF1F910F91EF90CF900F
:1006D000089521E0EFCF61E08ACF82E195E05ECF1F
:1006E0001092D50581E08093D3051092D20561E088
:1006F00084E10E94F82461E085E10E94F824E9EB9E
:10070000F0E080818E7F808380818D7F808388E48C
:100710008093B80085E48093BC000895413208F0CE
:1007200043C09091D5059111FCCF91E09093D505F0
:100730002093D3052FEF209368051092AD05240F69
:100740002093AC059093D4059091D405880F892B04
:100750008093D4058091D205813061F41092D20546
:100760008091D4058093BB008091BC0083FDF8CFBD
:1007700085EC01C085EE8093BC008091D505813069
:10078000E1F38091AD05841710F44091AD05AEEA18
:10079000B5E0962FFB018E2F891B841718F48D91DD
:1007A0008193F9CF842F089580E008950F9341320B
:1007B00008F04AC09091D5059111FCCF32E03093FA
:1007C000D5050093D3053FEF309368051092AD0532
:1007D0004093AC05562FAEEAB5E0FB013E2F351B2A
:1007E000341718F431913D93F9CF1092D40530911C
:1007F000D405880F832B8093D4058091D205813056
:1008000061F41092D2058091D4058093BB00809151
:10081000BC0083FDF8CF85EC01C085EE8093BC0061
:10082000222321F08091D5058230D1F38091680593
:100830008F3F79F080916805803241F080916805A2
:10084000803331F094E005C091E003C092E001C034
:1008500093E0892F0F91089540918A05262F30E06B
:10086000240F311D21323105DCF42091D5052430CF
:10087000C9F4FC0180E090E0861758F430918A05B5
:100880002191DC01A457BA4FA30FB11D2C930196FF
:10089000F3CF80918A05680F60938A0580E0089500
:1008A00081E0089582E008959093CF058093CE056E
:1008B00008959093D1058093D005089585ED809398
:1008C000BC008091BC0084FDFCCF1092D50508953A
:1008D00085EC8093BC001092D50508951F920F926D
:1008E0000FB60F9211240BB60F922F933F934F9395
:1008F0005F936F937F938F939F93AF93BF93EF9388
:10090000FF938091B900887F803609F49DC070F50F
:10091000883209F45CC090F4803109F455C038F491
:10092000882309F4F3C0883009F44EC0F2C088313E
:1009300009F44DC0803209F45EC0EBC0803409F484
:1009400069C050F4803309F456C0883309F0E1C01F
:1009500080936805BDDFDDC0803509F44FC0883560
:1009600009F45DC0883409F0D4C0D2C0883909F4D4
:10097000C3C0A8F4883709F467C038F4883609F48E
:1009800063C0803709F460C0C4C0883809F4B4C0BB
:10099000803909F45FC0803809F0BBC05BC0803B80
:1009A00009F482C038F4803A09F466C0883A09F440
:1009B0007BC0AFC0803C09F4A3C0883C09F4A0C050
:1009C000883B09F486C0A5C08091D40510C09091E1
:1009D000AD058091AC05981770F5E091AD0581E00B
:1009E0008E0F8093AD05F0E0E255FA4F8081809341
:1009F000BB0085EC82C0809368058AC0E091AD059C
:100A000081E08E0F8093AD058091BB00F0E0E25550
:100A1000FA4F80839091AD058091AC056AC0E0915A
:100A2000AD0581E08E0F8093AD058091BB00F0E0B5
:100A3000E255FA4F80838091D305811169C081E02E
:100A40008093D20584EA5DC083E08093D50510923F
:100A50006905CFCF80916905803208F04DC0E091E3
:100A6000690581E08E0F809369058091BB00F0E0FD
:100A7000E659FA4F8083BDCF2BDF80916905803224
:100A800030F4E0916905F0E0E659FA4F1082609188
:100A9000690570E0E091CE05F091CF058AE695E01A
:100AA00019951092690535C084E08093D5051092A0
:100AB0008B0510928A05E091D005F091D10519952A
:100AC00080918A05811105C081E080938A0510928A
:100AD0008C05E0918B0581E08E0F80938B05F0E013
:100AE000E457FA4F80818093BB0090918B058091F1
:100AF0008A05981708F47DCF85E88093BC0009C06B
:100B000085EC8093BC001092D50503C01092680557
:100B1000D5DEFF91EF91BF91AF919F918F917F9122
:100B20006F915F914F913F912F910F900BBE0F905E
:100B30000FBE0F901F901895FF920F931F93CF93A6
:100B4000DF93C62F142FF22E032F682F82E195E03A
:100B500044DD6C2F82E195E0F3DCCF2DD02FCE0168
:100B6000810F911D8C01C017D10729F0699182E195
:100B700095E0E6DCF8CF82E195E0ADDD91E0811112
:100B800090E0892FDF91CF911F910F91FF900895F1
:100B9000CF93DF931F92CDB7DEB749839E012F5FBE
:100BA0003F4F41E0C9DF0F90DF91CF9108953F9211
:100BB0004F925F926F927F928F929F92AF92BF926D
:100BC000CF92DF92EF92FF920F931F93CF93DF9319
:100BD00000D000D0CDB7DEB7D82EC62E4D83790118
:100BE0000E94D3224B015C01312C1E829D81892FF2
:100BF00090E09C838B832801612C712CED813E1643
:100C000098F56D2D82E195E0E8DC6C2D82E195E0B0
:100C100097DC82E195E05FDD6D2D82E195E0DDDC22
:100C20004B815C81431951094132510514F040E276
:100C300050E06D2D82E195E04CDD82E195E0F2DB44
:100C4000892B09F442C00115110569F10E94D322D4
:100C5000DC01CB0188199909AA09BB0984159505FE
:100C6000A605B70500F131C001151105B9F10E94C3
:100C7000D322DC01CB0188199909AA09BB0920E01C
:100C800030E080179107A207B30740F1FD812F2FB5
:100C900030E04E81842F440F990B82179307F4F4B0
:100CA0008FEF8E831BC0F7012E81E20FF11D27FD10
:100CB000FA95FA83E98382E195E0BCDBE981FA8168
:100CC0008083FE81FF5FFE83B8CF82E195E003DD84
:100CD0008D81813208F080E2380E90CF8E81269689
:100CE0000FB6F894DEBF0FBECDBFDF91CF911F913D
:100CF0000F91FF90EF90DF90CF90BF90AF909F90BB
:100D00008F907F906F905F904F903F9008950F93DA
:100D10001F9389019A0141E04ADF1F910F910895C5
:100D2000EF92FF920F931F93CF93DF931F92CDB754
:100D3000DEB7182F062FF42EE22E209106023091F6
:100D40000702AE014F5F5F4FE2DF898141E050E073
:100D500001C0440FFA94EAF7EE2011F0482B02C0CC
:100D6000409548234983602F812F12DF0F90DF9138
:100D7000CF911F910F91FF90EF900895DF92EF9226
:100D8000FF920F931F93CF93DF931F92CDB7DEB7E0
:100D9000182FF62EE42ED22E209106023091070253
:100DA000AE014F5F5F4FB3DF882331F12E2D30E06E
:100DB0002D1931092F5F3F4F81E090E002C0880F6D
:100DC000991FDA94E2F70197022E01C0880F0A9466
:100DD000EAF7402F50E0BA0102C0660F771F2A954C
:100DE000E2F7482F4095998149238623482B498370
:100DF0006F2D812FCDDE01C080E00F90DF91CF916C
:100E00001F910F91FF90EF90DF90089528E6FC016D
:100E1000208308950F93062F23E042E06AE1FC014E
:100E20008081ACDF0F9108950F93062F22E044E0FC
:100E30006BE1FC018081A2DF0F9108950F93062FD3
:100E400022E044E06CE1FC01808198DF0F9108957D
:100E50000F931F93CF93DF93EC0100910602109143
:100E600007029C012F5F3F4F42E06BE388819FDECA
:100E700089819A81982789279827DF91CF911F919F
:100E80000F9108950F931F93CF93DF93EC0100917F
:100E90000602109107029C012F5F3F4F42E06DE375
:100EA000888185DE89819A81982789279827DF9113
:100EB000CF911F910F9108950F931F93CF93DF93BD
:100EC000EC0100910602109107029C012F5F3F4F39
:100ED00042E06FE388816BDE89819A8198278927B8
:100EE0009827DF91CF911F910F9108950F931F9332
:100EF000CF93DF93EC0100910602109107029C0151
:100F00002F5F3F4F42E063E4888151DE89819A81FF
:100F1000982789279827DF91CF911F910F910895E6
:100F20000F931F93CF93DF93EC0100910602109172
:100F300007029C012F5F3F4F42E065E4888137DE66
:100F400089819A81982789279827DF91CF911F91CE
:100F50000F9108950F931F93CF93DF93EC010091AE
:100F60000602109107029C012F5F3F4F42E067E4A9
:100F700088811DDE89819A81982789279827DF91AA
:100F8000CF911F910F910895262F46E06BE6FC014B
:100F90008081C6CE0F93062F23E042E06BE6FC0172
:100FA0008081ECDE0F910895CF93DF93EC0161E037
:100FB000F1DF60E0CE0138DF60E0CE013FDF60E0CE
:100FC000CE01DF91CF91E0CF82E195E0F7DA86EDB7
:100FD00095E0EADF20E045E06AE688E6A1DE21E070
:100FE00041E067E388E69CDE20E046E06BE688E6C9
:100FF00097CECF93DF93EC0186ED95E029DF9983BF
:10100000888386ED95E03EDF9B838A8386ED95E0BD
:1010100053DF9D838C83DF91CF910895CF93C82FA9
:1010200082E195E0CBDA6C2F86ED95E0F3DE86ED7C
:1010300095E0CF91B9CFCF93DF93EC0186ED95E0AA
:1010400055DF9983888386ED95E06ADF9B838A83E9
:1010500086ED95E07FDF9D838C83DF91CF910895AE
:1010600086ED95E0D3CE9CB1892F807294FF03C0AA
:1010700081110FC002C0882361F08091E905909131
:10108000EA05A091EB05B091EC050196A11DB11DFB
:101090000BC08091E9059091EA05A091EB05B09114
:1010A000EC050197A109B1098093E9059093EA0540
:1010B000A093EB05B093EC05089599B1892F847046
:1010C00093FF03C0882379F002C081110CC0809186
:1010D000F7059091F805A091F905B091FA050196F0
:1010E000A11DB11D0BC08091F7059091F805A0914D
:1010F000F905B091FA050197A109B1098093F705A7
:101100009093F805A093F905B093FA0508952CB1D2
:1011100026FB882780F990E027FF03C0019779F428
:1011200002C0892B61F48091050690910606A0917A
:101130000706B09108060196A11DB11D0BC0809154
:10114000050690910606A0910706B0910806019742
:10115000A109B1098093050690930606A09307069E
:10116000B093080608959CB1892F807195FF03C044
:10117000882379F002C081110CC08091E90590911B
:10118000EA05A091EB05B091EC050196A11DB11DFA
:101190000BC08091E9059091EA05A091EB05B09113
:1011A000EC050197A109B1098093E9059093EA053F
:1011B000A093EB05B093EC05089599B1892F887041
:1011C00092FF03C081110FC002C0882361F080919B
:1011D000F7059091F805A091F905B091FA050196EF
:1011E000A11DB11D0BC08091F7059091F805A0914C
:1011F000F905B091FA050197A109B1098093F705A6
:101200009093F805A093F905B093FA0508952CB1D1
:10121000822F807890E0880F892F881F990B26FFF6
:1012200003C0892B79F402C0019761F4809105060F
:1012300090910606A0910706B09108060196A11D9F
:10124000B11D0BC08091050690910606A09107067E
:10125000B09108060197A109B10980930506909302
:101260000606A0930706B093080608951F920F92F2
:101270000FB60F9211242F933F934F935F938F9349
:101280009F93AF93BF9383B121E030E0982F90728A
:1012900085FD02C020E030E0807440912906509125
:1012A0002A062417350749F521E030E0811102C0F4
:1012B00020E030E03093280620932706882319F099
:1012C00091110FC002C0992361F080912106909185
:1012D0002206A0912306B09124060196A11DB11DFE
:1012E00041C08091210690912206A0912306B091E1
:1012F00024060197A109B10916C030932A0620934C
:101300002906992319F0882311F102C081111FC009
:101310008091210690912206A0912306B091240687
:101320000196A11DB11D8093210690932206A093E2
:101330002306B09324068091210690912206A09165
:101340002306B09124060197A109B1091EC080911E
:10135000210690912206A0912306B09124060197C0
:10136000A109B1098093210690932206A093230638
:10137000B09324068091210690912206A091230625
:10138000B09124060196A11DB11D80932106909372
:101390002206A0932306B0932406BF91AF919F919C
:1013A0008F915F914F913F912F910F900FBE0F90B2
:1013B0001F9018951F920F920FB60F9211248F93C2
:1013C0009F93AF93BF938091060181709091030129
:1013D00090FF03C081110FC002C0882361F080918B
:1013E000130690911406A0911506B0911606019669
:1013F000A11DB11D0BC08091130690911406A09100
:101400001506B09116060197A109B109809313063C
:1014100090931406A0931506B0931606BF91AF9152
:101420009F918F910F900FBE0F901F9018951F9254
:101430000F920FB60F9211248F939F93AF93BF9388
:101440008091030181709091060190FF03C0882371
:1014500079F002C081110CC080911306909114069E
:10146000A0911506B09116060196A11DB11D0BC0E5
:101470008091130690911406A0911506B09116065E
:101480000197A109B1098093130690931406A093C4
:101490001506B0931606BF91AF919F918F910F9053
:1014A0000FBE0F901F9018950F931F93CF93DF934C
:1014B0008C018EE0809FE001819FD00D1124CB51E3
:1014C000DA4F798368835B834A838881998160E0FE
:1014D0000E94BC248A819B8160E00E94BC24888198
:1014E000998161E00E94F8248A819B8161E00E94D9
:1014F000F8240230110509F47FC044F401151105E8
:10150000E9F00130110509F448C0BEC003301105EF
:1015100009F4A6C00430110509F0B6C08091680036
:1015200081608093680080916B00806280936B0083
:1015300080916B00806480936B00A6C08091E5056C
:101540009091E60502978431910540F4FC01E15A3F
:10155000FC4F8081082E000C990B02C08FEF9FEF8B
:1015600041E050E063E378E00E94BD208091E70510
:101570009091E80502978431910540F4FC01E15A0D
:10158000FC4F8081082E000C990B02C08FEF9FEF5B
:1015900041E050E063EB78E05DC08091F30590910D
:1015A000F40502978431910540F4FC01E15AFC4FA7
:1015B0008081082E000C990B02C08FEF9FEF41E055
:1015C00050E06DED78E00E94BD208091F50590918E
:1015D000F60502978431910540F4FC01E15AFC4F75
:1015E0008081082E000C990B02C08FEF9FEF41E025
:1015F00050E06DE578E02EC08091010690910206E2
:1016000002978431910540F4FC01E15AFC4F80813E
:10161000082E000C990B02C08FEF9FEF41E050E0C5
:1016200067E079E00E94BD20809103069091040656
:1016300002978431910540F4FC01E15AFC4F80810E
:10164000082E000C990B02C08FEF9FEF41E050E095
:1016500067E878E0DF91CF911F910F910C94BD2046
:101660008091680084608093680080916800826047
:101670008093680080916D00816080936D008091FF
:101680006C00826080936C00DF91CF911F910F916D
:1016900008952EE0269FF001279FF00D1124EB51B5
:1016A000FA4F648175818681978108950895CF935B
:1016B000282F882351F0CB01BA01C22F0E942D3769
:1016C0008FEF8C0FCF910C949F23CF9108950F93A0
:1016D0001F938B019C0183E03695279517950795FD
:1016E0008A95D1F7F801E55DF94F2081422F50E04E
:1016F000E62FE77021E030E002C0220F331FEA95A9
:10170000E2F724233523232B19F0CB01019602C0E5
:1017100080E090E01F910F9108950F931F938B012C
:101720009C0183E036952795179507958A95D1F703
:10173000677081E090E001C0880F6A95EAF7F801D0
:10174000E55DF94F452B21F480959081892302C0F6
:101750009081892B80831F910F910895CF92DF9202
:10176000EF92FF92CF93DF936B017C0161E08C2DB0
:101770000E94BC24E6012196AE01C701B601CDDF6F
:10178000CE01DF91CF91FF90EF90DF90CF90089541
:10179000882341F06FEF680F70E080E090E040E058
:1017A00050E0BBCF0895662319F0613009F062E084
:1017B0000C94BC24662311F061E001C060E00C943D
:1017C000F824CF93DF93EC0189819A81AB81BC81AE
:1017D0000197A105B105C1F48D818823A9F06A851F
:1017E0007B858C859D8573DF9987888740E050E0F5
:1017F000BA015DDF6A857B858C859D8568DF998769
:101800008887DF91CF91C4CFDF91CF9108958F92D8
:101810009F92AF92BF92CF92DF92EF92FF92CF93BF
:10182000DF936B017C0149015A0111D7882349F0EC
:101830006091B60A7091B70A8091B80A9091B90A7E
:1018400074C0C501B40103D78111F2CFC701B6013D
:101850008ED6882391F1C501B40189D6882369F118
:1018600020E030E0A901C701B6010E940F39181627
:101870001CF0CFEFDFEF02C0C1E0D0E020E030E0AD
:10188000A901C501B4010E940F3918161CF06FEFB1
:101890007FEF02C061E070E0072E000C880B990B0F
:1018A0000E9460376B017C01BE01DD0F880B990B34
:1018B0000E946037A701960123C020E030E0A90113
:1018C000C501B4010E94BE36811116C020E030E08F
:1018D000A901C701B6010E940F391816ECF020E0EB
:1018E00030E0A901C701B6010E94BE3687FD19C0CC
:1018F00060E070E0CB0119C0A5019401C701B601F9
:10190000DF91CF91FF90EF90DF90CF90BF90AF909D
:101910009F908F900C946B366BED7FE089EC9FE38A
:1019200004C06BED7FE089EC9FEBDF91CF91FF90DE
:10193000EF90DF90CF90BF90AF909F908F900895E1
:101940004F925F926F927F928F929F92AF92BF92CF
:10195000CF92DF92EF92FF92CF93DF93CDB7DEB7B6
:101960002E970FB6F894DEBF0FBECDBFCE01019605
:1019700040DB6D817E81072E000C880B990B0E9445
:1019800060372091E8023091E9024091EA025091DB
:10199000EB020E941A396B017C016B817C81072E5E
:1019A000000C880B990B0E9460372091E402309163
:1019B000E5024091E6025091E7020E941A39A70120
:1019C000960125DF2091EC023091ED024091EE026C
:1019D0005091EF020E94F8352091E0023091E1022F
:1019E0004091E2025091E3020E94F8352091F0020A
:1019F0003091F1024091F2025091F3020E941A39A3
:101A00006093730A7093740A8093750A9093760AB0
:101A100061E070E080E090E03CDE60937F0A7093CC
:101A2000800A8093810A9093820AC090E002D0904D
:101A3000E102E090E202F090E30220915B0A309133
:101A40005C0A40915D0A50915E0AC701B6010E948E
:101A5000F835A70196010E94F8352091FC023091DB
:101A6000FD024091FE025091FF020E941A396093DC
:101A7000770A7093780A8093790A90937A0A809112
:101A80006F0A9091700AA091710AB091720A892B25
:101A90008A2B8B2B91F12091990A30919A0A4091CF
:101AA0009B0A50919C0A60910803709109038091F0
:101AB0000A0390910B030E941A396B017C010E946A
:101AC0007D3960935F0A7093600A8093610A9093F6
:101AD000620AC701B6010E94C2366093630A70931E
:101AE000640A8093650A9093660A10926F0A1092B6
:101AF000700A1092710A1092720A80915F0A909196
:101B0000600AA091610AB091620A8F839887A987C1
:101B1000BA878091180390911903A0911A03B0918C
:101B20001B038B879C87AD87BE874090630A5090CC
:101B3000640A6090650A7090660AC0901403D090A1
:101B40001503E0901603F09017039C01AD016F811F
:101B5000788589859A850E941A394B015C01A70115
:101B60009601C301B2010E941A399B01AC01C50163
:101B7000B4010E94F8352091100330911103409177
:101B80001203509113030E941A394B015C01A30107
:101B900092016B857C858D859E850E941A392B016B
:101BA0003C01A70196016F81788589859A850E94FD
:101BB0001A399B01AC01C301B2010E94F735209193
:101BC0000C0330910D0340910E0350910F030E94BE
:101BD0001A399B01AC01C501B4010E94F83520916E
:101BE00000033091010340910203509103030E94CE
:101BF0001A39209104033091050340910603509156
:101C000007030E94F83560937B0A70937C0A8093E7
:101C10007D0A90937E0ACE0101960DDA2091D802BA
:101C20003091D9024091DA025091DB0260917B0A37
:101C300070917C0A80917D0A90917E0A0E94BE3646
:101C4000682F661F6627661F88E0B4DD6091B909BA
:101C50007091BA098091BB099091BC0938DD9093CD
:101C6000B8098093B70980907B0A90907C0AA09075
:101C70007D0AB0907E0AC090D002D090D102E09050
:101C8000D202F090D3029601A701B401C5010E94CF
:101C90000F39181694F0C0902803D0902903E090D3
:101CA0002A03F0902B039601A701B401C5010E94FD
:101CB000BE3687FD02C06401750120912C0330916E
:101CC0002D0340912E0350912F03B601C7010E94AE
:101CD0001A390E949B376B017C019FD481111FC070
:101CE000C701B6016FD481111AC020E030E040E88E
:101CF00053E4C701B6010E94B5376B017C014B016B
:101D0000570120E030E0A9010E94BE3687FF0BC0DA
:101D1000C701B60190580E943237619508C0812CE6
:101D2000912CA12CB12CB401C5010E94323770E076
:101D300080E090E00E945E37AB01BC018091B70962
:101D40009091B809B4DC2091DC023091DD02409121
:101D5000DE025091DF0260917B0A70917C0A8091D3
:101D60007D0A90917E0A0E94BE36682F661F662704
:101D7000661F85E01FDD6091AB097091AC09809111
:101D8000AD099091AE09A3DC9093AA098093A909AB
:101D900080907B0A90907C0AA0907D0AB0907E0A89
:101DA000C090D402D090D502E090D602F090D70235
:101DB0009601A701B401C5010E940F39181694F0CD
:101DC000C0903003D0903103E0903203F0903303A1
:101DD0009601A701B401C5010E94BE3687FD02C06D
:101DE000640175012091340330913503409136032D
:101DF00050913703B601C7010E941A390E949B37E0
:101E00006B017C010AD481111FC0C701B601DAD36E
:101E100081111AC020E030E040E853E4C701B60168
:101E20000E94B5376B017C014B01570120E030E087
:101E3000A9010E94BE3687FF0BC0C701B6019058AA
:101E40000E943237619508C0812C912CA12CB12CB5
:101E5000B401C5010E94323770E080E090E00E943A
:101E60005E37AB01BC018091A9099091AA091FDCE2
:101E700069817A81072E000C880B990B0E946037CC
:101E800020911C0330911D0340911E0350911F03AC
:101E90000E941A392091200330912103409122039E
:101EA000509123030E941A39209124033091250375
:101EB00040912603509127030E94F8352091F402A7
:101EC0003091F5024091F6025091F7020E941A39C2
:101ED00020915B0A30915C0A40915D0A50915E0A44
:101EE0000E94F83560935B0A70935C0A80935D0AE8
:101EF00090935E0AC0905F0AD090600AE090610AF9
:101F0000F090620A40901003509011036090120309
:101F1000709013038091630A9091640AA091650AFE
:101F2000B091660A8F839887A987BA8780900C033F
:101F300090900D03A0900E03B0900F03A3019201A7
:101F4000C701B6010E941A396B877C878D879E87EF
:101F5000A50194016F81788589859A850E941A3937
:101F60009B01AC016B857C858D859E850E94F83533
:101F700060935F0A7093600A8093610A9093620A8B
:101F80002F81388549855A85C301B2010E941A39CB
:101F90002B013C01A5019401C701B6010E941A3929
:101FA0009B01AC01C301B2010E94F7356093630A43
:101FB0007093640A8093650A9093660A81E090E0CA
:101FC0000E9469204091990A50919A0A60919B0A57
:101FD00070919C0A80E090E00E9465208090A50AA4
:101FE0009090A60AA090A70AB090A80A20E030E03E
:101FF00040E85FEBC501B4010E94BE36882331F191
:10200000C090990AD0909A0AE0909B0AF0909C0A9E
:10201000A7019601C501B4010E94F7354B015C018F
:1020200020E030E040E054E3C701B6010E941A39D5
:102030009B01AC01C501B4010E940F39181634F0A0
:1020400083E793E09093840A8093830A8091A90A9E
:10205000882331F083E793E09093840A8093830A86
:1020600080919D0A90919E0AA0919F0AB091A00A2A
:10207000BC01CD016F5F7F4F8F4F9F4F60939D0AD3
:1020800070939E0A80939F0A9093A00A0E945E37E5
:102090009B01AC016091A10A7091A20A8091A30AF0
:1020A0009091A40A0E941A396093990A70939A0A2F
:1020B00080939B0A90939C0A2E960FB6F894DEBFED
:1020C0000FBECDBFDF91CF91FF90EF90DF90CF900B
:1020D000BF90AF909F908F907F906F905F904F9048
:1020E00008952F923F924F925F926F927F928F92BC
:1020F0009F92AF92BF92CF92DF92EF92FF920F9397
:102100001F93CF93DF9384E090E0FAD1E3E8FAE005
:1021100087E2DF011D928A95E9F780E090E0A0E870
:10212000BFEB82A393A3A4A3B5A38AE097EDA3E298
:10213000BCE3868F978FA0A3B1A38EED95E8A1E0B5
:10214000B2E984839583A683B7838BE396E5A2ECFB
:10215000B3E780879187A287B38789EA9BE2AEEADB
:10216000B9EE84879587A687B78785E29DE9A5EABA
:10217000B0EA808B918BA28BB38BC8E5D6E0D3837A
:10218000C283A8E4B6E0B983A88383EB94E01196F8
:102190009C938E9313969C938E93129715969C9373
:1021A0008E93149717969C938E93169719969C93DB
:1021B0008E9318971B969C938E931A971D969C93BB
:1021C0008E931C971F969C938E931E9787E99AE097
:1021D0009D838C8387E89AE09B838A8389E99AE0D0
:1021E0009F838E8380E1A3E7BAE0ED0119928A957F
:1021F000E9F7C1EAD9E082EDDE011D928A95E9F79F
:1022000024E336E084E1D9011D928A95E9F7358B04
:10221000248B84E190E0F9019183808388EA92E045
:102220009383828380E892E09583848384E292E0C2
:102230009783868388E092E091878087812C912C18
:102240005401839480923E0A90923F0AA092400AE1
:10225000B092410A0E94E407CC24C394C092420A7F
:102260001092550A8092560A9092570AA092580AE4
:10227000B092590A42E150E063E170E081E090E001
:1022800013D9C0925A0A1092430A8092440A90923B
:10229000450AA092460AB092470A80E090E00E9468
:1022A0000E08C092480A10924F0A8092500A9092EB
:1022B000510AA092520AB092530A61E088E073DAA0
:1022C000C092540A1E86EDEFF9E092E3692E608217
:1022D00023E3722E7092FE0934E3232E2092FF092D
:1022E00045E3342E3092000A56E3452E4092010A0F
:1022F00067E3562E5092020A88E38093030AA9E30B
:10230000A093040A71E3D72ED092050AB0E3B093EC
:10231000060AD092070AD092080AD092090A60925F
:102320000A0AD0920B0A70920C0AFD8BEC8B86E0A5
:1023300090E0A0E0B0E0888F998FAA8FBB8F1B8AB6
:102340008F86988AA98ABA8AE12CF12C8701A80184
:10235000970166E070E080E090E000DA9F8B8E8B62
:10236000688D798D8A8D9B8DB2D99F8B8E8B9ED9EE
:10237000CB8A1092490A80924A0A90924B0AA09204
:102380004C0AB0924D0A61E085E00DDAC0924E0A27
:1023900018826C8E7D8E2E8E3F8E48A259A2E8E365
:1023A000EAA3F9E3FBA3DCA280E38DA3DEA2DFA214
:1023B000D8A669A6DAA67BA68DEB99E09F838E83CB
:1023C00082E090E0A0E0B0E08A879B87AC87BD8781
:1023D0001D8289829A82AB82BC82A801970162E049
:1023E00070E080E090E0BAD9998788876A857B851C
:1023F0008C859D856CD99987888758D9CD828091A5
:10240000F8029091F902A091FA02B091FB02809338
:102410005B0A90935C0AA0935D0AB0935E0A809277
:102420006F0A9092700AA092710AB092720ADF91BC
:10243000CF911F910F91FF90EF90DF90CF90BF90C1
:10244000AF909F908F907F906F905F904F903F9054
:102450002F90089580913D0A811103C081E08093FF
:102460003D0A8091550A811103C081E08093550A8D
:102470008091430A811103C081E08093430A8091D7
:102480004F0A811103C081E080934F0A8091AF0908
:10249000811106C081E08093AF098FEA99E091D95C
:1024A0008091490A811103C081E08093490A80919B
:1024B000A109811106C081E08093A10981EA99E018
:1024C00080C9089560E070E080E89FE7089560E0CB
:1024D00070E080E89FE7089560E070E080E89FEF9B
:1024E000089560E070E080E89FEF089560E070E09C
:1024F00080EC9FEF089560E070E080EC9FEF08951E
:10250000F5DF6093B60A7093B70A8093B80A909388
:10251000B90AF1DF6093AA0A7093AB0A8093AC0A00
:102520009093AD0ACFDF6093B20A7093B30A8093A1
:10253000B40A9093B50ACBDF6093AE0A7093AF0AEA
:102540008093B00A9093B10AC7DF6093BA0A709380
:10255000BB0A8093BC0A9093BD0AC3DF6093BE0A96
:102560007093BF0A8093C00A9093C10A0895CF92D6
:10257000DF92EF92FF92CF936B017C019B01AC0144
:102580006091B20A7091B30A8091B40A9091B50A31
:102590000E94BE36C1E0882371F0A70196016091C8
:1025A000BA0A7091BB0A8091BC0A9091BD0A0E9440
:1025B000BE368111C0E08C2FCF91FF90EF90DF905D
:1025C000CF900895CF92DF92EF92FF92CF936B015D
:1025D0007C019B01AC016091AE0A7091AF0A8091C1
:1025E000B00A9091B10A0E94BE36C1E0882371F012
:1025F000A70196016091BE0A7091BF0A8091C00A3E
:102600009091C10A0E94BE368111C0E08C2FCF91FB
:10261000FF90EF90DF90CF9008950F931F938B0161
:102620009C010027112720783F77011511052048CC
:102630003F4749F4AB01BC016F77772781E0452B19
:10264000462B472B09F480E01F910F910895E5CFA9
:10265000EF92FF920F931F93CF93DF93DC01EA0178
:10266000F90114968D919C91159712960D911C91DC
:102670001397080F191F2881398118964D915C9185
:1026800019974217530728F04D915C911197452BEC
:1026900039F17801E21AF30A18964D915C91199775
:1026A000481B590B4E0D5F1D4617570794F1A901A2
:1026B000460F571F40175107E0F0F182E082338345
:1026C00022836E197F0975836483161617061CF41E
:1026D000382F292F02C030E020E03683278313C033
:1026E00018968D919C911997821B930B86179707CB
:1026F00084F071836083338322831582148217826E
:10270000168288819981680F791F7983688380E0B8
:1027100001C081E0DF91CF911F910F91FF90EF9069
:102720000895CF92DF92EF92FF92CF93DF936B01E8
:102730007C0184E48C9DE0018D9DD00D1124CC5949
:10274000D94F8AA99BA9009721F00E949A3A1BAA07
:102750001AAA84E48C9DF0018D9DF00D1124EC5992
:10276000F94F86A997A9009711F00E949A3A84E43C
:102770008C9DF0018D9DF00D1124EC59F94F138AB9
:10278000128A168A178A108E118E128E138E148E4C
:10279000158E168E178E10A211A281E090E093A3E1
:1027A00082A315A214A216A217A210A611A613A600
:1027B00012A615A614A616A617A610AA11AA13AA41
:1027C00012AA15AA14AA17AA16AA11AE10AE12AE12
:1027D00013AE14AE15AEDF01DE961D921D921D9252
:1027E0001C921397EE5BFF4F11821082DF91CF9105
:1027F000FF90EF90DF90CF9008950F931F93CF93AA
:10280000DF93EB01DC018D919C91FC01A681B781E6
:10281000E881F98123E0EE0FFF1F2A95E1F7129678
:102820002D913C911397E20FF31F00811181AC852C
:10283000BD859D01220F331FDC0112968D919C9165
:102840001397D901A80FB91F8D919C9124813581CF
:10285000232B19F461E070E002C062E070E0869F13
:102860009001879F300D969F300D112488859985A2
:10287000289FB001299F700D389F700D1124EC81A5
:10288000FD812E9FC0012F9F900D3E9F900D112422
:10289000800F911FFA019183808373836283DF919C
:1028A000CF911F910F9108952F923F924F925F9277
:1028B0006F927F928F929F92AF92BF92CF92DF9250
:1028C000EF92FF920F931F93CF93DF9300D000D02E
:1028D000CDB7DEB7DC011496ED91FC911597019010
:1028E000F081E02D808591859A838983A281B381CF
:1028F000BC83AB83FB0181909190A190B190C12CDE
:10290000D12C7601C814D904EA04FB040CF05DC094
:1029100044805580668077804085518562857385C7
:10292000CF0140969E838D83A081B1819D0183E07C
:10293000220F331F8A95E1F7A981BA8112968D91F2
:102940009C911397D901A80FB91F2D903C90119716
:102950000484F585E02DEE0FFF1F8B819C81E80F2D
:10296000F91F0190F081E02D14968D919C9115979F
:10297000892B19F481E090E002C082E090E08E9F04
:1029800090018F9F300D9E9F300D1124249F800158
:10299000259F100D349F100D1124249DC001259DED
:1029A000900D349D900D1124A8016D817E81820DC2
:1029B000931D0E94233BED81FE81E00FF11F9FEFED
:1029C000C91AD90AE90AF90A9DCF26960FB6F894D2
:1029D000DEBF0FBECDBFDF91CF911F910F91FF9052
:1029E000EF90DF90CF90BF90AF909F908F907F90AF
:1029F0006F905F904F903F902F900895CF93DF930B
:102A0000DB01A85CBC4F2C91222369F024E4269FB3
:102A1000F001279FF00D1124EC59F94FEF011992A5
:102A20002A95E9F71C9224E4269FF001279FF00DD8
:102A30001124EC59F94F14821582168217821186DF
:102A4000108613861286118A108A17861686DF91E1
:102A5000CF9167CE2F923F924F925F926F927F926B
:102A60008F929F92AF92BF92CF92DF92EF92FF929E
:102A70000F931F93CF93DF93CDB7DEB728970FB691
:102A8000F894DEBF0FBECDBF24E4269FD001279F60
:102A9000B00D1124AC59B94FBC83AB8314960D9182
:102AA0001D912D913C911797012B022B032B09F4BB
:102AB000C1C02A016B017C01612C712C812C912CED
:102AC0005401B887AF831496BC83AB83EF81F8853C
:102AD0003896FE83ED83EB81FC8180819181A28118
:102AE000B38188169906AA06BB0694F5AD81BE810E
:102AF000ED91FC91E60DF71DB281B98323812A8304
:102B00000B2F122F212C312C24143504A4F4D801BE
:102B1000ED91FC91309749F0848195810E949A3A19
:102B2000F801808191810E949A3AFFEF2F1A3F0AA3
:102B30000E5F1F4FE9CF89819A810E949A3A2FEF49
:102B4000821A920AA20AB20A34E0630E711CC3CF41
:102B5000AF81B88518968D919C9119970E949A3AE9
:102B6000EF81F88582859385892B81F100E010E063
:102B70001C821B8224E42C9DC0012D9D900D1124EC
:102B80009C012259394F59012B813C81241535056F
:102B90008CF4D501ED91FC91E00FF11F84819581BA
:102BA0000E949A3AEB81FC813196FC83EB83025FB1
:102BB0001F4FEACF84E48C9DF0018D9DF00D112410
:102BC000EC59F94F828593850E949A3A84E48C9D52
:102BD000D0018D9DB00D1124AC59B94FBC83AB838E
:102BE00050968D919C9151970E949A3AEB81FC816D
:102BF000868597850E949A3AC701B60192DDC70182
:102C0000B60128960FB6F894DEBF0FBECDBFDF9198
:102C1000CF911F910F91FF90EF90DF90CF90BF90D9
:102C2000AF909F908F907F906F905F904F903F906C
:102C30002F90E4CE28960FB6F894DEBF0FBECDBF1E
:102C4000DF91CF911F910F91FF90EF90DF90CF9088
:102C5000BF90AF909F908F907F906F905F904F90BC
:102C60003F902F90089524E4269FF001279FF00DB8
:102C70001124EC59F94F828993890497029758F4EB
:102C800085E090E0938B828B8FEF9FEFDC01828F4A
:102C9000938FA48FB58F08952F923F924F925F929A
:102CA0006F927F928F929F92AF92BF92CF92DF925C
:102CB000EF92FF920F931F93CF93DF93CDB7DEB7C1
:102CC000AA970FB6F894DEBF0FBECDBF9AA389A313
:102CD000788F6F8B7A01098B1A8B2B8B3C8B84E45A
:102CE00029893A89829F6001839FD00C1124860133
:102CF0000C59194F89899A89AB89BC89F80180835D
:102D00009183A283B383AB01BC01CD01A3DED601C5
:102D1000A859B94F84E0F70101900D928A95E1F727
:102D20001701F4E02F0E311C64E070E0D801149616
:102D30008D919C9115970E94E839F80191878087C1
:102D4000892B09F481C11E8E1D8E198E1A8E1B8E41
:102D50001C8E18A30F8F98012C5F3F4F38A72FA30D
:102D6000A801485F5F4F5AA749A7EFA1F8A5808146
:102D70009181A281B381298D3A8D4B8D5C8D28176D
:102D800039074A075B070CF0CEC0A9A5BAA58D91FB
:102D90009C91ED8DFE8DE80FF91FFE8BED8BD1011F
:102DA000ED91FC91EE0FFF1FA9A1BAA18D919C910D
:102DB000E80FF91F80819181ED89FE8991838083DD
:102DC000D10114962D913D914D915C9117972BA3B4
:102DD0003CA34DA35EA3B8E02B0E311C62E070E073
:102DE0008F89988D0E94E839ED89FE8993838283CB
:102DF000892B09F429C1412C512C32012BA13CA172
:102E00004DA15EA142165306640675060CF025C15D
:102E10005101F4E0AF0EB11CD101ED90FC90EE0C2D
:102E2000FF1CED89FE89028113810E0D1F1D68E0D4
:102E300070E081E090E00E94E839D8018D939C9386
:102E4000ED89FE8982819381FC01EE0DFF1DC0801A
:102E5000D180C114D10409F4F7C084E0F501D60192
:102E600001900D928A95E1F7F8E02F0E311CF601E2
:102E700080819181A281B381181619061A061B065A
:102E80000CF04BC064E070E00E94E839D601159662
:102E90009C938E931497892B09F4D6C0E12CF12CC6
:102EA000812C912C5401F60180819181A281B38102
:102EB00088169906AA06BB0684F5F60104811581D9
:102EC0000E0D1F1D80E1F101DE01119601900D92A2
:102ED0008A95E1F7F0E12F0E311CA801BE016F5F6A
:102EE0007F4FA9A1BAA114968D919C91159785DC6D
:102EF000F60126813781D80112968D919C91139706
:102F0000820F931F97838683BFEF8B1A9B0AAB0AAE
:102F1000BB0AE4E0EE0EF11CC6CFFFEF4F1A5F0ACA
:102F20006F0A7F0A6BCF6EE070E08F89988D0E94E8
:102F3000E839AF8DB8A11B969C938E931A97A12C5C
:102F4000B12CC12CD12CE12CF12C24E4E989FA8993
:102F50002E9FC0012F9F900D11249C012259394FA3
:102F60003E8B2D8B88248394912C4F89588DC416C9
:102F7000D5060CF041C0D1014D905D906D907D90D3
:102F80001D01ED89FE89008111810A0D1B1D77FC51
:102F90005BC0D80111969C928E9241145104610439
:102FA000710449F0C2010E94023AF80195838483BA
:102FB000892B31F449C0D80115961C921E921497A2
:102FC000F801538242828481958197838683918719
:102FD00080871386128681E090E04528462847289E
:102FE00011F480E090E0E80EF91EFFEFCF1ADF0A3F
:102FF0002EE0A20EB11CB9CF84E4A989BA898A9FB8
:1030000080018B9F100D11240C59194FF801158662
:103010001486C70133E0880F991F3A95E1F70E94A3
:10302000023AD80151969C938E935097892B61F068
:10303000C701880F991F0E94023AF8019787868777
:10304000892B11F080E01CC04F89588D69897A89DD
:103050008B899C89FFDC81E013C0298D3A8D4B8DD3
:103060005C8D2F5F3F4F4F4F5F4F298F3A8F4B8FB4
:103070005C8F4D8D5E8D4C5F5F4F5E8F4D8F75CE3B
:10308000AA960FB6F894DEBF0FBECDBFDF91CF91E9
:103090001F910F91FF90EF90DF90CF90BF90AF9076
:1030A0009F908F907F906F905F904F903F902F9068
:1030B00008952F923F924F925F926F927F928F92DC
:1030C0009F92AF92BF92CF92DF92EF92FF920F93B7
:1030D0001F93CF93DF93CDB7DEB768970FB6F89401
:1030E000DEBF0FBECDBF9C8B8B8B69017A0124E4C0
:1030F0002C9DC0012D9D900D11249C012C59394F00
:103100005901FB0120813181F501358B248BDC01D4
:10311000A658B94FFB01349624E001900D922A95F0
:10312000E1F7DC01A258B94FFB01389624E0019089
:103130000D922A95E1F7DC01AE57B94FFB013C96A1
:1031400024E001900D922A95E1F7DC01AE56B94FCB
:10315000FB01709684E001900D928A95E1F78B0156
:103160000C5E1F4FF50186A597A5A0A9B1A9181659
:1031700019060CF064C0880F991F880F991F0E94D0
:10318000023AF50193AB82AB892B09F4B5C0812CCF
:10319000912C412C512C32019501225D3F4F3E8BE9
:1031A0002D8BC501C296988F8F8BF496FA8BE98B85
:1031B000B301A2012FEF421A520A620A720AED8984
:1031C000FE8980819181A281B381481759076A07DE
:1031D0007B0754F5EF89F88D20803180280C391C4D
:1031E00080E1F801DE01119601900D928A95E1F7D8
:1031F000005F1F4FA101BE016F5F7F4FEB89FC890C
:1032000084819581FADAE989FA8920813181F10195
:1032100082819381820F931FE989FA899183808348
:10322000F4E08F0E911CC4CFF50184A995A90E94EA
:10323000023AF50197AB86AB892B09F45DC0F80122
:1032400080819181A281B38124E42C9DF0012D9D88
:10325000F00D1124EC59F94FAC01BD014D7F21E077
:1032600030E0452B462B472B11F020E030E033A314
:1032700022A324E42C9DF0012D9DF00D1124EC5986
:10328000F94F0197A109B10921E030E00297A105AA
:10329000B10510F020E030E035A324A324E42C9DF8
:1032A000C0012D9D900D1124DC01A657B94FF801E6
:1032B000349624E001900D922A95E1F7FC01EC5937
:1032C000F94F868D978DA0A1B1A1B7FF10C0B09521
:1032D000A095909581959F4FAF4FBF4F82AF93AF11
:1032E000A4AFB5AF168E178E10A211A20AC012AEEF
:1032F00013AE14AE15AE05C0C701B60112DA81E0F7
:1033000001C080E068960FB6F894DEBF0FBECDBF57
:10331000DF91CF911F910F91FF90EF90DF90CF90B1
:10332000BF90AF909F908F907F906F905F904F90E5
:103330003F902F900895CF92DF92EF92FF92CF931C
:10334000DF931092EC0624E4269FF001279FF00DF6
:103350001124EC59F94F15A614A620E030E0C12C39
:10336000D12CDF011A96C1E0D0E0C416D506D4F402
:10337000ED91FC911197E20FF31FE280F3801E1490
:103380001F0454F4E480F580F782E682F186E0863B
:1033900013861286D183C083EFEFCE1ADE0A225F36
:1033A0003F4FE3CF24E4269FF001279FF00D112427
:1033B000EC59F94F13A612A611AE10AEDF01DE963E
:1033C0001D921D921D921C92139782E090E0938BA8
:1033D000828BDF91CF91FF90EF90DF90CF90089597
:1033E00024E4269FF001279FF00D1124EC59F94F9A
:1033F000138A128A2FCB24E4269FF001279FF00D19
:103400001124EC59F94F8289938981309105C8F0D4
:103410008530910518F0059769F008958FEF9FEFBB
:10342000DC01828F938FA48FB58F85E090E0938B22
:10343000828B08958FEF9FEFDC01828F938FA48F93
:10344000B58F089524E4249FF001259FF00D1124E9
:10345000EC59F94F2EE0AC01249FC001259F900D3F
:1034600011240284F385E02DE80FF91F81E0809399
:10347000EC068285938591878087408551852681DA
:10348000378181E090E04217530711F080E090E02F
:103490009183808308952F923F924F925F926F9213
:1034A0007F928F929F92AF92BF92CF92DF92EF92D4
:1034B000FF920F931F93CF93DF93CDB7DEB7C05525
:1034C000D1090FB6F894DEBF0FBECDBF9EAF8DAF52
:1034D0004BA75CA76DA77EA76801790184E48C9D4A
:1034E00080018D9D100D1124F801EC59F94F2285B2
:1034F000338525963FAF2EAF259782899389029712
:1035000009F05FC186A597A5A0A9B1A9892B8A2B2F
:103510008B2B29F484E090E0938B828B52C18489B9
:1035200095894DAD5EAD4817590709F04AC186A986
:1035300097A998AB8FA71CAE1BAE1FAA18AE19AEE9
:103540001AAE8F01DF019E962796BFAFAEAF2797C9
:10355000F2962996FFAFEEAF29979801285C3F4F6E
:103560002B963FAF2EAF2B97A8014A5D5F4F2D964C
:103570005FAF4EAF2D97C80182962F969FAF8EAF4B
:103580002F971A976196BFAFAEAF61972796EEADB2
:10359000FFAD279780819181A281B3812FA938AD9A
:1035A00049AD5AAD281739074A075B070CF0E8C048
:1035B0002996EEADFFAD2997808191812BAD3CAD71
:1035C000280F391F3CAB2BABD90112960D90BC9143
:1035D000A02D2196BFAFAEAF2197B695A795B69512
:1035E000A7952396BFAFAEAF23972B96EEADFFAD59
:1035F0002B9780819181892B09F497C02D96AEADD0
:10360000BFAD2D978D909D90AD90BC902FA438A804
:10361000F9010190F081E02DFAABE9AB1EAA1DAAD9
:1036200023968EAD9FAD2397ADA9BEA9A817B90764
:103630000CF07BC02F96AEADBFAD2F978D919C91B6
:10364000892B71F1E9A9FAA94080518062807380C9
:10365000A3019201C501B4010E94BE36181664F0A0
:10366000D1012D913D914D915C91C501B4010E9414
:103670000F3918160CF48CC0A3019201C501B401D6
:103680000E94BE3687FF0CC0F1012081318142814A
:103690005381C501B4010E94BE36882309F478C065
:1036A0006196AEADBFAD61978D919C91892B69F10B
:1036B000E9A9FAA94080518062807380A301920138
:1036C000C501B4010E940F39181664F4D1012D917F
:1036D0003D914D915C91C501B4010E94BE36181612
:1036E0000CF056C0A3019201C501B4010E94BE3680
:1036F00081110BC0F1012081318142815381C501CB
:10370000B4010E94BE3687FD43C02DA93EA92F5F9C
:103710003F4F3EAB2DAB34E0230E311C49A95AA9D3
:103720004C5F5F4F5AAB49AB7BCFEBA9FCA96081E3
:10373000718121964EAD5FAD21978FA598A90E940A
:10374000233B23968EAD9FAD2397880F991F880F3B
:10375000991F2FA538A9280F391F38AB2FA78FA97C
:1037600098ADA9ADBAAD0196A11DB11D8FAB98AFB3
:10377000A9AFBAAFABADBCAD1496BCAFABAF06CF83
:1037800081E090E0D801D9969C938E93D89719C088
:1037900084E48C9DF0018D9DF00D1124EC59F94FBE
:1037A000868D978DA0A1B1A1892B8A2B8B2B09F037
:1037B00059C284E090E0938B828B86AD97AD93A73E
:1037C00082A784E48C9DF0018D9DF00D1124EC59AD
:1037D000F94F828993898230910579F482AD93AD56
:1037E000A4ADB5AD181619061A061B060CF041C299
:1037F000E1E0F0E0FAABE9AB05C0049709F039C2AB
:103800001AAA19AA8EE02DAD3EAD829F8001839F3A
:10381000100D112425964EAD5FAD2597040F151F91
:10382000D80112962D913C9113972115310509F479
:1038300020C216968D919C9117979AA789A7FE0191
:10384000319684E1DF011D928A95E9F7C98ADA8A07
:10385000EB8AFC8AE9A9FAA9EF2B09F451C084E4A8
:103860008C9DF0018D9DF00D1124EC59F94FDF0175
:10387000DE968D909D90AD90BC9082AD93ADA4AD41
:10388000B5AD88169906AA06BB06D1F5D8011496DF
:103890004D915C9115971896ED91FC91199734967E
:1038A00084E0DE01559601900D928A95E1F78D89AD
:1038B0009E8908969E8B8D8BF80160857185860F99
:1038C000971F9187808780859185240F351F821BE4
:1038D000930B97FD04C0840F951F9187808784E424
:1038E0008C9DF0018D9DF00D1124EE55F94F21E0D6
:1038F000821A9108A108B10880829182A282B382C3
:103900009E012B5E3F4FAE01475D5F4F64E170E06B
:10391000C8010E942813282E312C2114310409F0EB
:103920008AC18CE090E0A0E0B0E08D839E83AF83FD
:10393000B8879E01235E3F4FAE01475D5F4F64E055
:1039400070E0C8010E942813282E312C2114310464
:1039500009F071C180E190E0A0E0B0E08D839E832A
:10396000AF83B8874D8D5E8DBE01655D7F4F8F8DB6
:1039700098A10E94233B8BA19CA1009761F06D8DC3
:103980007E8D4BE250E04C0F5D1F640F751F49A107
:103990005AA10E94233B1DA21EA21FA218A68DADF4
:1039A0009EAD880F991F98AF8FAB24E42C9DC0016A
:1039B0002D9D900D11248C59994FDC011496BCAFAC
:1039C000ABAFFC0138962196FFAFEEAF21978DA0EB
:1039D0009EA0AFA0B8A4EBADFCAD80819181A28187
:1039E000B38188169906AA06BB060CF0CDC02196B5
:1039F000AEADBFAD2197ED91FC91C401880F991F29
:103A0000880F991FE80FF91FA081B1818C91811156
:103A10000AC0BFEF8B1A9B0AAB0ABB0A8DA29EA2FB
:103A2000AFA2B8A6D4CF8330A1F30280F381E02DFA
:103A30002FA938ADE20FF31F408151815CAB4BAB36
:103A4000452B39F389859A85AB85BC850196A11DE7
:103A5000B11D89879A87AB87BC879E01235E3F4F44
:103A6000AE01475D5F4F64E070E0C8010E9428131B
:103A700090E0009709F0DEC08D819E81AF81B8850E
:103A80000496A11DB11D8D839E83AF83B8874D8D94
:103A90005E8DBE016B5D7F4F8F8D98A10E94233B91
:103AA0008BA19CA1009761F06D8D7E8DA5E2B0E0A9
:103AB000AC0FBD1F6A0F7B1F49A15AA10E94233B77
:103AC0001EAA1DAA412C512C3201EBA9FCA9808110
:103AD0009181A281B381481659066A067B060CF0D3
:103AE00098CFEBA9FCA9848195812DA93EA9280F27
:103AF000391F38AB2FA7D90112966D917C9113977E
:103B00009E01235E3F4FAE01475D5F4FC8010E949B
:103B1000281390E0009709F08DC0EFA5F8A98281E5
:103B20009381092E000CAA0BBB0B4D815E816F8126
:103B30007885840F951FA61FB71F8D839E83AF8343
:103B4000B887608171814D8D5E8D8F8D98A10E94A7
:103B5000233B8BA19CA1009761F0AFA5B8A96D9103
:103B60007C912D8D3E8D620F731F49A15AA10E9439
:103B7000233BBFEF4B1A5B0A6B0A7B0AEDA9FEA938
:103B80003496FEABEDABA1CF89859A85AB85BC851C
:103B9000892B8A2B8B2B09F44EC08AE190E0A0E0A0
:103BA000B0E089839A83AB83BC832DAD3EADC90160
:103BB000330FAA0BBB0B8D879E87AF87B88B4D89C0
:103BC0005E89BE016F5F7F4F8F89988D0E94233B76
:103BD0008B8D9C8D009761F06D897E8941E050E06E
:103BE0004C0F5D1F640F751F498D5A8D0E94233B3A
:103BF00089A59AA5D80117969C938E93169711962E
:103C00001C921E92E9A9FAA9EF2B99F184E48C9DEC
:103C1000F0018D9DF00D1124EE55F94F80819181B9
:103C2000A281B3810196A11DB11D80839183A283DE
:103C3000B3831FC01C0129A93AA9232BD1F423283F
:103C4000C1F084E48C9DF0018D9DF00D1124EC59A0
:103C5000F94F81E090E095A784A785E090E0938BF1
:103C6000828B07C083E090E0938B828B81E090E0B1
:103C7000A6CDC05BDF4F0FB6F894DEBF0FBECDBF41
:103C8000DF91CF911F910F91FF90EF90DF90CF9038
:103C9000BF90AF909F908F907F906F905F904F906C
:103CA0003F902F900895CF92DF92EF92FF920F9363
:103CB0001F9324E4269FF001279FF00D1124EC5957
:103CC000F94F228933892115310509F453C06B015D
:103CD0007C0121303105B9F482A593A59C012F5FA9
:103CE0003F4F33A722A7092E000CAA0BBB0B028D56
:103CF000138D248D358D80179107A207B307D1F559
:103D0000C701B60118DB84E48C9DF0018D9DF00D98
:103D10001124EC59F94F82899389039759F582A5AB
:103D200093A59C012F5F3F4F33A722A7092E000CBC
:103D3000AA0BBB0B468D578D60A171A18417950707
:103D4000A607B707BCF086AD97AD93A782A784E01E
:103D500090E0938B828B82AD93ADA4ADB5AD181678
:103D600019061A061B0634F4EE5BFF4F81E090E063
:103D7000918380831F910F91FF90EF90DF90CF9000
:103D8000089524E4269FF001279FF00D1124EC599B
:103D9000F94F828993890497B1F482A593A501967E
:103DA00093A782A7092E000CAA0BBB0B4689578943
:103DB000608D718D84179507A607B70721F485E0FC
:103DC00090E0938B828B08952F923F924F925F9257
:103DD0006F927F928F929F92AF92BF92CF92DF921B
:103DE000EF92FF920F931F93CF93DF93CDB7DEB780
:103DF0002E970FB6F894DEBF0FBECDBF49835A830E
:103E00006B837C834901442E552E24E4249DF001CC
:103E1000259DF00D1124EC59F94F2288338891012A
:103E2000245031092230310508F0DFC0DC01119641
:103E30001C921E9213961C921E921297158614863F
:103E4000A12CB12C60E070E09F01265F3F4F3887C6
:103E50002F837F013CE0E30EF11CDF015096BA870F
:103E6000A9879F01225F3F4F3C872B876815790503
:103E70000CF06FC0EF81F885A081B1819D012A0D02
:103E80003B1D3E872D87D9012D913C911197232B06
:103E900009F059C018960D911C9119971296ED9141
:103EA000FC911397FE83ED8316962D913C91179705
:103EB000D7014D915C91DA01E3E0AA0FBB1FEA95AF
:103EC000E1F7E985FA85C080D180FD01EC0DFD1D8B
:103ED000440F551FAB85BC85CD90DC904C0D5D1D0E
:103EE000DA016D937C93D7014D915C9111974F5FEF
:103EF0005F4F4D935C9313830283AD85BE851B9604
:103F00003C932E931A970217130748F4201B310B8A
:103F100031832083158214821782168214C0AD85E6
:103F2000BE851496CD90DC9015974D815E814C0D29
:103F30005D1D401B510B518340832C193D09358376
:103F40002483D782C6826F5F7F4FBEE0AB0EB11C69
:103F50008DCF24E4249D8001259D100D11240C5942
:103F6000194FF80124853585DC0111963C932E9379
:103F70004089518913965C934E93129746855785D5
:103F800015965C934E931497232BB1F5B5E02B1641
:103F9000310491F51092EC06828D938DA48DB58D30
:103FA000AE014F5F5F4F64E070E08F3F9F4FAF4FB8
:103FB000BF4F59F480E290E00E94222D69817A81FE
:103FC0008B819C81A4010CDA17C08FE190E00E94E4
:103FD000222DD8019B961C921E929A9781E090E028
:103FE00053969C938E93529707C015861486FC01B6
:103FF00011821082138212822E960FB6F894DEBFC1
:104000000FBECDBFDF91CF911F910F91FF90EF9029
:10401000DF90CF90BF90AF909F908F907F906F90E8
:104020005F904F903F902F900895EF92FF920F93E3
:104030001F93CF93DF937C018B01EA010E94092E2D
:10404000811121C080913A0390913B03049711F1B3
:1040500083E090E090933B0380933A031BC08881F8
:104060008111F0CF28ED38EB45E050E060E070E0E2
:10407000CB010E949230AE01B801C7010E94A0306E
:10408000C8010E946B308091ED069091EE06892B5D
:1040900031F3D8CFDF91CF911F910F91FF90EF9027
:1040A0000895CF93DF9320913A0330913B0324305E
:1040B000310541F0EB010E94A030CE01DF91CF919C
:1040C0000C946B30DF91CF9108950C9481340C9453
:1040D00076340C9464340C947B300C94073408953B
:1040E00060E070E080E090E00C94E42D0895AF92E1
:1040F000BF92CF92DF92EF92FF920F931F93CF93D5
:10410000DF931F921F92CDB7DEB75C0169017A0180
:104110008B0180E090E0C114D104E104F104F1F0DE
:10412000C114D10421E0E206F10410F4A60102C09A
:104130004FEF5FEF9E012F5F3F4FB801C5010E9417
:1041400012358F3F2FEF920749F029813A81C21A29
:10415000D30AE108F108020F131FDDCF0F900F9073
:10416000DF91CF911F910F91FF90EF90DF90CF9053
:10417000BF90AF90089508950895883008F070C0FA
:10418000A82FB0E0AA0FBB1FA45CBC4F11967C9374
:104190006E9390E0FC013197E730F105A0F5882798
:1041A000EE58FF4F8F4F0C94CC39809169008C7F73
:1041B000482B40936900E89A089580916900837FB5
:1041C000440F551F440F551F482B40936900E99A2F
:1041D0000895809169008F7C74E0440F551F7A9593
:1041E000E1F7482B40936900EA9A089580916900AD
:1041F0008F7366E0440F551F6A95E1F7482B409393
:104200006900EB9A089580916A008C7F482B409357
:104210006A00EC9A089580916A00837F440F551FCD
:10422000440F551F482B40936A00ED9A08958091E2
:104230006A008F7C24E0440F551F2A95E1F7482B34
:1042400040936A00EE9A089580916A008F7396E019
:10425000440F551F9A95E1F7482B40936A00EF9A57
:1042600008951F920F920FB60F9211240BB60F9262
:104270002F933F934F935F936F937F938F939F936E
:10428000AF93BF93EF93FF93E0914003F09141030D
:104290001995FF91EF91BF91AF919F918F917F9170
:1042A0006F915F914F913F912F910F900BBE0F90A7
:1042B0000FBE0F901F9018951F920F920FB60F927E
:1042C00011240BB60F922F933F934F935F936F93ED
:1042D0007F938F939F93AF93BF93EF93FF93E0915F
:1042E0004203F09143031995FF91EF91BF91AF9174
:1042F0009F918F917F916F915F914F913F912F91FE
:104300000F900BBE0F900FBE0F901F9018951F922D
:104310000F920FB60F9211240BB60F922F933F936B
:104320004F935F936F937F938F939F93AF93BF93BD
:10433000EF93FF93E0914403F09145031995FF91AA
:10434000EF91BF91AF919F918F917F916F915F910D
:104350004F913F912F910F900BBE0F900FBE0F907A
:104360001F9018951F920F920FB60F9211240BB643
:104370000F922F933F934F935F936F937F938F93FE
:104380009F93AF93BF93EF93FF93E0914603F09118
:1043900047031995FF91EF91BF91AF919F918F9135
:1043A0007F916F915F914F913F912F910F900BBE35
:1043B0000F900FBE0F901F9018951F920F920FB67F
:1043C0000F9211240BB60F922F933F934F935F934D
:1043D0006F937F938F939F93AF93BF93EF93FF93CD
:1043E000E0913C03F0913D031995FF91EF91BF914E
:1043F000AF919F918F917F916F915F914F913F917D
:104400002F910F900BBE0F900FBE0F901F9018951D
:104410001F920F920FB60F9211240BB60F922F938B
:104420003F934F935F936F937F938F939F93AF933C
:10443000BF93EF93FF93E0913E03F0913F031995F3
:10444000FF91EF91BF91AF919F918F917F916F916C
:104450005F914F913F912F910F900BBE0F900FBE28
:104460000F901F9018951F920F920FB60F92112464
:104470000BB60F922F933F934F935F936F937F935E
:104480008F939F93AF93BF93EF93FF93E091480374
:10449000F09149031995FF91EF91BF91AF919F91D1
:1044A0008F917F916F915F914F913F912F910F90DD
:1044B0000BBE0F900FBE0F901F9018951F920F927A
:1044C0000FB60F9211240BB60F922F933F934F9379
:1044D0005F936F937F938F939F93AF93BF93EF936C
:1044E000FF93E0914A03F0914B031995FF91EF91EF
:1044F000BF91AF919F918F917F916F915F914F91FC
:104500003F912F910F900BBE0F900FBE0F901F90F9
:1045100018951F920F920FB60F9211242F933F936D
:104520008F939F93AF93BF938091F0069091F10684
:10453000A091F206B091F3063091EF0623E0230F2D
:104540002D3720F40196A11DB11D05C026E8230FCB
:104550000296A11DB11D2093EF068093F006909363
:10456000F106A093F206B093F3068091F4069091C1
:10457000F506A091F606B091F7060196A11DB11DB2
:104580008093F4069093F506A093F606B093F70691
:10459000BF91AF919F918F913F912F910F900FBE3F
:1045A0000F901F9018952FB7F8946091F0067091B6
:1045B000F1068091F2069091F3062FBF08953FB760
:1045C000F8948091F4069091F506A091F606B091CA
:1045D000F70626B5A89B05C02F3F19F00196A11D2F
:1045E000B11D3FBFBA2FA92F982F8827820F911D89
:1045F000A11DB11DBC01CD0142E0660F771F881FD0
:10460000991F4A95D1F708958F929F92AF92BF92CA
:10461000CF92DF92EF92FF926B017C01D0DF4B01D2
:104620005C01C114D104E104F104F1F0A4DDC7DFA1
:10463000DC01CB0188199909AA09BB09883E93407E
:10464000A105B10570F321E0C21AD108E108F10813
:1046500088EE880E83E0981EA11CB11CC114D10401
:10466000E104F10421F7DDCFFF90EF90DF90CF90D0
:10467000BF90AF909F908F900895789484B582609A
:1046800084BD84B5816084BD85B5826085BD85B5F6
:10469000816085BDEEE6F0E0808181608083E1E8A5
:1046A000F0E01082808182608083808181608083DD
:1046B000E0E8F0E0808181608083E1EBF0E08081E0
:1046C00084608083E0EBF0E0808181608083E1E9B9
:1046D000F0E0808182608083808181608083E0E976
:1046E000F0E0808181608083E1EAF0E08081826097
:1046F0008083808181608083E0EAF0E08081816056
:104700008083E1E2F1E0808182608083808181604A
:104710008083E0E2F1E0808181608083EAE7F0E07D
:1047200080818460808380818260808380818160D9
:1047300080838081806880831092C10008951F93D8
:10474000CF93DF93182FEB0161E016D1209711F47E
:1047500060E004C0CF3FD10531F461E0812FDF91EB
:10476000CF911F9145C1E12FF0E0EA55FE4FE49152
:104770008E2F90E0FC013197E231F10508F09DC0E9
:104780008827E758FF4F8F4F0C94CC3984B5806849
:1047900084BDC7BD97C084B5806284BDC8BD92C0CA
:1047A00080918000806880938000D0938900C093BE
:1047B000880088C080918000806280938000D093C0
:1047C0008B00C0938A007EC08091800088608093B7
:1047D0008000D0938D00C0938C0074C08091B00095
:1047E00080688093B000C093B3006CC08091B0002B
:1047F00080628093B000C093B40064C08091900048
:10480000806880939000D0939900C09398005AC01C
:1048100080919000806280939000D0939B00C09321
:104820009A0050C080919000886080939000D0934F
:104830009D00C0939C0046C08091A000806880933A
:10484000A0008091A0008F7B8093A000D093A9004E
:10485000C093A80037C08091A00080628093A00020
:10486000D093AB00C093AA002DC08091A0008860B7
:104870008093A000D093AD00C093AC0023C0809182
:104880002001806880932001D0932901C0932801E2
:1048900019C080912001806280932001D0932B0168
:1048A000C0932A010FC0809120018860809320016D
:1048B000D0932D01C0932C0105C0C038D1050CF058
:1048C0004CCF46CFDF91CF911F91089590E0FC012E
:1048D0003197E231F10508F04EC08827E557FF4FC8
:1048E0008F4F0C94CC39809180008F7703C08091DA
:1048F00080008F7D80938000089580918000877F65
:10490000F9CF84B58F7702C084B58F7D84BD0895BB
:104910008091B0008F7703C08091B0008F7D80932D
:10492000B0000895809190008F7707C0809190002B
:104930008F7D03C080919000877F809390000895C1
:104940008091A0008F7707C08091A0008F7D03C069
:104950008091A000877F8093A0000895809120011E
:104960008F7707C0809120018F7D03C08091200147
:10497000877F809320010895CF93DF9390E0FC011F
:10498000E451FE4F2491FC01EE5CFD4F849188239D
:1049900061F190E0880F991FFC01EE56FD4FC59123
:1049A000D491FC01E858FD4FA591B491611109C063
:1049B0009FB7F8948881209582238883EC912E23D9
:1049C0000BC0623061F49FB7F8948881322F309524
:1049D00083238883EC912E2B2C939FBF06C08FB727
:1049E000F894E8812E2B28838FBFDF91CF91089513
:1049F0001F93CF93DF93282F30E0F901EA55FE4F44
:104A00008491F901E451FE4FD491F901EE5CFD4F20
:104A1000C491CC23B9F0162F811158DFEC2FF0E0B0
:104A2000EE0FFF1FE858FD4FA591B4919FB7F89482
:104A3000111104C08C91D095D82302C0EC91DE2BCB
:104A4000DC939FBFDF91CF911F910895FC01918D61
:104A5000228D892F90E0805C9F4F821B91098F737C
:104A600099270895FC01918D828D981731F0828DE0
:104A7000E80FF11D858D90E008958FEF9FEF089569
:104A8000FC01918D828D981761F0828DDF01A80F56
:104A9000B11D5D968C91928D9F5F9F73928F90E078
:104AA00008958FEF9FEF0895FC01538D448D252FBE
:104AB00030E0842F90E0821B930B541710F0CF96B8
:104AC000089501970895FC01848DDF01A80FB11DA1
:104AD000A35ABF4F2C91848D90E001968F73992734
:104AE000848FA689B7892C93A089B1898C91837012
:104AF00080648C93938D848D981306C00288F3890B
:104B0000E02D80818F7D80830895EF92FF920F9337
:104B10001F93CF93DF93EC0181E0888F9B8D8C8D69
:104B2000981305C0E889F989808185FD25C0F62E96
:104B30000B8D10E00F5F1F4F0F731127E02E8C8D30
:104B4000E8120BC00FB607FCFACFE889F98980811B
:104B500085FFF5CFCE01B7DFF2CF8B8DFE01E80FD9
:104B6000F11DE35AFF4FF0829FB7F8940B8FEA894B
:104B7000FB89808180620AC09FB7F894EE89FF8923
:104B80006083E889F98980818370806480839FBF16
:104B900081E090E0DF91CF911F910F91FF90EF9016
:104BA0000895CF93DF93EC01888D8823C1F0EA89C3
:104BB000FB89808185FD05C0A889B9898C9186FD16
:104BC0000EC00FB607FCF5CF808185FFF2CFA88914
:104BD000B9898C9185FFEDCFCE0175DFE8CFDF91EC
:104BE000CF910895CF92DF92EF92FF921F93CF93D0
:104BF000DF93EC016A017B01122FE889F98982E0D9
:104C000080834115514E61057105B1F060E079E096
:104C10008DE390E0A70196010E94AA39DA01C9014B
:104C20000197A109B109B695A795979587959C011C
:104C3000211580E13807A8F0E889F989108260E839
:104C400074E88EE190E0A70196010E94AA39DA018A
:104C5000C9010197A109B109B695A79597958795BF
:104C60009C01EC85FD853083EE85FF852083188EC1
:104C7000EC89FD891083EA89FB89808180618083CA
:104C8000EA89FB89808188608083EA89FB89808149
:104C900080688083EA89FB8980818F7D8083DF91B2
:104CA000CF911F91FF90EF90DF90CF9008951F92CA
:104CB0000F920FB60F9211240BB60F922F938F9372
:104CC0009F93EF93FF93E0910807F091090780818C
:104CD000E0910E07F0910F0782FD12C09081809144
:104CE00011078F5F8F7320911207821751F0E091A7
:104CF0001107F0E0E850F94F958F8093110701C03C
:104D00008081FF91EF919F918F912F910F900BBE1A
:104D10000F900FBE0F901F9018951F920F920FB615
:104D20000F9211240BB60F922F933F934F935F93E3
:104D30006F937F938F939F93AF93BF93EF93FF9363
:104D400088EF96E0C0DEFF91EF91BF91AF919F9108
:104D50008F917F916F915F914F913F912F910F9024
:104D60000BBE0F900FBE0F901F901895E8EFF6E066
:104D70001382128288EE93E0A0E0B0E084839583F2
:104D8000A683B7838AEB94E09183808385EC90E0DF
:104D90009587848784EC90E09787868780EC90E005
:104DA000918B808B81EC90E0938B828B82EC90E0F6
:104DB000958B848B86EC90E0978B868B118E128E70
:104DC000138E148E08951F920F920FB60F92112416
:104DD0000BB60F922F938F939F93EF93FF93E091D6
:104DE000A507F091A6078081E091AB07F091AC0791
:104DF00082FD12C090818091AE078F5F8F732091EA
:104E0000AF07821751F0E091AE07F0E0EB56F84F94
:104E1000958F8093AE0701C08081FF91EF919F91A4
:104E20008F912F910F900BBE0F900FBE0F901F9080
:104E300018951F920F920FB60F9211240BB60F9276
:104E40002F933F934F935F936F937F938F939F9392
:104E5000AF93BF93EF93FF9385E997E034DEFF9123
:104E6000EF91BF91AF919F918F917F916F915F91E2
:104E70004F913F912F910F900BBE0F900FBE0F904F
:104E80001F901895E5E9F7E01382128288EE93E00F
:104E9000A0E0B0E084839583A683B7838AEB94E097
:104EA000918380838DEC90E0958784878CEC90E0F3
:104EB0009787868788EC90E0918B808B89EC90E0D7
:104EC000938B828B8AEC90E0958B848B8EEC90E0B8
:104ED000978B868B118E128E138E148E08951F92CF
:104EE0000F920FB60F9211240BB60F922F938F9340
:104EF0009F93EF93FF93E0914208F09143088081E4
:104F0000E0914808F091490882FD12C0908180919B
:104F10004B088F5F8F7320914C08821751F0E091FE
:104F20004B08F0E0EE5CF74F958F80934B0801C083
:104F30008081FF91EF919F918F912F910F900BBEE8
:104F40000F900FBE0F901F9018951F920F920FB6E3
:104F50000F9211240BB60F922F933F934F935F93B1
:104F60006F937F938F939F93AF93BF93EF93FF9331
:104F700082E398E0A8DDFF91EF91BF91AF919F91FF
:104F80008F917F916F915F914F913F912F910F90F2
:104F90000BBE0F900FBE0F901F901895E2E3F8E044
:104FA0001382128288EE93E0A0E0B0E084839583C0
:104FB000A683B7838AEB94E09183808385ED90E0AC
:104FC0009587848784ED90E09787868780ED90E0D1
:104FD000918B808B81ED90E0938B828B82ED90E0C2
:104FE000958B848B86ED90E0978B868B118E128E3D
:104FF000138E148E08951F920F920FB60F921124E4
:105000000BB60F922F938F939F93EF93FF93E091A3
:10501000DF08F091E0088081E091E508F091E60872
:1050200082FD12C090818091E8088F5F8F7320917C
:10503000E908821751F0E091E808F0E0E153F74FFA
:10504000958F8093E80801C08081FF91EF919F9137
:105050008F912F910F900BBE0F900FBE0F901F904E
:1050600018951F920F920FB60F9211240BB60F9244
:105070002F933F934F935F936F937F938F939F9360
:10508000AF93BF93EF93FF938FEC98E01CDDFF91FC
:10509000EF91BF91AF919F918F917F916F915F91B0
:1050A0004F913F912F910F900BBE0F900FBE0F901D
:1050B0001F901895EFECF8E01382128288EE93E0CF
:1050C000A0E0B0E084839583A683B7838AEB94E065
:1050D0009183808385E391E09587848784E391E0E1
:1050E0009787868780E391E0918B808B81E391E0C5
:1050F000938B828B82E391E0958B848B86E391E0A6
:10510000978B868B118E128E138E148E0895CF92EC
:10511000DF92EF92FF920F931F93CF93DF936C0177
:105120007A018B01C0E0D0E0CE15DF0581F0D80117
:105130006D918D01D601ED91FC910190F081E02DF2
:10514000C6011995892B11F02196EECF7E01C7017A
:10515000DF91CF911F910F91FF90EF90DF90CF9053
:1051600008958230A9F028F4882349F0813051F065
:105170000895843021F1E8F0853039F108951092D6
:105180006E00089580916F008D7F80936F00089569
:10519000809170008D7F8093700081E08093B000DB
:1051A0008091B100887F84608093B1001092B30039
:1051B0000895809171008D7F809371000895809192
:1051C00072008D7F809372000895809173008D7FAF
:1051D000809373000895CF93C82F80914C03C81318
:1051E00007C0ECEAF2E084919FEF90934C0301C07A
:1051F0008FEFB7DF60E08C2FCF91FACB1F920F9229
:105200000FB60F9211240BB60F922F933F934F932B
:105210005F936F937F938F939F93AF93BF93EF931E
:10522000FF9380916F0990917009A0917109B091DD
:105230007209892B8A2B8B2B51F190916C09E0918B
:105240006D09F0916E0980818927808380916F09B3
:1052500090917009A0917109B09172091816190600
:105260001A061B06BCF480916F0990917009A091F9
:105270007109B09172090197A109B10980936F0971
:1052800090937009A0937109B093720903C0809143
:105290004C03A1DFFF91EF91BF91AF919F918F914F
:1052A0007F916F915F914F913F912F910F900BBE26
:1052B0000F900FBE0F901F90189540E855E260E0E8
:1052C00070E080E090E000C08130910571F01CF446
:1052D000892B39F008958230910559F0039769F0D0
:1052E000089526E088EF96E00BC026E085E997E078
:1052F00007C026E082E398E003C026E08FEC98E048
:1053000071CC1F920F920FB60F9211240BB60F9211
:105310002F933F934F935F936F937F938F939F93BD
:10532000AF93BF93EF93FF938FE89DEF9093250189
:10533000809324010E945235FF91EF91BF91AF916C
:105340009F918F917F916F915F914F913F912F919D
:105350000F900BBE0F900FBE0F901F9018958FE807
:105360009DEF9093250180932401A3E7B0E08C91F9
:105370008E7F8C93E0E2F1E080818C7F8083E1E29C
:10538000F1E08081877E808380818460808380815A
:105390008C7F80838C9181608C93089581E0089547
:1053A0006F927F928F929F92AF92BF92CF92DF9235
:1053B000EF92FF920F931F93CF93DF933C017B01FA
:1053C0005A0101E010E00E151F0564F568018FEF2A
:1053D000C81AD80AE801CC0FDD1FCA0DDB1D888072
:1053E000998081149104E1F068EC74E0C4010E949A
:1053F000333B892B19F41982188212C06BEC74E0CC
:10540000C4010E94333B892B59F4EC14FD0441F094
:105410006801E2E0CE0ED11C198218821B821A822A
:105420008601D1CF81E0F3018083B501C7010E94DD
:10543000AC34F3019283818380E090E0DF91CF91DF
:105440001F910F91FF90EF90DF90CF90BF90AF90A2
:105450009F908F907F906F90089583E799E00895D3
:1054600080E008950F931F93CF93DF938B01BA01D0
:10547000E901198218829801012E000C440B550B8A
:10548000FC01818192810E947720019621F019838D
:10549000088380E001C081E0DF91CF911F910F91DF
:1054A00008950F931F93CF93DF931F921F92CDB751
:1054B000DEB7FB018A01B9019E012F5F3F4FAF01AB
:1054C000FC01818192810E94C334019639F0898167
:1054D0009A81F8019183808380E001C081E00F9080
:1054E0000F90DF91CF911F910F910895FC01808162
:1054F00008950895089581E0FB01808380E0089578
:10550000089510929B090895FC01818192810C9469
:10551000A334CF93DF93CDB7DEB72A970FB6F894B5
:10552000DEBF0FBECDBFAC01CB0160E070E04983B0
:105530005A836B837C83092E000CAA0BBB0B8D83D3
:105540009E83AF83B8879E01275F3F4FAE014F5FB9
:105550005F4F68E070E080918A0990918B0982DF4B
:10556000811108C081E029853A852830310519F478
:1055700080E001C081E02A960FB6F894DEBF0FBE2E
:10558000CDBFDF91CF9108950F931F93CF93DF93FA
:105590001F921F92CDB7DEB78B019E012F5F3F4F49
:1055A000AC0180918A0990918B095CDF811108C060
:1055B00081E029813A812017310719F480E001C088
:1055C00081E00F900F90DF91CF911F910F9108957F
:1055D000CF93DF93EC0110928E0910928D091092F7
:1055E0009A0910929909AC0160E070E0CB010E9429
:1055F000F019AE0161E070E080E090E00E94F019E7
:1056000080918A0990918B09DF91CF9179CF4F9248
:105610005F926F927F928F929F92AF92BF92CF9242
:10562000DF92EF92FF920F931F93CF93DF931F921E
:105630001F92CDB7DEB79C016C0197FF03C087E0D6
:10564000C80ED11C43E0D594C7944A95E1F7C9012F
:1056500068E070E00E9497395C0189010E5F1F4F7E
:105660008091880990918909801791070CF0AEC04C
:105670008091860990918709009731F00E949A3AAB
:105680001092890910928809C8010E94023A9093E9
:10569000870980938609892B19F400E010E033C054
:1056A000109389090093880991C089819A81E80E35
:1056B000F91E8AE0E816F10409F078C149E050E0EB
:1056C00060E070E08FE899E00E94443560919909AC
:1056D00070919A09882309F49BC18091970990E001
:1056E0008617970781F4BC018EEE90E012DF80915F
:1056F000990990919A090196992790939A09809314
:1057000099090F5F1F4F0C151D050CF47BC1AB28C9
:1057100009F460C1C12CD12C760100E010E09801A1
:105720002157364FAE014F5F5F4F61E070E08091CF
:105730008A0990918B09B5DE81114CC18FEFC81A8F
:10574000D80AE80AF80A80E9C8168FE5D80681E089
:10575000E806F1043CF06091990970919A098DEE88
:1057600090E02DC089819A81080F191F0A30110518
:1057700041F549E050E060E070E08FE899E00E9478
:1057800044356091990970919A098823B1F080910C
:10579000970990E08617970709F01CC1BC018EEEAF
:1057A00090E0B7DE8091990990919A090196992726
:1057B00090939A09809399090DC18FEE90E0A9DE2C
:1057C000A9CF0A3011050CF4AACF04C100E010E003
:1057D0000C151D050CF078C0412C512C3201E12C28
:1057E000F12C480193E0880C991C9A95E1F72091DF
:1057F000860930918709C701880D991D280F391F27
:10580000AE014F5F5F4F61E070E080918A09909137
:105810008B0947DE8111DEC08FEF481A580A680AEB
:10582000780A80E948168FE5580681E06806710419
:105830003CF06091990970919A098DEE90E037C023
:1058400089819A81E80EF91E8AE0E816F104B1F523
:1058500049E050E0B40180918609909187090E9447
:1058600044356091990970919A098823F1F08091EB
:10587000860990918709FC01E80DF91D808590E06B
:105880008617970709F0A4CFBC018EEE90E041DEA9
:105890008091990990919A090196992790939A0974
:1058A000809399090F5F1F4F93CF8FEE90E031DE09
:1058B000412C512C3201E12CF12C99CF8AE0E816D1
:1058C000F1040CF494CF84CFA114B10409F4A3C063
:1058D000412C512C3201E12CF12C97012157364FEC
:1058E000AE014F5F5F4F61E070E080918A09909157
:1058F0008B09D7DD81116EC08FEF481A580A680AEC
:10590000780A80E948168FE5580681E06806710438
:105910003CF06091990970919A098DEE90E03EC03B
:1059200089819A81E80EF91E8AE0E816F104C1F532
:1059300049E050E060E070E08FE899E00E94443573
:105940006091990970919A09882331F180919709A2
:1059500090E08617970709F05EC0BC018EEE90E0DC
:10596000D8DD83E0000F111F8A95E1F78091860949
:1059700090918709A5016FE879E0800F911F0E943F
:10598000233B8091990990919A09019699279093C8
:105990009A09809399093FC08FEE90E0BADD98CFC5
:1059A0008AE0E816F1040CF498CF35C08AE0E816D6
:1059B000F1040CF0A8CE97012157364FAE014F5F8E
:1059C0005F4F61E070E080918A0990918B0969DDF9
:1059D000882319F080E090E022C08FEF481A580A1F
:1059E000680A780A80E948168FE5580681E068065B
:1059F00071040CF45ACE6091990970919A098DEE58
:105A000090E087DD412C512C3201E12CF12CD3CFD9
:105A10008FEE90E0F6CF80918609909187090F90E4
:105A20000F90DF91CF911F910F91FF90EF90DF903A
:105A3000CF90BF90AF909F908F907F906F905F902E
:105A40004F900895CF92DF92EF92FF920F931F93A2
:105A5000CF93DF931F92CDB7DEB76C017B018A0134
:105A6000452B39F0AB0160E070E0C8010E94403581
:105A70008983B701C6014DDD81110DC001151105E6
:105A800051F0B701C80180DD811105C061E070E00F
:105A9000CE01019679DD0F90DF91CF911F910F918B
:105AA000FF90EF90DF90CF900895CF92DF92EF922A
:105AB000FF92CF93DF93CDB7DEB728970FB6F89458
:105AC000DEBF0FBECDBF6B01E12CF12CC982DA82A3
:105AD000EB82FC822D833E834F835887AE014F5F5C
