:10000000B6C100000C9460240C948B240C94B6248C
:100010000C94E1240C940C250C9437250C94622547
:100020000C948D250C9498080C943C090C94790937
:10003000CFC100000C942D2CCBC10000C9C1000021
:10004000C7C10000C5C10000C3C10000C1C100009C
:10005000BFC10000BDC10000BBC100000C94B825A9
:10006000B7C100000C9486290C94BC29B1C10000D2
:10007000AFC10000ADC10000ABC10000A9C10000CC
:10008000A7C10000A5C10000A3C10000A1C10000DC
:100090000C94122A0C94482A9BC10000F9C300005A
:1000A00097C1000095C1000093C1000091C10000FC
:1000B0008FC100008DC100008BC1000089C100000C
:1000C00087C1000085C100000C94B62C0C949E2AB8
:1000D0000C94D42A7DC100000C942A2B0C94602B24
:1000E00077C100003A2404240C2418242524462433
:1000F0005324F526FA26FF26092713278C271D27C8
:1001000025272D27372741274B275A2764278C2758
:100110006E2778278227B027B327A227A627AC27E8
:10012000EA27B727BB27C127C527C927CF27D3274A
:10013000D727EA27DD27E127E5270635C436293703
:100140002C3708363B36F634FD34DA340C37FB36C0
:1001500008372C372C372C37C53400000A0B02091E
:100160000C0D0E0807030401000000000000000051
:10017000000000000000000000000000000000007F
:10018000000000000000121110000000000000003C
:10019000000000000000000000000000000000005F
:1001A0000102102020080810204010204080020189
:1001B000020108040201010204081020408080406E
:1001C000201008040201800402018040201008046D
:1001D000020108040201010204081020408001020B
:1001E00004081020408005050505070508080808D3
:1001F000020202020A0A08080404040401010101BF
:1002000001010101030303030303030304070707B9
:100210000C0C0C0C0C0C0C0C02020202060606065E
:10022000060606060B0B0B0B0B0B0B0B000022003C
:10023000250028002B002E003100340002010000B0
:10024000050108010B0100002100240027002A00FD
:100250002D003000330001010000040107010A01F4
:1002600002001D3A2774694E53E8F5D2CF9C81A64F
:10027000BBCDD0F7EAB9A4839E25381F02514C6B41
:1002800076879ABDA0F3EEC9D46F7255481B06213C
:100290003C4A57706D3E230419A2BF9885D6CBEC1B
:1002A000F1130E2934677A5D40FBE6C1DC8F92B50D
:1002B000A8DEC3E4F9AAB7908D362B0C11425F7803
:1002C000659489AEB3E0FDDAC77C61465B08153200
:1002D0002F5944637E2D30170AB1AC8B96C5D8FFD9
:1002E000E2263B1C01524F6875CED3F4E9BAA780D1
:1002F0009DEBF6D1CC9F82A5B8031E3924776A4DB9
:1003000050A1BC9B86D5C8EFF24954736E3D2007BF
:100310001A6C71564B1805223F8499BEA3F0EDCAA2
:10032000D735280F12415C7B66DDC0E7FAA9B4938C
:100330008EF8E5C2DF8C91B6AB100D2A3764795E7A
:1003400043B2AF8895C6DBFCE15A47607D2E33147B
:10035000097F6245580B16312C978AADB0E3FED960
:10036000C40047039207E529712AFD2A892B11242D
:100370001FBECFEFD1E2DEBFCDBF00E00CBF16E065
:10038000A0E0B2E0EEE5FAE700E00BBF02C00790A4
:100390000D92A038B107D9F72CE0A0E8B6E001C073
:1003A0001D92AC39B207E1F711E0C7EBD1E000E0F4
:1003B00006C021970109802FFE010E94BD3BC13B71
:1003C000D10780E00807A9F70E94AB380C942D3DB7
:1003D00017CE80E090E008958091B40690E02091DF
:1003E000B506821B910908959091B5068091B406D7
:1003F000981750F4E92FF0E0EA54F94F208130E0EB
:100400009F5F9093B50602C02FEF3FEFC90108959B
:10041000E091B5068091B406E81730F4F0E0EA54B4
:10042000F94F808190E008958FEF9FEF0895089530
:10043000CF93DF93EC01E0918C06F0918D0630971D
:10044000F1F09091B5068091B4069817C0F090E055
:10045000292F30E02617370754F4DE01A20FB31F0F
:100460004C91D901AA54B94F4C939F5FF1CF109290
:10047000B5066093B406CB01DF91CF911994DF915B
:10048000CF910895E0918E06F0918F06309729F074
:10049000109292061092910619940895CF92DF92CD
:1004A000EF92FF920F931F93CF93DF937C01CB01C9
:1004B0008A0120919006222389F0EB016B01C40E82
:1004C000D51ECC15DD0561F06991D701ED91FC9148
:1004D0000190F081E02DC7011995F3CF642F96D1DB
:1004E000C801DF91CF911F910F91FF90EF90DF90A6
:1004F000CF900895CF93DF931F92CDB7DEB7698376
:10050000209190062223D1F020919106203240F0D4
:1005100021E030E0FC013383228380E090E014C0CE
:1005200080919206E82FF0E0ED56F94F9981908383
:100530008F5F809392068093910604C061E0CE01A4
:10054000019664D181E090E00F90DF91CF91089502
:10055000FC011382128288EE93E0A0E0B0E0848375
:100560009583A683B7838FED94E09183808308956C
:100570001092B5061092B40610929206109291064F
:1005800089D082E492E06FD188E192E067C181E096
:10059000809390066093B306109292061092910693
:1005A00008950F93062F21E04091910663E976E0CC
:1005B0008091B306D5D010929206109291061092B7
:1005C00090060F9108954F925F926F927F92AF9233
:1005D000BF92CF92EF92FF920F931F93CF93DF932F
:1005E0005C01F62ED42F28013901EE2011F1CFDF66
:1005F000CE2DC43008F0C3E0C150C0F028E0C29F47
:10060000C0011124A301920104C056954795379566
:1006100027958A95D2F7CA01B901D501ED91FC91D0
:100620000190F081E02DC5011995E6CF60E0C5018C
:10063000B8DF4D2FD13208F040E22C2D66EB76E08A
:100640008F2D46D01092B5068093B406DF91CF91DE
:100650001F910F91FF90EF90CF90BF90AF907F9040
:100660006F905F904F900895CF92EF920F931F93EA
:10067000C22EE12C00E010E09801A5DF1F910F9140
:10068000EF90CF90089521E0EFCF61E08ACF80E82E
:1006900096E05ECF1092430781E08093410710926D
:1006A000400761E084E10E94272861E085E10E9423
:1006B0002728E9EBF0E080818E7F808380818D7F29
:1006C000808388E48093B80085E48093BC0008951B
:1006D000413208F043C0909143079111FCCF91E063
:1006E00090934307209341072FEF2093D606109253
:1006F0001B07240F20931A079093420790914207FB
:10070000880F892B8093420780914007813061F4E4
:1007100010924007809142078093BB008091BC00FB
:1007200083FDF8CF85EC01C085EE8093BC008091FD
:1007300043078130E1F380911B07841710F4409147
:100740001B07ACE1B7E0962FFB018E2F891B8417A6
:1007500018F48D918193F9CF842F089580E0089546
:100760000F93413208F04AC0909143079111FCCF9A
:1007700032E030934307009341073FEF3093D606B2
:1007800010921B0740931A07562FACE1B7E0FB010C
:100790003E2F351B341718F431913D93F9CF109249
:1007A000420730914207880F832B80934207809144
:1007B0004007813061F41092400780914207809396
:1007C000BB008091BC0083FDF8CF85EC01C085EEB5
:1007D0008093BC00222321F0809143078230D1F323
:1007E0008091D6068F3F79F08091D606803241F015
:1007F0008091D606803331F094E005C091E003C0CB
:1008000092E001C093E0892F0F9108954091F8067E
:10081000262F30E0240F311D21323105DCF42091E8
:1008200043072430C9F4FC0180E090E0861758F4B7
:100830003091F8062191DC01A650B94FA30FB11DEC
:100840002C930196F3CF8091F806680F6093F80619
:1008500080E0089581E0089582E0089590933D0737
:1008600080933C07089590933F0780933E07089537
:1008700085ED8093BC008091BC0084FDFCCF10927C
:100880004307089585EC8093BC00109243070895B8
:100890001F920F920FB60F9211240BB60F922F9347
:1008A0003F934F935F936F937F938F939F93AF93F8
:1008B000BF93EF93FF938091B900887F803609F44E
:1008C0009DC070F5883209F45CC090F4803109F461
:1008D00055C038F4882309F4F3C0883009F44EC0B9
:1008E000F2C0883109F44DC0803209F45EC0EBC01B
:1008F000803409F469C050F4803309F456C0883359
:1009000009F0E1C08093D606BDDFDDC0803509F473
:100910004FC0883509F45DC0883409F0D4C0D2C016
:10092000883909F4C3C0A8F4883709F467C038F4DB
:10093000883609F463C0803709F460C0C4C08838C1
:1009400009F4B4C0803909F45FC0803809F0BBC035
:100950005BC0803B09F482C038F4803A09F466C079
:10096000883A09F47BC0AFC0803C09F4A3C0883C3E
:1009700009F4A0C0883B09F486C0A5C08091420755
:1009800010C090911B0780911A07981770F5E0919D
:100990001B0781E08E0F80931B07F0E0E45EF84FA9
:1009A00080818093BB0085EC82C08093D6068AC08C
:1009B000E0911B0781E08E0F80931B078091BB00A5
:1009C000F0E0E45EF84F808390911B0780911A0756
:1009D0006AC0E0911B0781E08E0F80931B07809116
:1009E000BB00F0E0E45EF84F808380914107811105
:1009F00069C081E08093400784EA5DC083E0809312
:100A000043071092D706CFCF8091D706803208F0E7
:100A10004DC0E091D70681E08E0F8093D70680917C
:100A2000BB00F0E0E852F94F8083BDCF2BDF80910F
:100A3000D706803230F4E091D706F0E0E852F94F63
:100A400010826091D70670E0E0913C07F0913D077D
:100A500088ED96E019951092D70635C084E0809312
:100A600043071092F9061092F806E0913E07F091C4
:100A70003F0719958091F806811105C081E08093A8
:100A8000F8061092FA06E091F90681E08E0F809345
:100A9000F906F0E0E650F94F80818093BB00909119
:100AA000F9068091F806981708F47DCF85E88093C1
:100AB000BC0009C085EC8093BC001092430703C0C2
:100AC0001092D606D5DEFF91EF91BF91AF919F9125
:100AD0008F917F916F915F914F913F912F910F90E7
:100AE0000BBE0F900FBE0F901F901895FF920F93A3
:100AF0001F93CF93DF93C62F142FF22E032F682F4F
:100B000080E896E044DD6C2F80E896E0F3DCCF2DA2
:100B1000D02FCE01810F911D8C01C017D10729F074
:100B2000699180E896E0E6DCF8CF80E896E0ADDDFC
:100B300091E0811190E0892FDF91CF911F910F916A
:100B4000FF900895CF93DF931F92CDB7DEB749830F
:100B50009E012F5F3F4F41E0C9DF0F90DF91CF91A2
:100B600008953F924F925F926F927F928F929F92E1
:100B7000AF92BF92CF92DF92EF92FF920F931F93AB
:100B8000CF93DF9300D000D0CDB7DEB7D82EC62EDE
:100B90004D8379010E9402264B015C01312C1E829B
:100BA0009D81892F90E09C838B832801612C712C7F
:100BB000ED813E1698F56D2D80E896E0E8DC6C2D11
:100BC00080E896E097DC80E896E05FDD6D2D80E8B8
:100BD00096E0DDDC4B815C814319510941325105BE
:100BE00014F040E250E06D2D80E896E04CDD80E8A6
:100BF00096E0F2DB892B09F442C00115110569F179
:100C00000E940226DC01CB0188199909AA09BB09B7
:100C100084159505A605B70500F131C0011511052C
:100C2000B9F10E940226DC01CB0188199909AA09B1
:100C3000BB0920E030E080179107A207B30740F11D
:100C4000FD812F2F30E04E81842F440F990B8217A6
:100C50009307F4F48FEF8E831BC0F7012E81E20F10
:100C6000F11D27FDFA95FA83E98380E896E0BCDB65
:100C7000E981FA818083FE81FF5FFE83B8CF80E83F
:100C800096E003DD8D81813208F080E2380E90CF4E
:100C90008E8126960FB6F894DEBF0FBECDBFDF91D2
:100CA000CF911F910F91FF90EF90DF90CF90BF9069
:100CB000AF909F908F907F906F905F904F903F90FC
:100CC00008950F931F9389019A0141E04ADF1F9114
:100CD0000F910895EF92FF920F931F93CF93DF939D
:100CE0001F92CDB7DEB7182F062FF42EE22E2091DB
:100CF000060230910702AE014F5F5F4FE2DF89814C
:100D000041E050E001C0440FFA94EAF7EE2011F000
:100D1000482B02C0409548234983602F812F12DF62
:100D20000F90DF91CF911F910F91FF90EF90089559
:100D3000DF92EF92FF920F931F93CF93DF931F9257
:100D4000CDB7DEB7182FF62EE42ED22E2091060254
:100D500030910702AE014F5F5F4FB3DF882331F15F
:100D60002E2D30E02D1931092F5F3F4F81E090E0AB
:100D700002C0880F991FDA94E2F70197022E01C092
:100D8000880F0A94EAF7402F50E0BA0102C0660FBC
:100D9000771F2A95E2F7482F4095998149238623AA
:100DA000482B49836F2D812FCDDE01C080E00F904D
:100DB000DF91CF911F910F91FF90EF90DF900895F9
:100DC00028E6FC01208308950F93062F23E042E0DC
:100DD0006AE1FC018081ACDF0F9108950F93062F2B
:100DE00022E044E06BE1FC018081A2DF0F910895D5
:100DF0000F93062F22E044E06CE1FC01808198DF34
:100E00000F9108950F931F93CF93DF93EC010091FF
:100E10000602109107029C012F5F3F4F42E063E4FE
:100E200088819FDE89819A81982789279827DF9179
:100E3000CF911F910F9108950F931F93CF93DF933D
:100E4000EC0100910602109107029C012F5F3F4FB9
:100E500042E065E4888185DE89819A819827892727
:100E60009827DF91CF911F910F9108950F931F93B2
:100E7000CF93DF93EC0100910602109107029C01D1
:100E80002F5F3F4F42E067E488816BDE89819A8162
:100E9000982789279827DF91CF911F910F91089567
:100EA000262F46E06BE6FC01808114CF0F93062FBE
:100EB00023E042E06BE6FC0180813ADF0F91089568
:100EC000CF93DF93EC0161E0F1DF60E0CE0186DFDC
:100ED00060E0CE018DDF60E0CE01DF91CF91E0CF09
:100EE000CF93C82F80E896E043DB6C2F84E497E033
:100EF0006BDF84E497E0CF91E3CFCF93DF93EC01F6
:100F000084E497E07FDF9983888384E497E094DF2B
:100F10009B838A8384E497E0A9DF9D838C83DF91A0
:100F2000CF91089584E497E04BCF9CB1892F8072D4
:100F300094FF03C081110FC002C0882361F080912B
:100F4000570790915807A0915907B0915A070196F9
:100F5000A11DB11D0BC08091570790915807A0911A
:100F60005907B0915A070197A109B1098093570712
:100F700090935807A0935907B0935A07089599B1D1
:100F8000892F847093FF03C0882379F002C08111F8
:100F90000CC08091650790916607A0916707B0919A
:100FA00068070196A11DB11D0BC080916507909146
:100FB0006607A0916707B09168070197A109B10979
:100FC0008093650790936607A0936707B0936807BF
:100FD00008952CB126FB882780F990E027FF03C0F5
:100FE000019779F402C0892B61F480917307909185
:100FF0007407A0917507B09176070196A11DB11DE8
:101000000BC08091730790917407A0917507B09100
:1010100076070197A109B10980937307909374072C
:10102000A0937507B093760708959CB1892F8071BE
:1010300095FF03C0882379F002C081110CC0809114
:10104000570790915807A0915907B0915A070196F8
:10105000A11DB11D0BC08091570790915807A09119
:101060005907B0915A070197A109B1098093570711
:1010700090935807A0935907B0935A07089599B1D0
:10108000892F887092FF03C081110FC002C088238E
:1010900061F08091650790916607A0916707B09114
:1010A00068070196A11DB11D0BC080916507909145
:1010B0006607A0916707B09168070197A109B10978
:1010C0008093650790936607A0936707B0936807BE
:1010D00008952CB1822F807890E0880F892F881F87
:1010E000990B26FF03C0892B79F402C0019761F4A4
:1010F0008091730790917407A0917507B09176075E
:101100000196A11DB11D0BC08091730790917407CA
:10111000A0917507B09176070197A109B109809355
:10112000730790937407A0937507B093760708959B
:101130001F920F920FB60F9211242F933F934F934C
:101140005F938F939F93AF93BF9383B121E030E080
:10115000982F907285FD02C020E030E080744091AD
:101160009707509198072417350749F521E030E09B
:10117000811102C020E030E030939607209395075C
:10118000882319F091110FC002C0992361F080915A
:101190008F0790919007A0919107B09192070196C7
:1011A000A11DB11D41C080918F0790919007A09122
:1011B0009107B09192070197A109B10916C0309328
:1011C000980720939707992319F0882311F102C0FB
:1011D00081111FC080918F0790919007A091910776
:1011E000B09192070196A11DB11D80938F07909336
:1011F0009007A0939107B093920780918F079091E9
:101200009007A0919107B09192070197A109B109A8
:101210001EC080918F0790919007A0919107B09187
:1012200092070197A109B10980938F0790939007C6
:10123000A0939107B093920780918F0790919007A8
:10124000A0919107B09192070196A11DB11D8093C5
:101250008F0790939007A0939107B0939207BF9147
:10126000AF919F918F915F914F913F912F910F90EF
:101270000FBE0F901F9018951F920F920FB60F92EE
:1012800011248F939F93AF93BF9380910601817038
:101290009091030190FF03C081110FC002C0882309
:1012A00061F08091810790918207A0918307B091AE
:1012B00084070196A11DB11D0BC0809181079091FB
:1012C0008207A0918307B09184070197A109B10912
:1012D0008093810790938207A0938307B09384073C
:1012E000BF91AF919F918F910F900FBE0F901F9064
:1012F00018951F920F920FB60F9211248F939F9300
:10130000AF93BF938091030181709091060190FF8C
:1013100003C0882379F002C081110CC0809181073D
:1013200090918207A0918307B09184070196A11D37
:10133000B11D0BC08091810790918207A091830716
:10134000B09184070197A109B10980938107909317
:101350008207A0938307B0938407BF91AF919F91B9
:101360008F910F900FBE0F901F9018950F931F93A2
:10137000CF93DF938C018EE0809FE001819FD00DA1
:101380001124CD5AD84F798368835B834A8388813F
:10139000998160E00E94EB278A819B8160E00E9436
:1013A000EB278881998161E00E9427288A819B81AF
:1013B00061E00E9427280230110509F47FC044F43F
:1013C00001151105E9F00130110509F448C0BEC04E
:1013D0000330110509F4A6C00430110509F0B6C0A8
:1013E0008091680081608093680080916B008062CA
:1013F00080936B0080916B00806480936B00A6C02B
:10140000809153079091540702978431910540F4DD
:10141000FC01E351FB4F8081082E000C990B02C0A8
:101420008FEF9FEF41E050E065E977E00E94EC2309
:10143000809155079091560702978431910540F4A9
:10144000FC01E351FB4F8081082E000C990B02C078
:101450008FEF9FEF41E050E065E178E05DC0809163
:1014600061079091620702978431910540F4FC0175
:10147000E351FB4F8081082E000C990B02C08FEFC7
:101480009FEF41E050E06FE378E00E94EC23809111
:1014900063079091640702978431910540F4FC0141
:1014A000E351FB4F8081082E000C990B02C08FEF97
:1014B0009FEF41E050E06FEB77E02EC080916F0727
:1014C0009091700702978431910540F4FC01E3513B
:1014D000FB4F8081082E000C990B02C08FEF9FEF0D
:1014E00041E050E069E678E00E94EC2380917107CA
:1014F0009091720702978431910540F4FC01E35109
:10150000FB4F8081082E000C990B02C08FEF9FEFDC
:1015100041E050E069EE77E0DF91CF911F910F91AC
:101520000C94EC2380916800846080936800809123
:10153000680082608093680080916D008160809374
:101540006D0080916C00826080936C00DF91CF9180
:101550001F910F9108952EE0269FF001279FF00D17
:101560001124ED5AF84F6481758186819781089521
:101570000895CF93282F882351F0CB01BA01C22FB1
:101580000E949D398FEF8C0FCF910C94CE26CF9176
:1015900008950F931F938B019C0183E03695279547
:1015A000179507958A95D1F7F801E756F84F2081EE
:1015B000422F50E0E62FE77021E030E002C0220F1A
:1015C000331FEA95E2F724233523232B19F0CB01AF
:1015D000019602C080E090E01F910F9108950F9353
:1015E0001F938B019C0183E03695279517950795EE
:1015F0008A95D1F7677081E090E001C0880F6A9505
:10160000EAF7F801E756F84F452B21F480959081D1
:10161000892302C09081892B80831F910F910895A7
:10162000CF92DF92EF92FF92CF93DF936B017C0119
:1016300061E08C2D0E94EB27E6012196AE01C701E7
:10164000B601CDDFCE01DF91CF91FF90EF90DF901B
:10165000CF900895882341F06FEF680F70E080E02D
:1016600090E040E050E0BBCF0895662319F0613070
:1016700009F062E00C94EB27662311F061E001C0F1
:1016800060E00C942728CF93DF93EC0189819A8145
:10169000AB81BC810197A105B105C1F48D8188237F
:1016A000A9F06A857B858C859D8573DF99878887FE
:1016B00040E050E0BA015DDF6A857B858C859D85C1
:1016C00068DF99878887DF91CF91C4CFDF91CF9171
:1016D00008952F923F924F925F926F927F928F92D6
:1016E0009F92AF92BF92CF92DF92EF92FF920F93B1
:1016F0001F93CF93DF93CDB7DEB7AB970FB6F894B8
:10170000DEBF0FBECDBF61E070E080E090E023DF80
:101710006093550C7093560C8093570C9093580C13
:101720000E94D039209100043091010440910204BC
:10173000509103040E94253B2091E4033091E5037E
:101740004091E6035091E7030E94253B6983798726
:101750008A879B87CB01AA85BB858093250C9093B4
:10176000260CA093270CB093280C209104043091F0
:1017700005044091060450910704CD010E94253BC9
:101780006B017C016093510C7093520C8093530C4D
:101790009093540C4090D70B5090D80B6090D90B7D
:1017A0007090DA0B4092290C50922A0C60922B0C0C
:1017B00070922C0C2091100430911104409112046D
:1017C00050911304C301B2010E94253B6D837E83B7
:1017D0008F83988760934D0C70934E0C80934F0CC1
:1017E0009093500C2091DF0B3091E00B4091E10B76
:1017F0005091E20B609118047091190480911A04C1
:1018000090911B040E94253B20E030E0A9010E943A
:10181000353920E030E0A9010E94353920E030E080
:10182000A9010E9435396C877D878E879F87CB0100
:10183000AE85BF8580932D0C90932E0CA0932F0C1A
:10184000B093300C2091E30B3091E40B4091E50B09
:101850005091E60B60913404709135048091360408
:10186000909137040E94253B20E030E0A9010E94BE
:10187000353920E030E0A9010E94353920E030E020
:10188000A9010E943539688B798B8A8B9B8BCB01A0
:10189000AA89BB898093490C90934A0CA0934B0C66
:1018A000B0934C0C2091E70B3091E80B4091E90B81
:1018B0005091EA0B60915004709151048091520450
:1018C000909153040E94253B20E030E0A9010E9442
:1018D000353920E030E0A9010E9435396C8B7D8BD1
:1018E0008E8B9F8BCB01AE89BF898093310C9093F7
:1018F000320CA093330CB093340C2091EB0B30914D
:10190000EC0B4091ED0B5091EE0B60916C047091DB
:101910006D0480916E0490916F040E94253B20E03D
:1019200030E0A9010E943539688F798F8A8F9B8FAB
:101930002091EF0B3091F00B4091F10B5091F20B95
:10194000609178047091790480917A0490917B047D
:101950000E94253B20E030E0A9010E9435396C8FC0
:101960007D8F8E8F9F8F20919403309195034091AE
:10197000960350919703698179858A859B850E949A
:10198000253B4B015C0120E030E0A9016C8D7D8D91
:101990008E8D9F8D0E9435399B01AC01C501B4012C
:1019A0000E9435396C8F7D8F8E8F9F8F2091F30B26
:1019B0003091F40B4091F50B5091F60B609190042F
:1019C0007091910480919204909193040E94253B20
:1019D00020E030E0A9010E94353920E030E0A90183
:1019E0000E9435394B015C01209198033091990395
:1019F00040919A0350919B03698179858A859B85E3
:101A00000E94253B9B01AC01C501B4010E94353900
:101A100068A379A38AA39BA32091F70B3091F80BBD
:101A20004091F90B5091FA0B6091A8047091A904B0
:101A30008091AA049091AB040E94253B20E030E005
:101A4000A9010E9435394B015C0120919C03309122
:101A50009D0340919E0350919F03698179858A85FA
:101A60009B850E94253B9B01AC01C501B4010E94EE
:101A700035396CA37DA38EA39FA390EA292E93E012
:101A8000392E05E31CE039A628A684E0280E311C77
:101A9000A8A5B9A590962D913D914D915C919397F4
:101AA00068A179A18AA19BA10E94253B4B015C0101
:101AB000E8A5F9A520893189428953896C8D7D8DEE
:101AC0008E8D9F8D0E94253B9B01AC01C501B40109
:101AD0000E9435394B015C01A8A5B9A5D0962D917E
:101AE0003D914D915C91D3976CA17DA18EA19FA159
:101AF0000E94253B9B01AC01C501B4010E94353910
:101B00004B015C01E8A5F9A5208131814281538117
:101B1000698179858A859B850E94253B9B01AC0163
:101B2000C501B4010E943539D8016D937D938D9321
:101B30009D938D01E0EBF3E0E215F30509F0A3CFEF
:101B40008091C504813049F52091D30B3091D40B9D
:101B50004091D50B5091D60BC701B6010E94343984
:101B6000962EA72EB82EC92E2091DB0B3091DC0BC0
:101B70004091DD0B5091DE0B6D817E818F819885C8
:101B80000E943439362ED72E7C0182016AA678A6AF
:101B9000B981A985FA85EB8539C08091C40481306B
:101BA00019F1B091350CA091360CF091370CE09101
:101BB000380C9090390CA0903A0CB0903B0CC0902F
:101BC0003C0C00913D0C10913E0C80913F0C8AA77B
:101BD0009091400C98A73090410CD090420CE0902E
:101BE000430CF090440C12C0388CD98CEA8CFB8CDE
:101BF0000C891D89AE89AAA7BF89B8A79888A9882A
:101C0000BA88CB88BC85AD85FE85EF8520911C0305
:101C100030911D0340911E0350911F036B2F7A2FAB
:101C20008F2F9E2F0E94253B6D837E838F83988705
:101C300020912003309121034091220350912303EE
:101C4000692D7A2D8B2D9C2D0E94253B9B01AC018B
:101C50006D817E818F8198850E9435394B015C01B1
:101C600020912403309125034091260350912703AE
:101C7000B8018AA598A50E94253B9B01AC01C5012E
:101C8000B4010E9435394B015C0120912803309149
:101C9000290340912A0350912B03632D7D2DC70109
:101CA0000E94253B9B01AC01C501B4010E9435395E
:101CB0006B017C0120E030E040E45FE3C301B2014E
:101CC0009F770E94993987FD04C060E070E0CB01E6
:101CD00004C060E070E080E89FE3A70196010E94E5
:101CE000253B6D837E838F8398876093450C70932B
:101CF000460C8093470C9093480C8CEA282E82E087
:101D0000382EEBE0FCE0F9A7E8A73BA62AA600E006
:101D100010E0EAA5FBA5E455FF4F20813181428107
:101D2000538168A179A18AA19BA10E94253B6B01E7
:101D30007C01EAA5FBA5E056FF4F2081318142815D
:101D400053816C8D7D8D8E8D9F8D0E94253B9B01D7
:101D5000AC01C701B6010E9435396B017C01EAA5CF
:101D6000FBA5E854FF4F20813181428153816CA152
:101D70007DA18EA19FA10E94253B9B01AC01C701C3
:101D8000B6010E9435396B017C01EAA5FBA5E4523E
:101D9000FF4F2081318142815381C301B2010E94F2
:101DA000253B4B015C01EAA5FBA5E053FF4F2081D9
:101DB000318142815381698179858A859B850E9421
:101DC000253B9B01AC01C501B4010E9435394B0193
:101DD0005C01EAA5FBA5EC53FF4F208131814281D4
:101DE00053816D817E818F8198850E94253B9B0167
:101DF000AC01C501B4010E9435399B01AC01C7019A
:101E0000B6010E943539A8A5B9A56D937D938D9330
:101E10009D93B9A7A8A70F5F1F4FEAA5FBA534960E
:101E2000FBA7EAA70330110509F073CF2091FC024C
:101E30003091FD024091FE025091FF026C857D853C
:101E40008E859F850E94253B6B017C0120910403B8
:101E50003091050340910603509107036889798901
:101E60008A899B890E94253B9B01AC01C701B60171
:101E70000E9435396B017C0120910C0330910D03D8
:101E800040910E0350910F036C897D898E899F8943
:101E90000E94253B9B01AC01C701B6010E94353968
:101EA0006B017C01209114033091150340911603BE
:101EB00050911703688D798D8A8D9B8D0E94253BEB
:101EC0009B01AC01C701B6010E9435394B015C0191
:101ED0006093170C7093180C8093190C90931A0C44
:101EE000209108033091090340910A0350910B039C
:101EF000688979898A899B890E94253B6B017C01CD
:101F0000209100033091010340910203509103039B
:101F10006C857D858E859F850E94253B9B01AC014C
:101F2000C701B6010E9435396B017C012091100375
:101F30003091110340911203509113036C897D89F4
:101F40008E899F890E94253B9B01AC01C701B60188
:101F50000E9435396B017C012091180330911903DF
:101F600040911A0350911B03688D798D8A8D9B8D4A
:101F70000E94253B9B01AC01C701B6010E94353987
:101F80006B017C0160931B0C70931C0C80931D0CE7
:101F900090931E0CA5019401698179858A859B85A2
:101FA0000E94343969837A838B839C83A7019601CD
:101FB000C301B2010E9434392B013C010BEF1BE03D
:101FC00084E090E09D8F8C8FD10150962D913D91B2
:101FD0004D915C915397688979898A899B890E9480
:101FE000253B6B017C01F1012081318142815381CC
:101FF0006C857D858E859F850E94253B9B01AC016C
:10200000C701B6010E9435396B017C01D101909660
:102010002D913D914D915C9193976C897D898E892D
:102020009F890E94253B9B01AC01C701B6010E941C
:1020300035396B017C01F10120A931A942A953A9CD
:10204000688D798D8A8D9B8D0E94253B9B01AC010B
:10205000C701B6010E9435396B017C01F101E057DF
:10206000FF4F2081318142815381C301B2010E941F
:10207000253B4B015C01F101E058FF4F208131818C
:102080004281538169817A818B819C810E94253BA9
:102090009B01AC01C501B4010E9435394B015C01C3
:1020A000F101E05CFF4F20813181428153816D81DC
:1020B0007E818F8198850E94253B9B01AC01C501E3
:1020C000B4010E9435399B01AC01C701B6010E94E1
:1020D0003539D8016D937D938D939D938D01EC8D52
:1020E000FD8D3197FD8FEC8FF4E02F0E311C8C8D20
:1020F0009D8D892B09F068CF8FE19CE00E947D07C0
:1021000060911F0C7091200C072E000C880B990B0E
:102110000E94D0392091E0033091E1034091E20325
:102120005091E3030E9434396093490C70934A0C38
:1021300080934B0C90934C0C2091F8033091F90351
:102140004091FA035091FB036091450C7091460C4D
:102150008091470C9091480C0E949939682F661F16
:102160006627661F88E088DAC090450CD090460C40
:10217000E090470CF090480C0091F0031091F103AF
:102180009091F2039D83A091F303A9839801492FB5
:102190005A2FB601C7010E94213B1816B4F00091D6
:1021A000B4041091B504B091B604BD83E091B704B6
:1021B000E98398014B2F5E2FB601C7010E94993920
:1021C00087FD03C08601ED82F9826091290B709131
:1021D0002A0B80912B0B90912C0BDBD99093280B21
:1021E0008093270B2091B8043091B9044091BA0430
:1021F0005091BB04B8018D8199810E94253B0E94BA
:102200000B3A6B017C0139D5811120C0C701B601A1
:1022100009D581111BC020E030E040E853E4C7013C
:10222000B6010E94253A6B017C018B01ED82F98297
:1022300020E030E0A9010E94993987FF0BC0C70157
:10224000B60190580E94A239619509C000E010E0E3
:102250001D821982B8018D8199810E94A23970E096
:1022600080E090E00E94CE39AB01BC018091270B49
:102270009091280B7ED92091FC033091FD03409171
:10228000FE035091FF036091450C7091460C8091C4
:10229000470C9091480C0E949939682F661F662759
:1022A000661F85E0E9D9C090450CD090460CE090BF
:1022B000470CF090480C0091F4031091F503F09155
:1022C000F603FD838091F703898398014F2F582FE0
:1022D000B601C7010E94213B1816B4F00091BC045E
:1022E0001091BD049091BE049D83A091BF04A98369
:1022F0009801492F5A2FB601C7010E94993987FDCD
:1023000003C08601ED82F98260911B0B70911C0B5A
:1023100080911D0B90911E0B3CD990931A0B8093CA
:10232000190B2091C0043091C1044091C204509116
:10233000C304B8018D8199810E94253B0E940B3A0C
:102340006B017C019AD4811120C0C701B6016AD407
:1023500081111BC020E030E040E853E4C701B60122
:102360000E94253A6B017C018B01ED82F98220E00D
:1023700030E0A9010E94993987FF0BC0C701B6015F
:1023800090580E94A239619509C000E010E01D82BA
:102390001982B8018D8199810E94A23970E080E094
:1023A00090E00E94CE39AB01BC018091190B909155
:1023B0001A0BDFD88091510C9091520CA091530CC4
:1023C000B091540C8093D30B9093D40BA093D50B66
:1023D000B093D60B2091490C30914A0C40914B0C94
:1023E00050914C0C6091B0047091B1048091B20492
:1023F0009091B3040E94253B209108043091090478
:1024000040910A0450910B040E94253B2091D70B68
:102410003091D80B4091D90B5091DA0B0E9435398D
:102420006093D70B7093D80B8093D90B9093DA0BF2
:1024300080914D0C90914E0CA0914F0CB091500C8E
:102440008093DB0B9093DC0BA093DD0BB093DE0B42
:102450002091DF0B3091E00B4091E10B5091E20BAA
:1024600060911404709115048091160490911704E2
:102470000E94253B2091FB0B3091FC0B4091FD0B02
:102480005091FE0B0E9435396093DF0B7093E00B87
:102490008093E10B9093E20B2091E30B3091E40BDE
:1024A0004091E50B5091E60B60913004709131043E
:1024B00080913204909133040E94253B2091FF0BC0
:1024C0003091000C4091010C5091020C0E94353962
:1024D0006093E30B7093E40B8093E50B9093E60B12
:1024E0002091E70B3091E80B4091E90B5091EA0BFA
:1024F00060914C0470914D0480914E0490914F0472
:102500000E94253B2091030C3091040C4091050C56
:102510005091060C0E9435396093E70B7093E80BDD
:102520008093E90B9093EA0B2091EB0B3091EC0B2D
:102530004091ED0B5091EE0B60916804709169042D
:1025400080916A0490916B040E94253B2091070CB6
:102550003091080C4091090C50910A0C0E943539B9
:102560006093EB0B7093EC0B8093ED0B9093EE0B61
:102570002091EF0B3091F00B4091F10B5091F20B49
:102580006091740470917504809176049091770441
:102590000E94253B20910B0C30910C0C40910D0CAE
:1025A00050910E0C0E9435396093EF0B7093F00B35
:1025B0008093F10B9093F20B2091F30B3091F40B7D
:1025C0004091F50B5091F60B60918C0470918D0445
:1025D00080918E0490918F040E94253B20910F0CD6
:1025E0003091100C4091110C5091120C0E94353911
:1025F0006093F30B7093F40B8093F50B9093F60BB1
:102600002091F70B3091F80B4091F90B5091FA0B98
:102610006091A4047091A5048091A6049091A704F0
:102620000E94253B2091130C3091140C4091150C05
:102630005091160C0E9435396093F70B7093F80B8C
:102640008093F90B9093FA0B81E090E00E9498231D
:1026500040916F0C5091700C6091710C7091720CE4
:1026600080E090E00E94942380907B0C90907C0C02
:10267000A0907D0CB0907E0C20E030E040E85FEB55
:10268000C501B4010E949939882331F1C0906F0CC3
:10269000D090700CE090710CF090720CA701960134
:1026A000C501B4010E9434394B015C0120E030E0E7
:1026B00040E054E3C701B6010E94253B9B01AC01F9
:1026C000C501B4010E94213B181634F081E095E069
:1026D00090935A0C8093590C80917F0C882331F091
:1026E00081E095E090935A0C8093590C8091730C83
:1026F0009091740CA091750CB091760CBC01CD0139
:102700006F5F7F4F8F4F9F4F6093730C7093740C6C
:102710008093750C9093760C0E94CE399B01AC018E
:102720006091770C7091780C8091790C90917A0C73
:102730000E94253B60936F0C7093700C8093710C1A
:102740009093720CAB960FB6F894DEBF0FBECDBF60
:10275000DF91CF911F910F91FF90EF90DF90CF907D
:10276000BF90AF909F908F907F906F905F904F90B1
:102770003F902F9008952F923F924F925F926F92C9
:102780007F928F929F92AF92BF92CF92DF92EF9201
:10279000FF920F931F93CF93DF9384E090E00BD2CF
:1027A000A9E5BCE087E2ED0119928A95E9F740E0DE
:1027B00050E060E87FEB92964D935D936D937C9330
:1027C00095974AE057ED63EA7BE35E964D935D9300
:1027D0006D937C9391974FE950E66EE174EE1496F9
:1027E0004D935D936D937C93179743E05EE065E8AE
:1027F0007BEB18964D935D936D937C931B974DE502
:1028000056EB6CEE7AE81C964D935D936D937C933A
:102810001F9747EF5AEE6BED75E750964D935D931A
:102820006D937C935397C8ECD7E01396DC93CE93CB
:102830001297E6EBF7E0F983E88381E296E0918373
:102840008083938382839583848397838683918710
:102850008087938782879587848797878687918BE0
:10286000808B8DE69CE09D838C838DE59CE09B8333
:102870008A838FE69CE09F838E838EE5EBEFFBE0FF
:10288000EF0119928A95E9F7C1E1DBE08AEEFE01DA
:1028900011928A95E9F722EA37E084E1F901119271
:1028A0008A95E9F755963C932E93549783E190E0EF
:1028B000F9019183808386E892E09383828380E6A6
:1028C00092E0958384838CE192E09783868388E00D
:1028D00092E091878087812C912C5401839480927F
:1028E000AE0B9092AF0BA092B00BB092B10B42E145
:1028F00050E063E170E081E090E00E94B609CC24F2
:10290000C394C092B20B1092B30B8092B40B90920E
:10291000B50BA092B60BB092B70B80E090E00E948E
:102920007007C092B80B1092BF0B8092C00B9092B0
:10293000C10BA092C20BB092C30B61E088E00E9471
:10294000350BC092C40B1E86EDE6FBE092E3692EC8
:10295000608223E3722E70926E0B34E3232E20925A
:102960006F0B45E3342E3092700B56E3452E4092A8
:10297000710B67E3562E5092720B88E38093730BB2
:1029800089E38093740B71E3D72ED092750B80E3AB
:102990008093760BD092770BD092780BD092790BF4
:1029A00060927A0BD0927B0B70927C0BFD8BEC8B40
:1029B00086E090E0A0E0B0E0888F998FAA8FBB8F6F
:1029C0001B8A8F86988AA98ABA8AE12CF12C870102
:1029D000A801970166E070E080E090E00E94100B93
:1029E0009F8B8E8B688D798D8A8D9B8D0E94C90AF5
:1029F0009F8B8E8B0E94B80ACB8A1092B90B809263
:102A0000BA0B9092BB0BA092BC0BB092BD0B61E0D5
:102A100085E00E94350BC092BE0B18826C8E7D8EB5
:102A20002E8E3F8E48A259A2E8E3EAA3F9E3FBA366
:102A3000DCA280E38DA3DEA2DFA2D8A669A6DAA677
:102A40007BA68DE29BE09F838E8382E090E0A0E0F6
:102A5000B0E08A879B87AC87BD871D8289829A8276
:102A6000AB82BC82A801970162E070E080E090E058
:102A70000E94100B998788876A857B858C859D8548
:102A80000E94C90A998788870E94B80ACD828091DE
:102A9000E8039091E903A091EA03B091EB038093DE
:102AA000D30B9093D40BA093D50BB093D60B8091FE
:102AB0000C0490910D04A0910E04B0910F0480932A
:102AC000D70B9093D80BA093D90BB093DA0B8091CE
:102AD000EC039091ED03A091EE03B091EF0380938E
:102AE000DB0B9093DC0BA093DD0BB093DE0BDF913F
:102AF000CF911F910F91FF90EF90DF90CF90BF90FB
:102B0000AF909F908F907F906F905F904F903F908D
:102B10002F9008958091AD0B811103C081E08093C7
:102B2000AD0B8091B30B811103C081E08093B30B97
:102B30008091BF0B811103C081E08093BF0B809116
:102B40001F0B811107C081E080931F0B8FE19BE079
:102B50000E94430B8091B90B811103C081E08093E7
:102B6000B90B8091110B811107C081E08093110B8B
:102B700081E19BE00C94430B089560E070E080E8F5
:102B80009FE7089560E070E080E89FE7089560E0C7
:102B900070E080E89FEF089560E070E080E89FEFCC
:102BA000089560E070E080EC9FEF089560E070E0D1
:102BB00080EC9FEF0895F5DF60938C0C70938D0C83
:102BC00080938E0C90938F0CF1DF6093800C709348
:102BD000810C8093820C9093830CCFDF6093880CE0
:102BE0007093890C80938A0C90938B0CCBDF60934D
:102BF000840C7093850C8093860C9093870CC7DFB0
:102C00006093900C7093910C8093920C9093930C22
:102C1000C3DF6093940C7093950C8093960C909303
:102C2000970C0895CF92DF92EF92FF92CF936B01B2
:102C30007C019B01AC016091840C7091850C8091AA
:102C4000860C9091870C0E949939C1E0882371F01D
:102C5000A70196016091940C7091950C8091960C4F
:102C60009091970C0E9499398111C0E08C2FCF91DF
:102C7000FF90EF90DF90CF9008950F931F938B01FB
:102C80009C010027112720783F7701151105204866
:102C90003F4749F4AB01BC016F77772781E0452BB3
:102CA000462B472B09F480E01F910F910895EF9276
:102CB000FF920F931F93CF93DF93DC01EA01F90199
:102CC00014968D919C91159712960D911C911397C6
:102CD000080F191F2881398118964D915C91199719
:102CE0004217530728F04D915C911197452B39F10C
:102CF0007801E21AF30A18964D915C911997481BD6
:102D0000590B4E0D5F1D4617570794F1A901460F49
:102D1000571F40175107E0F0F182E082338322838E
:102D20006E197F0975836483161617061CF4382FF5
:102D3000292F02C030E020E03683278313C0189685
:102D40008D919C911997821B930B8617970784F09E
:102D500071836083338322831582148217821682E3
:102D600088819981680F791F7983688380E001C029
:102D700081E0DF91CF911F910F91FF90EF90089527
:102D8000CF92DF92EF92FF92CF93DF936B017C01A2
:102D900084E48C9DE0018D9DD00D1124CC52D84F40
:102DA0008AA99BA9009721F00E948B3C1BAA1AAA12
:102DB00084E48C9DF0018D9DF00D1124EC52F84FB0
:102DC00086A997A9009711F00E948B3C84E48C9D02
:102DD000F0018D9DF00D1124EC52F84F138A128AE8
:102DE000168A178A108E118E128E138E148E158EDF
:102DF000168E178E10A211A281E090E093A382A3F9
:102E000015A214A216A217A210A611A613A612A606
:102E100015A614A616A617A610AA11AA13AA12AAD6
:102E200015AA14AA17AA16AA11AE10AE12AE13AEA6
:102E300014AE15AEDF01DE961D921D921D921C92FE
:102E40001397EE5BFF4F11821082DF91CF91FF90BD
:102E5000EF90DF90CF9008950F931F93CF93DF9360
:102E6000EB01DC018D919C91FC01A681B781E88189
:102E7000F98123E0EE0FFF1F2A95E1F712962D91BD
:102E80003C911397E20FF31F00811181AC85BD8542
:102E90009D01220F331FDC0112968D919C91139797
:102EA000D901A80FB91F8D919C9124813581232BC5
:102EB00019F461E070E002C062E070E0869F90016A
:102EC000879F300D969F300D112488859985289F06
:102ED000B001299F700D389F700D1124EC81FD8188
:102EE0002E9FC0012F9F900D3E9F900D1124800FAB
:102EF000911FFA019183808373836283DF91CF9165
:102F00001F910F9108952F923F924F925F926F926F
:102F10007F928F929F92AF92BF92CF92DF92EF9269
:102F2000FF920F931F93CF93DF9300D000D0CDB7C4
:102F3000DEB7DC011496ED91FC9115970190F081BC
:102F4000E02D808591859A838983A281B381BC839A
:102F5000AB83FB0181909190A190B190C12CD12CB9
:102F60007601C814D904EA04FB040CF05DC0448067
:102F70005580668077804085518562857385CF0155
:102F800040969E838D83A081B1819D0183E0220FB5
:102F9000331F8A95E1F7A981BA8112968D919C9190
:102FA0001397D901A80FB91F2D903C901197048455
:102FB000F585E02DEE0FFF1F8B819C81E80FF91F37
:102FC0000190F081E02D14968D919C911597892B9D
:102FD00019F481E090E002C082E090E08E9F9001C1
:102FE0008F9F300D9E9F300D1124249F8001259FBF
:102FF000100D349F100D1124249DC001259D900DAE
:10300000349D900D1124A8016D817E81820D931D48
:103010000E94143DED81FE81E00FF11F9FEFC91A60
:10302000D90AE90AF90A9DCF26960FB6F894DEBFB1
:103030000FBECDBFDF91CF911F910F91FF90EF9009
:10304000DF90CF90BF90AF909F908F907F906F90C8
:103050005F904F903F902F900895CF93DF93DB01C7
:10306000AA53BB4F2C91222369F024E4269FF00140
:10307000279FF00D1124EC52F84FEF0119922A9579
:10308000E9F71C9224E4269FF001279FF00D1124FC
:10309000EC52F84F14821582168217821186108620
:1030A00013861286118A108A17861686DF91CF91B1
:1030B00067CE2F923F924F925F926F927F928F9244
:1030C0009F92AF92BF92CF92DF92EF92FF920F93B7
:1030D0001F93CF93DF93CDB7DEB728970FB6F89441
:1030E000DEBF0FBECDBF24E4269FD001279FB00DC9
:1030F0001124AC52B84FBC83AB8314960D911D9133
:103100002D913C911797012B022B032B09F4C1C081
:103110002A016B017C01612C712C812C912C5401B2
:10312000B887AF831496BC83AB83EF81F88538965C
:10313000FE83ED83EB81FC8180819181A281B3814B
:1031400088169906AA06BB0694F5AD81BE81ED915D
:10315000FC91E60DF71DB281B98323812A830B2FE1
:10316000122F212C312C24143504A4F4D801ED9114
:10317000FC91309749F0848195810E948B3CF80145
:10318000808191810E948B3CFFEF2F1A3F0A0E5FD6
:103190001F4FE9CF89819A810E948B3C2FEF821AC1
:1031A000920AA20AB20A34E0630E711CC3CFAF8147
:1031B000B88518968D919C9119970E948B3CEF8150
:1031C000F88582859385892B81F100E010E01C82CF
:1031D0001B8224E42C9DC0012D9D900D11249C0187
:1031E0002252384F59012B813C81241535058CF42E
:1031F000D501ED91FC91E00FF11F848195810E9432
:103200008B3CEB81FC813196FC83EB83025F1F4F8B
:10321000EACF84E48C9DF0018D9DF00D1124EC52D9
:10322000F84F828593850E948B3C84E48C9DD0016D
:103230008D9DB00D1124AC52B84FBC83AB8350961A
:103240008D919C9151970E948B3CEB81FC818685EE
:1032500097850E948B3CC701B60192DDC701B6017C
:1032600028960FB6F894DEBF0FBECDBFDF91CF9189
:103270001F910F91FF90EF90DF90CF90BF90AF9094
:103280009F908F907F906F905F904F903F902F9086
:10329000E4CE28960FB6F894DEBF0FBECDBFDF9107
:1032A000CF911F910F91FF90EF90DF90CF90BF9043
:1032B000AF909F908F907F906F905F904F903F90D6
:1032C0002F90089524E4269FF001279FF00D1124EC
:1032D000EC52F84F828993890497029758F485E05D
:1032E00090E0938B828B8FEF9FEFDC01828F938F27
:1032F000A48FB58F08952F923F924F925F926F9255
:103300007F928F929F92AF92BF92CF92DF92EF9275
:10331000FF920F931F93CF93DF93CDB7DEB7AA979A
:103320000FB6F894DEBF0FBECDBF9AA389A3788FE6
:103330006F8B7A01098B1A8B2B8B3C8B84E4298948
:103340003A89829F6001839FD00C112486010C5220
:10335000184F89899A89AB89BC89F8018083918348
:10336000A283B383AB01BC01CD01A3DED601A85279
:10337000B84F84E0F70101900D928A95E1F71701AB
:10338000F4E02F0E311C64E070E0D80114968D91AA
:103390009C9115970E94D93BF80191878087892BD2
:1033A00009F481C11E8E1D8E198E1A8E1B8E1C8EE5
:1033B00018A30F8F98012C5F3F4F38A72FA3A801A8
:1033C000485F5F4F5AA749A7EFA1F8A58081918177
:1033D000A281B381298D3A8D4B8D5C8D28173907D9
:1033E0004A075B070CF0CEC0A9A5BAA58D919C91A8
:1033F000ED8DFE8DE80FF91FFE8BED8BD101ED9168
:10340000FC91EE0FFF1FA9A1BAA18D919C91E80F2D
:10341000F91F80819181ED89FE8991838083D1019B
:1034200014962D913D914D915C9117972BA33CA340
:103430004DA35EA3B8E02B0E311C62E070E08F89D3
:10344000988D0E94D93BED89FE8993838283892BD5
:1034500009F429C1412C512C32012BA13CA14DA1D1
:103460005EA142165306640675060CF025C1510193
:10347000F4E0AF0EB11CD101ED90FC90EE0CFF1CFE
:10348000ED89FE89028113810E0D1F1D68E070E039
:1034900081E090E00E94D93BD8018D939C93ED8907
:1034A000FE8982819381FC01EE0DFF1DC080D180D9
:1034B000C114D10409F4F7C084E0F501D6010190EC
:1034C0000D928A95E1F7F8E02F0E311CF60180810C
:1034D0009181A281B381181619061A061B060CF0F9
:1034E0004BC064E070E00E94D93BD60115969C93D6
:1034F0008E931497892B09F4D6C0E12CF12C812CE2
:10350000912C5401F60180819181A281B3818816AA
:103510009906AA06BB0684F5F601048115810E0DF5
:103520001F1D80E1F101DE01119601900D928A9537
:10353000E1F7F0E12F0E311CA801BE016F5F7F4F54
:10354000A9A1BAA114968D919C91159785DCF601DD
:1035500026813781D80112968D919C911397820F05
:10356000931F97838683BFEF8B1A9B0AAB0ABB0A14
:10357000E4E0EE0EF11CC6CFFFEF4F1A5F0A6F0AB0
:103580007F0A6BCF6EE070E08F89988D0E94D93BE7
:10359000AF8DB8A11B969C938E931A97A12CB12C3A
:1035A000C12CD12CE12CF12C24E4E989FA892E9F3D
:1035B000C0012F9F900D11249C012252384F3E8B49
:1035C0002D8B88248394912C4F89588DC416D50651
:1035D0000CF041C0D1014D905D906D907D901D012A
:1035E000ED89FE89008111810A0D1B1D77FC5BC0EE
:1035F000D80111969C928E92411451046104710479
:1036000049F0C2010E94F33BF80195838483892B22
:1036100031F449C0D80115961C921E921497F801F6
:1036200053824282848195819783868391878087A4
:103630001386128681E090E045284628472811F439
:1036400080E090E0E80EF91EFFEFCF1ADF0A2EE0CF
:10365000A20EB11CB9CF84E4A989BA898A9F8001DE
:103660008B9F100D11240C52184FF80115861486EB
:10367000C70133E0880F991F3A95E1F70E94F33BA9
:10368000D80151969C938E935097892B61F0C70176
:10369000880F991F0E94F33BF80197878687892B33
:1036A00011F080E01CC04F89588D69897A898B8917
:1036B0009C89FFDC81E013C0298D3A8D4B8D5C8D98
:1036C0002F5F3F4F4F4F5F4F298F3A8F4B8F5C8F4C
:1036D0004D8D5E8D4C5F5F4F5E8F4D8F75CEAA9680
:1036E0000FB6F894DEBF0FBECDBFDF91CF911F9113
:1036F0000F91FF90EF90DF90CF90BF90AF909F9091
:103700008F907F906F905F904F903F902F90089593
:103710002F923F924F925F926F927F928F929F92E1
:10372000AF92BF92CF92DF92EF92FF920F931F93CF
:10373000CF93DF93CDB7DEB768970FB6F894DEBFAF
:103740000FBECDBF9C8B8B8B69017A0124E42C9D2D
:10375000C0012D9D900D11249C012C52384F590110
:10376000FB0120813181F501358B248BDC01A651D1
:10377000B84FFB01349624E001900D922A95E1F7B1
:10378000DC01A251B84FFB01389624E001900D9264
:103790002A95E1F7DC01AE50B84FFB013C9624E0DE
:1037A00001900D922A95E1F7DC01AE5FB74FFB0166
:1037B000709684E001900D928A95E1F78B010C5E82
:1037C0001F4FF50186A597A5A0A9B1A9181619063E
:1037D0000CF064C0880F991F880F991F0E94F33B5B
:1037E000F50193AB82AB892B09F4B5C0812C912CE8
:1037F000412C512C32019501225D3F4F3E8B2D8B88
:10380000C501C296988F8F8BF496FA8BE98BB30122
:10381000A2012FEF421A520A620A720AED89FE894A
:1038200080819181A281B381481759076A077B077C
:1038300054F5EF89F88D20803180280C391C80E107
:10384000F801DE01119601900D928A95E1F7005F73
:103850001F4FA101BE016F5F7F4FEB89FC898481FF
:103860009581FADAE989FA8920813181F101828131
:103870009381820F931FE989FA8991838083F4E011
:103880008F0E911CC4CFF50184A995A90E94F33B2A
:10389000F50197AB86AB892B09F45DC0F8018081F7
:1038A0009181A281B38124E42C9DF0012D9DF00D26
:1038B0001124EC52F84FAC01BD014D7F21E030E006
:1038C000452B462B472B11F020E030E033A322A3F9
:1038D00024E42C9DF0012D9DF00D1124EC52F84FA5
:1038E0000197A109B10921E030E00297A105B105D6
:1038F00010F020E030E035A324A324E42C9DC00187
:103900002D9D900D1124DC01A650B84FF80134967E
:1039100024E001900D922A95E1F7FC01EC52F84F5A
:10392000868D978DA0A1B1A1B7FF10C0B095A095CD
:10393000909581959F4FAF4FBF4F82AF93AFA4AF8C
:10394000B5AF168E178E10A211A20AC012AE13AE1A
:1039500014AE15AE05C0C701B60112DA81E001C090
:1039600080E068960FB6F894DEBF0FBECDBFDF9142
:10397000CF911F910F91FF90EF90DF90CF90BF906C
:10398000AF909F908F907F906F905F904F903F90FF
:103990002F900895CF92DF92EF92FF92CF93DF9313
:1039A00010925C0824E4269FF001279FF00D11245B
:1039B000EC52F84F15A614A620E030E0C12CD12C13
:1039C000DF011A96C1E0D0E0C416D506D4F4ED911B
:1039D000FC911197E20FF31FE280F3801E141F0485
:1039E00054F4E480F580F782E682F186E08613865F
:1039F0001286D183C083EFEFCE1ADE0A225F3F4FDB
:103A0000E3CF24E4269FF001279FF00D1124EC5210
:103A1000F84F13A612A611AE10AEDF01DE961D926E
:103A20001D921D921C92139782E090E0938B828BE3
:103A3000DF91CF91FF90EF90DF90CF90089524E435
:103A4000269FF001279FF00D1124EC52F84F138AA6
:103A5000128A2FCB24E4269FF001279FF00D11241A
:103A6000EC52F84F8289938981309105C8F08530F6
:103A7000910518F0059769F008958FEF9FEFDC012D
:103A8000828F938FA48FB58F85E090E0938B828B8C
:103A900008958FEF9FEFDC01828F938FA48FB58FF6
:103AA000089524E4249FF001259FF00D1124EC5289
:103AB000F84F2EE0AC01249FC001259F900D1124EA
:103AC0000284F385E02DE80FF91F81E080935C0804
:103AD00082859385918780874085518526813781AE
:103AE00081E090E04217530711F080E090E091836D
:103AF000808308952F923F924F925F926F927F92B0
:103B00008F929F92AF92BF92CF92DF92EF92FF92ED
:103B10000F931F93CF93DF93CDB7DEB7C055D10975
:103B20000FB6F894DEBF0FBECDBF9EAF8DAF4BA7D3
:103B30005CA76DA77EA76801790184E48C9D800154
:103B40008D9D100D1124F801EC52F84F228533851C
:103B500025963FAF2EAF259782899389029709F06A
:103B60005FC186A597A5A0A9B1A9892B8A2B8B2B0C
:103B700029F484E090E0938B828B52C184899589EB
:103B80004DAD5EAD4817590709F04AC186A997A9FE
:103B900098AB8FA71CAE1BAE1FAA18AE19AE1AAEFB
:103BA0008F01DF019E962796BFAFAEAF2797F296A3
:103BB0002996FFAFEEAF29979801285C3F4F2B96CF
:103BC0003FAF2EAF2B97A8014A5D5F4F2D965FAF99
:103BD0004EAF2D97C80182962F969FAF8EAF2F972D
:103BE0001A976196BFAFAEAF61972796EEADFFAD66
:103BF000279780819181A281B3812FA938AD49ADEA
:103C00005AAD281739074A075B070CF0E8C0299618
:103C1000EEADFFAD2997808191812BAD3CAD280F92
:103C2000391F3CAB2BABD90112960D90BC91A02D46
:103C30002196BFAFAEAF2197B695A795B695A7953C
:103C40002396BFAFAEAF23972B96EEADFFAD2B976C
:103C500080819181892B09F497C02D96AEADBFADBF
:103C60002D978D909D90AD90BC902FA438A8F90110
:103C70000190F081E02DFAABE9AB1EAA1DAA2396B4
:103C80008EAD9FAD2397ADA9BEA9A817B9070CF0BB
:103C90007BC02F96AEADBFAD2F978D919C91892B98
:103CA00071F1E9A9FAA94080518062807380A30173
:103CB0009201C501B4010E949939181664F0D1012E
:103CC0002D913D914D915C91C501B4010E94213B24
:103CD00018160CF48CC0A3019201C501B4010E9416
:103CE000993987FF0CC0F1012081318142815381D4
:103CF000C501B4010E949939882309F478C06196FE
:103D0000AEADBFAD61978D919C91892B69F1E9A909
:103D1000FAA94080518062807380A3019201C5019D
:103D2000B4010E94213B181664F4D1012D913D91FC
:103D30004D915C91C501B4010E94993918160CF09F
:103D400056C0A3019201C501B4010E9499398111A5
:103D50000BC0F1012081318142815381C501B40141
:103D60000E94993987FD43C02DA93EA92F5F3F4F7F
:103D70003EAB2DAB34E0230E311C49A95AA94C5F50
:103D80005F4F5AAB49AB7BCFEBA9FCA96081718136
:103D900021964EAD5FAD21978FA598A90E94143D45
:103DA00023968EAD9FAD2397880F991F880F991F7B
:103DB0002FA538A9280F391F38AB2FA78FA998AD89
:103DC000A9ADBAAD0196A11DB11D8FAB98AFA9AF3A
:103DD000BAAFABADBCAD1496BCAFABAF06CF81E014
:103DE00090E0D801D9969C938E93D89719C084E41B
:103DF0008C9DF0018D9DF00D1124EC52F84F868DB5
:103E0000978DA0A1B1A1892B8A2B8B2B09F059C2C8
:103E100084E090E0938B828B86AD97AD93A782A7C9
:103E200084E48C9DF0018D9DF00D1124EC52F84F2F
:103E3000828993898230910579F482AD93ADA4ADE6
:103E4000B5AD181619061A061B060CF041C2E1E0C2
:103E5000F0E0FAABE9AB05C0049709F039C21AAA41
:103E600019AA8EE02DAD3EAD829F8001839F100D7B
:103E7000112425964EAD5FAD2597040F151FD8016F
:103E800012962D913C9113972115310509F420C20A
:103E900016968D919C9117979AA789A7FE01319646
:103EA00084E1DF011D928A95E9F7C98ADA8AEB8AF3
:103EB000FC8AE9A9FAA9EF2B09F451C084E48C9D8E
:103EC000F0018D9DF00D1124EC52F84FDF01DE96CC
:103ED0008D909D90AD90BC9082AD93ADA4ADB5ADED
:103EE00088169906AA06BB06D1F5D80114964D91FD
:103EF0005C9115971896ED91FC911997349684E092
:103F0000DE01559601900D928A95E1F78D899E8983
:103F100008969E8B8D8BF80160857185860F971FA3
:103F20009187808780859185240F351F821B930B95
:103F300097FD04C0840F951F9187808784E48C9D32
:103F4000F0018D9DF00D1124EE5EF74F21E0821AF5
:103F50009108A108B10880829182A282B3829E0159
:103F60002B5E3F4FAE01475D5F4F64E170E0C801DB
:103F70000E945716282E312C2114310409F08AC1D1
:103F80008CE090E0A0E0B0E08D839E83AF83B887A3
:103F90009E01235E3F4FAE01475D5F4F64E070E0DE
:103FA000C8010E945716282E312C2114310409F023
:103FB00071C180E190E0A0E0B0E08D839E83AF838B
:103FC000B8874D8D5E8DBE01655D7F4F8F8D98A149
:103FD0000E94143D8BA19CA1009761F06D8D7E8D98
:103FE0004BE250E04C0F5D1F640F751F49A15AA1B1
:103FF0000E94143D1DA21EA21FA218A68DAD9EAD4B
:10400000880F991F98AF8FAB24E42C9DC0012D9D84
:10401000900D11248C52984FDC011496BCAFABAFBD
:10402000FC0138962196FFAFEEAF21978DA09EA0A0
:10403000AFA0B8A4EBADFCAD80819181A281B3812A
:1040400088169906AA06BB060CF0CDC02196AEAD27
:10405000BFAD2197ED91FC91C401880F991F880F86
:10406000991FE80FF91FA081B1818C9181110AC0BD
:10407000BFEF8B1A9B0AAB0ABB0A8DA29EA2AFA20E
:10408000B8A6D4CF8330A1F30280F381E02D2FA90D
:1040900038ADE20FF31F408151815CAB4BAB452B38
:1040A00039F389859A85AB85BC850196A11DB11D23
:1040B00089879A87AB87BC879E01235E3F4FAE01FD
:1040C000475D5F4F64E070E0C8010E94571690E0C2
:1040D000009709F0DEC08D819E81AF81B88504967E
:1040E000A11DB11D8D839E83AF83B8874D8D5E8DDD
:1040F000BE016B5D7F4F8F8D98A10E94143D8BA1F7
:104100009CA1009761F06D8D7E8DA5E2B0E0AC0FB3
:10411000BD1F6A0F7B1F49A15AA10E94143D1EAA10
:104120001DAA412C512C3201EBA9FCA9808191815F
:10413000A281B381481659066A067B060CF098CF17
:10414000EBA9FCA9848195812DA93EA9280F391FCF
:1041500038AB2FA7D90112966D917C9113979E01D0
:10416000235E3F4FAE01475D5F4FC8010E94571667
:1041700090E0009709F08DC0EFA5F8A982819381A6
:10418000092E000CAA0BBB0B4D815E816F817885D7
:10419000840F951FA61FB71F8D839E83AF83B8879B
:1041A000608171814D8D5E8D8F8D98A10E94143D2F
:1041B0008BA19CA1009761F0AFA5B8A96D917C91EE
:1041C0002D8D3E8D620F731F49A15AA10E94143D8F
:1041D000BFEF4B1A5B0A6B0A7B0AEDA9FEA9349666
:1041E000FEABEDABA1CF89859A85AB85BC85892BCC
:1041F0008A2B8B2B09F44EC08AE190E0A0E0B0E05E
:1042000089839A83AB83BC832DAD3EADC901330F47
:10421000AA0BBB0B8D879E87AF87B88B4D895E89B4
:10422000BE016F5F7F4F8F89988D0E94143D8B8DEB
:104230009C8D009761F06D897E8941E050E04C0FC4
:104240005D1F640F751F498D5A8D0E94143D89A50D
:104250009AA5D80117969C938E93169711961C9247
:104260001E92E9A9FAA9EF2B99F184E48C9DF00143
:104270008D9DF00D1124EE5EF74F80819181A2811A
:10428000B3810196A11DB11D80839183A283B38365
:104290001FC01C0129A93AA9232BD1F42328C1F05E
:1042A00084E48C9DF0018D9DF00D1124EC52F84FAB
:1042B00081E090E095A784A785E090E0938B828BC6
:1042C00007C083E090E0938B828B81E090E0A6CDE5
:1042D000C05BDF4F0FB6F894DEBF0FBECDBFDF91DE
:1042E000CF911F910F91FF90EF90DF90CF90BF90F3
:1042F000AF909F908F907F906F905F904F903F9086
:104300002F900895CF92DF92EF92FF920F931F9319
:1043100024E4269FF001279FF00D1124EC52F84F62
:10432000228933892115310509F453C06B017C01C1
:1043300021303105B9F482A593A59C012F5F3F4F31
:1043400033A722A7092E000CAA0BBB0B028D138DDD
:10435000248D358D80179107A207B307D1F5C701CA
:10436000B60118DB84E48C9DF0018D9DF00D1124C5
:10437000EC52F84F82899389039759F582A593A54A
:104380009C012F5F3F4F33A722A7092E000CAA0BD9
:10439000BB0B468D578D60A171A184179507A607A9
:1043A000B707BCF086AD97AD93A782A784E090E0F5
:1043B000938B828B82AD93ADA4ADB5AD1816190663
:1043C0001A061B0634F4EE5BFF4F81E090E0918308
:1043D00080831F910F91FF90EF90DF90CF90089511
:1043E00024E4269FF001279FF00D1124EC52F84F92
:1043F000828993890497B1F482A593A5019693A726
:1044000082A7092E000CAA0BBB0B46895789608D29
:10441000718D84179507A607B70721F485E090E012
:10442000938B828B08952F923F924F925F926F925F
:104430007F928F929F92AF92BF92CF92DF92EF9234
:10444000FF920F931F93CF93DF93CDB7DEB72E97D5
:104450000FB6F894DEBF0FBECDBF49835A836B837E
:104460007C834901442E552E24E4249DF001259D92
:10447000F00D1124EC52F84F22883388910124501A
:1044800031092230310508F0DFC0DC0111961C92A1
:104490001E9213961C921E92129715861486A12CBA
:1044A000B12C60E070E09F01265F3F4F38872F837B
:1044B0007F013CE0E30EF11CDF015096BA87A9872B
:1044C0009F01225F3F4F3C872B87681579050CF0D1
:1044D0006FC0EF81F885A081B1819D012A0D3B1D40
:1044E0003E872D87D9012D913C911197232B09F0FF
:1044F00059C018960D911C9119971296ED91FC9147
:104500001397FE83ED8316962D913C911797D70153
:104510004D915C91DA01E3E0AA0FBB1FEA95E1F748
:10452000E985FA85C080D180FD01EC0DFD1D440FA9
:10453000551FAB85BC85CD90DC904C0D5D1DDA011F
:104540006D937C93D7014D915C9111974F5F5F4FB5
:104550004D935C9313830283AD85BE851B963C937C
:104560002E931A970217130748F4201B310B31833F
:104570002083158214821782168214C0AD85BE85F1
:104580001496CD90DC9015974D815E814C0D5D1D8C
:10459000401B510B518340832C193D0935832483E3
:1045A000D782C6826F5F7F4FBEE0AB0EB11C8DCF4E
:1045B00024E4249D8001259D100D11240C52184FD8
:1045C000F80124853585DC0111963C932E934089B2
:1045D000518913965C934E9312974685578515968D
:1045E0005C934E931497232BB1F5B5E02B16310451
:1045F00091F510925C08828D938DA48DB58DAE01DE
:104600004F5F5F4F64E070E08F3F9F4FAF4FBF4FF2
:1046100059F480E290E00E94603069817A818B8158
:104620009C81A4010CDA17C08FE190E00E946030F9
:10463000D8019B961C921E929A9781E090E0539627
:104640009C938E93529707C015861486FC011182A5
:104650001082138212822E960FB6F894DEBF0FBE20
:10466000CDBFDF91CF911F910F91FF90EF90DF9021
:10467000CF90BF90AF909F908F907F906F905F9002
:104680004F903F902F900895EF92FF920F931F93BA
:10469000CF93DF937C018B01EA010E9447318111A6
:1046A00021C08091C8049091C904049711F183E05E
:1046B00090E09093C9048093C8041BC08881811145
:1046C000F0CF28ED38EB45E050E060E070E0CB0142
:1046D0000E94D033AE01B801C7010E94DE33C80189
:1046E0000E94A93380915D0890915E08892B31F377
:1046F000D8CFDF91CF911F910F91FF90EF90089548
:10470000CF93DF932091C8043091C9042430310540
:1047100041F0EB010E94DE33CE01DF91CF910C948A
:10472000A933DF91CF9108950C94BE370C94B33721
:104730000C94A1370C94B9330C944437089560E07D
:1047400070E080E090E00C9422310895AF92BF9227
:10475000CF92DF92EF92FF920F931F93CF93DF934D
:104760001F921F92CDB7DEB75C0169017A018B0100
:1047700080E090E0C114D104E104F104F1F0C1142F
:10478000D10421E0E206F10410F4A60102C04FEFCB
:104790005FEF9E012F5F3F4FB801C5010E944F3868
:1047A0008F3F2FEF920749F029813A81C21AD30A2D
:1047B000E108F108020F131FDDCF0F900F90DF917A
:1047C000CF911F910F91FF90EF90DF90CF90BF900E
:1047D000AF90089508950895883008F070C0A82F0C
:1047E000B0E0AA0FBB1FA653BB4F11967C936E93EC
:1047F00090E0FC013197E730F105A0F58827EE58ED
:10480000FF4F8F4F0C94BD3B809169008C7F482BEC
:1048100040936900E89A089580916900837F440F6E
:10482000551F440F551F482B40936900E99A08957E
:10483000809169008F7C74E0440F551F7A95E1F7F1
:10484000482B40936900EA9A0895809169008F731C
:1048500066E0440F551F6A95E1F7482B40936900C5
:10486000EB9A089580916A008C7F482B40936A00F0
:10487000EC9A089580916A00837F440F551F440F7E
:10488000551F482B40936A00ED9A089580916A0065
:104890008F7C24E0440F551F2A95E1F7482B409365
:1048A0006A00EE9A089580916A008F7396E0440F33
:1048B000551F9A95E1F7482B40936A00EF9A0895A7
:1048C0001F920F920FB60F9211240BB60F922F93D7
:1048D0003F934F935F936F937F938F939F93AF9388
:1048E000BF93EF93FF93E091CE04F091CF0419951D
:1048F000FF91EF91BF91AF919F918F917F916F91B8
:104900005F914F913F912F910F900BBE0F900FBE73
:104910000F901F9018951F920F920FB60F921124AF
:104920000BB60F922F933F934F935F936F937F93A9
:104930008F939F93AF93BF93EF93FF93E091D00436
:10494000F091D1041995FF91EF91BF91AF919F9193
:104950008F917F916F915F914F913F912F910F9028
:104960000BBE0F900FBE0F901F9018951F920F92C5
:104970000FB60F9211240BB60F922F933F934F93C4
:104980005F936F937F938F939F93AF93BF93EF93B7
:10499000FF93E091D204F091D3041995FF91EF9128
:1049A000BF91AF919F918F917F916F915F914F9147
:1049B0003F912F910F900BBE0F900FBE0F901F9045
:1049C00018951F920F920FB60F9211240BB60F92EB
:1049D0002F933F934F935F936F937F938F939F9307
:1049E000AF93BF93EF93FF93E091D404F091D5047C
:1049F0001995FF91EF91BF91AF919F918F917F9109
:104A00006F915F914F913F912F910F900BBE0F903F
:104A10000FBE0F901F9018951F920F920FB60F9216
:104A200011240BB60F922F933F934F935F936F9385
:104A30007F938F939F93AF93BF93EF93FF93E091F7
:104A4000CA04F091CB041995FF91EF91BF91AF91FA
:104A50009F918F917F916F915F914F913F912F9196
:104A60000F900BBE0F900FBE0F901F9018951F92C6
:104A70000F920FB60F9211240BB60F922F933F9304
:104A80004F935F936F937F938F939F93AF93BF9356
:104A9000EF93FF93E091CC04F091CD041995FF9131
:104AA000EF91BF91AF919F918F917F916F915F91A6
:104AB0004F913F912F910F900BBE0F900FBE0F9013
:104AC0001F9018951F920F920FB60F9211240BB6DC
:104AD0000F922F933F934F935F936F937F938F9397
:104AE0009F93AF93BF93EF93FF93E091D604F09120
:104AF000D7041995FF91EF91BF91AF919F918F913D
:104B00007F916F915F914F913F912F910F900BBECD
:104B10000F900FBE0F901F9018951F920F920FB617
:104B20000F9211240BB60F922F933F934F935F93E5
:104B30006F937F938F939F93AF93BF93EF93FF9365
:104B4000E091D804F091D9041995FF91EF91BF91AC
:104B5000AF919F918F917F916F915F914F913F9115
:104B60002F910F900BBE0F900FBE0F901F901895B6
:104B70001F920F920FB60F9211242F933F938F9392
:104B80009F93AF93BF938091600890916108A0912B
:104B90006208B091630830915F0823E0230F2D373E
:104BA00020F40196A11DB11D05C026E8230F029631
:104BB000A11DB11D20935F08809360089093610848
:104BC000A0936208B093630880916408909165088F
:104BD000A0916608B09167080196A11DB11D809350
:104BE000640890936508A0936608B0936708BF9126
:104BF000AF919F918F913F912F910F900FBE0F908A
:104C00001F9018952FB7F894609160087091610813
:104C100080916208909163082FBF08953FB7F89480
:104C20008091640890916508A0916608B09167082A
:104C300026B5A89B05C02F3F19F00196A11DB11DF7
:104C40003FBFBA2FA92F982F8827820F911DA11D32
:104C5000B11DBC01CD0142E0660F771F881F991F6F
:104C60004A95D1F708958F929F92AF92BF92CF92BB
:104C7000DF92EF92FF926B017C01D0DF4B015C0170
:104C8000C114D104E104F104F1F0A4DDC7DFDC01BB
:104C9000CB0188199909AA09BB09883E9340A1054F
:104CA000B10570F321E0C21AD108E108F10888EEDD
:104CB000880E83E0981EA11CB11CC114D104E1042C
:104CC000F10421F7DDCFFF90EF90DF90CF90BF9000
:104CD000AF909F908F900895789484B5826084BD42
:104CE00084B5816084BD85B5826085BD85B58160F0
:104CF00085BDEEE6F0E0808181608083E1E8F0E050
:104D00001082808182608083808181608083E0E87E
:104D1000F0E0808181608083E1EBF0E0808184605D
:104D20008083E0EBF0E0808181608083E1E9F0E066
:104D3000808182608083808181608083E0E9F0E00F
:104D4000808181608083E1EAF0E0808182608083FD
:104D5000808181608083E0EAF0E0808181608083EF
:104D6000E1E2F1E0808182608083808181608083E4
:104D7000E0E2F1E0808181608083EAE7F0E0808119
:104D80008460808380818260808380818160808371
:104D90008081806880831092C10008951F93CF9313
:104DA000DF93182FEB0161E016D1209711F460E03A
:104DB00004C0CF3FD10531F461E0812FDF91CF9165
:104DC0001F9145C1E12FF0E0E65AFE4FE4918E2F8E
:104DD00090E0FC013197E231F10508F09DC0882791
:104DE000E758FF4F8F4F0C94BD3B84B5806884BD5E
:104DF000C7BD97C084B5806284BDC8BD92C0809194
:104E00008000806880938000D0938900C0938800E0
:104E100088C080918000806280938000D0938B0056
:104E2000C0938A007EC0809180008860809380005B
:104E3000D0938D00C0938C0074C08091B0008068C6
:104E40008093B000C093B3006CC08091B0008062CA
:104E50008093B000C093B40064C0809190008068DB
:104E600080939000D0939900C09398005AC080918D
:104E70009000806280939000D0939B00C0939A0032
:104E800050C080919000886080939000D0939D00E6
:104E9000C0939C0046C08091A00080688093A000D1
:104EA0008091A0008F7B8093A000D093A900C09335
:104EB000A80037C08091A00080628093A000D093AA
:104EC000AB00C093AA002DC08091A00088608093A1
:104ED000A000D093AD00C093AC0023C0809120010E
:104EE000806880932001D0932901C093280119C0C4
:104EF00080912001806280932001D0932B01C09388
:104F00002A010FC080912001886080932001D093F6
:104F10002D01C0932C0105C0C038D1050CF04CCF39
:104F200046CFDF91CF911F91089590E0FC0131971A
:104F3000E231F10508F04EC08827E557FF4F8F4F4B
:104F40000C94BD3B809180008F7703C080918000DE
:104F50008F7D80938000089580918000877FF9CFB6
:104F600084B58F7702C084B58F7D84BD089580910C
:104F7000B0008F7703C08091B0008F7D8093B00028
:104F80000895809190008F7707C0809190008F7D69
:104F900003C080919000877F809390000895809156
:104FA000A0008F7707C08091A0008F7D03C0809103
:104FB000A000877F8093A0000895809120018F77C3
:104FC00007C0809120018F7D03C080912001877FE1
:104FD000809320010895CF93DF9390E0FC01E05689
:104FE000FE4F2491FC01EA51FE4F8491882361F128
:104FF00090E0880F991FFC01EA5BFD4FC591D491A9
:10500000FC01E45DFD4FA591B491611109C09FB70A
:10501000F8948881209582238883EC912E230BC0FD
:10502000623061F49FB7F8948881322F30958323E2
:105030008883EC912E2B2C939FBF06C08FB7F894DA
:10504000E8812E2B28838FBFDF91CF9108951F9386
:10505000CF93DF93282F30E0F901E65AFE4F849179
:10506000F901E056FE4FD491F901EA51FE4FC49187
:10507000CC23B9F0162F811158DFEC2FF0E0EE0FA2
:10508000FF1FE45DFD4FA591B4919FB7F8941111F6
:1050900004C08C91D095D82302C0EC91DE2BDC9318
:1050A0009FBFDF91CF911F910895FC01918D228DBB
:1050B000892F90E0805C9F4F821B91098F73992705
:1050C0000895FC01918D828D981731F0828DE80F43
:1050D000F11D858D90E008958FEF9FEF0895FC01FD
:1050E000918D828D981761F0828DDF01A80FB11D1F
:1050F0005D968C91928D9F5F9F73928F90E0089543
:105100008FEF9FEF0895FC01538D448D252F30E0E4
:10511000842F90E0821B930B541710F0CF960895C4
:1051200001970895FC01848DDF01A80FB11DA35ADA
:10513000BF4F2C91848D90E001968F739927848FB7
:10514000A689B7892C93A089B1898C9183708064DA
:105150008C93938D848D981306C00288F389E02D7B
:1051600080818F7D80830895EF92FF920F931F932C
:10517000CF93DF93EC0181E0888F9B8D8C8D98130A
:1051800005C0E889F989808185FD25C0F62E0B8D43
:1051900010E00F5F1F4F0F731127E02E8C8DE81268
:1051A0000BC00FB607FCFACFE889F989808185FF2B
:1051B000F5CFCE01B7DFF2CF8B8DFE01E80FF11DE9
:1051C000E35AFF4FF0829FB7F8940B8FEA89FB896F
:1051D000808180620AC09FB7F894EE89FF8960835E
:1051E000E889F98980818370806480839FBF81E032
:1051F00090E0DF91CF911F910F91FF90EF90089574
:10520000CF93DF93EC01888D8823C1F0EA89FB8975
:10521000808185FD05C0A889B9898C9186FD0EC065
:105220000FB607FCF5CF808185FFF2CFA889B98939
:105230008C9185FFEDCFCE0175DFE8CFDF91CF9167
:105240000895CF92DF92EF92FF921F93CF93DF9357
:10525000EC016A017B01122FE889F98982E08083E1
:105260004115514E61057105B1F060E079E08DE3C3
:1052700090E0A70196010E949B3BDA01C9010197CA
:10528000A109B109B695A795979587959C01211518
:1052900080E13807A8F0E889F989108260E874E8AD
:1052A0008EE190E0A70196010E949B3BDA01C901C3
:1052B0000197A109B109B695A795979587959C0186
:1052C000EC85FD853083EE85FF852083188EEC8983
:1052D000FD891083EA89FB89808180618083EA8966
:1052E000FB89808188608083EA89FB89808180686E
:1052F0008083EA89FB8980818F7D8083DF91CF91D4
:105300001F91FF90EF90DF90CF9008951F920F9222
:105310000FB60F9211240BB60F922F938F939F937A
:10532000EF93FF93E0917808F09179088081E09104
:105330007E08F0917F0882FD12C0908180918108E3
:105340008F5F8F7320918208821751F0E09181085E
:10535000F0E0E859F74F958F8093810801C0808174
:10536000FF91EF919F918F912F910F900BBE0F9016
:105370000FBE0F901F9018951F920F920FB60F92AD
:1053800011240BB60F922F933F934F935F936F931C
:105390007F938F939F93AF93BF93EF93FF9388E691
:1053A00098E0C0DEFF91EF91BF91AF919F918F91F7
:1053B0007F916F915F914F913F912F910F900BBE15
:1053C0000F900FBE0F901F901895E8E6F8E013823B
:1053D000128288EE93E0A0E0B0E084839583A683F8
:1053E000B78388E296E09183808385EC90E095878F
:1053F000848784EC90E09787868780EC90E0918B9F
:10540000808B81EC90E0938B828B82EC90E0958B8B
:10541000848B86EC90E0978B868B118E128E138E88
:10542000148E08951F920F920FB60F9211240BB68F
:105430000F922F938F939F93EF93FF93E091150912
:10544000F09116098081E0911B09F0911C0982FD01
:1054500012C0908180911E098F5F8F7320911F0968
:10546000821751F0E0911E09F0E0EB5FF64F958F47
:1054700080931E0901C08081FF91EF919F918F91D0
:105480002F910F900BBE0F900FBE0F901F9018958D
:105490001F920F920FB60F9211240BB60F922F93FB
:1054A0003F934F935F936F937F938F939F93AF93AC
:1054B000BF93EF93FF9385E099E034DEFF91EF9186
:1054C000BF91AF919F918F917F916F915F914F911C
:1054D0003F912F910F900BBE0F900FBE0F901F901A
:1054E0001895E5E0F9E01382128288EE93E0A0E0DF
:1054F000B0E084839583A683B78388E296E09183A6
:1055000080838DEC90E0958784878CEC90E0978782
:10551000868788EC90E0918B808B89EC90E0938B70
:10552000828B8AEC90E0958B848B8EEC90E0978B4D
:10553000868B118E128E138E148E08951F920F92E9
:105540000FB60F9211240BB60F922F938F939F9348
:10555000EF93FF93E091B209F091B3098081E0915C
:10556000B809F091B90982FD12C090818091BB0900
:105570008F5F8F732091BC09821751F0E091BB09B6
:10558000F0E0EE55F64F958F8093BB0901C0808106
:10559000FF91EF919F918F912F910F900BBE0F90E4
:1055A0000FBE0F901F9018951F920F920FB60F927B
:1055B00011240BB60F922F933F934F935F936F93EA
:1055C0007F938F939F93AF93BF93EF93FF9382EA61
:1055D00099E0A8DDFF91EF91BF91AF919F918F91DD
:1055E0007F916F915F914F913F912F910F900BBEE3
:1055F0000F900FBE0F901F901895E2EAF9E013820A
:10560000128288EE93E0A0E0B0E084839583A683C5
:10561000B78388E296E09183808385ED90E095875B
:10562000848784ED90E09787868780ED90E0918B6A
:10563000808B81ED90E0938B828B82ED90E0958B57
:10564000848B86ED90E0978B868B118E128E138E55
:10565000148E08951F920F920FB60F9211240BB65D
:105660000F922F938F939F93EF93FF93E0914F0AA5
:10567000F091500A8081E091550AF091560A82FD1E
:1056800012C090818091580A8F5F8F732091590AC0
:10569000821751F0E091580AF0E0E15CF54F958FE8
:1056A0008093580A01C08081FF91EF919F918F9163
:1056B0002F910F900BBE0F900FBE0F901F9018955B
:1056C0001F920F920FB60F9211240BB60F922F93C9
:1056D0003F934F935F936F937F938F939F93AF937A
:1056E000BF93EF93FF938FE39AE01CDDFF91EF915F
:1056F000BF91AF919F918F917F916F915F914F91EA
:105700003F912F910F900BBE0F900FBE0F901F90E7
:105710001895EFE3FAE01382128288EE93E0A0E09E
:10572000B0E084839583A683B78388E296E0918373
:10573000808385E391E09587848784E391E0978770
:10574000868780E391E0918B808B81E391E0938B5E
:10575000828B82E391E0958B848B86E391E0978B3B
:10576000868B118E128E138E148E0895CF92DF9237
:10577000EF92FF920F931F93CF93DF936C017A0107
:105780008B01C0E0D0E0CE15DF0581F0D8016D912E
:105790008D01D601ED91FC910190F081E02DC601C3
:1057A0001995892B11F02196EECF7E01C701DF916B
:1057B000CF911F910F91FF90EF90DF90CF900895C0
:1057C0008230A9F028F4882349F0813051F00895FF
:1057D000843021F1E8F0853039F1089510926E009F
:1057E000089580916F008D7F80936F000895809160
:1057F00070008D7F8093700081E08093B000809175
:10580000B100887F84608093B1001092B300089546
:10581000809171008D7F8093710008958091720056
:105820008D7F809372000895809173008D7F8093A7
:1058300073000895CF93C82F8091DA04C81307C06E
:10584000E0E6F2E084919FEF9093DA0401C08FEFDD
:10585000B7DF60E08C2FCF91FACB1F920F920FB67B
:105860000F9211240BB60F922F933F934F935F9398
:105870006F937F938F939F93AF93BF93EF93FF9318
:105880008091DF0A9091E00AA091E10AB091E20ACA
:10589000892B8A2B8B2B51F19091DC0AE091DD0A48
:1058A000F091DE0A8081892780838091DF0A9091C0
:1058B000E00AA091E10AB091E20A181619061A0648
:1058C0001B06BCF48091DF0A9091E00AA091E10AE6
:1058D000B091E20A0197A109B1098093DF0A909380
:1058E000E00AA093E10AB093E20A03C08091DA04CF
:1058F000A1DFFF91EF91BF91AF919F918F917F9128
:105900006F915F914F913F912F910F900BBE0F9030
:105910000FBE0F901F90189540E052EC61E070E0D0
:1059200080E090E006D061E08DE055DB60E08DE046
:105930008ECB8130910571F01CF4892B39F00895DC
:105940008230910559F0039769F0089526E088E6C2
:1059500098E00BC026E085E099E007C026E082EAE7
:1059600099E003C026E08FE39AE06BCC1F920F9280
:105970000FB60F9211240BB60F922F933F934F93B4
:105980005F936F937F938F939F93AF93BF93EF93A7
:10599000FF938EE19BEF90932501809324018091EA
:1059A0000F0B9091100B019719F461E08DE04FDB24
:1059B0000E948F38FF91EF91BF91AF919F918F918E
:1059C0007F916F915F914F913F912F910F900BBEFF
:1059D0000F900FBE0F901F9018958EE19BEF909344
:1059E000250180932401A3E7B0E08C918E7F8C93F6
:1059F000E0E2F1E080818C7F8083E1E2F1E0808170
:105A0000877E808380818360808380818B7F808399
:105A10008C9181608C93089581E008956F927F92BC
:105A20008F929F92AF92BF92CF92DF92EF92FF92AE
:105A30000F931F93CF93DF933C017B015A0101E049
:105A400010E00E151F0564F568018FEFC81AD80A1B
:105A5000E801CC0FDD1FCA0DDB1D88809980811401
:105A60009104E1F066E376E0C4010E94243D892BB5
:105A700019F41982188212C069E376E0C4010E9409
:105A8000243D892B59F4EC14FD0441F06801E2E057
:105A9000CE0ED11C198218821B821A828601D1CFA8
:105AA00081E0F3018083B501C7010E94E937F3016A
:105AB0009283818380E090E0DF91CF911F910F91DD
:105AC000FF90EF90DF90CF90BF90AF909F908F901E
:105AD0007F906F90089583EE9AE0089580E0089596
