:10000000B6C100000C94AE280C94D9280C94042995
:100010000C942F290C945A290C9485290C94B029FE
:100020000C94DB290C9498080C943C090C947909E5
:10003000CFC100000C947B30CBC10000C9C10000CF
:10004000C7C10000C5C10000C3C10000C1C100009C
:10005000BFC10000BDC10000BBC100000C94062A56
:10006000B7C100000C94D42D0C940A2EB1C100002D
:10007000AFC10000ADC10000ABC10000A9C10000CC
:10008000A7C10000A5C10000A3C10000A1C10000DC
:100090000C94602E0C94962E9BC10000F9C30000B6
:1000A00097C1000095C1000093C1000091C10000FC
:1000B0008FC100008DC100008BC1000089C100000C
:1000C00087C1000085C100000C9404310C94EC2E13
:1000D0000C94222F7DC100000C94782F0C94AE2F2D
:1000E00077C10000882852285A2866287328942847
:1000F000A128432B482B4D2B572B612BDA2B6B2B35
:10010000732B7B2B852B8F2B992BA82BB22BDA2BC8
:10011000BC2BC62BD02BFE2B012CF02BF42BFA2B57
:10012000382C052C092C0F2C132C172C1D2C212CB2
:10013000252C382C2B2C2F2C332C5439123B773B6D
:100140007A3B563A893A44394B3928395A3B493B2C
:10015000563B7A3B7A3B7A3B133900000A0B020983
:100160000C0D0E0807030401000000000000000051
:10017000000000000000000000000000000000007F
:10018000000000000000121110000000000000003C
:10019000000000000000000000000000000000005F
:1001A0000102102020080810204010204080020189
:1001B000020108040201010204081020408080406E
:1001C000201008040201800402018040201008046D
:1001D000020108040201010204081020408001020B
:1001E00004081020408005050505070508080808D3
:1001F000020202020A0A08080404040401010101BF
:1002000001010101030303030303030304070707B9
:100210000C0C0C0C0C0C0C0C02020202060606065E
:10022000060606060B0B0B0B0B0B0B0B000022003C
:10023000250028002B002E003100340002010000B0
:10024000050108010B0100002100240027002A00FD
:100250002D003000330001010000040107010A01F4
:1002600002001D3A2774694E53E8F5D2CF9C81A64F
:10027000BBCDD0F7EAB9A4839E25381F02514C6B41
:1002800076879ABDA0F3EEC9D46F7255481B06213C
:100290003C4A57706D3E230419A2BF9885D6CBEC1B
:1002A000F1130E2934677A5D40FBE6C1DC8F92B50D
:1002B000A8DEC3E4F9AAB7908D362B0C11425F7803
:1002C000659489AEB3E0FDDAC77C61465B08153200
:1002D0002F5944637E2D30170AB1AC8B96C5D8FFD9
:1002E000E2263B1C01524F6875CED3F4E9BAA780D1
:1002F0009DEBF6D1CC9F82A5B8031E3924776A4DB9
:1003000050A1BC9B86D5C8EFF24954736E3D2007BF
:100310001A6C71564B1805223F8499BEA3F0EDCAA2
:10032000D735280F12415C7B66DDC0E7FAA9B4938C
:100330008EF8E5C2DF8C91B6AB100D2A3764795E7A
:1003400043B2AF8895C6DBFCE15A47607D2E33147B
:10035000097F6245580B16312C978AADB0E3FED960
:10036000C40047039207332EBF2E4B2FD72F1124E3
:100370001FBECFEFD1E2DEBFCDBF00E00CBF17E064
:10038000A0E0B2E0E6EEF3E800E00BBF02C00790A9
:100390000D92A435B107D9F72EE0A4E5B7E001C06E
:1003A0001D92A333B207E1F711E0C7EBD1E000E003
:1003B00006C021970109802FFE010E948140C13BA8
:1003C000D10780E00807A9F70E94F93C0C94F1419D
:1003D00017CE80E090E008958091880790E020910A
:1003E0008907821B91090895909189078091880758
:1003F000981750F4E92FF0E0E657F84F208130E0ED
:100400009F5F9093890702C02FEF3FEFC9010895C6
:10041000E091890780918807E81730F4F0E0E6570B
:10042000F84F808190E008958FEF9FEF0895089531
:10043000CF93DF93EC01E0916007F0916107309773
:10044000F1F090918907809188079817C0F090E0AB
:10045000292F30E02617370754F4DE01A20FB31F0F
:100460004C91D901A657B84F4C939F5FF1CF109292
:10047000890760938807CB01DF91CF911994DF91B1
:10048000CF910895E0916207F0916307309729F0CA
:10049000109266071092650719940895CF92DF9223
:1004A000EF92FF920F931F93CF93DF937C01CB01C9
:1004B0008A0120916407222389F0EB016B01C40EAD
:1004C000D51ECC15DD0561F06991D701ED91FC9148
:1004D0000190F081E02DC7011995F3CF642F96D1DB
:1004E000C801DF91CF911F910F91FF90EF90DF90A6
:1004F000CF900895CF93DF931F92CDB7DEB7698376
:10050000209164072223D1F020916507203240F02A
:1005100021E030E0FC013383228380E090E014C0CE
:1005200080916607E82FF0E0E959F84F99819083B0
:100530008F5F809366078093650704C061E0CE01FA
:10054000019664D181E090E00F90DF91CF91089502
:10055000FC011382128288EE93E0A0E0B0E0848375
:100560009583A683B78381EA95E09183808308957C
:1005700010928907109288071092660710926507FB
:1005800089D082E492E06FD188E192E067C181E096
:10059000809364076093870710926607109265073F
:1005A00008950F93062F21E04091650767E677E0F5
:1005B00080918707D5D01092660710926507109238
:1005C00064070F9108954F925F926F927F92AF925E
:1005D000BF92CF92EF92FF920F931F93CF93DF932F
:1005E0005C01F62ED42F28013901EE2011F1CFDF66
:1005F000CE2DC43008F0C3E0C150C0F028E0C29F47
:10060000C0011124A301920104C056954795379566
:1006100027958A95D2F7CA01B901D501ED91FC91D0
:100620000190F081E02DC5011995E6CF60E0C5018C
:10063000B8DF4D2FD13208F040E22C2D6AE877E088
:100640008F2D46D01092890780938807DF91CF9134
:100650001F910F91FF90EF90CF90BF90AF907F9040
:100660006F905F904F900895CF92EF920F931F93EA
:10067000C22EE12C00E010E09801A5DF1F910F9140
:10068000EF90CF90089521E0EFCF61E08ACF84E52D
:1006900097E05ECF1092170881E0809315081092C2
:1006A000140861E084E10E94752C61E085E10E94FC
:1006B000752CE9EBF0E080818E7F808380818D7FD7
:1006C000808388E48093B80085E48093BC0008951B
:1006D000413208F043C0909117089111FCCF91E08E
:1006E00090931708209315082FEF2093AA071092D4
:1006F000EF07240F2093EE079093160890911608A9
:10070000880F892B8093160880911408813061F43A
:1007100010921408809116088093BB008091BC0051
:1007200083FDF8CF85EC01C085EE8093BC008091FD
:1007300017088130E1F38091EF07841710F440919E
:10074000EF07A0EFB7E0962FFB018E2F891B8417D0
:1007500018F48D918193F9CF842F089580E0089546
:100760000F93413208F04AC0909117089111FCCFC5
:1007700032E030931708009315083FEF3093AA0733
:100780001092EF074093EE07562FA0EFB7E0FB0162
:100790003E2F351B341718F431913D93F9CF109249
:1007A000160830911608880F832B809316088091C5
:1007B0001408813061F41092140880911608809317
:1007C000BB008091BC0083FDF8CF85EC01C085EEB5
:1007D0008093BC00222321F0809117088230D1F34E
:1007E0008091AA078F3F79F08091AA07803241F06B
:1007F0008091AA07803331F094E005C091E003C0F6
:1008000092E001C093E0892F0F9108954091CC07A9
:10081000262F30E0240F311D21323105DCF42091E8
:1008200017082430C9F4FC0180E090E0861758F4E2
:100830003091CC072191DC01A253B84FA30FB11D19
:100840002C930196F3CF8091CC07680F6093CC076F
:1008500080E0089581E0089582E008959093110862
:1008600080931008089590931308809312080895B8
:1008700085ED8093BC008091BC0084FDFCCF10927C
:100880001708089585EC8093BC001092170808950E
:100890001F920F920FB60F9211240BB60F922F9347
:1008A0003F934F935F936F937F938F939F93AF93F8
:1008B000BF93EF93FF938091B900887F803609F44E
:1008C0009DC070F5883209F45CC090F4803109F461
:1008D00055C038F4882309F4F3C0883009F44EC0B9
:1008E000F2C0883109F44DC0803209F45EC0EBC01B
:1008F000803409F469C050F4803309F456C0883359
:1009000009F0E1C08093AA07BDDFDDC0803509F49E
:100910004FC0883509F45DC0883409F0D4C0D2C016
:10092000883909F4C3C0A8F4883709F467C038F4DB
:10093000883609F463C0803709F460C0C4C08838C1
:1009400009F4B4C0803909F45FC0803809F0BBC035
:100950005BC0803B09F482C038F4803A09F466C079
:10096000883A09F47BC0AFC0803C09F4A3C0883C3E
:1009700009F4A0C0883B09F486C0A5C08091160880
:1009800010C09091EF078091EE07981770F5E091F5
:10099000EF0781E08E0F8093EF07F0E0E051F84F12
:1009A00080818093BB0085EC82C08093AA078AC0B7
:1009B000E091EF0781E08E0F8093EF078091BB00FD
:1009C000F0E0E051F84F80839091EF078091EE07BF
:1009D0006AC0E091EF0781E08E0F8093EF0780916E
:1009E000BB00F0E0E051F84F808380911508811141
:1009F00069C081E08093140884EA5DC083E080933D
:100A000017081092AB07CFCF8091AB07803208F068
:100A10004DC0E091AB0781E08E0F8093AB078091D2
:100A2000BB00F0E0E455F84F8083BDCF2BDF809111
:100A3000AB07803230F4E091AB07F0E0E455F84FBB
:100A400010826091AB0770E0E0911008F0911108FE
:100A50008CEA97E019951092AB0735C084E080933B
:100A600017081092CD071092CC07E0911208F09170
:100A7000130819958091CC07811105C081E08093FE
:100A8000CC071092CE07E091CD0781E08E0F8093C6
:100A9000CD07F0E0E253F84F80818093BB00909146
:100AA000CD078091CC07981708F47DCF85E8809317
:100AB000BC0009C085EC8093BC001092170803C0ED
:100AC0001092AA07D5DEFF91EF91BF91AF919F9150
:100AD0008F917F916F915F914F913F912F910F90E7
:100AE0000BBE0F900FBE0F901F901895FF920F93A3
:100AF0001F93CF93DF93C62F142FF22E032F682F4F
:100B000084E597E044DD6C2F84E597E0F3DCCF2D9E
:100B1000D02FCE01810F911D8C01C017D10729F074
:100B2000699184E597E0E6DCF8CF84E597E0ADDDF8
:100B300091E0811190E0892FDF91CF911F910F916A
:100B4000FF900895CF93DF931F92CDB7DEB749830F
:100B50009E012F5F3F4F41E0C9DF0F90DF91CF91A2
:100B600008953F924F925F926F927F928F929F92E1
:100B7000AF92BF92CF92DF92EF92FF920F931F93AB
:100B8000CF93DF9300D000D0CDB7DEB7D82EC62EDE
:100B90004D8379010E94502A4B015C01312C1E8249
:100BA0009D81892F90E09C838B832801612C712C7F
:100BB000ED813E1698F56D2D84E597E0E8DC6C2D0F
:100BC00084E597E097DC84E597E05FDD6D2D84E5B3
:100BD00097E0DDDC4B815C814319510941325105BD
:100BE00014F040E250E06D2D84E597E04CDD84E5A3
:100BF00097E0F2DB892B09F442C00115110569F178
:100C00000E94502ADC01CB0188199909AA09BB0965
:100C100084159505A605B70500F131C0011511052C
:100C2000B9F10E94502ADC01CB0188199909AA095F
:100C3000BB0920E030E080179107A207B30740F11D
:100C4000FD812F2F30E04E81842F440F990B8217A6
:100C50009307F4F48FEF8E831BC0F7012E81E20F10
:100C6000F11D27FDFA95FA83E98384E597E0BCDB63
:100C7000E981FA818083FE81FF5FFE83B8CF84E53E
:100C800097E003DD8D81813208F080E2380E90CF4D
:100C90008E8126960FB6F894DEBF0FBECDBFDF91D2
:100CA000CF911F910F91FF90EF90DF90CF90BF9069
:100CB000AF909F908F907F906F905F904F903F90FC
:100CC00008950F931F9389019A0141E04ADF1F9114
:100CD0000F910895EF92FF920F931F93CF93DF939D
:100CE0001F92CDB7DEB7182F062FF42EE22E2091DB
:100CF000060230910702AE014F5F5F4FE2DF89814C
:100D000041E050E001C0440FFA94EAF7EE2011F000
:100D1000482B02C0409548234983602F812F12DF62
:100D20000F90DF91CF911F910F91FF90EF90089559
:100D3000DF92EF92FF920F931F93CF93DF931F9257
:100D4000CDB7DEB7182FF62EE42ED22E2091060254
:100D500030910702AE014F5F5F4FB3DF882331F15F
:100D60002E2D30E02D1931092F5F3F4F81E090E0AB
:100D700002C0880F991FDA94E2F70197022E01C092
:100D8000880F0A94EAF7402F50E0BA0102C0660FBC
:100D9000771F2A95E2F7482F4095998149238623AA
:100DA000482B49836F2D812FCDDE01C080E00F904D
:100DB000DF91CF911F910F91FF90EF90DF900895F9
:100DC00028E6FC01208308950F93062F23E042E0DC
:100DD0006AE1FC018081ACDF0F9108950F93062F2B
:100DE00022E044E06BE1FC018081A2DF0F910895D5
:100DF0000F93062F22E044E06CE1FC01808198DF34
:100E00000F9108950F931F93CF93DF93EC010091FF
:100E10000602109107029C012F5F3F4F42E063E4FE
:100E200088819FDE89819A81982789279827DF9179
:100E3000CF911F910F9108950F931F93CF93DF933D
:100E4000EC0100910602109107029C012F5F3F4FB9
:100E500042E065E4888185DE89819A819827892727
:100E60009827DF91CF911F910F9108950F931F93B2
:100E7000CF93DF93EC0100910602109107029C01D1
:100E80002F5F3F4F42E067E488816BDE89819A8162
:100E9000982789279827DF91CF911F910F91089567
:100EA000262F46E06BE6FC01808114CF0F93062FBE
:100EB00023E042E06BE6FC0180813ADF0F91089568
:100EC000CF93DF93EC0161E0F1DF60E0CE0186DFDC
:100ED00060E0CE018DDF60E0CE01DF91CF91E0CF09
:100EE000CF93C82F84E597E043DB6C2F88E198E02F
:100EF0006BDF88E198E0CF91E3CFCF93DF93EC01F4
:100F000088E198E07FDF9983888388E198E094DF27
:100F10009B838A8388E198E0A9DF9D838C83DF919E
:100F2000CF91089588E198E04BCF9CB1892F8072D2
:100F300094FF03C081110FC002C0882361F080912B
:100F40002B0890912C08A0912D08B0912E080196A5
:100F5000A11DB11D0BC080912B0890912C08A09170
:100F60002D08B0912E080197A109B10980932B0893
:100F700090932C08A0932D08B0932E08089599B152
:100F8000892F847093FF03C0882379F002C08111F8
:100F90000CC08091390890913A08A0913B08B0911B
:100FA0003C080196A11DB11D0BC08091390890919C
:100FB0003A08A0913B08B0913C080197A109B109FA
:100FC0008093390890933A08A0933B08B0933C086B
:100FD00008952CB126FB882780F990E027FF03C0F5
:100FE000019779F402C0892B61F4809147089091B0
:100FF0004808A0914908B0914A080196A11DB11D69
:101000000BC08091470890914808A0914908B09181
:101010004A080197A109B1098093470890934808AD
:10102000A0934908B0934A0808959CB1892F807114
:1010300095FF03C0882379F002C081110CC0809114
:101040002B0890912C08A0912D08B0912E080196A4
:10105000A11DB11D0BC080912B0890912C08A0916F
:101060002D08B0912E080197A109B10980932B0892
:1010700090932C08A0932D08B0932E08089599B151
:10108000892F887092FF03C081110FC002C088238E
:1010900061F08091390890913A08A0913B08B09195
:1010A0003C080196A11DB11D0BC08091390890919B
:1010B0003A08A0913B08B0913C080197A109B109F9
:1010C0008093390890933A08A0933B08B0933C086A
:1010D00008952CB1822F807890E0880F892F881F87
:1010E000990B26FF03C0892B79F402C0019761F4A4
:1010F0008091470890914808A0914908B0914A080A
:101100000196A11DB11D0BC0809147089091480820
:10111000A0914908B0914A080197A109B1098093AB
:10112000470890934808A0934908B0934A08089547
:101130001F920F920FB60F9211242F933F934F934C
:101140005F938F939F93AF93BF9383B121E030E080
:10115000982F907285FD02C020E030E080744091AD
:101160006B0850916C082417350749F521E030E0F1
:10117000811102C020E030E030936A0820936908B2
:10118000882319F091110FC002C0992361F080915A
:10119000630890916408A0916508B0916608019673
:1011A000A11DB11D41C08091630890916408A09178
:1011B0006508B09166080197A109B10916C030937E
:1011C0006C0820936B08992319F0882311F102C051
:1011D00081111FC08091630890916408A0916508F7
:1011E000B09166080196A11DB11D8093630890938C
:1011F0006408A0936508B093660880916308909195
:101200006408A0916508B09166080197A109B10929
:101210001EC08091630890916408A0916508B09108
:1012200066080197A109B109809363089093640847
:10123000A0936508B0936608809163089091640854
:10124000A0916508B09166080196A11DB11D80931B
:10125000630890936408A0936508B0936608BF91F3
:10126000AF919F918F915F914F913F912F910F90EF
:101270000FBE0F901F9018951F920F920FB60F92EE
:1012800011248F939F93AF93BF9380910601817038
:101290009091030190FF03C081110FC002C0882309
:1012A00061F08091550890915608A0915708B0912F
:1012B00058080196A11DB11D0BC080915508909151
:1012C0005608A0915708B09158080197A109B10993
:1012D0008093550890935608A0935708B0935808E8
:1012E000BF91AF919F918F910F900FBE0F901F9064
:1012F00018951F920F920FB60F9211248F939F9300
:10130000AF93BF938091030181709091060190FF8C
:1013100003C0882379F002C081110CC08091550868
:1013200090915608A0915708B09158080196A11DB8
:10133000B11D0BC08091550890915608A091570897
:10134000B09158080197A109B1098093550890936D
:101350005608A0935708B0935808BF91AF919F913A
:101360008F910F900FBE0F901F9018950F931F93A2
:10137000CF93DF938C018EE0809FE001819FD00DA1
:101380001124C95DD74F798368835B834A83888141
:10139000998160E00E94392C8A819B8160E00E94E3
:1013A000392C8881998161E00E94752C8A819B810A
:1013B00061E00E94752C0230110509F47FC044F4ED
:1013C00001151105E9F00130110509F448C0BEC04E
:1013D0000330110509F4A6C00430110509F0B6C0A8
:1013E0008091680081608093680080916B008062CA
:1013F00080936B0080916B00806480936B00A6C02B
:10140000809127089091280802978431910540F433
:10141000FC01E155FA4F8081082E000C990B02C0A7
:101420008FEF9FEF41E050E065E977E00E943A28B6
:101430008091290890912A0802978431910540F4FF
:10144000FC01E155FA4F8081082E000C990B02C077
:101450008FEF9FEF41E050E065E178E05DC0809163
:1014600035089091360802978431910540F4FC01CB
:10147000E155FA4F8081082E000C990B02C08FEFC6
:101480009FEF41E050E06FE378E00E943A288091BE
:1014900037089091380802978431910540F4FC0197
:1014A000E155FA4F8081082E000C990B02C08FEF96
:1014B0009FEF41E050E06FEB77E02EC08091430852
:1014C0009091440802978431910540F4FC01E15564
:1014D000FA4F8081082E000C990B02C08FEF9FEF0E
:1014E00041E050E069E678E00E943A2880914508A2
:1014F0009091460802978431910540F4FC01E15532
:10150000FA4F8081082E000C990B02C08FEF9FEFDD
:1015100041E050E069EE77E0DF91CF911F910F91AC
:101520000C943A28809168008460809368008091D0
:10153000680082608093680080916D008160809374
:101540006D0080916C00826080936C00DF91CF9180
:101550001F910F9108952EE0269FF001279FF00D17
:101560001124E95DF74F6481758186819781089523
:101570000895CF93282F882351F0CB01BA01C22FB1
:101580000E94613E8FEF8C0FCF910C941C2BCF915A
:1015900008950F931F938B019C0183E03695279547
:1015A000179507958A95D1F7F801E359F74F2081F0
:1015B000422F50E0E62FE77021E030E002C0220F1A
:1015C000331FEA95E2F724233523232B19F0CB01AF
:1015D000019602C080E090E01F910F9108950F9353
:1015E0001F938B019C0183E03695279517950795EE
:1015F0008A95D1F7677081E090E001C0880F6A9505
:10160000EAF7F801E359F74F452B21F480959081D3
:10161000892302C09081892B80831F910F910895A7
:10162000CF92DF92EF92FF92CF93DF936B017C0119
:1016300061E08C2D0E94392CE6012196AE01C70194
:10164000B601CDDFCE01DF91CF91FF90EF90DF901B
:10165000CF900895882341F06FEF680F70E080E02D
:1016600090E040E050E0BBCF0895662319F0613070
:1016700009F062E00C94392C662311F061E001C09E
:1016800060E00C94752CCF93DF93EC0189819A81F3
:10169000AB81BC810197A105B105C1F48D8188237F
:1016A000A9F06A857B858C859D8573DF99878887FE
:1016B00040E050E0BA015DDF6A857B858C859D85C1
:1016C00068DF99878887DF91CF91C4CFDF91CF9171
:1016D00008952F923F924F925F926F927F928F92D6
:1016E0009F92AF92BF92CF92DF92EF92FF920F93B1
:1016F0001F93CF93DF93CDB7DEB7E0970FB6F89483
:10170000DEBF0FBECDBF2090B90D3090BA0D009155
:10171000B70D1091B80D20918B0C30918C0C3E833D
:101720002D83D901CD90DD90ED90FC90F8012081C2
:10173000318142815381C701B6010E94F53D1816DF
:101740000CF054C0D8015C962D913D914D915C9167
:101750005F97C701B6010E94E53F87FF4AC0E0914D
:10176000110EF091120EFA83E9835F01AA0CBB1CE3
:10177000AA0CBB1C48018A0C9B1CD4012D913D91E5
:101780004D915C91C701B6010E94F53D87FD06C0F1
:10179000B4E0AB0EB11CA00EB11E16C0F4E08F1A5F
:1017A0009108D40114962D913D914D915C9117971C
:1017B000C701B6010E94F53D87FF1FC0E981FA818C
:1017C0003197FA83E983EACFD5012D913D914D916F
:1017D0005D915D01C701B6010E94E53F87FD0DC027
:1017E000E981FA813196FA83E983EECF1A82198270
:1017F00004C0E6E0F0E0FA83E98329813A8130937E
:10180000120E2093110E220F331F220F331F3A871F
:101810002987F901E00FF11F4080518062807380B9
:101820002C5F3F4F3A832983F901E00FF11F80803D
:101830009180A280B380A5019401C301B2010E94EE
:10184000F53D81111FC0A3019201C701B6010E949D
:10185000F53D87FF06C089859A85820D931DFC01A1
:1018600004C0E981FA81E20DF31D80819181A2819A
:10187000B38180939D0C90939E0CA0939F0CB0938A
:10188000A00C63C0E985FA85E20DF31D20812D8748
:101890001181028133813987E981FA81E20DF31DDB
:1018A00080819181A281B38189839A83AB83BC8338
:1018B0009C01AD016D85712F802F99850E94F53DAA
:1018C0008823A9F1A7019601C501B4010E94903DAA
:1018D0006B017C01A3019201C501B4010E94903DFE
:1018E0009B01AC01C701B6010E94F93D6B017C016F
:1018F0009B01AC0160E070E080E89FE30E94903DB6
:1019000029813A814B815C810E94E93F4B015C0156
:101910002D85312F402F5985C701B6010E94E93F1F
:101920009B01AC01C501B4010E94913D04C06D85CD
:10193000712F802F99858B019C0100939D0C109332
:101940009E0C20939F0C3093A00C2090BF0D3090E4
:10195000C00D8090BD0D9090BE0DAD81BE81CD902B
:10196000DD90ED90FC90F401208131814281538122
:10197000C701B6010E94F53D18160CF053C0D40102
:101980005C962D913D914D915C915F97C701B60199
:101990000E94E53F87FF49C0E091130EF091140EBD
:1019A000FA83E9838F01000F111F000F111F5401EB
:1019B000A00EB11ED5012D913D914D915C91C701B5
:1019C000B6010E94F53D87FD05C00C5F1F4F080D55
:1019D000191D16C0F4E0AF1AB108D50114962D9167
:1019E0003D914D915C911797C701B6010E94F53D5D
:1019F00087FF1FC0E981FA813197FA83E983EACF33
:101A0000D8012D913D914D915D918D01C701B60198
:101A10000E94E53F87FD0DC0E981FA813196FA8386
:101A2000E983EECF1A82198204C0E6E0F0E0FA837F
:101A3000E98329813A813093140E2093130E220FEB
:101A4000331F220F331F3A832983F901E80DF91D53
:101A5000408051806280738089010C5F1F4FF401C8
:101A6000E00FF11F80809180A280B380A5019401D6
:101A7000C301B2010E94F53D81111EC0A301920174
:101A8000C701B6010E94F53D87FF06C089819A8192
:101A9000820D931DFC0103C0F101E00FF11F808155
:101AA0009181A281B3818093990C90939A0CA09319
:101AB0009B0CB0939C0C64C0E981FA81E20DF31D8C
:101AC00020812D8B3181398B828189839381998704
:101AD000F101E00FF11F80819181A281B3818D8797
:101AE0009E87AF87B88B9C01AD016D89798989810B
:101AF00099850E94F53D8823A9F1A7019601C501AA
:101B0000B4010E94903D6B017C01A3019201C501CB
:101B1000B4010E94903D9B01AC01C701B6010E9437
:101B2000F93D6B017C019B01AC0160E070E080E855
:101B30009FE30E94903D2D853E854F8558890E94E8
:101B4000E93F4B015C012D89398949815985C701DC
:101B5000B6010E94E93F9B01AC01C501B4010E949E
:101B6000913D04C06D897989898199858B019C019A
:101B70000093990C10939A0C20939B0C30939C0C1F
:101B80002090C50D3090C60D8090C30D9090C40D6F
:101B9000AD81BE81CD90DD90ED90FC90F40120816F
:101BA000318142815381C701B6010E94F53D18166B
:101BB0000CF053C0D40154962D913D914D915C9100
:101BC0005797C701B6010E94E53F87FF49C0E091E2
:101BD000150EF091160EFA83E9838F01000F111F85
:101BE000000F111F5401A00EB11ED5012D913D9182
:101BF0004D915C91C701B6010E94F53D87FD05C07E
:101C00000C5F1F4F080D191D16C0F4E0AF1AB10884
:101C1000D50114962D913D914D915C911797C70177
:101C2000B6010E94F53D87FF1FC0E981FA81319717
:101C3000FA83E983EACFD8012D913D914D915D91D1
:101C40008D01C701B6010E94E53F87FD0DC0E98106
:101C5000FA813196FA83E983EECF1A82198204C0A1
:101C6000E4E0F0E0FA83E98329813A813093160EAB
:101C70002093150E220F331F220F331F3A8329831F
:101C8000F901E80DF91D408051806280738089015F
:101C90000C5F1F4FF401E00FF11F80809180A28044
:101CA000B380A5019401C301B2010E94F53D8111E9
:101CB0001EC0A3019201C701B6010E94F53D87FF36
:101CC00006C089819A81820D931DFC0103C0F10138
:101CD000E00FF11F80819181A281B3818093950CE7
:101CE0009093960CA093970CB093980C64C0E981E4
:101CF000FA81E20DF31D2081298B31813D8782819C
:101D00008D8393819983F101E00FF11F808191818F
:101D1000A281B38189879A87AB87BC879C01AD017B
:101D200069897D858D8199810E94F53D8823A9F17E
:101D3000A7019601C501B4010E94903D6B017C0191
:101D4000A3019201C501B4010E94903D9B01AC0129
:101D5000C701B6010E94F93D6B017C019B01AC01FA
:101D600060E070E080E89FE30E94903D29853A851D
:101D70004B855C850E94E93F4B015C0129893D85CB
:101D80004D815981C701B6010E94E93F9B01AC0119
:101D9000C501B4010E94913D04C069897D858D8192
:101DA00099818B019C010093950C1093960C2093C4
:101DB000970C3093980C809186058130E9F08091E2
:101DC0008405813049F480919D0C90919E0CA091E6
:101DD0009F0CB091A00C08C08091990C90919A0C26
:101DE000A0919B0CB0919C0C8093950C9093960CB9
:101DF000A093970CB093980C2091950C3091960C71
:101E00004091970C5091980C6091980470919904AE
:101E100080919A0490919B040E94E93F6093EF0C9B
:101E20007093F00C8093F10C9093F20C61E070E0F1
:101E300080E090E090DB6093FF0C7093000D809346
:101E4000010D9093020D0E94943E2091C0043091A8
:101E5000C1044091C2045091C3040E94E93F209103
:101E6000A0043091A1044091A2045091A3040E94C7
:101E7000E93F6B017C016093A70C7093A80C8093E1
:101E8000A90C9093AA0C2091C4043091C5044091F0
:101E9000C6045091C7040E94E93F698F7A8F8B8FE7
:101EA0009C8F8091ED0D9091EE0DA091EF0DB09172
:101EB000F00D8D839E83AF83B8878093AB0C909396
:101EC000AC0CA093AD0CB093AE0C2091D00430912B
:101ED000D1044091D2045091D304BC01CD010E94A1
:101EE000E93F6D8F7E8F8F8F98A32091F50D3091F4
:101EF000F60D4091F70D5091F80D6091D804709156
:101F0000D9048091DA049091DB040E94E93F20E03B
:101F100030E0A9010E94913D20E030E0A9010E943B
:101F2000913D20E030E0A9010E94913D69837A83D0
:101F30008B839C836093AF0C7093B00C8093B10C37
:101F40009093B20C2091F90D3091FA0D4091FB0D58
:101F50005091FC0D6091F4047091F5048091F604A9
:101F60009091F7040E94E93F20E030E0A9010E942F
:101F7000913D20E030E0A9010E94913D20E030E059
:101F8000A9010E94913D6D877E878F87988B209154
:101F9000FD0D3091FE0D4091FF0D5091000E6091AE
:101FA00010057091110580911205909113050E9402
:101FB000E93F20E030E0A9010E94913D20E030E0BF
:101FC000A9010E94913D69877A878B879C876093DE
:101FD000B30C7093B40C8093B50C9093B60C209115
:101FE000010E3091020E4091030E5091040E60914B
:101FF0002C0570912D0580912E0590912F050E9442
:10200000E93F20E030E0A9010E94913D6D8B7E8B7D
:102010008F8B988F2091050E3091060E4091070E00
:102020005091080E609138057091390580913A05FC
:1020300090913B050E94E93F20E030E0A9010E9419
:10204000913D20E030E0A9010E94913D2B013C012F
:102050002091090E30910A0E40910B0E50910C0EFA
:1020600060915005709151058091520590915305F2
:102070000E94E93F20E030E0A9010E94913D20E06C
:1020800030E0A9010E94913D4B015C0120914C047C
:1020900030914D0440914E0450914F04C701B60158
:1020A0000E94E93FA30192010E94913D69A37AA396
:1020B0008BA39CA320915004309151044091520471
:1020C00050915304C701B6010E94E93FA501940154
:1020D0000E94913D6DA37EA38FA398A720910D0E22
:1020E00030910E0E40910F0E5091100E60916805C8
:1020F0007091690580916A0590916B050E94E93F96
:1021000020E030E0A9010E94913D4B015C0120914B
:102110005404309155044091560450915704C7011E
:10212000B6010E94E93F9B01AC01C501B4010E94C8
:10213000913D69A77AA78BA79CA798E5692E94E0A3
:10214000792E07EB1CE028E6422E24E0522E7A8AF4
:10215000698A94E0690E711CA989BA8990962D91BB
:102160003D914D915C9193976DA17EA18FA198A512
:102170000E94E93F4B015C01E989FA892089318994
:102180004289538969A17AA18BA19CA10E94E93F50
:102190009B01AC01C501B4010E94913D4B015C0162
:1021A000A989BA89D0962D913D914D915C91D39793
:1021B00069A57AA58BA59CA50E94E93F9B01AC016E
:1021C000C501B4010E94913D4B015C01E989FA8986
:1021D0002081318142815381C701B6010E94E93FCC
:1021E0009B01AC01C501B4010E94913DD8016D93E2
:1021F0007D938D939D938D014614570409F0A7CFCD
:10220000809187058130E1F5C092F30CD092F40CF7
:10221000E092F50CF092F60C2091E90D3091EA0D68
:102220004091EB0D5091EC0D698D7A8D8B8D9C8DCD
:102230000E94903D6093F70C7093F80C8093F90C1A
:102240009093FA0C8D819E81AF81B8858093FB0CB1
:102250009093FC0CA093FD0CB093FE0C2091F10D1B
:102260003091F20D4091F30D5091F40D6D8D7E8DF6
:102270008F8D98A10E94903D8B018DA7998B69C08D
:1022800080918505813059F589819A81AB81BC8126
:102290008093F30C9093F40CA093F50CB093F60C90
:1022A0008D859E85AF85B8898093F70C9093F80C47
:1022B000A093F90CB093FA0C89859A85AB85BC85FF
:1022C0008093FB0C9093FC0CA093FD0CB093FE0C40
:1022D0000D891E899F899DA7A88DA98B3AC08091E1
:1022E000B70C9091B80CA091B90CB091BA0C809336
:1022F000F30C9093F40CA093F50CB093F60C809132
:10230000BB0C9091BC0CA091BD0CB091BE0C809305
:10231000F70C9093F80CA093F90CB093FA0C809101
:10232000BF0C9091C00CA091C10CB091C20C8093D5
:10233000FB0C9093FC0CA093FD0CB093FE0C009151
:10234000C30C1091C40CB091C50CBDA7E091C60C94
:10235000E98B8090EF0C9090F00CA090F10CB09075
:10236000F20C2091F30C3091F40C4091F50C50914B
:10237000F60CC501B4010E94913D2091D403309127
:10238000D5034091D6035091D7030E94E93F2B011A
:102390003C012091F70C3091F80C4091F90C5091D0
:1023A000FA0CC501B4010E94913D2091D8033091EF
:1023B000D9034091DA035091DB030E94E93F9B016E
:1023C000AC01C301B2010E94913D2B013C0120915F
:1023D000FB0C3091FC0C4091FD0C5091FE0CC501A2
:1023E000B4010E94913D2091DC033091DD034091C6
:1023F000DE035091DF030E94E93F9B01AC01C30162
:10240000B2010E94913D2B013C01A5019401B8014C
:102410008DA599890E94913D2091E0033091E103BF
:102420004091E2035091E3030E94E93F9B01AC011C
:10243000C301B2010E94913D4B015C012091950CBA
:102440003091960C4091970C5091980C6091BC047F
:102450007091BD048091BE049091BF040E94E93F39
:102460009B01AC01C501B4010E94913D4B015C018F
:1024700020E030E040E45FE36D817E818F819885CC
:102480009F770E94F53D87FF05C060E070E080E81F
:102490009FE303C060E070E0CB01A50194010E94BE
:1024A000E93F698B7A8B8B8B9C8B6093C70C709305
:1024B000C80C8093C90C9093CA0C84E6282E83E044
:1024C000382E2BEC3CE03EA72DA738AA2FA600E023
:1024D00010E0EFA5F8A9E455FF4F2081318142813A
:1024E00053816DA17EA18FA198A50E94E93F4B0168
:1024F0005C01EFA5F8A9E056FF4F208131814281B0
:10250000538169A17AA18BA19CA10E94E93F9B0103
:10251000AC01C501B4010E94913D4B015C01EFA5E6
:10252000F8A9E854FF4F208131814281538169A588
:102530007AA58BA59CA50E94E93F9B01AC01C50132
:10254000B4010E94913D4B015C01EFA5F8A9E45252
:10255000FF4F20813181428153816D817E818F8146
:1025600098850E94E93F2B013C01EFA5F8A9E053B3
:10257000FF4F2081318142815381C701B6010E9402
:10258000E93F9B01AC01C301B2010E94913D2B01C7
:102590003C01EFA5F8A9EC53FF4F20813181428126
:1025A000538169897A898B899C890E94E93F9B01C3
:1025B000AC01C301B2010E94913D9B01AC01C50178
:1025C000B4010E94913DADA5BEA56D937D938D9301
:1025D0009D93BEA7ADA70F5F1F4FEFA5F8A9349637
:1025E000F8ABEFA70330110509F073CF2091B403C6
:1025F0003091B5034091B6035091B70369817A8158
:102600008B819C810E94E93F4B015C012091BC03BE
:102610003091BD034091BE035091BF036D857E850F
:102620008F8598890E94E93F9B01AC01C501B401E7
:102630000E94913D4B015C012091C4033091C50380
:102640004091C6035091C70369857A858B859C8527
:102650000E94E93F9B01AC01C501B4010E94913D7C
:102660004B015C012091CC033091CD034091CE030E
:102670005091CF036D897E898F89988D0E94E93FA3
:102680009B01AC01C501B4010E94913D2B013C01AD
:102690006093E70C7093E80C8093E90C9093EA0C3C
:1026A0002091C0033091C1034091C2035091C303F4
:1026B0006D857E858F8598890E94E93F4B015C017D
:1026C0002091B8033091B9034091BA035091BB03F4
:1026D00069817A818B819C810E94E93F9B01AC01D9
:1026E000C501B4010E94913D4B015C012091C803DA
:1026F0003091C9034091CA035091CB0369857A8513
:102700008B859C850E94E93F9B01AC01C501B4010A
:102710000E94913D4B015C012091D0033091D10387
:102720004091D2035091D3036D897E898F89988D12
:102730000E94E93F9B01AC01C501B4010E94913D9B
:102740004B015C016093EB0C7093EC0C8093ED0CEF
:102750009093EE0CA3019201C701B6010E94903D37
:102760002B013C016093EF0C7093F00C8093F10C03
:102770009093F20CA50194016D817E818F819885E3
:102780000E94903D6D837E838F83988707ED1CE0C8
:1027900024E030E03AA329A3D10150962D913D9138
:1027A0004D915C9153976D857E858F8598890E94A8
:1027B000E93F6B017C01F10120813181428153812C
:1027C00069817A818B819C810E94E93F9B01AC01E8
:1027D000C701B6010E94913D6B017C01D101909629
:1027E0002D913D914D915C91939769857A858B856B
:1027F0009C850E94E93F9B01AC01C701B6010E9484
:10280000913D6B017C01F10120A931A942A953A995
:102810006D897E898F89988D0E94E93F9B01AC016B
:10282000C701B6010E94913D6B017C01F101E057A7
:10283000FF4F20813181428153816D817E818F8163
:1028400098850E94E93F4B015C01F101E058FF4F80
:102850002081318142815381C301B2010E94E93F4D
:102860009B01AC01C501B4010E94913D4B015C018B
:10287000F101E05CFF4F2081318142815381698900
:102880007A898B899C890E94E93F9B01AC01C50133
:10289000B4010E94913D9B01AC01C701B6010E94A9
:1028A000913DD8016D937D938D939D938D01E9A109
:1028B000FAA13197FAA3E9A3F4E02F0E311C29A164
:1028C0003AA1232B09F068CF81EA9CE00E947D07A2
:1028D0006091A10C7091A20C072E000C880B990B33
:1028E0000E94943E20919C0430919D0440919E044E
:1028F00050919F040E94903D209170053091710588
:1029000040917205509173050E94E93F4B015C01B3
:102910002091B4043091B5044091B6045091B704AD
:102920006091C70C7091C80C8091C90C9091CA0C31
:102930000E94F53D682F661F6627661F88E00E948B
:102940003C0B60911B0D70911C0D80911D0D9091A1
:102950001E0D0E94C90A90931A0D8093190D0091C3
:10296000C70C1091C80C3091C90C3D838091CA0CE2
:102970008983C090AC04D090AD04E090AE04F09098
:10298000AF049601A701B8018D8199810E94E53FAE
:1029900018168CF0C0907405D0907505E0907605FF
:1029A000F09077059601A701B8018D8199810E9469
:1029B000F53D87FF03C08601ED82F98220917805FD
:1029C0003091790540917A0550917B05B8018D8150
:1029D00099810E94E93F0E94CF3E6B017C019BD50B
:1029E000811120C0C701B6016BD581111BC020E049
:1029F00030E040E853E4C701B6010E94E93E6B01B4
:102A00007C018B01ED82F98220E030E0A9010E9477
:102A1000F53D87FF0BC0C701B60190580E94663E86
:102A2000619509C000E010E01D821982B8018D8116
:102A300099810E94663E70E080E090E00E94923EA4
:102A4000AB01BC018091190D90911A0D0E94B90A39
:102A50002091B8043091B9044091BA045091BB045C
:102A60006091C70C7091C80C8091C90C9091CA0CF0
:102A70000E94F53D682F661F6627661F85E00E944D
:102A80003C0B60910D0D70910E0D80910F0D90918A
:102A9000100D0E94C90A90930C0D80930B0D0091AC
:102AA000C70C1091C80C9091C90C9D83A091CA0CC1
:102AB000A983C090B004D090B104E090B204F0902B
:102AC000B3049601A701B801892F9A2F0E94E53F10
:102AD00018168CF0C0907C05D0907D05E0907E05A6
:102AE000F0907F059601A701B8018D8199810E9420
:102AF000F53D87FF03C08601ED82F98220918005B4
:102B0000309181054091820550918305B8018D81F6
:102B100099810E94E93F0E94CF3E6B017C01FBD46A
:102B2000811120C0C701B601CBD481111BC020E0A8
:102B300030E040E853E4C701B6010E94E93E6B0172
:102B40007C018B01ED82F98220E030E0A9010E9436
:102B5000F53D87FF0BC0C701B60190580E94663E45
:102B6000619509C000E010E01D821982B8018D81D5
:102B700099810E94663E70E080E090E00E94923E63
:102B8000AB01BC0180910B0D90910C0D0E94B90A14
:102B9000898D9A8DAB8DBC8D8093E90D9093EA0D54
:102BA000A093EB0DB093EC0D2091C8043091C904B3
:102BB0004091CA045091CB04C501B4010E94E93F81
:102BC0002091ED0D3091EE0D4091EF0D5091F00DF3
:102BD0000E94913D6093ED0D7093EE0D8093EF0D8B
:102BE0009093F00D8D8D9E8DAF8DB8A18093F10DDA
:102BF0009093F20DA093F30DB093F40D2091F50D89
:102C00003091F60D4091F70D5091F80D6091D4047C
:102C10007091D5048091D6049091D7040E94E93F29
:102C20002091D70C3091D80C4091D90C5091DA0CEE
:102C30000E94913D6093F50D7093F60D8093F70D12
:102C40009093F80D2091F90D3091FA0D4091FB0D04
:102C50005091FC0D6091F0047091F1048091F204A8
:102C60009091F3040E94E93F2091DB0C3091DC0C41
:102C70004091DD0C5091DE0C0E94913D6093F90D66
:102C80007093FA0D8093FB0D9093FC0D2091FD0D38
:102C90003091FE0D4091FF0D5091000E60910C059A
:102CA00070910D0580910E0590910F050E94E93FEE
:102CB0002091DF0C3091E00C4091E10C5091E20C3E
:102CC0000E94913D6093FD0D7093FE0D8093FF0D6A
:102CD0009093000E2091010E3091020E4091030E50
:102CE0005091040E609128057091290580912A0564
:102CF00090912B050E94E93F2091E30C3091E40C68
:102D00004091E50C5091E60C0E94913D6093010EBC
:102D10007093020E8093030E9093040E2091050E83
:102D20003091060E4091070E5091080E60913405C7
:102D30007091350580913605909137050E94E93FE5
:102D40002091CB0C3091CC0C4091CD0C5091CE0CFD
:102D50000E94913D6093050E7093060E8093070EBE
:102D60009093080E2091090E30910A0E40910B0E9F
:102D700050910C0E60914C0570914D0580914E055F
:102D800090914F050E94E93F2091CF0C3091D00CDB
:102D90004091D10C5091D20C0E94913D6093090E4C
:102DA00070930A0E80930B0E90930C0E20910D0ED3
:102DB00030910E0E40910F0E5091100E60916405EF
:102DC0007091650580916605909167050E94E93FC5
:102DD0002091D30C3091D40C4091D50C5091D60C4D
:102DE0000E94913D60930D0E70930E0E80930F0E16
:102DF0009093100E82E090E00E94E627E0918B0C09
:102E0000F0918C0C408151816281738180E090E06F
:102E10000E94E2276091800C7091810C8091820C5D
:102E20009091830C0E94923E2AE037ED43EA5CE3E6
:102E30000E94E93FAB01BC0181E090E00E94E227E3
:102E40008090840C9090850CA090860CB090870C9C
:102E500020E030E040E85FEBC501B4010E94F53DA1
:102E6000A0918B0CB0918C0CBA83A983882311F1AB
:102E7000CD90DD90ED90FC90A7019601C501B401C5
:102E80000E94903D4B015C0120E030E040E054E3C3
:102E9000C701B6010E94E93F9B01AC01C501B40125
:102EA0000E94E53F181634F083EC95E09093E60B12
:102EB0008093E50B80918A0C882331F083EC95E0B8
:102EC0009093E60B8093E50B8091780C9091790CB0
:102ED000A0917A0CB0917B0CBC01CD016F5F7F4F4C
:102EE0008F4F9F4F6093780C7093790C80937A0C7E
:102EF00090937B0C0E94923E9B01AC0160917C0CF4
:102F000070917D0C80917E0C90917F0C0E94E93F26
:102F1000E981FA8160837183828393838091800C3D
:102F20009091810CA091820CB091830C0196A11D0F
:102F3000B11D8093800C9093810CA093820CB09370
:102F4000830CE0960FB6F894DEBF0FBECDBFDF91C5
:102F5000CF911F910F91FF90EF90DF90CF90BF9096
:102F6000AF909F908F907F906F905F904F903F9029
:102F70002F9008952F923F924F925F926F927F927F
:102F80008F929F92AF92BF92CF92DF92EF92FF9279
:102F90000F931F93CF93DF9384E090E05AD2E5EE36
:102FA000FBE080EBDF011D928A95E9F788E89CE061
:102FB00097838683CBE8DCE0D093260CC093250C66
:102FC0000CE71CE0158B048BF093500CE0934F0C36
:102FD000F583E48321E030E0DC012D933C9387ED21
:102FE00095E0938782872DE83CE03983288340E091
:102FF00050E060E87FEB4093840C5093850C609325
:10300000860C7093870C4AE057ED63EA7CE3D801A5
:103010004D935D936D937C931397C6E6DCE081EE50
:1030200090E6AFE9B6EB88839983AA83BB838BE9EB
:1030300095E8A4E2BDE580936A0C90936B0CA09395
:103040006C0CB0936D0C8EE190EAAEE7BDEF80930F
:103050006E0C90936F0CA093700CB093710C89E57B
:1030600097E7AAE6BFE28093720C9093730CA0934B
:10307000740CB093750CACE9B8E0B383A283EAE8B2
:10308000F8E01196FC93EE9385EF96E091838083B0
:1030900093838283958384839783868391878087B4
:1030A000938782879587848797878687918B808B84
:1030B00086E79CE015969C938E9314971396DC9369
:1030C000CE93129717963C932E9316972EE6E5E92A
:1030D000FCE0DF011D922A95E9F7C3E0DDE024E181
:1030E00031E0FE01A901119241505040E1F7E6E7BD
:1030F000F8E024E1DF011D922A95E9F7DC01ED9368
:10310000FC9383E190E0918380838EE393E093834B
:10311000828388E193E0958384838CEC92E09783AB
:10312000868388EB92E09187808788E992E090938C
:10313000B80D8093B70D88E792E09093BA0D809315
:10314000B90D88E592E09093BE0D8093BD0D88E3A4
:1031500092E09093C00D8093BF0D80E292E0909337
:10316000C40D8093C30D88E092E09093C60D8093C8
:10317000C50D812C912C540183948092A00D9092C6
:10318000A10DA092A20DB092A30D42E150E063E127
:1031900070E081E090E00E94B609CC24C394C09214
:1031A000A40D1092A50D8092A60D9092A70DA0924D
:1031B000A80DB092A90D80E090E00E947007C09227
:1031C000AA0D1092B10D8092B20D9092B30DA09203
:1031D000B40DB092B50D61E088E00E94350BC0924D
:1031E000B60D1E86EFE5FDE092E3692E608223E3D3
:1031F000722E7092600D34E3232E2092610D45E310
:10320000342E3092620D56E3452E4092630D67E3F3
:10321000562E5092640DB8E3B093650D49E3409388
:10322000660D71E3D72ED092670D50E35093680D71
:10323000D092690DD0926A0DD0926B0D60926C0D98
:10324000D0926D0D70926E0DFD8BEC8B86E090E050
:10325000A0E0B0E0888F998FAA8FBB8F1B8A8F86E2
:10326000988AA98ABA8AE12CF12C8701A8019701D2
:1032700066E070E080E090E00E94100B9F8B8E8BE8
:10328000688D798D8A8D9B8D0E94C90A9F8B8E8B4C
:103290000E94B80ACB8A1092AB0D8092AC0D90922E
:1032A000AD0DA092AE0DB092AF0D61E085E00E9431
:1032B000350BC092B00D18826C8E7D8E2E8E3F8E97
:1032C00048A259A288E38AA3A9E3ABA3DCA2B0E396
:1032D000BDA3DEA2DFA2D8A669A6DAA67BA68FE1EF
:1032E0009DE09F838E8382E090E0A0E0B0E08A873B
:1032F0009B87AC87BD871D8289829A82AB82BC8204
:10330000A801970162E070E080E090E00E94100B5D
:10331000998788876A857B858C859D850E94C90AE7
:10332000998788870E94B80ACD828091A4049091E1
:10333000A504A091A604B091A7048093E90D9093F1
:10334000EA0DA093EB0DB093EC0D8091CC0490911D
:10335000CD04A091CE04B091CF048093ED0D909355
:10336000EE0DA093EF0DB093F00D8091A804909115
:10337000A904A091AA04B091AB048093F10D90939D
:10338000F20DA093F30DB093F40DDF91CF911F9147
:103390000F91FF90EF90DF90CF90BF90AF909F90F4
:1033A0008F907F906F905F904F903F902F900895F7
:1033B00080919F0D811103C081E080939F0D8091CA
:1033C000A50D811103C081E08093A50D8091B10D01
:1033D000811103C081E08093B10D8091110D8111A5
:1033E00007C081E08093110D81E19DE00E94430BB5
:1033F0008091AB0D811103C081E08093AB0D809172
:10340000030D811107C081E08093030D83E09DE0EF
:103410000C94430B089560E070E080E89FE7089506
:1034200060E070E080E89FE7089560E070E080E889
:103430009FEF089560E070E080E89FEF089560E0FE
:1034400070E080EC9FEF089560E070E080EC9FEF0B
:103450000895F5DF6093230E7093240E8093250E5C
:103460009093260EF1DF6093170E7093180E8093E1
:10347000190E90931A0ECFDF60931F0E7093200EDB
:103480008093210E9093220ECBDF60931B0E7093DE
:103490001C0E80931D0E90931E0EC7DF6093270EA7
:1034A0007093280E8093290E90932A0EC3DF6093A9
:1034B0002B0E70932C0E80932D0E90932E0E08954C
:1034C000CF92DF92EF92FF92CF936B017C019B0131
:1034D000AC0160911B0E70911C0E80911D0E90919D
:1034E0001E0E0E94F53DC1E0882371F0A7019601F0
:1034F00060912B0E70912C0E80912D0E90912E0EBE
:103500000E94F53D8111C0E08C2FCF91FF90EF908C
:10351000DF90CF9008950F931F938B019C0100279C
:10352000112720783F770115110520483F4749F4BE
:10353000AB01BC016F77772781E0452B462B472BEA
:1035400009F480E01F910F910895EF92FF920F937D
:103550001F93CF93DF93DC01EA01F90114968D915B
:103560009C91159712960D911C911397080F191F96
:103570002881398118964D915C911997421753070C
:1035800028F04D915C911197452B39F17801E21AA1
:10359000F30A18964D915C911997481B590B4E0DE3
:1035A0005F1D4617570794F1A901460F571F401793
:1035B0005107E0F0F182E082338322836E197F09A4
:1035C00075836483161617061CF4382F292F02C042
:1035D00030E020E03683278313C018968D919C91AC
:1035E0001997821B930B8617970784F0718360836A
:1035F00033832283158214821782168288819981EF
:10360000680F791F7983688380E001C081E0DF91D2
:10361000CF911F910F91FF90EF900895CF92DF927D
:10362000EF92FF92CF93DF936B017C0184E48C9D3A
:10363000E0018D9DD00D1124C855D74F8AA99BA9B3
:10364000009721F00E944F411BAA1AAA84E48C9D86
:10365000F0018D9DF00D1124E855F74F86A997A92B
:10366000009711F00E944F4184E48C9DF0018D9DE4
:10367000F00D1124E855F74F138A128A168A178A1B
:10368000108E118E128E138E148E158E168E178E2E
:1036900010A211A281E090E093A382A315A214A22C
:1036A00016A217A210A611A613A612A615A614A656
:1036B00016A617A610AA11AA13AA12AA15AA14AA26
:1036C00017AA16AA11AE10AE12AE13AE14AE15AEF6
:1036D000DF01DE961D921D921D921C921397EE5BE8
:1036E000FF4F11821082DF91CF91FF90EF90DF901A
:1036F000CF9008950F931F93CF93DF93EB01DC01DD
:103700008D919C91FC01A681B781E881F98123E02C
:10371000EE0FFF1F2A95E1F712962D913C9113971A
:10372000E20FF31F00811181AC85BD859D01220F41
:10373000331FDC0112968D919C911397D901A80F2C
:10374000B91F8D919C9124813581232B19F461E05F
:1037500070E002C062E070E0869F9001879F300DAC
:10376000969F300D112488859985289FB001299F47
:10377000700D389F700D1124EC81FD812E9FC001CA
:103780002F9F900D3E9F900D1124800F911FFA01E5
:103790009183808373836283DF91CF911F910F9117
:1037A00008952F923F924F925F926F927F928F92E5
:1037B0009F92AF92BF92CF92DF92EF92FF920F93C0
:1037C0001F93CF93DF9300D000D0CDB7DEB7DC01DD
:1037D0001496ED91FC9115970190F081E02D808574
:1037E00091859A838983A281B381BC83AB83FB01DA
:1037F00081909190A190B190C12CD12C7601C814E8
:10380000D904EA04FB040CF05DC044805580668056
:1038100077804085518562857385CF0140969E8370
:103820008D83A081B1819D0183E0220F331F8A9592
:10383000E1F7A981BA8112968D919C911397D901D4
:10384000A80FB91F2D903C9011970484F585E02DA9
:10385000EE0FFF1F8B819C81E80FF91F0190F08113
:10386000E02D14968D919C911597892B19F481E088
:1038700090E002C082E090E08E9F90018F9F300D1B
:103880009E9F300D1124249F8001259F100D349F91
:10389000100D1124249DC001259D900D349D900D87
:1038A0001124A8016D817E81820D931D0E94D84153
:1038B000ED81FE81E00FF11F9FEFC91AD90AE90AD5
:1038C000F90A9DCF26960FB6F894DEBF0FBECDBF86
:1038D000DF91CF911F910F91FF90EF90DF90CF90EC
:1038E000BF90AF909F908F907F906F905F904F9020
:1038F0003F902F900895CF93DF93DB01A857BA4FE5
:103900002C91222369F024E4269FF001279FF00DDB
:103910001124E855F74FEF0119922A95E9F71C9207
:1039200024E4269FF001279FF00D1124E855F74F5E
:1039300014821582168217821186108613861286CB
:10394000118A108A17861686DF91CF9167CE2F9243
:103950003F924F925F926F927F928F929F92AF921F
:10396000BF92CF92DF92EF92FF920F931F93CF936C
:10397000DF93CDB7DEB728970FB6F894DEBF0FBE42
:10398000CDBF24E4269FD001279FB00D1124A85558
:10399000B74FBC83AB8314960D911D912D913C9133
:1039A0001797012B022B032B09F4C1C02A016B01CD
:1039B0007C01612C712C812C912C5401B887AF8330
:1039C0001496BC83AB83EF81F8853896FE83ED8334
:1039D000EB81FC8180819181A281B3818816990657
:1039E000AA06BB0694F5AD81BE81ED91FC91E60D72
:1039F000F71DB281B98323812A830B2F122F212C2B
:103A0000312C24143504A4F4D801ED91FC913097A5
:103A100049F0848195810E944F41F8018081918114
:103A20000E944F41FFEF2F1A3F0A0E5F1F4FE9CF51
:103A300089819A810E944F412FEF821A920AA20A2D
:103A4000B20A34E0630E711CC3CFAF81B8851896FB
:103A50008D919C9119970E944F41EF81F885828545
:103A60009385892B81F100E010E01C821B8224E405
:103A70002C9DC0012D9D900D11249C012E54374F7B
:103A800059012B813C81241535058CF4D501ED912C
:103A9000FC91E00FF11F848195810E944F41EB81E1
:103AA000FC813196FC83EB83025F1F4FEACF84E4F5
:103AB0008C9DF0018D9DF00D1124E855F74F828506
:103AC00093850E944F4184E48C9DD0018D9DB00D63
:103AD0001124A855B74FBC83AB8350968D919C9110
:103AE00051970E944F41EB81FC81868597850E940A
:103AF0004F41C701B60192DDC701B60128960FB646
:103B0000F894DEBF0FBECDBFDF91CF911F910F9113
:103B1000FF90EF90DF90CF90BF90AF909F908F90ED
:103B20007F906F905F904F903F902F90E4CE2896BB
:103B30000FB6F894DEBF0FBECDBFDF91CF911F91BE
:103B40000F91FF90EF90DF90CF90BF90AF909F903C
:103B50008F907F906F905F904F903F902F9008953F
:103B600024E4269FF001279FF00D1124E855F74F1C
:103B7000828993890497029758F485E090E0938BAB
:103B8000828B8FEF9FEFDC01828F938FA48FB58F95
:103B900008952F923F924F925F926F927F928F92F1
:103BA0009F92AF92BF92CF92DF92EF92FF920F93CC
:103BB0001F93CF93DF93CDB7DEB7AA970FB6F894D4
:103BC000DEBF0FBECDBF9AA389A3788F6F8B7A011A
:103BD000098B1A8B2B8B3C8B84E429893A89829F31
:103BE0006001839FD00C112486010855174F8989E5
:103BF0009A89AB89BC89F80180839183A283B383BE
:103C0000AB01BC01CD01A3DED601A455B74F84E0C2
:103C1000F70101900D928A95E1F71701F4E02F0E5C
:103C2000311C64E070E0D80114968D919C91159739
:103C30000E949D40F80191878087892B09F481C1FA
:103C40001E8E1D8E198E1A8E1B8E1C8E18A30F8F22
:103C500098012C5F3F4F38A72FA3A801485F5F4F03
:103C60005AA749A7EFA1F8A580819181A281B381CC
:103C7000298D3A8D4B8D5C8D281739074A075B07D4
:103C80000CF0CEC0A9A5BAA58D919C91ED8DFE8DAD
:103C9000E80FF91FFE8BED8BD101ED91FC91EE0F3A
:103CA000FF1FA9A1BAA18D919C91E80FF91F8081F6
:103CB0009181ED89FE8991838083D10114962D91A4
:103CC0003D914D915C9117972BA33CA34DA35EA30F
:103CD000B8E02B0E311C62E070E08F89988D0E9455
:103CE0009D40ED89FE8993838283892B09F429C144
:103CF000412C512C32012BA13CA14DA15EA14216B9
:103D00005306640675060CF025C15101F4E0AF0EB0
:103D1000B11CD101ED90FC90EE0CFF1CED89FE89E9
:103D2000028113810E0D1F1D68E070E081E090E0BC
:103D30000E949D40D8018D939C93ED89FE898281DC
:103D40009381FC01EE0DFF1DC080D180C114D10410
:103D500009F4F7C084E0F501D60101900D928A952F
:103D6000E1F7F8E02F0E311CF60180819181A281EC
:103D7000B381181619061A061B060CF04BC064E036
:103D800070E00E949D40D60115969C938E931497E7
:103D9000892B09F4D6C0E12CF12C812C912C5401F3
:103DA000F60180819181A281B38188169906AA06C5
:103DB000BB0684F5F601048115810E0D1F1D80E1FF
:103DC000F101DE01119601900D928A95E1F7F0E183
:103DD0002F0E311CA801BE016F5F7F4FA9A1BAA1B0
:103DE00014968D919C91159785DCF601268137817B
:103DF000D80112968D919C911397820F931F9783F0
:103E00008683BFEF8B1A9B0AAB0ABB0AE4E0EE0E77
:103E1000F11CC6CFFFEF4F1A5F0A6F0A7F0A6BCF04
:103E20006EE070E08F89988D0E949D40AF8DB8A1A3
:103E30001B969C938E931A97A12CB12CC12CD12C3C
:103E4000E12CF12C24E4E989FA892E9FC0012F9FEF
:103E5000900D11249C012E54374F3E8B2D8B8824BE
:103E60008394912C4F89588DC416D5060CF041C00F
:103E7000D1014D905D906D907D901D01ED89FE8981
:103E8000008111810A0D1B1D77FC5BC0D8011196C2
:103E90009C928E92411451046104710449F0C20154
:103EA0000E94B740F80195838483892B31F449C07F
:103EB000D80115961C921E921497F80153824282E3
:103EC0008481958197838683918780871386128664
:103ED00081E090E045284628472811F480E090E0F2
:103EE000E80EF91EFFEFCF1ADF0A2EE0A20EB11C7A
:103EF000B9CF84E4A989BA898A9F80018B9F100D6C
:103F000011240855174FF80115861486C70133E0B0
:103F1000880F991F3A95E1F70E94B740D801519652
:103F20009C938E935097892B61F0C701880F991F3E
:103F30000E94B740F80197878687892B11F080E0AF
:103F40001CC04F89588D69897A898B899C89FFDCCF
:103F500081E013C0298D3A8D4B8D5C8D2F5F3F4FD3
:103F60004F4F5F4F298F3A8F4B8F5C8F4D8D5E8DFA
:103F70004C5F5F4F5E8F4D8F75CEAA960FB6F8944B
:103F8000DEBF0FBECDBFDF91CF911F910F91FF908C
:103F9000EF90DF90CF90BF90AF909F908F907F90E9
:103FA0006F905F904F903F902F9008952F923F9287
:103FB0004F925F926F927F928F929F92AF92BF9239
:103FC000CF92DF92EF92FF920F931F93CF93DF93E5
:103FD000CDB7DEB768970FB6F894DEBF0FBECDBF82
:103FE0009C8B8B8B69017A0124E42C9DC0012D9D53
:103FF000900D11249C012855374F5901FB01208158
:104000003181F501358B248BDC01A254B74FFB01C4
:10401000349624E001900D922A95E1F7DC01AE532D
:10402000B74FFB01389624E001900D922A95E1F7F5
:10403000DC01AA53B74FFB013C9624E001900D929E
:104040002A95E1F7DC01AA52B74FFB01709684E094
:1040500001900D928A95E1F78B010C5E1F4FF501DF
:1040600086A597A5A0A9B1A9181619060CF064C0D9
:10407000880F991F880F991F0E94B740F50193ABD5
:1040800082AB892B09F4B5C0812C912C412C512C89
:1040900032019501225D3F4F3E8B2D8BC501C296AB
:1040A000988F8F8BF496FA8BE98BB301A2012FEFD7
:1040B000421A520A620A720AED89FE898081918150
:1040C000A281B381481759076A077B0754F5EF8926
:1040D000F88D20803180280C391C80E1F801DE0148
:1040E000119601900D928A95E1F7005F1F4FA10193
:1040F000BE016F5F7F4FEB89FC8984819581FADA7D
:10410000E989FA8920813181F10182819381820FCD
:10411000931FE989FA8991838083F4E08F0E911CC3
:10412000C4CFF50184A995A90E94B740F50197ABCA
:1041300086AB892B09F45DC0F80180819181A28151
:10414000B38124E42C9DF0012D9DF00D1124E85540
:10415000F74FAC01BD014D7F21E030E0452B462BF0
:10416000472B11F020E030E033A322A324E42C9D60
:10417000F0012D9DF00D1124E855F74F0197A1098D
:10418000B10921E030E00297A105B10510F020E06F
:1041900030E035A324A324E42C9DC0012D9D900D77
:1041A0001124DC01A253B74FF801349624E00190AA
:1041B0000D922A95E1F7FC01E855F74F868D978D12
:1041C000A0A1B1A1B7FF10C0B095A0959095819521
:1041D0009F4FAF4FBF4F82AF93AFA4AFB5AF168E17
:1041E000178E10A211A20AC012AE13AE14AE15AEF5
:1041F00005C0C701B60112DA81E001C080E068960F
:104200000FB6F894DEBF0FBECDBFDF91CF911F91E7
:104210000F91FF90EF90DF90CF90BF90AF909F9065
:104220008F907F906F905F904F903F902F90089568
:10423000CF92DF92EF92FF92CF93DF9310923009EB
:1042400024E4269FF001279FF00D1124E855F74F35
:1042500015A614A620E030E0C12CD12CDF011A965F
:10426000C1E0D0E0C416D506D4F4ED91FC911197CD
:10427000E20FF31FE280F3801E141F0454F4E48065
:10428000F580F782E682F186E08613861286D18376
:10429000C083EFEFCE1ADE0A225F3F4FE3CF24E464
:1042A000269FF001279FF00D1124E855F74F13A624
:1042B00012A611AE10AEDF01DE961D921D921D9268
:1042C0001C92139782E090E0938B828BDF91CF91C9
:1042D000FF90EF90DF90CF90089524E4269FF001A7
:1042E000279FF00D1124E855F74F138A128A2FCB20
:1042F00024E4269FF001279FF00D1124E855F74F85
:104300008289938981309105C8F08530910518F034
:10431000059769F008958FEF9FEFDC01828F938FEF
:10432000A48FB58F85E090E0938B828B08958FEFFB
:104330009FEFDC01828F938FA48FB58F089524E4C3
:10434000249FF001259FF00D1124E855F74F2EE032
:10435000AC01249FC001259F900D11240284F38598
:10436000E02DE80FF91F81E0809330098285938565
:1043700091878087408551852681378181E090E053
:104380004217530711F080E090E0918380830895F5
:104390002F923F924F925F926F927F928F929F9255
:1043A000AF92BF92CF92DF92EF92FF920F931F9343
:1043B000CF93DF93CDB7DEB7C055D1090FB6F894D0
:1043C000DEBF0FBECDBF9EAF8DAF4BA75CA76DA765
:1043D0007EA76801790184E48C9D80018D9D100D7C
:1043E0001124F801E855F74F2285338525963FAF14
:1043F0002EAF259782899389029709F05FC186A520
:1044000097A5A0A9B1A9892B8A2B8B2B29F484E02D
:1044100090E0938B828B52C1848995894DAD5EADBE
:104420004817590709F04AC186A997A998AB8FA7E1
:104430001CAE1BAE1FAA18AE19AE1AAE8F01DF015B
:104440009E962796BFAFAEAF2797F2962996FFAFFD
:10445000EEAF29979801285C3F4F2B963FAF2EAFC8
:104460002B97A8014A5D5F4F2D965FAF4EAF2D97FA
:10447000C80182962F969FAF8EAF2F971A9761969D
:10448000BFAFAEAF61972796EEADFFAD27978081A6
:104490009181A281B3812FA938AD49AD5AAD2817BA
:1044A00039074A075B070CF0E8C02996EEADFFAD6F
:1044B0002997808191812BAD3CAD280F391F3CABF2
:1044C0002BABD90112960D90BC91A02D2196BFAFB8
:1044D000AEAF2197B695A795B695A7952396BFAF92
:1044E000AEAF23972B96EEADFFAD2B9780819181D8
:1044F000892B09F497C02D96AEADBFAD2D978D9049
:104500009D90AD90BC902FA438A8F9010190F08146
:10451000E02DFAABE9AB1EAA1DAA23968EAD9FAD86
:104520002397ADA9BEA9A817B9070CF07BC02F9699
:10453000AEADBFAD2F978D919C91892B71F1E9A9FB
:10454000FAA94080518062807380A3019201C50165
:10455000B4010E94F53D181664F0D1012D913D91F2
:104560004D915C91C501B4010E94E53F18160CF411
:104570008CC0A3019201C501B4010E94F53D87FFE3
:104580000CC0F1012081318142815381C501B40108
:104590000E94F53D882309F478C06196AEADBFADA9
:1045A00061978D919C91892B69F1E9A9FAA94080C5
:1045B000518062807380A3019201C501B4010E9401
:1045C000E53F181664F4D1012D913D914D915C9118
:1045D000C501B4010E94F53D18160CF056C0A301A8
:1045E0009201C501B4010E94F53D81110BC0F1019A
:1045F0002081318142815381C501B4010E94F53D82
:1046000087FD43C02DA93EA92F5F3F4F3EAB2DAB89
:1046100034E0230E311C49A95AA94C5F5F4F5AABB5
:1046200049AB7BCFEBA9FCA96081718121964EAD8E
:104630005FAD21978FA598A90E94D84123968EAD92
:104640009FAD2397880F991F880F991F2FA538A911
:10465000280F391F38AB2FA78FA998ADA9ADBAADD8
:104660000196A11DB11D8FAB98AFA9AFBAAFABAD8D
:10467000BCAD1496BCAFABAF06CF81E090E0D801E3
:10468000D9969C938E93D89719C084E48C9DF001A1
:104690008D9DF00D1124E855F74F868D978DA0A1C3
:1046A000B1A1892B8A2B8B2B09F059C284E090E0B1
:1046B000938B828B86AD97AD93A782A784E48C9D64
:1046C000F0018D9DF00D1124E855F74F82899389F3
:1046D0008230910579F482AD93ADA4ADB5AD1816D5
:1046E00019061A061B060CF041C2E1E0F0E0FAAB35
:1046F000E9AB05C0049709F039C21AAA19AA8EE0DD
:104700002DAD3EAD829F8001839F100D1124259613
:104710004EAD5FAD2597040F151FD80112962D9150
:104720003C9113972115310509F420C216968D91FD
:104730009C9117979AA789A7FE01319684E1DF0122
:104740001D928A95E9F7C98ADA8AEB8AFC8AE9A977
:10475000FAA9EF2B09F451C084E48C9DF0018D9DE2
:10476000F00D1124E855F74FDF01DE968D909D90F6
:10477000AD90BC9082AD93ADA4ADB5AD8816990651
:10478000AA06BB06D1F5D80114964D915C911597F8
:104790001896ED91FC911997349684E0DE015596B8
:1047A00001900D928A95E1F78D899E8908969E8BDE
:1047B0008D8BF80160857185860F971F91878087A3
:1047C00080859185240F351F821B930B97FD04C0B4
:1047D000840F951F9187808784E48C9DF0018D9DC7
:1047E000F00D1124EA51F74F21E0821A9108A10837
:1047F000B10880829182A282B3829E012B5E3F4FDC
:10480000AE01475D5F4F64E170E0C8010E94A51AE8
:10481000282E312C2114310409F08AC18CE090E05B
:10482000A0E0B0E08D839E83AF83B8879E01235EB6
:104830003F4FAE01475D5F4F64E070E0C8010E94EA
:10484000A51A282E312C2114310409F071C180E100
:1048500090E0A0E0B0E08D839E83AF83B8874D8D5C
:104860005E8DBE01655D7F4F8F8D98A10E94D841FE
:104870008BA19CA1009761F06D8D7E8D4BE250E085
:104880004C0F5D1F640F751F49A15AA10E94D841AA
:104890001DA21EA21FA218A68DAD9EAD880F991F46
:1048A00098AF8FAB24E42C9DC0012D9D900D112459
:1048B0008855974FDC011496BCAFABAFFC0138961E
:1048C0002196FFAFEEAF21978DA09EA0AFA0B8A418
:1048D000EBADFCAD80819181A281B38188169906F0
:1048E000AA06BB060CF0CDC02196AEADBFAD219798
:1048F000ED91FC91C401880F991F880F991FE80F53
:10490000F91FA081B1818C9181110AC0BFEF8B1A70
:104910009B0AAB0ABB0A8DA29EA2AFA2B8A6D4CFB7
:104920008330A1F30280F381E02D2FA938ADE20F8F
:10493000F31F408151815CAB4BAB452B39F389852B
:104940009A85AB85BC850196A11DB11D89879A8783
:10495000AB87BC879E01235E3F4FAE01475D5F4F33
:1049600064E070E0C8010E94A51A90E0009709F089
:10497000DEC08D819E81AF81B8850496A11DB11DD9
:104980008D839E83AF83B8874D8D5E8DBE016B5D39
:104990007F4F8F8D98A10E94D8418BA19CA1009739
:1049A00061F06D8D7E8DA5E2B0E0AC0FBD1F6A0F8A
:1049B0007B1F49A15AA10E94D8411EAA1DAA412CC1
:1049C000512C3201EBA9FCA980819181A281B38194
:1049D000481659066A067B060CF098CFEBA9FCA98D
:1049E000848195812DA93EA9280F391F38AB2FA7A7
:1049F000D90112966D917C9113979E01235E3F4FD2
:104A0000AE01475D5F4FC8010E94A51A90E0009774
:104A100009F08DC0EFA5F8A982819381092E000CC1
:104A2000AA0BBB0B4D815E816F817885840F951F2A
:104A3000A61FB71F8D839E83AF83B8876081718166
:104A40004D8D5E8D8F8D98A10E94D8418BA19CA128
:104A5000009761F0AFA5B8A96D917C912D8D3E8D29
:104A6000620F731F49A15AA10E94D841BFEF4B1A90
:104A70005B0A6B0A7B0AEDA9FEA93496FEABEDAB8F
:104A8000A1CF89859A85AB85BC85892B8A2B8B2BF9
:104A900009F44EC08AE190E0A0E0B0E089839A83F7
:104AA000AB83BC832DAD3EADC901330FAA0BBB0B4D
:104AB0008D879E87AF87B88B4D895E89BE016F5FFA
:104AC0007F4F8F89988D0E94D8418B8D9C8D009748
:104AD00061F06D897E8941E050E04C0F5D1F640FED
:104AE000751F498D5A8D0E94D84189A59AA5D80174
:104AF00017969C938E93169711961C921E92E9A975
:104B0000FAA9EF2B99F184E48C9DF0018D9DF00DB5
:104B10001124EA51F74F80819181A281B3810196DE
:104B2000A11DB11D80839183A283B3831FC01C018B
:104B300029A93AA9232BD1F42328C1F084E48C9D20
:104B4000F0018D9DF00D1124E855F74F81E090E0C4
:104B500095A784A785E090E0938B828B07C083E0C4
:104B600090E0938B828B81E090E0A6CDC05BDF4F1D
:104B70000FB6F894DEBF0FBECDBFDF91CF911F916E
:104B80000F91FF90EF90DF90CF90BF90AF909F90EC
:104B90008F907F906F905F904F903F902F900895EF
:104BA000CF92DF92EF92FF920F931F9324E4269F00
:104BB000F001279FF00D1124E855F74F2289338922
:104BC0002115310509F453C06B017C0121303105F9
:104BD000B9F482A593A59C012F5F3F4F33A722A76D
:104BE000092E000CAA0BBB0B028D138D248D358D65
:104BF00080179107A207B307D1F5C701B60118DBEB
:104C000084E48C9DF0018D9DF00D1124E855F74F43
:104C100082899389039759F582A593A59C012F5FFB
:104C20003F4F33A722A7092E000CAA0BBB0B468DC2
:104C3000578D60A171A184179507A607B707BCF02F
:104C400086AD97AD93A782A784E090E0938B828B8B
:104C500082AD93ADA4ADB5AD181619061A061B06A4
:104C600034F4EE5BFF4F81E090E0918380831F91ED
:104C70000F91FF90EF90DF90CF90089524E4269F4E
:104C8000F001279FF00D1124E855F74F8289938991
:104C90000497B1F482A593A5019693A782A7092E44
:104CA000000CAA0BBB0B46895789608D718D841748
:104CB0009507A607B70721F485E090E0938B828BD8
:104CC00008952F923F924F925F926F927F928F92B0
:104CD0009F92AF92BF92CF92DF92EF92FF920F938B
:104CE0001F93CF93DF93CDB7DEB72E970FB6F8940F
:104CF000DEBF0FBECDBF49835A836B837C834901DE
:104D0000442E552E24E4249DF001259DF00D112400
:104D1000E855F74F22883388910124503109223019
:104D2000310508F0DFC0DC0111961C921E9213962B
:104D30001C921E92129715861486A12CB12C60E04D
:104D400070E09F01265F3F4F38872F837F013CE053
:104D5000E30EF11CDF015096BA87A9879F01225FFD
:104D60003F4F3C872B87681579050CF06FC0EF81AA
:104D7000F885A081B1819D012A0D3B1D3E872D87BD
:104D8000D9012D913C911197232B09F059C0189608
:104D90000D911C9119971296ED91FC911397FE833A
:104DA000ED8316962D913C911797D7014D915C910B
:104DB000DA01E3E0AA0FBB1FEA95E1F7E985FA857E
:104DC000C080D180FD01EC0DFD1D440F551FAB854A
:104DD000BC85CD90DC904C0D5D1DDA016D937C930C
:104DE000D7014D915C9111974F5F5F4F4D935C934D
:104DF00013830283AD85BE851B963C932E931A9731
:104E00000217130748F4201B310B318320831582CE
:104E100014821782168214C0AD85BE851496CD907B
:104E2000DC9015974D815E814C0D5D1D401B510B33
:104E3000518340832C193D0935832483D782C68250
:104E40006F5F7F4FBEE0AB0EB11C8DCF24E4249D7D
:104E50008001259D100D11240855174FF801248558
:104E60003585DC0111963C932E9340895189139628
:104E70005C934E9312974685578515965C934E9397
:104E80001497232BB1F5B5E02B16310491F5109250
:104E90003009828D938DA48DB58DAE014F5F5F4F2C
:104EA00064E070E08F3F9F4FAF4FBF4F59F480E2F7
:104EB00090E00E94AE3469817A818B819C81A4014B
:104EC0000CDA17C08FE190E00E94AE34D8019B96B7
:104ED0001C921E929A9781E090E053969C938E9339
:104EE000529707C015861486FC0111821082138226
:104EF00012822E960FB6F894DEBF0FBECDBFDF91A3
:104F0000CF911F910F91FF90EF90DF90CF90BF90C6
:104F1000AF909F908F907F906F905F904F903F9059
:104F20002F900895EF92FF920F931F93CF93DF93EB
:104F30007C018B01EA010E949535811121C080918D
:104F40008A0590918B05049711F183E090E090938E
:104F50008B0580938A051BC088818111F0CF28EDD5
:104F600038EB45E050E060E070E0CB010E941E3875
:104F7000AE01B801C7010E942C38C8010E94F73762
:104F80008091310990913209892B31F3D8CFDF918B
:104F9000CF911F910F91FF90EF900895CF93DF93E2
:104FA00020918A0530918B052430310541F0EB01C9
:104FB0000E942C38CE01DF91CF910C94F737DF910E
:104FC000CF9108950C940C3C0C94013C0C94EF3B55
:104FD0000C9407380C94923B089560E070E080E0F8
:104FE00090E00C9470350895AF92BF92CF92DF920B
:104FF000EF92FF920F931F93CF93DF931F921F9215
:10500000CDB7DEB75C0169017A018B0180E090E0E9
:10501000C114D104E104F104F1F0C114D10421E080
:10502000E206F10410F4A60102C04FEF5FEF9E010B
:105030002F5F3F4FB801C5010E949D3C8F3F2FEF6E
:10504000920749F029813A81C21AD30AE108F1088E
:10505000020F131FDDCF0F900F90DF91CF911F91A3
:105060000F91FF90EF90DF90CF90BF90AF90089599
:1050700008950895883008F070C0A82FB0E0AA0FF6
:10508000BB1FA457BA4F11967C936E9390E0FC011E
:105090003197E730F105A0F58827EE58FF4F8F4F85
:1050A0000C948140809169008C7F482B409369006B
:1050B000E89A089580916900837F440F551F440F3B
:1050C000551F482B40936900E99A08958091690023
:1050D0008F7C74E0440F551F7A95E1F7482B40937D
:1050E0006900EA9A0895809169008F7366E0440F21
:1050F000551F6A95E1F7482B40936900EB9A089594
:1051000080916A008C7F482B40936A00EC9A089546
:1051100080916A00837F440F551F440F551F482B11
:1051200040936A00ED9A089580916A008F7C24E094
:10513000440F551F2A95E1F7482B40936A00EE9AD9
:10514000089580916A008F7396E0440F551F9A95D9
:10515000E1F7482B40936A00EF9A08951F920F924F
:105160000FB60F9211240BB60F922F933F934F93CC
:105170005F936F937F938F939F93AF93BF93EF93BF
:10518000FF93E0919005F09191051995FF91EF91B2
:10519000BF91AF919F918F917F916F915F914F914F
:1051A0003F912F910F900BBE0F900FBE0F901F904D
:1051B00018951F920F920FB60F9211240BB60F92F3
:1051C0002F933F934F935F936F937F938F939F930F
:1051D000AF93BF93EF93FF93E0919205F091930506
:1051E0001995FF91EF91BF91AF919F918F917F9111
:1051F0006F915F914F913F912F910F900BBE0F9048
:105200000FBE0F901F9018951F920F920FB60F921E
:1052100011240BB60F922F933F934F935F936F938D
:105220007F938F939F93AF93BF93EF93FF93E091FF
:105230009405F09195051995FF91EF91BF91AF916C
:105240009F918F917F916F915F914F913F912F919E
:105250000F900BBE0F900FBE0F901F9018951F92CE
:105260000F920FB60F9211240BB60F922F933F930C
:105270004F935F936F937F938F939F93AF93BF935E
:10528000EF93FF93E0919605F09197051995FF91A3
:10529000EF91BF91AF919F918F917F916F915F91AE
:1052A0004F913F912F910F900BBE0F900FBE0F901B
:1052B0001F9018951F920F920FB60F9211240BB6E4
:1052C0000F922F933F934F935F936F937F938F939F
:1052D0009F93AF93BF93EF93FF93E0918C05F09171
:1052E0008D051995FF91EF91BF91AF919F918F918E
:1052F0007F916F915F914F913F912F910F900BBED6
:105300000F900FBE0F901F9018951F920F920FB61F
:105310000F9211240BB60F922F933F934F935F93ED
:105320006F937F938F939F93AF93BF93EF93FF936D
:10533000E0918E05F0918F051995FF91EF91BF9146
:10534000AF919F918F917F916F915F914F913F911D
:105350002F910F900BBE0F900FBE0F901F901895BE
:105360001F920F920FB60F9211240BB60F922F932C
:105370003F934F935F936F937F938F939F93AF93DD
:10538000BF93EF93FF93E0919805F09199051995DC
:10539000FF91EF91BF91AF919F918F917F916F910D
:1053A0005F914F913F912F910F900BBE0F900FBEC9
:1053B0000F901F9018951F920F920FB60F92112405
:1053C0000BB60F922F933F934F935F936F937F93FF
:1053D0008F939F93AF93BF93EF93FF93E0919A05C1
:1053E000F0919B051995FF91EF91BF91AF919F911E
:1053F0008F917F916F915F914F913F912F910F907E
:105400000BBE0F900FBE0F901F9018951F920F921A
:105410000FB60F9211242F933F938F939F93AF93C7
:10542000BF938091340990913509A0913609B091CC
:1054300037093091330923E0230F2D3720F40196EB
:10544000A11DB11D05C026E8230F0296A11DB11DA7
:10545000209333098093340990933509A09336093A
:10546000B09337098091380990913909A0913A0990
:10547000B0913B090196A11DB11D8093380990930D
:105480003909A0933A09B0933B09BF91AF919F911D
:105490008F913F912F910F900FBE0F901F901895F5
:1054A0002FB7F894609134097091350980913609CD
:1054B000909137092FBF08953FB7F894809138092C
:1054C00090913909A0913A09B0913B0926B5A89B62
:1054D00005C02F3F19F00196A11DB11D3FBFBA2F86
:1054E000A92F982F8827820F911DA11DB11DBC01E6
:1054F000CD0142E0660F771F881F991F4A95D1F7AB
:1055000008958F929F92AF92BF92CF92DF92EF92C7
:10551000FF926B017C01D0DF4B015C01C114D1040F
:10552000E104F104F1F0A4DDC7DFDC01CB0188194F
:105530009909AA09BB09883E9340A105B10570F3FA
:1055400021E0C21AD108E108F10888EE880E83E054
:10555000981EA11CB11CC114D104E104F10421F76F
:10556000DDCFFF90EF90DF90CF90BF90AF909F90F6
:105570008F900895789484B5826084BD84B58160ED
:1055800084BD85B5826085BD85B5816085BDEEE64B
:10559000F0E0808181608083E1E8F0E0108280812A
:1055A00082608083808181608083E0E8F0E0808198
:1055B00081608083E1EBF0E0808184608083E0EBB8
:1055C000F0E0808181608083E1E9F0E080818260A9
:1055D0008083808181608083E0E9F0E08081816068
:1055E0008083E1EAF0E08081826080838081816055
:1055F0008083E0EAF0E0808181608083E1E2F1E095
:10560000808182608083808181608083E0E2F1E03C
:10561000808181608083EAE7F0E08081846080831C
:1056200080818260808380818160808380818068C6
:1056300080831092C10008951F93CF93DF93182F9A
:10564000EB0161E016D1209711F460E004C0CF3F78
:10565000D10531F461E0812FDF91CF911F9145C1D8
:10566000E12FF0E0E65AFE4FE4918E2F90E0FC012E
:105670003197E231F10508F09DC08827E758FF4FC8
:105680008F4F0C94814084B5806884BDC7BD97C09E
:1056900084B5806284BDC8BD92C08091800080685E
:1056A00080938000D0938900C093880088C0809147
:1056B0008000806280938000D0938B00C0938A002A
:1056C0007EC080918000886080938000D0938D00A0
:1056D000C0938C0074C08091B00080688093B0004B
:1056E000C093B3006CC08091B00080628093B00022
:1056F000C093B40064C08091900080688093900053
:10570000D0939900C09398005AC080919000806215
:1057100080939000D0939B00C0939A0050C08091DA
:105720009000886080939000D0939D00C0939C006F
:1057300046C08091A00080688093A0008091A00066
:105740008F7B8093A000D093A900C093A80037C09E
:105750008091A00080628093A000D093AB00C093A2
:10576000AA002DC08091A00088608093A000D093F3
:10577000AD00C093AC0023C080912001806880936D
:105780002001D0932901C093280119C080912001E4
:10579000806280932001D0932B01C0932A010FC017
:1057A00080912001886080932001D0932D01C093C7
:1057B0002C0105C0C038D1050CF04CCF46CFDF918D
:1057C000CF911F91089590E0FC013197E231F105EE
:1057D00008F04EC08827E557FF4F8F4F0C9481404B
:1057E000809180008F7703C0809180008F7D8093AF
:1057F0008000089580918000877FF9CF84B58F77EE
:1058000002C084B58F7D84BD08958091B0008F77EC
:1058100003C08091B0008F7D8093B0000895809187
:1058200090008F7707C0809190008F7D03C080919A
:105830009000877F8093900008958091A0008F77DB
:1058400007C08091A0008F7D03C08091A000877F5A
:105850008093A0000895809120018F7707C08091E8
:1058600020018F7D03C080912001877F80932001DC
:105870000895CF93DF9390E0FC01E056FE4F249112
:10588000FC01EA51FE4F8491882361F190E0880F7A
:10589000991FFC01EA5BFD4FC591D491FC01E45DC9
:1058A000FD4FA591B491611109C09FB7F89488810B
:1058B000209582238883EC912E230BC0623061F403
:1058C0009FB7F8948881322F309583238883EC9199
:1058D0002E2B2C939FBF06C08FB7F894E8812E2BF8
:1058E00028838FBFDF91CF9108951F93CF93DF93CC
:1058F000282F30E0F901E65AFE4F8491F901E05675
:10590000FE4FD491F901EA51FE4FC491CC23B9F076
:10591000162F811158DFEC2FF0E0EE0FFF1FE45D32
:10592000FD4FA591B4919FB7F894111104C08C91CB
:10593000D095D82302C0EC91DE2BDC939FBFDF9182
:10594000CF911F910895FC01918D228D892F90E0B8
:10595000805C9F4F821B91098F7399270895FC01EA
:10596000918D828D981731F0828DE80FF11D858D14
:1059700090E008958FEF9FEF0895FC01918D828D47
:10598000981761F0828DDF01A80FB11D5D968C9193
:10599000928D9F5F9F73928F90E008958FEF9FEF9E
:1059A0000895FC01538D448D252F30E0842F90E025
:1059B000821B930B541710F0CF960895019708950A
:1059C000FC01848DDF01A80FB11DA35ABF4F2C919C
:1059D000848D90E001968F739927848FA689B7896B
:1059E0002C93A089B1898C91837080648C93938D62
:1059F000848D981306C00288F389E02D80818F7D05
:105A000080830895EF92FF920F931F93CF93DF93BC
:105A1000EC0181E0888F9B8D8C8D981305C0E889FF
:105A2000F989808185FD25C0F62E0B8D10E00F5F72
:105A30001F4F0F731127E02E8C8DE8120BC00FB68D
:105A400007FCFACFE889F989808185FFF5CFCE017F
:105A5000B7DFF2CF8B8DFE01E80FF11DE35AFF4F48
:105A6000F0829FB7F8940B8FEA89FB89808180626E
:105A70000AC09FB7F894EE89FF896083E889F989A5
:105A800080818370806480839FBF81E090E0DF919C
:105A9000CF911F910F91FF90EF900895CF93DF93D7
:105AA000EC01888D8823C1F0EA89FB89808185FD1E
:105AB00005C0A889B9898C9186FD0EC00FB607FC78
:105AC000F5CF808185FFF2CFA889B9898C9185FFB8
:105AD000EDCFCE0175DFE8CFDF91CF910895CF9262
