:1000000026C100000C9453200C947E200C94A9204F
:100010000C94D4200C94FF200C942A210C9455218C
:100020000C9480210C94FC0C0C94A00D0C94DD0D10
:100030003FC100000C94B3293BC1000039C100004E
:1000400037C1000035C1000033C1000031C10000DC
:100050002FC100002DC100002BC100000C94AB216A
:1000600027C100000C941B250C94512521C10000D0
:100070001FC100001DC100001BC1000019C100000C
:1000800017C1000015C1000013C1000011C100001C
:100090000C94A7250C94DD250BC100000C94AC0832
:1000A00007C1000005C1000003C1000001C100003C
:1000B000FFC00000FDC00000FBC00000F9C0000050
:1000C000F7C00000F5C000000C943C2A0C943326C5
:1000D0000C946926EDC000000C94BF260C94F52604
:1000E000E7C000002D20F71FFF1F0B20182039202C
:1000F00046208A228F2294229E22A8222123B222E5
:10010000BA22C222CC22D622E022EF22F9222123D7
:1001100003230D2317234523482337233B23412360
:100120007F234C23502356235A235E2364236823C2
:100130006C237F23722376237A2300000A0B0209A3
:100140000C0D0E0807030401000000000000000071
:10015000000000000000000000000000000000009F
:10016000000000000000121110000000000000005C
:10017000000000000000000000000000000000007F
:1001800001021020200808102040102040800201A9
:10019000020108040201010204081020408080408E
:1001A000201008040201800402018040201008048D
:1001B000020108040201010204081020408001022B
:1001C00004081020408005050505070508080808F3
:1001D000020202020A0A08080404040401010101DF
:1001E00001010101030303030303030304070707DA
:1001F0000C0C0C0C0C0C0C0C02020202060606067F
:10020000060606060B0B0B0B0B0B0B0B000022005C
:10021000250028002B002E003100340002010000D0
:10022000050108010B0100002100240027002A001D
:100230002D003000330001010000040107010A0114
:100240000200AB07F60B7A25062692261E271124FC
:100250001FBECFEFD1E2DEBFCDBF00E00CBF14E088
:10026000A0E0B2E0E2EAFBE500E00BBF02C00790CD
:100270000D92A63CB107D9F72AE0A6ECB4E001C084
:100280001D92A33BB207E1F711E0C7E2D1E000E025
:1002900006C021970109802FFE010E94C72DC1329F
:1002A000D10780E00807A9F70E94AC2A0C94CF2D53
:1002B000A7CE6F927F928F929F92AF92BF92CF9272
:1002C000DF92EF92FF920F931F93CF93DF93CDB7FF
:1002D000DEB7B62ED72E3A01F02EB40130E028302A
:1002E000310511F424E030E0CC2049F091E0C9164A
:1002F00049F0E2E0CE1649F002E010E008C00AE062
:1003000010E005C000E110E002C008E010E081301C
:1003100009F412C138F0823009F43FC2833009F485
:100320006DC3ACC4F1100CC0269DA001279D500DDB
:10033000369D500D11246B2D7D2D81EF95E06BC303
:1003400081EF95E00E948A27E1101BC08B2C9D2C29
:10035000680C791C8614970409F490C481E0A80104
:10036000F4016081F81208C081EF95E00E94E8274F
:10037000FFEF8F1A9F0AEECF81EF95E00E94EE27E4
:10038000F7CFF1E0EF1221C08B2C9D2C611471048A
:1003900009F474C4E1E0FE120FC0F40160817181C0
:1003A000A80181EF95E00E94FE2781E0681A71089C
:1003B00092E0890E911CEACFF40160817181A8015D
:1003C00081EF95E00E940328F0CFF2E0EF1225C004
:1003D0008B2C9D2C6114710409F450C4E1E0FE12D1
:1003E00011C0F4014081518162817381980181EFD4
:1003F00095E00E94DC2781E0681A710894E0890E7C
:10040000911CE8CFF4014081518162817381980190
:1004100081EF95E00E941328EECFF3E0EF121EC0AB
:100420008B2C9D2C680C791C8614970409F426C427
:1004300091E0F4016081062E000C770BA801F912FF
:1004400008C081EF95E00E9468288FEF881A980A0B
:10045000EBCF81EF95E00E946E28F7CFF4E0EF122A
:1004600021C08B2C9D2C6114710409F407C4E1E0B8
:10047000FE120FC0F40160817181A80181EF95E047
:100480000E94682881E0681A710892E0890E911C28
:10049000EACFF40160817181A80181EF95E00E94AB
:1004A0006E28F0CFF5E0EF1225C08B2C9D2C611447
:1004B000710409F4E3C3E1E0FE1211C0F4014081CC
:1004C000518162817381980181EF95E00E94232818
:1004D00081E0681A710894E0890E911CE8CFF4015C
:1004E0004081518162817381980181EF95E00E9482
:1004F0007E28EECFF6E0EF12C1C30B2D1D2DB12CDF
:100500006114710409F4BAC391E0F801408151818A
:10051000628173819501F9120AC081EF95E00E9412
:10052000552981E0681A71080C5F1F4FE9CF81EFF0
:1005300095E00E945629F5CFF1100CC0269DA00130
:10054000279D500D369D500D11246B2D7D2D8EE86D
:1005500096E061C28EE896E00E948A27E1101BC0F7
:100560008B2C9D2C680C791C8614970409F486C387
:1005700081E0A801F4016081F81208C08EE896E0DD
:100580000E94E827FFEF8F1A9F0AEECF8EE896E0D1
:100590000E94EE27F7CFF1E0EF1221C08B2C9D2CAB
:1005A0006114710409F46AC3E1E0FE120FC0F401A2
:1005B00060817181A8018EE896E00E94FE2781E0AB
:1005C000681A710892E0890E911CEACFF4016081EB
:1005D0007181A8018EE896E00E940328F0CFF2E036
:1005E000EF1225C08B2C9D2C6114710409F446C3B5
:1005F000E1E0FE1211C0F4014081518162817381FA
:1006000098018EE896E00E94DC2781E0681A710864
:1006100094E0890E911CE8CFF40140815181628100
:10062000738198018EE896E00E941328EECFF3E0E4
:10063000EF121EC08B2C9D2C680C791C861497041D
:1006400009F41CC391E0F4016081062E000C770BC5
:10065000A801F91208C08EE896E00E9468288FEF82
:10066000881A980AEBCF8EE896E00E946E28F7CFA2
:10067000F4E0EF1221C08B2C9D2C6114710409F45D
:10068000FDC2E1E0FE120FC0F40160817181A8019A
:100690008EE896E00E94682881E0681A710892E06E
:1006A000890E911CEACFF40160817181A8018EE866
:1006B00096E00E946E28F0CFF5E0EF1225C08B2C5B
:1006C0009D2C6114710409F4D9C2E1E0FE1211C03D
:1006D000F401408151816281738198018EE896E036
:1006E0000E94232881E0681A710894E0890E911C09
:1006F000E8CFF401408151816281738198018EE8D5
:1007000096E00E947E28EECFF6E0EF12B7C28B2C67
:100710009D2CB12C6114710409F4B0C2E1E0FE1209
:1007200021C0F401C11010C04081518162817381E8
:1007300095018EE896E00E94552981E0681A7108BB
:1007400094E0890E911CE6CF608171818281938152
:100750000E94B62BAB01BC0198018EE896E00E9486
:100760002328EBCFF401C1100AC04081518162817E
:10077000738195018EE896E00E945629DECF608154
:100780007181828193810E94B62BAB01BC019801DB
:100790008EE896E00E947E28D0CFF1100CC0269DF6
:1007A000A001279D500D369D500D11246B2D7D2DE0
:1007B0008BE297E030C18BE297E00E948A27E1103C
:1007C0001BC08B2C9D2C680C791C8614970409F493
:1007D00055C281E0A801F4016081F81208C08BE2E3
:1007E00097E00E94E827FFEF8F1A9F0AEECF8BE277
:1007F00097E00E94EE27F7CFF1E0EF1221C08B2C9B
:100800009D2C6114710409F439C2E1E0FE120FC09D
:10081000F40160817181A8018BE297E00E94FE27BC
:1008200081E0681A710892E0890E911CEACFF40108
:1008300060817181A8018BE297E00E940328F0CFCC
:10084000F2E0EF1225C08B2C9D2C6114710409F489
:1008500015C2E1E0FE1211C0F401408151816281B4
:10086000738198018BE297E00E94DC2781E0681A8F
:10087000710894E0890E911CE8CFF4014081518108
:100880006281738198018BE297E00E941328EECF7A
:10089000F3E0EF121EC08B2C9D2C680C791C861483
:1008A000970409F4EBC191E0F4016081062E000C7D
:1008B000770BA801F91208C08BE297E00E94682824
:1008C0008FEF881A980AEBCF8BE297E00E946E2890
:1008D000F7CFF4E0EF1221C08B2C9D2C6114710432
:1008E00009F4CCC1E1E0FE120FC0F4016081718116
:1008F000A8018BE297E00E94682881E0681A7108DD
:1009000092E0890E911CEACFF40160817181A80107
:100910008BE297E00E946E28F0CFF5E0EF1225C041
:100920008B2C9D2C6114710409F4A8C1E1E0FE1226
:1009300011C0F401408151816281738198018BE281
:1009400097E00E94232881E0681A710894E0890EDC
:10095000911CE8CFF401408151816281738198013B
:100960008BE297E00E947E28EECFF6E0EF1286C180
:100970008B2C9D2CB12C6114710409F47FC1E1E032
:10098000FE1221C0F401C11010C04081518162816A
:10099000738195018BE297E00E94552981E0681AE6
:1009A000710894E0890E911CE6CF6081718182818B
:1009B00093810E94B62BAB01BC0198018BE297E0BA
:1009C0000E942328EBCFF401C1100AC0408151815D
:1009D0006281738195018BE297E00E945629DECFF8
:1009E00060817181828193810E94B62BAB01BC0131
:1009F00098018BE297E00E947E28D0CFF1101BC0B7
:100A0000269DA001279D500D369D500D11246B2D64
:100A10007D2D88EC97E0DF91CF911F910F91FF9092
:100A2000EF90DF90CF90BF90AF909F908F907F908E
:100A30006F900C944B2788EC97E00E948A27E11076
:100A40001BC08B2C9D2C680C791C8614970409F410
:100A500015C181E0A801F4016081F81208C088EC9A
:100A600097E00E94E827FFEF8F1A9F0AEECF88ECED
:100A700097E00E94EE27F7CFF1E0EF1221C08B2C18
:100A80009D2C6114710409F4F9C0E1E0FE120FC05D
:100A9000F40160817181A80188EC97E00E94FE2733
:100AA00081E0681A710892E0890E911CEACFF40186
:100AB00060817181A80188EC97E00E940328F0CF43
:100AC000F2E0EF1225C08B2C9D2C6114710409F407
:100AD000D5C0E1E0FE1211C0F40140815181628174
:100AE0007381980188EC97E00E94DC2781E0681A06
:100AF000710894E0890E911CE8CFF4014081518186
:100B000062817381980188EC97E00E941328EECFF0
:100B1000F3E0EF121EC08B2C9D2C680C791C861400
:100B2000970409F4ABC091E0F4016081062E000C3B
:100B3000770BA801F91208C088EC97E00E9468289A
:100B40008FEF881A980AEBCF88EC97E00E946E2806
:100B5000F7CFF4E0EF1221C08B2C9D2C61147104AF
:100B600009F48CC0E1E0FE120FC0F40160817181D4
:100B7000A80188EC97E00E94682881E0681A710853
:100B800092E0890E911CEACFF40160817181A80185
:100B900088EC97E00E946E28F0CFF5E0EF1225C0B8
:100BA0008B2C9D2C6114710409F468C0E1E0FE12E5
:100BB00011C0F4014081518162817381980188ECF8
:100BC00097E00E94232881E0681A710894E0890E5A
:100BD000911CE8CFF40140815181628173819801B9
:100BE00088EC97E00E947E28EECFF6E0EF1246C038
:100BF0008B2C9D2CB12C6114710409F43FC0E1E0F1
:100C0000FE1221C0F401C11010C0408151816281E7
:100C10007381950188EC97E00E94552981E0681A5C
:100C2000710894E0890E911CE6CF60817181828108
:100C300093810E94B62BAB01BC01980188EC97E030
:100C40000E942328EBCFF401C1100AC040815181DA
:100C500062817381950188EC97E00E945629DECF6E
:100C600060817181828193810E94B62BAB01BC01AE
:100C7000980188EC97E00E947E28D0CFDF91CF9139
:100C80001F910F91FF90EF90DF90CF90BF90AF90AA
:100C90009F908F907F906F90089580E090E00895EE
:100CA0008091FA0490E02091FB04821B9109089541
:100CB0009091FB048091FA04981750F4E92FF0E02A
:100CC000E450FB4F208130E09F5F9093FB0402C013
:100CD0002FEF3FEFC9010895E091FB048091FA04E2
:100CE000E81730F4F0E0E450FB4F808190E0089585
:100CF0008FEF9FEF08950895CF93DF93EC01E0917C
:100D0000D204F091D3043097F1F09091FB048091DC
:100D1000FA049817C0F090E0292F30E02617370723
:100D200054F4DE01A20FB31F4C91D901A450BB4F64
:100D30004C939F5FF1CF1092FB046093FA04CB01B8
:100D4000DF91CF911994DF91CF910895E091D40470
:100D5000F091D504309729F01092D8041092D7045E
:100D600019940895CF92DF92EF92FF920F931F9301
:100D7000CF93DF937C01CB018A012091D6042223FB
:100D800089F0EB016B01C40ED51ECC15DD0561F0B9
:100D90006991D701ED91FC910190F081E02DC7019F
:100DA0001995F3CF642F96D1C801DF91CF911F9190
:100DB0000F91FF90EF90DF90CF900895CF93DF9346
:100DC0001F92CDB7DEB769832091D6042223D1F0DC
:100DD0002091D704203240F021E030E0FC01338341
:100DE000228380E090E014C08091D804E82FF0E0E6
:100DF000E752FB4F998190838F5F8093D804809353
:100E0000D70404C061E0CE01019664D181E090E096
:100E10000F90DF91CF910895FC011382128288EE2A
:100E200093E0A0E0B0E084839583A683B7838EE649
:100E300094E09183808308951092FB041092FA0449
:100E40001092D8041092D70489D086EA96E06FD128
:100E50008CE796E067C181E08093D6046093F90443
:100E60001092D8041092D70408950F93062F21E012
:100E70004091D70469ED74E08091F904D5D01092C7
:100E8000D8041092D7041092D6040F9108954F926F
:100E90005F926F927F92AF92BF92CF92EF92FF924A
:100EA0000F931F93CF93DF935C01F62ED42F28016D
:100EB0003901EE2011F1CFDFCE2DC43008F0C3E0B0
:100EC000C150C0F028E0C29FC0011124A3019201CB
:100ED00004C056954795379527958A95D2F7CA014C
:100EE000B901D501ED91FC910190F081E02DC50192
:100EF0001995E6CF60E0C501B8DF4D2FD13208F07B
:100F000040E22C2D6CEF74E08F2D46D01092FB0444
:100F10008093FA04DF91CF911F910F91FF90EF9092
:100F2000CF90BF90AF907F906F905F904F9008955B
:100F3000CF92EF920F931F93C22EE12C00E010E0AE
:100F40009801A5DF1F910F91EF90CF90089521E0B8
:100F5000EFCF61E08ACF86EC94E05ECF10928905F6
:100F600081E0809387051092860561E084E10E940C
:100F7000BC2361E085E10E94BC23E9EBF0E08081C5
:100F80008E7F808380818D7F808388E48093B8000A
:100F900085E48093BC000895413208F043C09091ED
:100FA00089059111FCCF91E09093890520938705E5
:100FB0002FEF20931C0510926105240F20936005EC
:100FC0009093880590918805880F892B80938805D8
:100FD00080918605813061F41092860580918805A4
:100FE0008093BB008091BC0083FDF8CF85EC01C0ED
:100FF00085EE8093BC00809189058130E1F380917A
:101000006105841710F440916105A2E6B5E0962FC2
:10101000FB018E2F891B841718F48D918193F9CFD2
:10102000842F089580E008950F93413208F04AC05C
:10103000909189059111FCCF32E03093890500939E
:1010400087053FEF30931C051092610540936005C2
:10105000562FA2E6B5E0FB013E2F351B341718F4DE
:1010600031913D93F9CF1092880530918805880F12
:10107000832B8093880580918605813061F41092DE
:101080008605809188058093BB008091BC0083FD1C
:10109000F8CF85EC01C085EE8093BC00222321F0BF
:1010A000809189058230D1F380911C058F3F79F0C2
:1010B00080911C05803241F080911C05803331F015
:1010C00094E005C091E003C092E001C093E0892F55
:1010D0000F91089540913E05262F30E0240F311DD9
:1010E00021323105DCF4209189052430C9F4FC015A
:1010F00080E090E0861758F430913E052191DC01A4
:10110000A05CBA4FA30FB11D2C930196F3CF809131
:101110003E05680F60933E0580E0089581E00895E4
:1011200082E00895909383058093820508959093BB
:10113000850580938405089585ED8093BC0080919A
:10114000BC0084FDFCCF10928905089585EC809346
:10115000BC001092890508951F920F920FB60F924E
:1011600011240BB60F922F933F934F935F936F937E
:101170007F938F939F93AF93BF93EF93FF93809150
:10118000B900887F803609F49DC070F5883209F473
:101190005CC090F4803109F455C038F4882309F418
:1011A000F3C0883009F44EC0F2C0883109F44DC054
:1011B000803209F45EC0EBC0803409F469C050F499
:1011C000803309F456C0883309F0E1C080931C05D0
:1011D000BDDFDDC0803509F44FC0883509F45DC03E
:1011E000883409F0D4C0D2C0883909F4C3C0A8F447
:1011F000883709F467C038F4883609F463C080374B
:1012000009F460C0C4C0883809F4B4C0803909F456
:101210005FC0803809F0BBC05BC0803B09F482C06E
:1012200038F4803A09F466C0883A09F47BC0AFC04C
:10123000803C09F4A3C0883C09F4A0C0883B09F4B1
:1012400086C0A5C08091880510C0909161058091ED
:101250006005981770F5E091610581E08E0F80932D
:101260006105F0E0EE59FA4F80818093BB0085EC78
:1012700082C080931C058AC0E091610581E08E0FD9
:10128000809361058091BB00F0E0EE59FA4F8083B6
:1012900090916105809160056AC0E091610581E0EF
:1012A0008E0F809361058091BB00F0E0EE59FA4FFC
:1012B000808380918705811169C081E080938605D4
:1012C00084EA5DC083E08093890510921D05CFCF2D
:1012D00080911D05803208F04DC0E0911D0581E030
:1012E0008E0F80931D058091BB00F0E0E25EFA4F07
:1012F0008083BDCF2BDF80911D05803230F4E091DB
:101300001D05F0E0E25EFA4F108260911D0570E06D
:10131000E0918205F09183058EE195E01995109298
:101320001D0535C084E08093890510923F05109219
:101330003E05E0918405F0918505199580913E0563
:10134000811105C081E080933E0510924005E09137
:101350003F0581E08E0F80933F05F0E0E05CFA4F9F
:1013600080818093BB0090913F0580913E05981746
:1013700008F47DCF85E88093BC0009C085EC80939C
:10138000BC001092890503C010921C05D5DEFF91A8
:10139000EF91BF91AF919F918F917F916F915F91ED
:1013A0004F913F912F910F900BBE0F900FBE0F905A
:1013B0001F901895FF920F931F93CF93DF93C62F23
:1013C000142FF22E032F682F86EC94E044DD6C2F4F
:1013D00086EC94E0F3DCCF2DD02FCE01810F911D50
:1013E0008C01C017D10729F0699186EC94E0E6DC06
:1013F000F8CF86EC94E0ADDD91E0811190E0892F8B
:10140000DF91CF911F910F91FF900895CF93DF93BC
:101410001F92CDB7DEB749839E012F5F3F4F41E05A
:10142000C9DF0F90DF91CF9108953F924F925F9265
:101430006F927F928F929F92AF92BF92CF92DF92E4
:10144000EF92FF920F931F93CF93DF9300D000D0C2
:10145000CDB7DEB7D82EC62E4D8379010E94F52177
:101460004B015C01312C1E829D81892F90E09C8371
:101470008B832801612C712CED813E1698F56D2D22
:1014800086EC94E0E8DC6C2D86EC94E097DC86EC4E
:1014900094E05FDD6D2D86EC94E0DDDC4B815C81BA
:1014A000431951094132510514F040E250E06D2DCD
:1014B00086EC94E04CDD86EC94E0F2DB892B09F4B9
:1014C00042C00115110569F10E94F521DC01CB0133
:1014D00088199909AA09BB0984159505A605B705B8
:1014E00000F131C001151105B9F10E94F521DC01AF
:1014F000CB0188199909AA09BB0920E030E08017BF
:101500009107A207B30740F1FD812F2F30E04E81F4
:10151000842F440F990B82179307F4F48FEF8E8377
:101520001BC0F7012E81E20FF11D27FDFA95FA830A
:10153000E98386EC94E0BCDBE981FA818083FE815B
:10154000FF5FFE83B8CF86EC94E003DD8D818132AE
:1015500008F080E2380E90CF8E8126960FB6F89470
:10156000DEBF0FBECDBFDF91CF911F910F91FF90D6
:10157000EF90DF90CF90BF90AF909F908F907F9033
:101580006F905F904F903F9008950F931F93890144
:101590009A0141E04ADF1F910F910895EF92FF9267
:1015A0000F931F93CF93DF931F92CDB7DEB7182F02
:1015B000062FF42EE22E2091000230910102AE019E
:1015C0004F5F5F4FE2DF898141E050E001C0440F8F
:1015D000FA94EAF7EE2011F0482B02C04095482318
:1015E0004983602F812F12DF0F90DF91CF911F91E0
:1015F0000F91FF90EF900895DF92EF92FF920F937B
:101600001F93CF93DF931F92CDB7DEB7182FF62E1F
:10161000E42ED22E2091000230910102AE014F5FE4
:101620005F4FB3DF882331F12E2D30E02D193109C2
:101630002F5F3F4F81E090E002C0880F991FDA943E
:10164000E2F70197022E01C0880F0A94EAF7402FB3
:1016500050E0BA0102C0660F771F2A95E2F7482FC3
:101660004095998149238623482B49836F2D812FEB
:10167000CDDE01C080E00F90DF91CF911F910F91DF
:10168000FF90EF90DF90089528E6FC0120830895F5
:101690000F93062F23E042E06AE1FC018081ACDF7A
:1016A0000F9108950F93062F22E044E06BE1FC01B7
:1016B0008081A2DF0F9108950F93062F22E044E06E
:1016C0006CE1FC01808198DF0F9108950F931F93C7
:1016D000CF93DF93EC0100910002109101029C0175
:1016E0002F5F3F4F42E063E488819FDE89819A81CA
:1016F000982789279827DF91CF911F910F910895FF
:101700000F931F93CF93DF93EC0100910002109190
:1017100001029C012F5F3F4F42E065E4888185DE36
:1017200089819A81982789279827DF91CF911F91E6
:101730000F9108950F931F93CF93DF93EC010091C6
:101740000002109101029C012F5F3F4F42E067E4CD
:1017500088816BDE89819A81982789279827DF9174
:10176000CF911F910F910895262F46E06BE6FC0163
:10177000808114CF0F93062F23E042E06BE6FC013B
:1017800080813ADF0F910895CF93DF93EC0161E000
:10179000F1DF60E0CE0186DF60E0CE018DDF60E04A
:1017A000CE01DF91CF91E0CFCF93C82F86EC94E0AC
:1017B00043DB6C2F8AE895E06BDF8AE895E0CF91F8
:1017C000E3CFCF93DF93EC018AE895E07FDF998345
:1017D00088838AE895E094DF9B838A838AE895E092
:1017E000A9DF9D838C83DF91CF9108958AE895E0EE
:1017F0004BCF9CB1892F807294FF03C081110FC021
:1018000002C0882361F080919D0590919E05A09172
:101810009F05B091A0050196A11DB11D0BC080913F
:101820009D0590919E05A0919F05B091A0050197FF
:10183000A109B10980939D0590939E05A0939F05F2
:10184000B093A005089599B1892F847093FF03C0C8
:10185000882379F002C081110CC08091AB05909172
:10186000AC05A091AD05B091AE050196A11DB11DCD
:101870000BC08091AB059091AC05A091AD05B091E6
:10188000AE050197A109B1098093AB059093AC0512
:10189000A093AD05B093AE0508952CB126FB882723
:1018A00080F990E027FF03C0019779F402C0892BEB
:1018B00061F48091B9059091BA05A091BB05B091F2
:1018C000BC050196A11DB11D0BC08091B905909179
:1018D000BA05A091BB05B091BC050197A109B1095A
:1018E0008093B9059093BA05A093BB05B093BC054E
:1018F00008959CB1892F807195FF03C0882379F0EA
:1019000002C081110CC080919D0590919E05A0910F
:101910009F05B091A0050196A11DB11D0BC080913E
:101920009D0590919E05A0919F05B091A0050197FE
:10193000A109B10980939D0590939E05A0939F05F1
:10194000B093A005089599B1892F887092FF03C0C4
:1019500081110FC002C0882361F08091AB05909186
:10196000AC05A091AD05B091AE050196A11DB11DCC
:101970000BC08091AB059091AC05A091AD05B091E5
:10198000AE050197A109B1098093AB059093AC0511
:10199000A093AD05B093AE0508952CB1822F807849
:1019A00090E0880F892F881F990B26FF03C0892B91
:1019B00079F402C0019761F48091B9059091BA055C
:1019C000A091BB05B091BC050196A11DB11D0BC036
:1019D0008091B9059091BA05A091BB05B091BC0565
:1019E0000197A109B1098093B9059093BA05A09315
:1019F000BB05B093BC0508951F920F920FB60F92CE
:101A000011242F933F934F935F938F939F93AF93A3
:101A1000BF9383B121E030E0982F907285FD02C022
:101A200020E030E080744091DD055091DE05241700
:101A3000350749F521E030E0811102C020E030E0B7
:101A40003093DC052093DB05882319F091110FC03A
:101A500002C0992361F08091D5059091D605A0919F
:101A6000D705B091D8050196A11DB11D41C0809147
:101A7000D5059091D605A091D705B091D8050197CD
:101A8000A109B10916C03093DE052093DD05992325
:101A900019F0882311F102C081111FC08091D50572
:101AA0009091D605A091D705B091D8050196A11DBA
:101AB000B11D8093D5059093D605A093D705B0931B
:101AC000D8058091D5059091D605A091D705B09104
:101AD000D8050197A109B1091EC08091D505909143
:101AE000D605A091D705B091D8050197A109B109F4
:101AF0008093D5059093D605A093D705B093D805CC
:101B00008091D5059091D605A091D705B091D805C3
:101B10000196A11DB11D8093D5059093D605A09384
:101B2000D705B093D805BF91AF919F918F915F91E9
:101B30004F913F912F910F900FBE0F901F901895CE
:101B40001F920F920FB60F9211248F939F93AF9312
:101B5000BF938091060181709091030190FF03C0B3
:101B600081110FC002C0882361F08091C705909158
:101B7000C805A091C905B091CA050196A11DB11D66
:101B80000BC08091C7059091C805A091C905B0917F
:101B9000CA050197A109B1098093C7059093C805AB
:101BA000A093C905B093CA05BF91AF919F918F9142
:101BB0000F900FBE0F901F9018951F920F920FB6A7
:101BC0000F9211248F939F93AF93BF938091030142
:101BD00081709091060190FF03C0882379F002C0C4
:101BE00081110CC08091C7059091C805A091C905CD
:101BF000B091CA050196A11DB11D0BC08091C7050A
:101C00009091C805A091C905B091CA050197A10995
:101C1000B1098093C7059093C805A093C905B093F7
:101C2000CA05BF91AF919F918F910F900FBE0F90FA
:101C30001F9018950F931F93CF93DF938C018EE025
:101C4000809FE001819FD00D1124C756DA4F798320
:101C500068835B834A838881998160E00E94802346
:101C60008A819B8160E00E9480238881998161E064
:101C70000E94BC238A819B8161E00E94BC230230C8
:101C8000110509F47FC044F401151105E9F0013094
:101C9000110509F448C0BEC00330110509F4A6C0FF
:101CA0000430110509F0B6C080916800816080930E
:101CB000680080916B00806280936B0080916B0064
:101CC000806480936B00A6C08091990590919A05DD
:101CD00002978431910540F4FC01E458FB4F808168
:101CE000082E000C990B02C08FEF9FEF41E050E0EF
:101CF00069EF7BE00E94DF1F80919B0590919C051E
:101D000002978431910540F4FC01E458FB4F808137
:101D1000082E000C990B02C08FEF9FEF41E050E0BE
:101D200069E77CE05DC08091A7059091A8050297C6
:101D30008431910540F4FC01E458FB4F8081082E6A
:101D4000000C990B02C08FEF9FEF41E050E063EA77
:101D50007CE00E94DF1F8091A9059091AA0502975F
:101D60008431910540F4FC01E458FB4F8081082E3A
:101D7000000C990B02C08FEF9FEF41E050E063E24F
:101D80007CE02EC08091B5059091B6050297843114
:101D9000910540F4FC01E458FB4F8081082E000CB3
:101DA000990B02C08FEF9FEF41E050E06DEC7CE0BB
:101DB0000E94DF1F8091B7059091B805029784318A
:101DC000910540F4FC01E458FB4F8081082E000C83
:101DD000990B02C08FEF9FEF41E050E06DE47CE093
:101DE000DF91CF911F910F910C94DF1F80916800BC
:101DF00084608093680080916800826080936800AE
:101E000080916D00816080936D0080916C00826094
:101E100080936C00DF91CF911F910F9108952EE078
:101E2000269FF001279FF00D1124E756FA4F648199
:101E300075818681978108950895CF93282F8823EF
:101E400051F0CB01BA01C22F0E94B62B8FEF8C0F3D
:101E5000CF910C946322CF9108950F931F938B0120
:101E60009C0183E036952795179507958A95D1F7BC
:101E7000F801E152FA4F2081422F50E0E62FE7703F
:101E800021E030E002C0220F331FEA95E2F724235D
:101E90003523232B19F0CB01019602C080E090E09E
:101EA0001F910F9108950F931F938B019C0183E065
:101EB00036952795179507958A95D1F7677081E034
:101EC00090E001C0880F6A95EAF7F801E152FA4FF5
:101ED000452B21F480959081892302C09081892B24
:101EE00080831F910F910895CF92DF92EF92FF921E
:101EF000CF93DF936B017C0161E08C2D0E948023E6
:101F0000E6012196AE01C701B601CDDFCE01DF911A
:101F1000CF91FF90EF90DF90CF900895882341F00C
:101F20006FEF680F70E080E090E040E050E0BBCFE2
:101F30000895662319F0613009F062E00C94802363
:101F4000662311F061E001C060E00C94BC23CF93E4
:101F5000DF93EC0189819A81AB81BC810197A10556
:101F6000B105C1F48D818823A9F06A857B858C85B4
:101F70009D8573DF9987888740E050E0BA015DDF77
:101F80006A857B858C859D8568DF99878887DF9149
:101F9000CF91C4CFDF91CF9108952F923F924F926E
:101FA0005F926F927F928F929F92AF92BF92CF92E9
:101FB000DF92EF92FF920F931F93CF93DF93CDB7F2
:101FC000DEB7AE970FB6F894DEBF0FBECDBF209040
:101FD0006D0A30906E0A00916B0A10916C0AE091C4
:101FE000FE08F091FF08C080D180E280F380D80124
:101FF0002D913D914D915C91C701B6010E944A2BF4
:1020000018160CF052C0F801248935894689578981
:10201000C701B6010E943A2D87FF4AC02091990A54
:1020200030919A0A3A8329835901AA0CBB1CAA0C45
:10203000BB1C48018A0C9B1CD4012D913D914D91F4
:102040005C91C701B6010E944A2B87FD06C0B4E02F
:10205000AB0EB11CA00EB11E16C0F4E08F1A910891
:10206000D40114962D913D914D915C911797C70124
:10207000B6010E944A2B87FF1FC0E981FA81319780
:10208000FA83E983EACFD5012D913D914D915D9180
:102090005D01C701B6010E943A2D87FD0DC0E9819F
:1020A000FA813196FA83E983EECF1A82198204C04D
:1020B000E4E0F0E0FA83E98329813A8130939A0AD7
:1020C0002093990A220F331F220F331F3E832D8343
:1020D000F901E00FF11F40805180628073802C5F16
:1020E0003F4F3A832983F901E00FF11F80809180EF
:1020F000A280B380A5019401C301B2010E944A2BC2
:1021000081111FC0A3019201C701B6010E944A2B91
:1021100087FF06C08D819E81820D931DFC0104C046
:10212000E981FA81E20DF31D80819181A281B38161
:102130008093430990934409A0934509B0934609BD
:1021400063C0ED81FE81E20DF31D2081298711819D
:10215000028133813D83E981FA81E20DF31D8081A3
:102160009181A281B38189839A83AB83BC839C01D3
:10217000AD016985712F802F9D810E944A2B882394
:10218000A9F1A7019601C501B4010E94E52A6B01DE
:102190007C01A3019201C501B4010E94E52A9B01C3
:1021A000AC01C701B6010E944E2B6B017C019B0163
:1021B000AC0160E070E080E89FE30E94E52A29819D
:1021C0003A814B815C810E943E2D4B015C01298547
:1021D000312F402F5D81C701B6010E943E2D9B012A
:1021E000AC01C501B4010E94E62A04C06985712FC3
:1021F000802F9D818B019C0100934309109344091A
:1022000020934509309346092091430930914409B0
:1022100040914509509146096091660370916703AA
:1022200080916803909169030E943E2D6093550947
:1022300070935609809357099093580961E070E0B4
:1022400080E090E0ECDD60937509709376098093EF
:102250007709909378090E94E92B2091920330919D
:10226000930340919403509195030E943E2D209139
:102270006E0330916F0340917003509171030E947F
:102280003E2D2B013C016093590970935A098093AC
:102290005B0990935C0920919603309197034091DC
:1022A0009803509199030E943E2D6D8F7E8F8F8FE2
:1022B00098A38091750A9091760AA091770AB091BF
:1022C000780A8D839E83AF83B8872091A2033091D3
:1022D000A3034091A4035091A503BC01CD010E942A
:1022E0003E2D69A37AA38BA39CA320917D0A3091F4
:1022F0007E0A40917F0A5091800A6091AA037091F2
:10230000AB038091AC039091AD030E943E2D20E081
:1023100030E0A9010E94E62A20E030E0A9010E94F5
:10232000E62A20E030E0A9010E94E62A6D877E8738
:102330008F87988B60935D0970935E0980935F0926
:10234000909360092091810A3091820A4091830A1A
:102350005091840A6091C6037091C7038091C803AD
:102360009091C9030E943E2D20E030E0A9010E9417
:10237000E62A20E030E0A9010E94E62A20E030E0D1
:10238000A9010E94E62A6D8B7E8B8F8B988F2091FE
:10239000850A3091860A4091870A5091880A609197
:1023A000E2037091E3038091E4039091E5030E94BE
:1023B0003E2D20E030E0A9010E94E62A20E030E036
:1023C000A9010E94E62A69837A838B839C832091EA
:1023D000890A30918A0A40918B0A50918C0A609147
:1023E000FE037091FF0380910004909101040E940C
:1023F0003E2D20E030E0A9010E94E62A698F7A8F05
:102400008B8F9C8F20918D0A30918E0A40918F0A7C
:102410005091900A60910A0470910B0480910C0411
:1024200090910D040E943E2D20E030E0A9010E9411
:10243000E62A20E030E0A9010E94E62A69877A872F
:102440008B879C872091910A3091920A4091930A40
:102450005091940A60912204709123048091240485
:10246000909125040E943E2D20E030E0A9010E94B9
:10247000E62A20E030E0A9010E94E62A4B015C0137
:102480002091950A3091960A4091970A5091980AA6
:1024900060913A0470913B0480913C0490913D041A
:1024A0000E943E2D6B017C0120911A0330911B0389
:1024B00040911C0350911D03C301B2010E943E2DA7
:1024C00029853A854B855C850E94E62A69877A874B
:1024D0008B879C876093710970937209809373094D
:1024E0009093740920911E0330911F0340912003A3
:1024F00050912103C301B2010E943E2DA501940118
:102500000E94E62A698B7A8B8B8B9C8B209122030D
:10251000309123034091240350912503C301B2015C
:102520000E943E2D4B015C0120E030E0A901C70173
:10253000B6010E94E62A9B01AC01C501B4010E94CC
:10254000E62A6DA37EA38FA398A736E2A32E33E0DD
:10255000B32E08E019E0BAA6A9A694E0A90EB11C12
:10256000A9A5BAA590962D913D914D915C91939717
:1025700069897A898B899C890E943E2D6B017C0137
:10258000E9A5FAA5208931894289538969857A8527
:102590008B859C850E943E2D9B01AC01C701B60135
:1025A0000E94E62A6B017C01A9A5BAA5D0962D91BF
:1025B0003D914D915C91D3976DA17EA18FA198A57E
:1025C0000E943E2D9B01AC01C701B6010E94E62A84
:1025D0006B017C01E9A5FAA52081318142815381FB
:1025E000C301B2010E943E2D9B01AC01C701B6019F
:1025F0000E94E62AD8016D937D938D939D938D0162
:10260000B6E3AB16B3E0BB0609F0A5CF8091570443
:10261000813009F041C04092610950926209609294
:102620006309709264092091710A3091720A409195
:10263000730A5091740A6D8D7E8D8F8D98A10E94C2
:10264000E52A609365097093660980936709909302
:1026500068098D819E81AF81B885809369099093C7
:102660006A09A0936B09B0936C092091790A3091A3
:102670007A0A40917B0A50917C0A69A17AA18BA1C8
:102680009CA10E94E52A60936D0970936E09809366
:102690006F09909370096DC080915604813049F59F
:1026A0008D859E85AF85B889809361099093620975
:1026B000A0936309B09364098D899E89AF89B88D11
:1026C0008093650990936609A0936709B0936809A0
:1026D00089819A81AB81BC818093690990936A0951
:1026E000A0936B09B0936C09898D9A8DAB8DBC8DCD
:1026F00038C08091080990910909A0910A09B09108
:102700000B098093610990936209A0936309B093C8
:10271000640980910C0990910D09A0910E09B09166
:102720000F098093650990936609A0936709B09398
:1027300068098091100990911109A0911209B09136
:1027400013098093690990936A09A0936B09B09368
:102750006C098091140990911509A0911609B09106
:10276000170980936D0990936E09A0936F09B09338
:102770007009C0905509D0905609E0905709F09023
:102780005809209161093091620940916309509183
:102790006409C701B6010E94E62A2091A202309185
:1027A000A3024091A4025091A5020E943E2D4B012C
:1027B0005C0120916509309166094091670950914B
:1027C0006809C701B6010E94E62A2091A60230914D
:1027D000A7024091A8025091A9020E943E2D9B01A0
:1027E000AC01C501B4010E94E62A4B015C012091B5
:1027F000690930916A0940916B0950916C09C701D0
:10280000B6010E94E62A2091AA023091AB024091C3
:10281000AC025091AD020E943E2D9B01AC01C5015E
:10282000B4010E94E62A4B015C0120916D093091B0
:102830006E0940916F0950917009C701B6010E945D
:10284000E62A2091AE023091AF024091B002509141
:10285000B1020E943E2D9B01AC01C501B4010E9452
:10286000E62A6B017C012091430930914409409193
:1028700045095091460960918E0370918F038091B4
:102880009003909191030E943E2D9B01AC01C701E2
:10289000B6010E94E62A6B017C016D817E818F81E9
:1028A00098859F7720E030E040E45FE30E944A2B68
:1028B00087FF05C060E070E080E89FE303C060E050
:1028C00070E0CB01A70196010E943E2D609355094F
:1028D00070935609809357099093580920E030E08F
:1028E00040E251E40E94E62A2DEC3CEC4CE455E435
:1028F0000E943E2D0E94242C60936109709362090E
:1029000080936309909364090E94C41F882349F04F
:102910001092610910926209109263091092640981
:1029200022C0609161097091620980916309909160
:1029300064090E94991F8111EBCF60916109709128
:102940006209809163099091640920E030E040E8D9
:1029500057E40E943E2C6093610970936209809352
:10296000630990936409C0906109D0906209E09076
:102970006309F090640920E030E0A901C701B601C5
:102980000E944A2B87FF09C0C701B60190580E94D8
:10299000BB2B71956195710904C0C701B6010E94F6
:1029A000BB2B7093190960931A0920E030E040E2D4
:1029B00051E46091590970915A0980915B09909195
:1029C0005C090E94E62A2DEC3CEC4CE455E40E94A4
:1029D0003E2D0E94242C60936109709362098093BC
:1029E0006309909364090E94C41F882349F01092E0
:1029F000610910926209109263091092640922C061
:102A000060916109709162098091630990916409F4
:102A10000E94991F8111EBCF609161097091620949
:102A2000809163099091640920E030E040E857E428
:102A30000E943E2C60936109709362098093630940
:102A400090936409C0906109D0906209E090630995
:102A5000F090640920E030E0A901C701B6010E94AE
:102A60004A2B87FF09C0C701B60190580E94BB2BB3
:102A700071956195710904C0C701B6010E94BB2B15
:102A800070931B0960931C0920E030E040E251E4A0
:102A90006091750A7091760A8091770A9091780A10
:102AA0000E94E62A2DEC3CEC4CE455E40E943E2DBD
:102AB0000E94242C609361097093620980936309DA
:102AC000909364090E94C41F882349F01092610901
:102AD00010926209109263091092640922C06091F9
:102AE00061097091620980916309909164090E9463
:102AF000991F8111EBCF60916109709162098091FA
:102B000063099091640920E030E040E857E40E94B6
:102B10003E2C6093610970936209809363099093DE
:102B20006409C0906109D0906209E0906309F09057
:102B3000640920E030E0A901C701B6010E944A2BD8
:102B400087FF09C0C701B60190580E94BB2B719541
:102B50006195710904C0C701B6010E94BB2B709337
:102B60001D0960931E0920E030E040E251E46091CD
:102B70005D0970915E0980915F09909160090E94E2
:102B8000E62A2DEC3CEC4CE455E40E943E2D0E94DC
:102B9000242C609361097093620980936309909378
:102BA00064090E94C41F882349F0109261091092A1
:102BB0006209109263091092640922C06091610950
:102BC0007091620980916309909164090E94991F34
:102BD0008111EBCF60916109709162098091630965
:102BE0009091640920E030E040E857E40E943E2CD8
:102BF00060936109709362098093630990936409FB
:102C0000C0906109D0906209E0906309F090640976
:102C100020E030E0A901C701B6010E944A2B87FFDE
:102C200009C0C701B60190580E94BB2B71956195F0
:102C3000710904C0C701B6010E94BB2B70931F0924
:102C40006093200920E030E040E251E469817A811C
:102C50008B819C810E94E62A2DEC3CEC4CE455E4EF
:102C60000E943E2D0E94242C60936109709362099A
:102C700080936309909364090E94C41F882349F0DC
:102C8000109261091092620910926309109264090E
:102C900022C06091610970916209809163099091ED
:102CA00064090E94991F8111EBCF609161097091B5
:102CB0006209809163099091640920E030E040E866
:102CC00057E40E943E2C60936109709362098093DF
:102CD000630990936409C0906109D0906209E09003
:102CE0006309F090640920E030E0A901C701B60152
:102CF0000E944A2B87FF0AC0C701B60190580E9464
:102D0000BB2B00271127061B170B05C0C701B601F7
:102D10000E94BB2B8B0120E030E040E251E4609147
:102D200008097091090980910A0990910B090E9484
:102D3000E62A2DEC3CEC4CE455E40E943E2D0E942A
:102D4000242C6093610970936209809363099093C6
:102D500064090E94C41F882349F0109261091092EF
:102D60006209109263091092640922C0609161099E
:102D70007091620980916309909164090E94991F82
:102D80008111EBCF609161097091620980916309B3
:102D90009091640920E030E040E857E40E943E2C26
:102DA0006093610970936209809363099093640949
:102DB000C0906109D0906209E0906309F0906409C5
:102DC00020E030E0A901C701B6010E944A2B87FF2D
:102DD00009C0C701B60190580E94BB2B719561953F
:102DE000710904C0C701B6010E94BB2B709323096F
:102DF0006093240920E030E040E251E46091100942
:102E00007091110980911209909113090E94E62A8C
:102E10002DEC3CEC4CE455E40E943E2D0E94242C09
:102E200060936109709362098093630990936409C8
:102E30000E94C41F882349F0109261091092620910
:102E4000109263091092640922C060916109709127
:102E5000620980916309909164090E94991F811110
:102E6000EBCF609161097091620980916309909143
:102E7000640920E030E040E857E40E943E2C609373
:102E80006109709362098093630990936409C0900B
:102E90006109D0906209E0906309F090640920E034
:102EA00030E0A901C701B6010E944A2B87FF0CC080
:102EB000C701B60190580E94BB2BAA27BB27A61BAF
:102EC000B70BBE83AD8306C0C701B6010E94BB2B02
:102ED0007E836D83C0908203D0908303E09084034F
:102EE000F0908503A701960160919F097091A00958
:102EF0008091A1099091A2090E944A2B882341F058
:102F0000C0929F09D092A009E092A109F092A20973
:102F10008091580480931809109321090093220985
:102F2000BE81B0932509ED81E09326096091B30934
:102F30007091B4098091B5099091B6090E94BB2B9C
:102F4000C62E6091AB097091AC098091AD0990914A
:102F5000AE090E94BB2BE62E6091AF097091B009BB
:102F60008091B1099091B2090E94BB2B062F60910C
:102F7000A7097091A8098091A9099091AA090E94B6
:102F8000BB2B6D836091A3097091A4098091A50961
:102F90009091A6090E94BB2B862F812C912C92E048
:102FA000A92E2D814FE050E068E179E00E9459019F
:102FB0008091710990917209A0917309B09174097F
:102FC00089A79AA7ABA7BCA78091750A9091760AAA
:102FD000A091770AB091780A8D879E87AF87B88BCA
:102FE0008090590990905A09A0905B09B0905C09B3
:102FF0008091550990915609A0915709B0915809AF
:1030000089879A87AB87BC8722E3222E22E0322E63
:10301000A7E2B9E0BE83AD833EA62DA603E010E093
:10302000EDA5FEA5E455FF4F2081318142815381FA
:1030300069897A898B899C890E943E2D6B017C016C
:10304000EDA5FEA5E056FF4F2081318142815381DD
:1030500069A57AA58BA59CA50E943E2D9B01AC017C
:10306000C701B6010E94E62A6B017C01EDA5FEA511
:10307000E854FF4F20813181428153816DA17EA1AF
:103080008FA198A50E943E2D9B01AC01C701B601FE
:103090000E94E62A6B017C01EDA5FEA5E452FF4FDC
:1030A00020813181428153816D857E858F8598890C
:1030B0000E943E2D2B013C01EDA5FEA5E053FF4FE4
:1030C0002081318142815381C501B4010E943E2D8E
:1030D0009B01AC01C301B2010E94E62A2B013C0115
:1030E000EDA5FEA5EC53FF4F208131814281538134
:1030F00069857A858B859C850E943E2D9B01AC015C
:10310000C301B2010E94E62A9B01AC01C701B601CE
:103110000E94E62AAD81BE816D937D938D939D9330
:10312000BE83AD8301501109EDA5FEA53496FEA71F
:10313000EDA70115110509F073CF80915D099091FC
:103140005E09A0915F09B09160098D839E83AF8372
:10315000B88720918202309183024091840250917D
:103160008502BC01CD010E943E2D6B017C012091A6
:103170008A0230918B0240918C0250918D026D89B0
:103180007E898F89988D0E943E2D9B01AC01C701DD
:10319000B6010E94E62A6B017C01209192023091D7
:1031A0009302409194025091950269817A818B81BA
:1031B0009C810E943E2D9B01AC01C701B6010E947B
:1031C000E62A6B017C0120919A0230919B0240918A
:1031D0009C0250919D02698D7A8D8B8D9C8D0E94F1
:1031E0003E2D9B01AC01C701B6010E94E62A2B01CE
:1031F0003C01609347097093480980934909909373
:103200004A0920918E0230918F0240919002509194
:1032100091026D897E898F89988D0E943E2D6B0168
:103220007C01209186023091870240918802509162
:1032300089026D817E818F8198850E943E2D9B0140
:10324000AC01C701B6010E94E62A6B017C01209106
:1032500096023091970240919802509199026981AB
:103260007A818B819C810E943E2D9B01AC01C7011C
:10327000B6010E94E62A6B017C0120919E023091EA
:103280009F024091A0025091A102698D7A8D8B8D91
:103290009C8D0E943E2D9B01AC01C701B6010E948E
:1032A000E62A6B017C0160934B0970934C09809373
:1032B0004D0990934E09A3019201C501B4010E94EA
:1032C000E52A698B7A8B8B8B9C8B60935909709361
:1032D0005A0980935B0990935C09A70196016D855B
:1032E0007E858F8598890E94E52A4B015C01609359
:1032F000710970937209809373099093740903E3C1
:1033000019E0A4E0B0E0BE87AD87F10120893189E2
:10331000428953896D897E898F89988D0E943E2DBF
:103320006B017C01D1012D913D914D915C916D819D
:103330007E818F8198850E943E2D9B01AC01C70143
:10334000B6010E94E62A6B017C01F10120A131A1A6
:1033500042A153A169817A818B819C810E943E2D7B
:103360009B01AC01C701B6010E94E62A6B017C01FA
:10337000D101D0962D913D914D915C91D397698D5E
:103380007A8D8B8D9C8D0E943E2D9B01AC01C701D7
:10339000B6010E94E62A6B017C01F101E057FF4F64
:1033A0002081318142815381C501B4010E943E2DAB
:1033B0002B013C01F101E058FF4F20813181428116
:1033C000538169897A898B899C890E943E2D9B0152
:1033D000AC01C301B2010E94E62A2B013C01F101BC
:1033E000E05CFF4F208131814281538169857A857C
:1033F0008B859C850E943E2D9B01AC01C301B201CF
:103400000E94E62AA70196010E94E62AF80161932C
:103410007193819391938F012D853E8521503109C0
:103420003E872D8734E0230E311C8D859E85892BA8
:1034300009F06BCFC0926109D0926209E0926309F2
:10344000F09264098FE499E00E94E10B60914F09CA
:1034500070915009072E000C880B990B0E94E92BE4
:1034600020916A0330916B0340916C0350916D037E
:103470000E94E52A20914204309143044091440483
:10348000509145040E943E2D4B015C012091860322
:1034900030918703409188035091890360915509C9
:1034A0007091560980915709909158090E944A2BB2
:1034B000682F661F6627661F88E00E94A00F609134
:1034C000CF097091D0098091D1099091D2090E94C1
:1034D0002D0F9093CE098093CD09C0905509D090BF
:1034E0005609E0905709F090580940907A0350909F
:1034F0007B0360907C0370907D03A3019201C70160
:10350000B6010E943A2D181684F04090460450905F
:1035100047046090480470904904A3019201C701D8
:10352000B6010E944A2B87FF09C040925D09509264
:103530005E0960925F097092600908C0C0925D09DF
:10354000D0925E09E0925F09F092600920915D09D6
:1035500030915E0940915F095091600960914A0481
:1035600070914B0480914C0490914D040E943E2D2B
:103570000E94242C6B017C0107D5811120C0C7015A
:10358000B601D7D481111BC020E030E040E853E4FD
:10359000C701B6010E943E2C6B017C018B01ED82BC
:1035A000F98220E030E0A9010E944A2B87FF0BC07E
:1035B000C701B60190580E94BB2B619509C000E07D
:1035C00010E01D821982B8018D8199810E94BB2B68
:1035D00070E080E090E00E94E72BAB01BC0180919D
:1035E000CD099091CE090E941D0F20918A03309140
:1035F0008B0340918C0350918D036091550970911C
:10360000560980915709909158090E944A2B682FBA
:10361000661F6627661F85E00E94A00F409055092F
:10362000509056096090570970905809C0907E03D9
:10363000D0907F03E0908003F0908103A701960172
:10364000C301B2010E943A2D181684F0C0904E04B6
:10365000D0904F04E0905004F0905104A7019601DF
:10366000C301B2010E944A2B87FF08C0C0925509CE
:10367000D0925609E0925709F09258096091C10919
:103680007091C2098091C3099091C4090E942D0FC5
:103690009093C0098093BF09209155093091560934
:1036A0004091570950915809609152047091530408
:1036B00080915404909155040E943E2D0E94242C28
:1036C0006B017C0161D4811120C0C701B60131D4E6
:1036D00081111BC020E030E040E853E4C701B6018F
:1036E0000E943E2C6B017C018B01ED82F98220E06F
:1036F00030E0A9010E944A2B87FF0BC0C701B60129
:1037000090580E94BB2B619509C000E010E01D821B
:103710001982B8018D8199810E94BB2B70E080E0F5
:1037200090E00E94E72BAB01BC018091BF09909112
:10373000C0090E941D0F8D8D9E8DAF8DB8A1809305
:10374000710A9093720AA093730AB093740A20913D
:103750009A0330919B0340919C0350919D03C501B6
:10376000B4010E943E2D2091750A3091760A409155
:10377000770A5091780A0E94E62A6093750A70933E
:10378000760A8093770A9093780A89A19AA1ABA1CF
:10379000BCA18093790A90937A0AA0937B0AB09394
:1037A0007C0A20917D0A30917E0A40917F0A5091D7
:1037B000800A6091A6037091A7038091A80390915D
:1037C000A9030E943E2D2091330930913409409184
:1037D0003509509136090E94E62A60937D0A70935C
:1037E0007E0A80937F0A9093800A2091810A30910B
:1037F000820A4091830A5091840A6091C2037091B9
:10380000C3038091C4039091C5030E943E2D209173
:103810003709309138094091390950913A090E948D
:10382000E62A6093810A7093820A8093830A9093B8
:10383000840A2091850A3091860A4091870A509126
:10384000880A6091DE037091DF038091E00390911C
:10385000E1030E943E2D20913B0930913C094091AB
:103860003D0950913E090E94E62A6093850A7093B3
:10387000860A8093870A9093880A2091890A30915A
:103880008A0A40918B0A50918C0A6091FA037091D8
:10389000FB038091FC039091FD030E943E2D20913B
:1038A0003F093091400940914109509142090E94DD
:1038B000E62A6093890A70938A0A80938B0A909310
:1038C0008C0A20918D0A30918E0A40918F0A509176
:1038D000900A609106047091070480910804909109
:1038E00009040E943E2D209127093091280940911A
:1038F000290950912A090E94E62A60938D0A709343
:103900008E0A80938F0A9093900A2091910A3091A9
:10391000920A4091930A5091940A60911E0470910A
:103920001F0480912004909121040E943E2D20913B
:103930002B0930912C0940912D0950912E090E949C
:10394000E62A6093910A7093920A8093930A909367
:10395000940A2091950A3091960A4091970A5091C5
:10396000980A6091360470913704809138049091E0
:1039700039040E943E2D20912F0930913009409149
:103980003109509132090E94E62A6093950A70939A
:10399000960A8093970A9093980AA091FE08B09196
:1039A000FF08BA83A9838091F0089091F108A09153
:1039B000F208B091F308BC01CD016F5F7F4F8F4FCC
:1039C0009F4F6093F0087093F1088093F2089093F2
:1039D000F3080E94E72B9B01AC016091F408709101
:1039E000F5088091F6089091F7080E943E2DE98134
:1039F000FA8160837183828393838091F808909128
:103A0000F908A091FA08B091FB080196A11DB11D1B
:103A10008093F8089093F908A093FA08B093FB08F4
:103A2000AE960FB6F894DEBF0FBECDBFDF91CF913B
:103A30001F910F91FF90EF90DF90CF90BF90AF90CC
:103A40009F908F907F906F905F904F903F902F90BE
:103A500008952F923F924F925F926F927F928F9232
:103A60009F92AF92BF92CF92DF92EF92FF920F930D
:103A70001F93CF93DF9384E090E024D2E1E7F8E056
:103A800087E9DF011D928A95E9F78CEF98E095832D
:103A90008483CEEFD8E0D7AFC6AF04EF18E0138B26
:103AA000028BF093DA08E093D908F383E28321E0F4
:103AB00030E0DC012D933C9380E994E0918780878E
:103AC00080E099E0998388834AE057ED63E27CE3E4
:103AD000F801408351836283738381E7E8E0F9E072
:103AE000DF011D928A95E9F7C9E7D9E082E291E00A
:103AF000FE019C01119221503040E1F78AE192E0F1
:103B000090936C0A80936B0A82E092E090936E0A25
:103B100080936D0A412C512C320143944092540AF7
:103B20005092550A6092560A7092570A42E150E04C
:103B300063E170E081E090E00E941A0ECC24C3940F
:103B4000C092580A18828091820390918303A091B9
:103B50008403B09185038EA39FA3A8A7B9A7498228
:103B60005A826B827C821AA61BA61CA61DA680E028
:103B700090E0A0E8BFE38EA79FA7A8ABB9AB1AAAB5
:103B80001BAA1CAA1DAA1EAA1FAA18AE19AE1AAEFD
:103B90001BAE1CAE1DAECD821092590A40925A0A3D
:103BA00050925B0A60925C0A70925D0A80E090E03D
:103BB0000E94D40BC0925E0A1092650A4092660A77
:103BC0005092670A6092680A7092690A61E088E020
:103BD0000E94990FC0926A0A1092C509E3E1FAE0C7
:103BE00092E3A92EA08223E3B22EB092140A34E30A
:103BF000832E8092150A45E3942E9092160A56E37E
:103C0000352E3092170A67E3262E2092180A38E3E1
:103C10003093190A89E380931A0A71E3D72ED09260
:103C20001B0AA0E3A0931C0AD0921D0AD0921E0A80
:103C3000D0921F0AA092200AD092210AB092220AA2
:103C4000F093CC09E093CB0986E090E0A0E0B0E0EF
:103C5000EFECF9E080839183A283B383AAECB9E00F
:103C60001C924092C6095092C7096092C80970928E
:103C7000C909E12CF12C8701A801970166E070E0E9
:103C800080E090E00E94740F0DEC19E0F801918340
:103C90008083AFECB9E06D917D918D919C910E94F4
:103CA0002D0FF801918380830E941C0FAAECB9E0CC
:103CB000CC9210925F0A4092600A5092610A609220
:103CC000620A7092630A61E085E00E94990FC092D7
:103CD000640A1EAEE3EDF9E0A082B092D4098092AE
:103CE000D5099092D6093092D7092092D809B8E325
:103CF000B093D90929E32093DA09D092DB0930E3A4
:103D00003093DC09D092DD09D092DE09D092DF0930
:103D1000A092E009D092E109B092E209F093BE09C5
:103D2000E093BD09E1ECAE2EE9E0BE2E82E090E02A
:103D3000A0E0B0E0F50180839183A283B383CCEB54
:103D4000D9E018824092B8095092B9096092BA0934
:103D50007092BB09E12CF12C8701A801970162E068
:103D600070E080E090E00E94740F0FEB19E0D80142
:103D70008D939C93F50160817181828193810E9472
:103D80002D0FD8018D939C930E941C0FC8828091A7
:103D9000720390917303A0917403B09175038093A3
:103DA000710A9093720AA093730AB093740A809177
:103DB0009E0390919F03A091A003B091A1038093D3
:103DC000750A9093760AA093770AB093780A809147
:103DD000760390917703A0917803B0917903809353
:103DE000790A90937A0AA0937B0AB0937C0ADF91B8
:103DF000CF911F910F91FF90EF90DF90CF90BF90E8
:103E0000AF909F908F907F906F905F904F903F907A
:103E10002F9008958091530A811103C081E080930F
:103E2000530A80917909811103C081E08093790957
:103E30008091590A811103C081E08093590A8091D1
:103E4000650A811103C081E08093650A8091C509EC
:103E5000811107C081E08093C50985EC99E00E943B
:103E6000A70F80915F0A811103C081E080935F0AF0
:103E70008091B709811107C081E08093B70987EB72
:103E800099E00C94A70F089560E070E080E89FE748
:103E9000089560E070E080E89FE7089560E070E0DA
:103EA00080E89FEF089560E070E080E89FEF08955C
:103EB00060E070E080EC9FEF089560E070E080ECDF
:103EC0009FEF0895F5DF6093A70A7093A80A809387
:103ED000A90A9093AA0AF1DF60939B0A70939C0A47
:103EE00080939D0A90939E0ACFDF6093A30A7093FC
:103EF000A40A8093A50A9093A60ACBDF60939F0A39
:103F00007093A00A8093A10A9093A20AC7DF6093DE
:103F1000AB0A7093AC0A8093AD0A9093AE0AC3DFEC
:103F20006093AF0A7093B00A8093B10A9093B20A7B
:103F30000895CF92DF92EF92FF92CF936B017C01B5
:103F40009B01AC0160919F0A7091A00A8091A10A27
:103F50009091A20A0E944A2BC1E0882371F0A70128
:103F600096016091AF0A7091B00A8091B10A909168
:103F7000B20A0E944A2B8111C0E08C2FCF91FF9092
:103F8000EF90DF90CF9008950F931F938B019C01CA
:103F90000027112720783F770115110520483F475A
:103FA00049F4AB01BC016F77772781E0452B462BA5
:103FB000472B09F480E01F910F91089508958830F0
:103FC00008F070C0A82FB0E0AA0FBB1FA75ABB4FC4
:103FD00011967C936E9390E0FC013197E730F105E8
:103FE000A0F58827EE58FF4F8F4F0C94C72D809176
:103FF00069008C7F482B40936900E89A089580916E
:104000006900837F440F551F440F551F482B409371
:104010006900E99A0895809169008F7C74E0440FEB
:10402000551F7A95E1F7482B40936900EA9A089565
:10403000809169008F7366E0440F551F6A95E1F720
:10404000482B40936900EB9A089580916A008C7F19
:10405000482B40936A00EC9A089580916A00837F10
:10406000440F551F440F551F482B40936A00ED9A8B
:10407000089580916A008F7C24E0440F551F2A9593
:10408000E1F7482B40936A00EE9A089580916A0008
:104090008F7396E0440F551F9A95E1F7482B409394
:1040A0006A00EF9A08951F920F920FB60F92112493
:1040B0000BB60F922F933F934F935F936F937F9322
:1040C0008F939F93AF93BF93EF93FF93E0915D0422
:1040D000F0915E041995FF91EF91BF91AF919F917F
:1040E0008F917F916F915F914F913F912F910F90A1
:1040F0000BBE0F900FBE0F901F9018951F920F923E
:104100000FB60F9211240BB60F922F933F934F933C
:104110005F936F937F938F939F93AF93BF93EF932F
:10412000FF93E0915F04F09160041995FF91EF9186
:10413000BF91AF919F918F917F916F915F914F91BF
:104140003F912F910F900BBE0F900FBE0F901F90BD
:1041500018951F920F920FB60F9211240BB60F9263
:104160002F933F934F935F936F937F938F939F937F
:10417000AF93BF93EF93FF93E0916104F0916204DA
:104180001995FF91EF91BF91AF919F918F917F9181
:104190006F915F914F913F912F910F900BBE0F90B8
:1041A0000FBE0F901F9018951F920F920FB60F928F
:1041B00011240BB60F922F933F934F935F936F93FE
:1041C0007F938F939F93AF93BF93EF93FF93E09170
:1041D0006304F09164041995FF91EF91BF91AF9141
:1041E0009F918F917F916F915F914F913F912F910F
:1041F0000F900BBE0F900FBE0F901F9018951F923F
:104200000F920FB60F9211240BB60F922F933F937C
:104210004F935F936F937F938F939F93AF93BF93CE
:10422000EF93FF93E0915904F0915A041995FF918F
:10423000EF91BF91AF919F918F917F916F915F911E
:104240004F913F912F910F900BBE0F900FBE0F908B
:104250001F9018951F920F920FB60F9211240BB654
:104260000F922F933F934F935F936F937F938F930F
:104270009F93AF93BF93EF93FF93E0915B04F09113
:104280005C041995FF91EF91BF91AF919F918F9130
:104290007F916F915F914F913F912F910F900BBE46
:1042A0000F900FBE0F901F9018951F920F920FB690
:1042B0000F9211240BB60F922F933F934F935F935E
:1042C0006F937F938F939F93AF93BF93EF93FF93DE
:1042D000E0916504F09166041995FF91EF91BF910B
:1042E000AF919F918F917F916F915F914F913F918E
:1042F0002F910F900BBE0F900FBE0F901F9018952F
:104300001F920F920FB60F9211240BB60F922F939C
:104310003F934F935F936F937F938F939F93AF934D
:10432000BF93EF93FF93E0916704F09168041995B0
:10433000FF91EF91BF91AF919F918F917F916F917D
:104340005F914F913F912F910F900BBE0F900FBE39
:104350000F901F9018951F920F920FB60F92112475
:104360002F933F938F939F93AF93BF938091E905D2
:104370009091EA05A091EB05B091EC053091E8052C
:1043800023E0230F2D3720F40196A11DB11D05C098
:1043900026E8230F0296A11DB11D2093E805809306
:1043A000E9059093EA05A093EB05B093EC058091A5
:1043B000ED059091EE05A091EF05B091F005019605
:1043C000A11DB11D8093ED059093EE05A093EF051F
:1043D000B093F005BF91AF919F918F913F912F9135
:1043E0000F900FBE0F901F9018952FB7F894609103
:1043F000E9057091EA058091EB059091EC052FBFDE
:104400000895789484B5826084BD84B5816084BD4C
:1044100085B5826085BD85B5816085BDEEE6F0E03D
:10442000808181608083E1E8F0E010828081826099
:104430008083808181608083E0E8F0E0808181601A
:104440008083E1EBF0E0808184608083E0EBF0E04A
:10445000808181608083E1E9F0E0808182608083F7
:10446000808181608083E0E9F0E0808181608083E9
:10447000E1EAF0E0808182608083808181608083D6
:10448000E0EAF0E0808181608083E1E2F1E0808118
:1044900082608083808181608083E0E2F1E08081BE
:1044A00081608083EAE7F0E080818460808380819E
:1044B0008260808380818160808380818068808346
:1044C0001092C10008951F93CF93DF93182FEB0133
:1044D00061E016D1209711F460E004C0CF3FD10510
:1044E00031F461E0812FDF91CF911F9145C1E12F20
:1044F000F0E0E65CFE4FE4918E2F90E0FC013197F6
:10450000E231F10508F09DC08827E758FF4F8F4F33
:104510000C94C72D84B5806884BDC7BD97C084B591
:10452000806284BDC8BD92C0809180008068809305
:104530008000D0938900C093880088C0809180005B
:10454000806280938000D0938B00C0938A007EC0ED
:1045500080918000886080938000D0938D00C0930C
:104560008C0074C08091B00080688093B000C093CC
:10457000B3006CC08091B00080628093B000C093A3
:10458000B40064C080919000806880939000D093C4
:104590009900C09398005AC08091900080628093E7
:1045A0009000D0939B00C0939A0050C080919000DF
:1045B000886080939000D0939D00C0939C0046C07B
:1045C0008091A00080688093A0008091A0008F7BE4
:1045D0008093A000D093A900C093A80037C0809119
:1045E000A00080628093A000D093AB00C093AA008B
:1045F0002DC08091A00088608093A000D093AD0072
:10460000C093AC0023C0809120018068809320017A
:10461000D0932901C093280119C0809120018062A4
:1046200080932001D0932B01C0932A010FC0809169
:104630002001886080932001D0932D01C0932C012C
:1046400005C0C038D1050CF04CCF46CFDF91CF91DB
:104650001F91089590E0FC013197E231F10508F0D7
:104660004EC08827E557FF4F8F4F0C94C72D809180
:1046700080008F7703C0809180008F7D80938000C1
:10468000089580918000877FF9CF84B58F7702C02D
:1046900084B58F7D84BD08958091B0008F7703C06D
:1046A0008091B0008F7D8093B0000895809190003C
:1046B0008F7707C0809190008F7D03C0809190001C
:1046C000877F8093900008958091A0008F7707C026
:1046D0008091A0008F7D03C08091A000877F809390
:1046E000A0000895809120018F7707C0809120015C
:1046F0008F7D03C080912001877F809320010895E2
:10470000CF93DF9390E0FC01E058FE4F2491FC0131
:10471000EA53FE4F8491882361F190E0880F991F3E
:10472000FC01EA5DFD4FC591D491FC01E45FFD4FB2
:10473000A591B491611109C09FB7F8948881209523
:1047400082238883EC912E230BC0623061F49FB7E3
:10475000F8948881322F309583238883EC912E2B17
:104760002C939FBF06C08FB7F894E8812E2B288327
:104770008FBFDF91CF9108951F93CF93DF93282FA1
:1047800030E0F901E65CFE4F8491F901E058FE4FFC
:10479000D491F901EA53FE4FC491CC23B9F0162FFE
:1047A000811158DFEC2FF0E0EE0FFF1FE45FFD4FAB
:1047B000A591B4919FB7F894111104C08C91D09534
:1047C000D82302C0EC91DE2BDC939FBFDF91CF9109
:1047D0001F910895FC01918D228D892F90E0805CBE
:1047E0009F4F821B91098F7399270895FC01918D2A
:1047F000828D981731F0828DE80FF11D858D90E044
:1048000008958FEF9FEF0895FC01918D828D981789
:1048100061F0828DDF01A80FB11D5D968C91928DA4
:104820009F5F9F73928F90E008958FEF9FEF0895A1
:10483000FC01538D448D252F30E0842F90E0821BA6
:10484000930B541710F0CF96089501970895FC012B
:10485000848DDF01A80FB11DA35ABF4F2C91848D09
:1048600090E001968F739927848FA689B7892C933E
:10487000A089B1898C91837080648C93938D848D91
:10488000981306C00288F389E02D80818F7D808394
:104890000895EF92FF920F931F93CF93DF93EC0154
:1048A00081E0888F9B8D8C8D981305C0E889F989EC
:1048B000808185FD25C0F62E0B8D10E00F5F1F4F08
:1048C0000F731127E02E8C8DE8120BC00FB607FC7A
:1048D000FACFE889F989808185FFF5CFCE01B7DF6E
:1048E000F2CF8B8DFE01E80FF11DE35AFF4FF082EE
:1048F0009FB7F8940B8FEA89FB89808180620AC098
:104900009FB7F894EE89FF896083E889F9898081EF
:104910008370806480839FBF81E090E0DF91CF91BE
:104920001F910F91FF90EF900895CF93DF93EC01CB
:10493000888D8823C1F0EA89FB89808185FD05C0C7
:10494000A889B9898C9186FD0EC00FB607FCF5CFFA
:10495000808185FFF2CFA889B9898C9185FFEDCF41
:10496000CE0175DFE8CFDF91CF910895CF92DF922E
:10497000EF92FF921F93CF93DF93EC016A017B01CB
:10498000122FE889F98982E080834115514E610533
:104990007105B1F060E079E08DE390E0A701960148
:1049A0000E94A52DDA01C9010197A109B109B695A7
:1049B000A795979587959C01211580E13807A8F068
:1049C000E889F989108260E874E88EE190E0A70137
:1049D00096010E94A52DDA01C9010197A109B1092B
:1049E000B695A795979587959C01EC85FD853083B5
:1049F000EE85FF852083188EEC89FD891083EA8976
:104A0000FB89808180618083EA89FB89808188605D
:104A10008083EA89FB89808180688083EA89FB89B9
:104A200080818F7D8083DF91CF911F91FF90EF90E8
:104A3000DF90CF9008951F920F920FB60F9211241E
:104A40000BB60F922F938F939F93EF93FF93E09169
:104A50000106F09102068081E0910706F0910806B8
:104A600082FD12C0908180910A068F5F8F73209122
:104A70000B06821751F0E0910A06F0E0EF50FA4F72
:104A8000958F80930A0601C08081FF91EF919F91DD
:104A90008F912F910F900BBE0F900FBE0F901F9014
:104AA00018951F920F920FB60F9211240BB60F920A
:104AB0002F933F934F935F936F937F938F939F9326
:104AC000AF93BF93EF93FF9381EF95E0C0DEFF912B
:104AD000EF91BF91AF919F918F917F916F915F9176
:104AE0004F913F912F910F900BBE0F900FBE0F90E3
:104AF0001F901895E1EFF5E01382128288EE93E0A3
:104B0000A0E0B0E084839583A683B78388EA94E02D
:104B10009183808385EC90E09587848784EC90E096
:104B20009787868780EC90E0918B808B81EC90E07A
:104B3000938B828B82EC90E0958B848B86EC90E05B
:104B4000978B868B118E128E138E148E08951F9262
:104B50000F920FB60F9211240BB60F922F938F93D3
:104B60009F93EF93FF93E0919E06F0919F068081C3
:104B7000E091A406F091A50682FD12C0908180917B
:104B8000A7068F5F8F732091A806821751F0E091DE
:104B9000A706F0E0E257F94F958F8093A70601C072
:104BA0008081FF91EF919F918F912F910F900BBE7C
:104BB0000F900FBE0F901F9018951F920F920FB677
:104BC0000F9211240BB60F922F933F934F935F9345
:104BD0006F937F938F939F93AF93BF93EF93FF93C5
:104BE0008EE896E034DEFF91EF91BF91AF919F91F7
:104BF0008F917F916F915F914F913F912F910F9086
:104C00000BBE0F900FBE0F901F901895EEE8F6E0C8
:104C10001382128288EE93E0A0E0B0E08483958353
:104C2000A683B78388EA94E0918380838DEC90E03B
:104C3000958784878CEC90E09787868788EC90E056
:104C4000918B808B89EC90E0938B828B8AEC90E047
:104C5000958B848B8EEC90E0978B868B118E128EC9
:104C6000138E148E08951F920F920FB60F92112477
:104C70000BB60F922F938F939F93EF93FF93E09137
:104C80003B07F0913C078081E0914107F09142079A
:104C900082FD12C09081809144078F5F8F732091B5
:104CA0004507821751F0E0914407F0E0E55DF84FC9
:104CB000958F8093440701C08081FF91EF919F9170
:104CC0008F912F910F900BBE0F900FBE0F901F90E2
:104CD00018951F920F920FB60F9211240BB60F92D8
:104CE0002F933F934F935F936F937F938F939F93F4
:104CF000AF93BF93EF93FF938BE297E0A8DDFF9113
:104D0000EF91BF91AF919F918F917F916F915F9143
:104D10004F913F912F910F900BBE0F900FBE0F90B0
:104D20001F901895EBE2F7E01382128288EE93E071
:104D3000A0E0B0E084839583A683B78388EA94E0FB
:104D40009183808385ED90E09587848784ED90E062
:104D50009787868780ED90E0918B808B81ED90E046
:104D6000938B828B82ED90E0958B848B86ED90E027
:104D7000978B868B118E128E138E148E08951F9230
:104D80000F920FB60F9211240BB60F922F938F93A1
:104D90009F93EF93FF93E091D807F091D90780811B
:104DA000E091DE07F091DF0782FD12C090818091D3
:104DB000E1078F5F8F732091E207821751F0E09136
:104DC000E107F0E0E853F84F958F8093E10701C0C9
:104DD0008081FF91EF919F918F912F910F900BBE4A
:104DE0000F900FBE0F901F9018951F920F920FB645
:104DF0000F9211240BB60F922F933F934F935F9313
:104E00006F937F938F939F93AF93BF93EF93FF9392
:104E100088EC97E01CDDFF91EF91BF91AF919F91DE
:104E20008F917F916F915F914F913F912F910F9053
:104E30000BBE0F900FBE0F901F901895E8ECF7E097
:104E40001382128288EE93E0A0E0B0E08483958321
:104E5000A683B78388EA94E09183808385E391E019
:104E60009587848784E391E09787868780E391E044
:104E7000918B808B81E391E0938B828B82E391E035
:104E8000958B848B86E391E0978B868B118E128EA7
:104E9000138E148E0895CF92DF92EF92FF920F93AC
:104EA0001F93CF93DF936C017A018B01C0E0D0E0B8
:104EB000CE15DF0581F0D8016D918D01D601ED9100
:104EC000FC910190F081E02DC6011995892B11F01C
:104ED0002196EECF7E01C701DF91CF911F910F91F7
:104EE000FF90EF90DF90CF9008956115710579F0F4
:104EF000FB0101900020E9F73197AF01461B570BEA
:104F0000DC01ED91FC910280F381E02D199480E0A9
:104F100090E00895EACFDC01ED91FC910190F081E1
:104F2000E02D199466EB74E0E0CF8F929F92AF92E0
:104F3000BF92EF92FF920F931F93CF93DF93CDB762
:104F4000DEB7A1970FB6F894DEBF0FBECDBF7C01D0
:104F5000FA01CB0119A2223008F42AE08E010F5D7C
:104F60001F4F822E912CA12CB12CBF01A5019401C1
:104F7000ECD5F901CA01015011096A3014F4605DE1
:104F800001C0695CD8016C93232B242B252B69F776
:104F9000B801C701AADFA1960FB6F894DEBF0FBE15
:104FA000CDBFDF91CF911F910F91FF90EF90BF90F8
:104FB000AF909F908F9008952115310541F4DC0149
:104FC000ED91FC910190F081E02D642F1994ADCF0B
:104FD0009A01462F50E060E070E0EECF0F931F93F0
:104FE000CF93DF93EC01F4DF8C01CE019BDF800FC8
:104FF000911FDF91CF911F910F9108959A01AB01FD
:1050000060E070E0D9CF0F931F93CF93DF93EC0153
:10501000F5DF8C01CE0186DF800F911FDF91CF91EC
:105020001F910F9108950F931F93CF93DF93EC017E
:10503000C3DF8C01CE0176DF800F911FDF91CF910E
:105040001F910F910895CF92DF92EF92FF920F93ED
:105050001F93CF93DF932115310581F4DC01ED918E
:10506000FC910190F081E02D642FDF91CF911F9191
:105070000F91FF90EF90DF90CF9019942A30310577
:10508000F1F477FF1BC06A017B01EC016DE243DFA5
:105090008C0144275527BA014C195D096E097F0917
:1050A0002AE0CE0142DF800F911FDF91CF911F9147
:1050B0000F91FF90EF90DF90CF9008952AE0DF915D
:1050C000CF911F910F91FF90EF90DF90CF902DCF58
:1050D0009A01AB01770F660B770BB5CF0F931F9338
:1050E000CF93DF93EC01F4DF8C01CE011BDF800F47
:1050F000911FDF91CF911F910F9108950F931F93EF
:10510000CF93DF93EC019FDF8C01CE010BDF800F8B
:10511000911FDF91CF911F910F9108957F928F92F0
:105120009F92AF92BF92CF92DF92EF92FF920F9336
:105130001F93CF93DF938C016A017B01722E9A013A
:10514000AB01C701B601FDD4882319F069EB74E007
:1051500024C046015701E894B7F82FEF3FEF4FE71F
:105160005FE7C501B401EDD481110CC02FEF3FEF13
:105170004FE75FE7C501B4018DD218161CF46DEB43
:1051800074E00BC02FEF3FEF4FE75FE4C701B601BC
:1051900071D418168CF461EC74E0C801DF91CF91E2
:1051A0001F910F91FF90EF90DF90CF90BF90AF9045
:1051B0009F908F907F9099CE2FEF3FEF4FE75FEC5E
:1051C000C701B60167D287FDE6CF20E030E0A90134
:1051D000C701B6015FD287FF09C06DE2C8019BDE3F
:1051E000EC01F7FAF094F7F8F09402C0C0E0D0E0D8
:1051F000B12C60E070E080E09FE37B1439F020E0A8
:1052000030E040E251E44AD2B394F7CFA7019601CF
:10521000DDD16B017C01AFD24B015C012AE0AB0117
:10522000BC01C80182DEC80FD91F772079F1C50102
:10523000B401CDD29B01AC01C701B601C6D16B014F
:105240007C016EE2C80167DEC80FD91F20E030E0A4
:1052500040E251E4C701B60111D44B015C018BD28D
:105260006B017C014AE050E0C801C8DEC80FD91FBD
:10527000B60180E090E0ABD29B01AC01C501B40166
:10528000A4D16B017C017A947110E0CFCE01DF9143
:10529000CF911F910F91FF90EF90DF90CF90BF9033
:1052A000AF909F908F907F90089538CF0F931F936A
:1052B000CF93DF93EC0132DF8C01CE0133DE800F20
:1052C000911FDF91CF911F910F9108958230A9F026
:1052D00028F4882349F0813051F00895843021F179
:1052E000E8F0853039F1089510926E0008958091AC
:1052F0006F008D7F80936F000895809170008D7F87
:105300008093700081E08093B0008091B100887F2D
:1053100084608093B1001092B30008958091710071
:105320008D7F809371000895809172008D7F8093AE
:1053300072000895809173008D7F809373000895AB
:10534000CF93C82F80916904C81307C0E0E4F2E04E
:1053500084919FEF9093690401C08FEFB7DF60E005
:105360008C2FCF9109CA1F920F920FB60F92112462
:105370000BB60F922F933F934F935F936F937F934F
:105380008F939F93AF93BF93EF93FF9380916808A0
:1053900090916908A0916A08B0916B08892B8A2BBB
:1053A0008B2B51F190916508E0916608F0916708A8
:1053B0008081892780838091680890916908A091F5
:1053C0006A08B0916B08181619061A061B06BCF479
:1053D0008091680890916908A0916A08B0916B0863
:1053E0000197A109B1098093680890936908A09377
:1053F0006A08B0936B0803C080916904A1DFFF9134
:10540000EF91BF91AF919F918F917F916F915F913C
:105410004F913F912F910F900BBE0F900FBE0F90A9
:105420001F90189540E052EC61E070E080E090E061
:1054300006D061E08DE064D960E08DE09DC98130E7
:10544000910571F01CF4892B39F008958230910593
:1054500059F0039769F0089526E081EF95E00BC0BD
:1054600026E08EE896E007C026E08BE297E003C0D6
:1054700026E088EC97E07ACA1F920F920FB60F923F
:1054800011240BB60F922F933F934F935F936F931B
:105490007F938F939F93AF93BF93EF93FF938FE887
:1054A0009DEF909325018093240180916F08909146
:1054B0007008019719F461E08DE05ED934D0FF9156
:1054C000EF91BF91AF919F918F917F916F915F917C
:1054D0004F913F912F910F900BBE0F900FBE0F90E9
:1054E0001F9018958FE89DEF9093250180932401DC
:1054F000A3E7B0E08C918E7F8C93E0E2F1E08081B5
:105500008C7F8083E1E2F1E08081877E80838081EF
:105510008460808380818C7F80838C9181608C9378
:10552000089581E0089580916E0891E0980F90931E
:105530006E08882339F021E030E030937008209322
:105540006F0807C078940E94CD0FF89480916E0880
:10555000815080936E080895CF93DF9310926D0869
:1055600010926C080E9401225DDFC091A204D091CC
:10557000A304198218820E94291DB4DF81E02881CA
:105580003981232B09F080E080936C08789478941B
:1055900080916C08882389F081E028813981232B50
:1055A00009F480E080936D0890916D0881E091117D
:1055B00080E080936C08B5DFEBCF0E940A1FF8945F
:1055C00080E090E0DF91CF9108955058BB27AA2743
:1055D0000ED0FFC1F0D130F0F5D120F031F49F3F73
:1055E00011F41EF4E5C10EF4E095E7FBB2C1E92F1A
:1055F00001D280F3BA17620773078407950718F082
:1056000071F49EF530C20EF4E0950B2EBA2FA02D4A
:105610000B01B90190010C01CA01A0011124FF275F
:10562000591B99F0593F50F4503E68F11A16F0405A
:10563000A22F232F342F4427585FF3CF4695379559
:105640002795A795F0405395C9F77EF41F16BA0B1E
:10565000620B730B840BBAF09150A1F0FF0FBB1FCC
:10566000661F771F881FC2F70EC0BA0F621F731F15
:10567000841F48F4879577956795B795F7959E3F72
:1056800008F0B3CF9395880F08F09927EE0F979500
:10569000879508953AD108F481E008950CD099C116
:1056A00091D140F088D130F021F45F3F19F051C121
:1056B0005111DAC17DC19ED198F39923C9F35523C5
:1056C000B1F3951B550BBB27AA27621773078407F5
:1056D00038F09F5F5F4F220F331F441FAA1FA9F3AB
:1056E00033D00E2E3AF0E0E830D091505040E6959D
:1056F000001CCAF729D0FE2F27D0660F771F881FFE
:10570000BB1F261737074807AB07B0E809F0BB0BEC
:10571000802DBF01FF2793585F4F2AF09E3F510510
:1057200068F017C1A1C15F3FECF3983EDCF38695AA
:1057300077956795B795F7959F5FC9F7880F911D86
:105740009695879597F90895E1E0660F771F881F72
:10575000BB1F621773078407BA0720F0621B730B25
:10576000840BBA0BEE1F88F7E095089504D0689477
:10577000B1117AC1089546D188F09F5790F0B92FA2
:105780009927B751A0F0D1F0660F771F881F991F96
:105790001AF0BA95C9F712C0B13081F064D1B1E006
:1057A000089561C1672F782F8827B85F39F0B93F16
:1057B000CCF3869577956795B395D9F73EF4909598
:1057C0008095709561957F4F8F4F9F4F0895E89416
:1057D00009C097FB3EF490958095709561957F4F39
:1057E0008F4F9F4F9923A9F0F92F96E9BB279395E7
:1057F000F695879577956795B795F111F8CFFAF4F7
:10580000BB0F11F460FF1BC06F5F7F4F8F4F9F4F27
:1058100016C0882311F096E911C0772321F09EE885
:10582000872F762F05C0662371F096E8862F70E0EB
:1058300060E02AF09A95660F771F881FDAF7880FC5
:105840009695879597F90895F7D080F09F3740F4A3
:1058500091110EF009C160E070E080E89FEB0895BF
:1058600026F41B16611D711D811D79C093C0A3D044
:1058700018F011F0A7D038F49BC0F6C0E92FBAD0C9
:10588000B0F35523C9F3E7FB621773078407950745
:10589000A8F199F3E92FFF2788232AF03197660FA3
:1058A000771F881FDAF7952F5527442332F0915040
:1058B0005040220F331F441FD2F7BB27E91BF50BC3
:1058C000621B730B840BB109C1F222F4620F731FC8
:1058D000841FB11D31972AF0660F771F881FBB1FE9
:1058E000EFCF915050405AF041F0882332F0660FCC
:1058F000771F881F91505040C1F793954BC08695F4
:10590000779567959F5FD9F7F8CF990F0008550FE6
:10591000AA0BE0E8FEEF16161706E807F907C0F035
:1059200012161306E407F50798F0621B730B840B3D
:10593000950B39F40A2661F0232B242B252B21F417
:1059400008950A2609F4A140A6958FEF811D811DB7
:10595000089597F99F6780E870E060E008958823D4
:1059600071F4772321F09850872B762F07C0662398
:1059700011F499270DC09051862B70E060E02AF059
:105980009A95660F771F881FDAF7880F9695879587
:1059900097F908959F3F31F0915020F487957795BE
:1059A0006795B795880F911D9695879597F90895F6
:1059B0009FEF80EC089500240A9416161706180627
:1059C0000906089500240A94121613061406050603
:1059D0000895092E0394000C11F4882352F0BB0F94
:1059E00040F4BF2B11F460FF04C06F5F7F4F8F4FF7
:1059F0009F4F089557FD9058440F551F59F05F3F32
:105A000071F04795880F97FB991F61F09F3F79F0E0
:105A100087950895121613061406551FF2CF469562
:105A2000F1DF08C0161617061806991FF1CF8695E4
:105A30007105610508940895E5DFA0F0BEE7B91788
:105A400088F4BB279F3860F41616B11D672F782F96
:105A50008827985FF7CF869577956795B11D9395C1
:105A60009639C8F30895E894BB2766277727CB01BA
:105A700097F908954ADF08F48FEF08950BD0A9CF66
:105A80009ADF28F09FDF18F0952309F062CF90CFBE
:105A90001124EACFAFDFA0F3959FD1F3950F50E02B
:105AA000551F629FF001729FBB27F00DB11D639FD0
:105AB000AA27F00DB11DAA1F649F6627B00DA11D76
:105AC000661F829F2227B00DA11D621F739FB00D1C
:105AD000A11D621F839FA00D611D221F749F33278C
