:10000000B6C100000C94FF280C942A290C945529A1
:100010000C9480290C94AB290C94D6290C94012AB9
:100020000C942C2A0C9498080C943C090C94790993
:10003000CFC100000C94CC30CBC10000C9C100007E
:10004000C7C10000C5C10000C3C10000C1C100009C
:10005000BFC10000BDC10000BBC100000C94572A05
:10006000B7C100000C94252E0C945B2EB1C100008A
:10007000AFC10000ADC10000ABC10000A9C10000CC
:10008000A7C10000A5C10000A3C10000A1C10000DC
:100090000C94B12E0C94E72E9BC10000F9C3000014
:1000A00097C1000095C1000093C1000091C10000FC
:1000B0008FC100008DC100008BC1000089C100000C
:1000C00087C1000085C100000C9455310C943D2F70
:1000D0000C94732F7DC100000C94C92F0C94FF2F3A
:1000E00077C10000D928A328AB28B728C428E52861
:1000F000F228942B992B9E2BA82BB22B2B2CBC2BAC
:10010000C42BCC2BD62BE02BEA2BF92B032C2B2C3E
:100110000D2C172C212C4F2C522C412C452C4B2CC8
:10012000892C562C5A2C602C642C682C6E2C722C2A
:10013000762C892C7C2C802C842CA539633BC83BE5
:10014000CB3BA73ADA3A95399C397939AB3B9A3BA4
:10015000A73BCB3BCB3BCB3B643900000A0B0209EE
:100160000C0D0E0807030401000000000000000051
:10017000000000000000000000000000000000007F
:10018000000000000000121110000000000000003C
:10019000000000000000000000000000000000005F
:1001A0000102102020080810204010204080020189
:1001B000020108040201010204081020408080406E
:1001C000201008040201800402018040201008046D
:1001D000020108040201010204081020408001020B
:1001E00004081020408005050505070508080808D3
:1001F000020202020A0A08080404040401010101BF
:1002000001010101030303030303030304070707B9
:100210000C0C0C0C0C0C0C0C02020202060606065E
:10022000060606060B0B0B0B0B0B0B0B000022003C
:10023000250028002B002E003100340002010000B0
:10024000050108010B0100002100240027002A00FD
:100250002D003000330001010000040107010A01F4
:1002600002001D3A2774694E53E8F5D2CF9C81A64F
:10027000BBCDD0F7EAB9A4839E25381F02514C6B41
:1002800076879ABDA0F3EEC9D46F7255481B06213C
:100290003C4A57706D3E230419A2BF9885D6CBEC1B
:1002A000F1130E2934677A5D40FBE6C1DC8F92B50D
:1002B000A8DEC3E4F9AAB7908D362B0C11425F7803
:1002C000659489AEB3E0FDDAC77C61465B08153200
:1002D0002F5944637E2D30170AB1AC8B96C5D8FFD9
:1002E000E2263B1C01524F6875CED3F4E9BAA780D1
:1002F0009DEBF6D1CC9F82A5B8031E3924776A4DB9
:1003000050A1BC9B86D5C8EFF24954736E3D2007BF
:100310001A6C71564B1805223F8499BEA3F0EDCAA2
:10032000D735280F12415C7B66DDC0E7FAA9B4938C
:100330008EF8E5C2DF8C91B6AB100D2A3764795E7A
:1003400043B2AF8895C6DBFCE15A47607D2E33147B
:10035000097F6245580B16312C978AADB0E3FED960
:10036000C40047039207842E102F9C2F283011249D
:100370001FBECFEFD1E2DEBFCDBF00E00CBF17E064
:10038000A0E0B2E0E8E8F4E800E00BBF02C00790AC
:100390000D92AC3FB107D9F72EE0ACEFB7E001C04A
:1003A0001D92A53EB207E1F711E0C7EBD1E000E0F6
:1003B00006C021970109802FFE010E94D240C13B57
:1003C000D10780E00807A9F70E944A3D0C944242F9
:1003D00017CE80E090E008958091300890E0209161
:1003E0003108821B9109089590913108809130085D
:1003F000981750F4E92FF0E0EE5CF74F208130E0E1
:100400009F5F9093310802C02FEF3FEFC90108951D
:10041000E091310880913008E81730F4F0E0EE5CAC
:10042000F74F808190E008958FEF9FEF0895089532
:10043000CF93DF93EC01E0910808F0910908309721
:10044000F1F090913108809130089817C0F090E059
:10045000292F30E02617370754F4DE01A20FB31F0F
:100460004C91D901AE5CB74F4C939F5FF1CF109286
:10047000310860933008CB01DF91CF911994DF915F
:10048000CF910895E0910A08F0910B08309729F078
:1004900010920E0810920D0819940895CF92DF92D1
:1004A000EF92FF920F931F93CF93DF937C01CB01C9
:1004B0008A0120910C08222389F0EB016B01C40E04
:1004C000D51ECC15DD0561F06991D701ED91FC9148
:1004D0000190F081E02DC7011995F3CF642F96D1DB
:1004E000C801DF91CF911F910F91FF90EF90DF90A6
:1004F000CF900895CF93DF931F92CDB7DEB7698376
:1005000020910C082223D1F020910D08203240F0D8
:1005100021E030E0FC013383228380E090E014C0CE
:1005200080910E08E82FF0E0E15FF74F998190830A
:100530008F5F80930E0880930D0804C061E0CE01A8
:10054000019664D181E090E00F90DF91CF91089502
:10055000FC011382128288EE93E0A0E0B0E0848375
:100560009583A683B78389E496E091838083089579
:10057000109231081092300810920E0810920D0857
:1005800089D082E492E06FD188E192E067C181E096
:1005900080930C0860932F0810920E0810920D089B
:1005A00008950F93062F21E040910D086FE078E049
:1005B00080912F08D5D010920E0810920D0810923D
:1005C0000C080F9108954F925F926F927F92AF92B5
:1005D000BF92CF92EF92FF920F931F93CF93DF932F
:1005E0005C01F62ED42F28013901EE2011F1CFDF66
:1005F000CE2DC43008F0C3E0C150C0F028E0C29F47
:10060000C0011124A301920104C056954795379566
:1006100027958A95D2F7CA01B901D501ED91FC91D0
:100620000190F081E02DC5011995E6CF60E0C5018C
:10063000B8DF4D2FD13208F040E22C2D62E378E094
:100640008F2D46D01092310880933008DF91CF91E2
:100650001F910F91FF90EF90CF90BF90AF907F9040
:100660006F905F904F900895CF92EF920F931F93EA
:10067000C22EE12C00E010E09801A5DF1F910F9140
:10068000EF90CF90089521E0EFCF61E08ACF8CEF1B
:1006900097E05ECF1092BF0881E08093BD08109272
:1006A000BC0861E084E10E94C62C61E085E10E9403
:1006B000C62CE9EBF0E080818E7F808380818D7F86
:1006C000808388E48093B80085E48093BC0008951B
:1006D000413208F043C09091BF089111FCCF91E0E6
:1006E0009093BF082093BD082FEF209352081092DB
:1006F0009708240F209396089093BE089091BE0807
:10070000880F892B8093BE088091BC08813061F4EA
:100710001092BC088091BE088093BB008091BC0001
:1007200083FDF8CF85EC01C085EE8093BC008091FD
:10073000BF088130E1F380919708841710F440914D
:100740009708A8E9B8E0962FFB018E2F891B841724
:1007500018F48D918193F9CF842F089580E0089546
:100760000F93413208F04AC09091BF089111FCCF1D
:1007700032E03093BF080093BD083FEF309352083A
:100780001092970840939608562FA8E9B8E0FB010D
:100790003E2F351B341718F431913D93F9CF109249
:1007A000BE083091BE08880F832B8093BE088091CD
:1007B000BC08813061F41092BC088091BE0880931F
:1007C000BB008091BC0083FDF8CF85EC01C085EEB5
:1007D0008093BC00222321F08091BF088230D1F3A6
:1007E000809152088F3F79F080915208803241F019
:1007F00080915208803331F094E005C091E003C04D
:1008000092E001C093E0892F0F9108954091740800
:10081000262F30E0240F311D21323105DCF42091E8
:10082000BF082430C9F4FC0180E090E0861758F43A
:10083000309174082191DC01AA58B74FA30FB11D64
:100840002C930196F3CF80917408680F609374081D
:1008500080E0089581E0089582E008959093B908BA
:100860008093B80808959093BB088093BA080895C0
:1008700085ED8093BC008091BC0084FDFCCF10927C
:10088000BF08089585EC8093BC001092BF080895BE
:100890001F920F920FB60F9211240BB60F922F9347
:1008A0003F934F935F936F937F938F939F93AF93F8
:1008B000BF93EF93FF938091B900887F803609F44E
:1008C0009DC070F5883209F45CC090F4803109F461
:1008D00055C038F4882309F4F3C0883009F44EC0B9
:1008E000F2C0883109F44DC0803209F45EC0EBC01B
:1008F000803409F469C050F4803309F456C0883359
:1009000009F0E1C080935208BDDFDDC0803509F4F5
:100910004FC0883509F45DC0883409F0D4C0D2C016
:10092000883909F4C3C0A8F4883709F467C038F4DB
:10093000883609F463C0803709F460C0C4C08838C1
:1009400009F4B4C0803909F45FC0803809F0BBC035
:100950005BC0803B09F482C038F4803A09F466C079
:10096000883A09F47BC0AFC0803C09F4A3C0883C3E
:1009700009F4A0C0883B09F486C0A5C08091BE08D8
:1009800010C09091970880919608981770F5E091A3
:10099000970881E08E0F80939708F0E0E856F74FB4
:1009A00080818093BB0085EC82C0809352088AC00E
:1009B000E091970881E08E0F809397088091BB00AB
:1009C000F0E0E856F74F8083909197088091960861
:1009D0006AC0E091970881E08E0F8093970880911C
:1009E000BB00F0E0E856F74F80838091BD0881118D
:1009F00069C081E08093BC0884EA5DC083E0809395
:100A0000BF0810925308CFCF80915308803208F06E
:100A10004DC0E091530881E08E0F80935308809180
:100A2000BB00F0E0EC5AF74F8083BDCF2BDF809105
:100A30005308803230F4E0915308F0E0EC5AF74F5D
:100A400010826091530870E0E091B808F091B90805
:100A500084E598E019951092530835C084E080939E
:100A6000BF081092750810927408E091BA08F091CE
:100A7000BB08199580917408811105C081E08093AD
:100A8000740810927608E091750881E08E0F8093CB
:100A90007508F0E0EA58F74F80818093BB00909191
:100AA000750880917408981708F47DCF85E88093C5
:100AB000BC0009C085EC8093BC001092BF0803C045
:100AC00010925208D5DEFF91EF91BF91AF919F91A7
:100AD0008F917F916F915F914F913F912F910F90E7
:100AE0000BBE0F900FBE0F901F901895FF920F93A3
:100AF0001F93CF93DF93C62F142FF22E032F682F4F
:100B00008CEF97E044DD6C2F8CEF97E0F3DCCF2D7A
:100B1000D02FCE01810F911D8C01C017D10729F074
:100B200069918CEF97E0E6DCF8CF8CEF97E0ADDDD4
:100B300091E0811190E0892FDF91CF911F910F916A
:100B4000FF900895CF93DF931F92CDB7DEB749830F
:100B50009E012F5F3F4F41E0C9DF0F90DF91CF91A2
:100B600008953F924F925F926F927F928F929F92E1
:100B7000AF92BF92CF92DF92EF92FF920F931F93AB
:100B8000CF93DF9300D000D0CDB7DEB7D82EC62EDE
:100B90004D8379010E94A12A4B015C01312C1E82F8
:100BA0009D81892F90E09C838B832801612C712C7F
:100BB000ED813E1698F56D2D8CEF97E0E8DC6C2DFD
:100BC0008CEF97E097DC8CEF97E05FDD6D2D8CEF7D
:100BD00097E0DDDC4B815C814319510941325105BD
:100BE00014F040E250E06D2D8CEF97E04CDD8CEF7F
:100BF00097E0F2DB892B09F442C00115110569F178
:100C00000E94A12ADC01CB0188199909AA09BB0914
:100C100084159505A605B70500F131C0011511052C
:100C2000B9F10E94A12ADC01CB0188199909AA090E
:100C3000BB0920E030E080179107A207B30740F11D
:100C4000FD812F2F30E04E81842F440F990B8217A6
:100C50009307F4F48FEF8E831BC0F7012E81E20F10
:100C6000F11D27FDFA95FA83E9838CEF97E0BCDB51
:100C7000E981FA818083FE81FF5FFE83B8CF8CEF2C
:100C800097E003DD8D81813208F080E2380E90CF4D
:100C90008E8126960FB6F894DEBF0FBECDBFDF91D2
:100CA000CF911F910F91FF90EF90DF90CF90BF9069
:100CB000AF909F908F907F906F905F904F903F90FC
:100CC00008950F931F9389019A0141E04ADF1F9114
:100CD0000F910895EF92FF920F931F93CF93DF939D
:100CE0001F92CDB7DEB7182F062FF42EE22E2091DB
:100CF000060230910702AE014F5F5F4FE2DF89814C
:100D000041E050E001C0440FFA94EAF7EE2011F000
:100D1000482B02C0409548234983602F812F12DF62
:100D20000F90DF91CF911F910F91FF90EF90089559
:100D3000DF92EF92FF920F931F93CF93DF931F9257
:100D4000CDB7DEB7182FF62EE42ED22E2091060254
:100D500030910702AE014F5F5F4FB3DF882331F15F
:100D60002E2D30E02D1931092F5F3F4F81E090E0AB
:100D700002C0880F991FDA94E2F70197022E01C092
:100D8000880F0A94EAF7402F50E0BA0102C0660FBC
:100D9000771F2A95E2F7482F4095998149238623AA
:100DA000482B49836F2D812FCDDE01C080E00F904D
:100DB000DF91CF911F910F91FF90EF90DF900895F9
:100DC00028E6FC01208308950F93062F23E042E0DC
:100DD0006AE1FC018081ACDF0F9108950F93062F2B
:100DE00022E044E06BE1FC018081A2DF0F910895D5
:100DF0000F93062F22E044E06CE1FC01808198DF34
:100E00000F9108950F931F93CF93DF93EC010091FF
:100E10000602109107029C012F5F3F4F42E063E4FE
:100E200088819FDE89819A81982789279827DF9179
:100E3000CF911F910F9108950F931F93CF93DF933D
:100E4000EC0100910602109107029C012F5F3F4FB9
:100E500042E065E4888185DE89819A819827892727
:100E60009827DF91CF911F910F9108950F931F93B2
:100E7000CF93DF93EC0100910602109107029C01D1
:100E80002F5F3F4F42E067E488816BDE89819A8162
:100E9000982789279827DF91CF911F910F91089567
:100EA000262F46E06BE6FC01808114CF0F93062FBE
:100EB00023E042E06BE6FC0180813ADF0F91089568
:100EC000CF93DF93EC0161E0F1DF60E0CE0186DFDC
:100ED00060E0CE018DDF60E0CE01DF91CF91E0CF09
:100EE000CF93C82F8CEF97E043DB6C2F80EC98E01A
:100EF0006BDF80EC98E0CF91E3CFCF93DF93EC01F1
:100F000080EC98E07FDF9983888380EC98E094DF21
:100F10009B838A8380EC98E0A9DF9D838C83DF919B
:100F2000CF91089580EC98E04BCF9CB1892F8072CF
:100F300094FF03C081110FC002C0882361F080912B
:100F4000D3089091D408A091D508B091D608019605
:100F5000A11DB11D0BC08091D3089091D408A09120
:100F6000D508B091D6080197A109B1098093D3089B
:100F70009093D408A093D508B093D608089599B15A
:100F8000892F847093FF03C0882379F002C08111F8
:100F90000CC08091E1089091E208A091E308B09123
:100FA000E4080196A11DB11D0BC08091E10890914C
:100FB000E208A091E308B091E4080197A109B10902
:100FC0008093E1089093E208A093E308B093E408CB
:100FD00008952CB126FB882780F990E027FF03C0F5
:100FE000019779F402C0892B61F48091EF08909108
:100FF000F008A091F108B091F2080196A11DB11D71
:101000000BC08091EF089091F008A091F108B09189
:10101000F2080197A109B1098093EF089093F008B5
:10102000A093F108B093F20808959CB1892F8071C4
:1010300095FF03C0882379F002C081110CC0809114
:10104000D3089091D408A091D508B091D608019604
:10105000A11DB11D0BC08091D3089091D408A0911F
:10106000D508B091D6080197A109B1098093D3089A
:101070009093D408A093D508B093D608089599B159
:10108000892F887092FF03C081110FC002C088238E
:1010900061F08091E1089091E208A091E308B0919D
:1010A000E4080196A11DB11D0BC08091E10890914B
:1010B000E208A091E308B091E4080197A109B10901
:1010C0008093E1089093E208A093E308B093E408CA
:1010D00008952CB1822F807890E0880F892F881F87
:1010E000990B26FF03C0892B79F402C0019761F4A4
:1010F0008091EF089091F008A091F108B091F2086A
:101100000196A11DB11D0BC08091EF089091F008D0
:10111000A091F108B091F2080197A109B10980935B
:10112000EF089093F008A093F108B093F2080895A7
:101130001F920F920FB60F9211242F933F934F934C
:101140005F938F939F93AF93BF9383B121E030E080
:10115000982F907285FD02C020E030E080744091AD
:101160001309509114092417350749F521E030E09F
:10117000811102C020E030E0309312092093110960
:10118000882319F091110FC002C0992361F080915A
:101190000B0990910C09A0910D09B0910E090196CF
:1011A000A11DB11D41C080910B0990910C09A09126
:1011B0000D09B0910E090197A109B10916C030932C
:1011C000140920931309992319F0882311F102C0FF
:1011D00081111FC080910B0990910C09A0910D09FC
:1011E000B0910E090196A11DB11D80930B0990933A
:1011F0000C09A0930D09B0930E0980910B099091F1
:101200000C09A0910D09B0910E090197A109B1092E
:101210001EC080910B0990910C09A0910D09B0910D
:101220000E090197A109B10980930B0990930C094C
:10123000A0930D09B0930E0980910B0990910C09B0
:10124000A0910D09B0910E090196A11DB11D8093C9
:101250000B0990930C09A0930D09B0930E09BF914F
:10126000AF919F918F915F914F913F912F910F90EF
:101270000FBE0F901F9018951F920F920FB60F92EE
:1012800011248F939F93AF93BF9380910601817038
:101290009091030190FF03C081110FC002C0882309
:1012A00061F08091FD089091FE08A091FF08B09137
:1012B00000090196A11DB11D0BC08091FD08909100
:1012C000FE08A091FF08B09100090197A109B1099A
:1012D0008093FD089093FE08A093FF08B093000947
:1012E000BF91AF919F918F910F900FBE0F901F9064
:1012F00018951F920F920FB60F9211248F939F9300
:10130000AF93BF938091030181709091060190FF8C
:1013100003C0882379F002C081110CC08091FD08C0
:101320009091FE08A091FF08B09100090196A11DBF
:10133000B11D0BC08091FD089091FE08A091FF089F
:10134000B09100090197A109B1098093FD0890931C
:10135000FE08A093FF08B0930009BF91AF919F9141
:101360008F910F900FBE0F901F9018950F931F93A2
:10137000CF93DF938C018EE0809FE001819FD00DA1
:101380001124C153D74F798368835B834A83888153
:10139000998160E00E948A2C8A819B8160E00E9492
:1013A0008A2C8881998161E00E94C62C8A819B8168
:1013B00061E00E94C62C0230110509F47FC044F49C
:1013C00001151105E9F00130110509F448C0BEC04E
:1013D0000330110509F4A6C00430110509F0B6C0A8
:1013E0008091680081608093680080916B008062CA
:1013F00080936B0080916B00806480936B00A6C02B
:101400008091CF089091D00802978431910540F4E3
:10141000FC01E95AF94F8081082E000C990B02C09B
:101420008FEF9FEF41E050E065E977E00E948B2865
:101430008091D1089091D20802978431910540F4AF
:10144000FC01E95AF94F8081082E000C990B02C06B
:101450008FEF9FEF41E050E065E178E05DC0809163
:10146000DD089091DE0802978431910540F4FC017B
:10147000E95AF94F8081082E000C990B02C08FEFBA
:101480009FEF41E050E06FE378E00E948B2880916D
:10149000DF089091E00802978431910540F4FC0147
:1014A000E95AF94F8081082E000C990B02C08FEF8A
:1014B0009FEF41E050E06FEB77E02EC08091EB08AA
:1014C0009091EC0802978431910540F4FC01E95AAF
:1014D000F94F8081082E000C990B02C08FEF9FEF0F
:1014E00041E050E069E678E00E948B288091ED08A9
:1014F0009091EE0802978431910540F4FC01E95A7D
:10150000F94F8081082E000C990B02C08FEF9FEFDE
:1015100041E050E069EE77E0DF91CF911F910F91AC
:101520000C948B288091680084608093680080917F
:10153000680082608093680080916D008160809374
:101540006D0080916C00826080936C00DF91CF9180
:101550001F910F9108952EE0269FF001279FF00D17
:101560001124E153F74F6481758186819781089535
:101570000895CF93282F882351F0CB01BA01C22FB1
:101580000E94B23E8FEF8C0FCF910C946D2BCF91B8
:1015900008950F931F938B019C0183E03695279547
:1015A000179507958A95D1F7F801EB5EF64F2081E4
:1015B000422F50E0E62FE77021E030E002C0220F1A
:1015C000331FEA95E2F724233523232B19F0CB01AF
:1015D000019602C080E090E01F910F9108950F9353
:1015E0001F938B019C0183E03695279517950795EE
:1015F0008A95D1F7677081E090E001C0880F6A9505
:10160000EAF7F801EB5EF64F452B21F480959081C7
:10161000892302C09081892B80831F910F910895A7
:10162000CF92DF92EF92FF92CF93DF936B017C0119
:1016300061E08C2D0E948A2CE6012196AE01C70143
:10164000B601CDDFCE01DF91CF91FF90EF90DF901B
:10165000CF900895882341F06FEF680F70E080E02D
:1016600090E040E050E0BBCF0895662319F0613070
:1016700009F062E00C948A2C662311F061E001C04D
:1016800060E00C94C62CCF93DF93EC0189819A81A2
:10169000AB81BC810197A105B105C1F48D8188237F
:1016A000A9F06A857B858C859D8573DF99878887FE
:1016B00040E050E0BA015DDF6A857B858C859D85C1
:1016C00068DF99878887DF91CF91C4CFDF91CF9171
:1016D00008952F923F924F925F926F927F928F92D6
:1016E0009F92AF92BF92CF92DF92EF92FF920F93B1
:1016F0001F93CF93DF93CDB7DEB7E0970FB6F89483
:10170000DEBF0FBECDBF20906B0E30906C0E0091EF
:10171000690E10916A0E2091350D3091360D3E8381
:101720002D83D9018D909D90AD90BC90F8012081C2
:10173000318142815381C501B4010E94463E181691
:101740000CF054C0D801D4962D913D914D915C91EF
:10175000D797C501B4010E94364087FF4AC0E09187
:10176000C30EF091C40EFA83E9837F01EE0CFF1CD7
:10177000EE0CFF1C6801CE0CDF1CD6012D913D91B3
:101780004D915C91C501B4010E94463E87FD06C0A3
:10179000B4E0EB0EF11CE00EF11E16C0F4E0CF1A1F
:1017A000D108D60114962D913D914D915C911797DA
:1017B000C501B4010E94463E87FF1FC0E981FA813E
:1017C0003197FA83E983EACFD7012D913D914D916D
:1017D0005D917D01C501B4010E94364087FD0DC0B9
:1017E000E981FA813196FA83E983EECF1A82198270
:1017F00004C0ECE0F0E0FA83E98329813A81309378
:10180000C40E2093C30E220F331F220F331F3E87B7
:101810002D87F901E00FF11FC080D180E280F380B5
:101820002C5F3F4F3A832983F901E00FF11F40807D
:10183000518062807380A3019201C701B6010E94AA
:10184000463E811155C0A7019601C501B4010E9411
:10185000463E87FF36C08D859E85820D931D9A83F7
:101860008983EFE3FDE08BE49DE0A981BA814D918E
:101870005D916D917C911397419351936193719315
:10188000D896BA83A9838E179F0779F72090710E97
:101890003090720E00916F0E1091700EED81FE81EE
:1018A000C080D180E280F380D8012D913D914D918F
:1018B0005C91C701B6010E94463E18160CF0E4C0C8
:1018C0008FC0E981FA812E0E3F1EEFE3FDE0D101CA
:1018D0004D915D916D917C91419351936193719381
:1018E000B8E32B0E311C2DE0EB34F20781F7CECF9D
:1018F000A5019401C301B2010E94E13D4B015C01CD
:10190000A7019601C301B2010E94E13D9B01AC0118
:10191000C501B4010E944A3E6B017C019B01AC01F0
:1019200060E070E080E89FE30E94E13D69877A878C
:101930008B879C878D859E85820D931D9E878D87C5
:10194000A981BA812A0E3B1EEFE3FDE0FA83E98309
:10195000AD85BE856C9011967C90119712960C9176
:10196000129713961C91F10180809180A280B38020
:10197000A5019401B301C8010E94463E8823B9F035
:101980009301A801C701B6010E943A402B013C0116
:10199000A501940169857A858B859C850E943A40D2
:1019A0009B01AC01C301B2010E94E23D04C0C3012E
:1019B000D801BC01CD01A981BA816D937D938D932E
:1019C0009D93BA83A983ED85FE85F896FE87ED8702
:1019D000F8E32F0E311CAB54BD4009F0B9CF56CF00
:1019E000D80154962D913D914D915C915797C70127
:1019F000B6010E94364087FF4AC0E091C50EF091C3
:101A0000C60EFA83E9835F01AA0CBB1CAA0CBB1C9F
:101A100048018A0C9B1CD4012D913D914D915C9104
:101A2000C701B6010E94463E87FD06C0B4E0AB0E7A
:101A3000B11CA00EB11E16C0F4E08F1A9108D4019B
:101A400014962D913D914D915C911797C701B60168
:101A50000E94463E87FF1FC0E981FA813197FA83D1
:101A6000E983EACFD5012D913D914D915D915D01C5
:101A7000C701B6010E94364087FD0DC0E981FA8199
:101A80003196FA83E983EECF1A82198204C0E4E02A
:101A9000F0E0FA83E98329813A813093C60E2093DE
:101AA000C50E220F331F220F331F3A872987F901F2
:101AB000E00FF11F40805180628073802C5F3F4FA8
:101AC0003A832983F901E00FF11F80809180A28081
:101AD000B380A5019401C301B2010E94463E811169
:101AE0001FC0A3019201C701B6010E94463E87FFB5
:101AF00006C089859A85820D931DFC0104C0E98189
:101B0000FA81E20DF31D80819181A281B3818093DE
:101B10005F0D9093600DA093610DB093620D63C053
:101B2000E985FA85E20DF31D20812D87118102815F
:101B300033813987E981FA81E20DF31D808191813A
:101B4000A281B38189839A83AB83BC839C01AD015D
:101B50006D85712F802F99850E94463E8823A9F1BB
:101B6000A7019601C501B4010E94E13D6B017C0112
:101B7000A3019201C501B4010E94E13D9B01AC01AA
:101B8000C701B6010E944A3E6B017C019B01AC017A
:101B900060E070E080E89FE30E94E13D29813A81A6
:101BA0004B815C810E943A404B015C012D85312FB5
:101BB000402F5985C701B6010E943A409B01AC01F4
:101BC000C501B4010E94E23D04C06D85712F802FD4
:101BD00099858B019C0100935F0D1093600D2093FC
:101BE000610D3093620D2090770E3090780E8090CA
:101BF000750E9090760EAD81BE81CD90DD90ED900A
:101C0000FC90F4012081318142815381C701B601EA
:101C10000E94463E18160CF053C0D4015C962D91DC
:101C20003D914D915C915F97C701B6010E9436408E
:101C300087FF49C0E091C70EF091C80EFA83E9838F
:101C40008F01000F111F000F111F5401A00EB11EB4
:101C5000D5012D913D914D915C91C701B6010E9436
:101C6000463E87FD05C00C5F1F4F080D191D16C0AD
:101C7000F4E0AF1AB108D50114962D913D914D9124
:101C80005C911797C701B6010E94463E87FF1FC0AF
:101C9000E981FA813197FA83E983EACFD8012D915E
:101CA0003D914D915D918D01C701B6010E94364075
:101CB00087FD0DC0E981FA813196FA83E983EECF81
:101CC0001A82198204C0E6E0F0E0FA83E9832981F0
:101CD0003A813093C80E2093C70E220F331F220F74
:101CE000331F3A832983F901E80DF91D40805180A3
:101CF0006280738089010C5F1F4FF401E00FF11FB8
:101D000080809180A280B380A5019401C301B201BB
:101D10000E94463E81111EC0A3019201C701B60177
:101D20000E94463E87FF06C089819A81820D931DDD
:101D3000FC0103C0F101E00FF11F80819181A281BC
:101D4000B38180935B0D90935C0DA0935D0DB09378
:101D50005E0D64C0E981FA81E20DF31D2081298BBB
:101D600031813D8782818D8393819983F101E00FD9
:101D7000F11F80819181A281B38189879A87AB8786
:101D8000BC879C01AD0169897D858D8199810E9407
:101D9000463E8823A9F1A7019601C501B4010E941E
:101DA000E13D6B017C01A3019201C501B4010E94D8
:101DB000E13D9B01AC01C701B6010E944A3E6B01A7
:101DC0007C019B01AC0160E070E080E89FE30E9431
:101DD000E13D29853A854B855C850E943A404B015F
:101DE0005C0129893D854D815981C701B6010E9459
:101DF0003A409B01AC01C501B4010E94E23D04C020
:101E000069897D858D8199818B019C0100935B0D92
:101E100010935C0D20935D0D30935E0D80912E0626
:101E20008130C9F180912C06813029F52091430D34
:101E30003091440D4091450D5091460D60913F0DFC
:101E40007091400D8091410D9091420D0E94E23DB4
:101E50002091470D3091480D4091490D50914A0D08
:101E60000E94E23D60935B0D70935C0D80935D0D6D
:101E700090935E0D10C080915F0D9091600DA091C8
:101E8000610DB091620D80935B0D90935C0DA093FA
:101E90005D0DB0935E0D20915B0D30915C0D409116
:101EA0005D0D50915E0D60914005709141058091EE
:101EB0004205909143050E943A406093A10D7093B2
:101EC000A20D8093A30D9093A40D61E070E080E0DB
:101ED00090E041DB6093B10D7093B20D8093B30D30
:101EE0009093B40D0E94E53E2091680530916905FC
:101EF00040916A0550916B050E943A402091480537
:101F00003091490540914A0550914B050E943A4055
:101F10006B017C016093710D7093720D8093730D52
:101F20009093740D20916C0530916D0540916E0574
:101F300050916F050E943A40698F7A8F8B8F9C8FEA
:101F400080919F0E9091A00EA091A10EB091A20E33
:101F50008D839E83AF83B8878093750D9093760DA4
:101F6000A093770DB093780D209178053091790585
:101F700040917A0550917B05BC01CD010E943A4009
:101F80006D8F7E8F8F8F98A32091A70E3091A80E12
:101F90004091A90E5091AA0E609180057091810523
:101FA00080918205909183050E943A4020E030E0C4
:101FB000A9010E94E23D20E030E0A9010E94E23D3B
:101FC00020E030E0A9010E94E23D69837A838B839F
:101FD0009C836093790D70937A0D80937B0D909321
:101FE0007C0D2091AB0E3091AC0E4091AD0E509116
:101FF000AE0E60919C0570919D0580919E0590911B
:102000009F050E943A4020E030E0A9010E94E23D95
:1020100020E030E0A9010E94E23D20E030E0A9018B
:102020000E94E23D698B7A8B8B8B9C8B2091AF0E4B
:102030003091B00E4091B10E5091B20E6091B80542
:102040007091B9058091BA059091BB050E943A4004
:1020500020E030E0A9010E94E23D20E030E0A9014B
:102060000E94E23D69877A878B879C8760937D0D0C
:1020700070937E0D80937F0D9093800D2091B30E11
:102080003091B40E4091B50E5091B60E6091D405CA
:102090007091D5058091D6059091D7050E943A4060
:1020A00020E030E0A9010E94E23D6D8B7E8B8F8B9A
:1020B000988F2091B70E3091B80E4091B90E509183
:1020C000BA0E6091E0057091E1058091E205909172
:1020D000E3050E943A4020E030E0A9010E94E23D81
:1020E00020E030E0A9010E94E23D2B013C0120915B
:1020F000BB0E3091BC0E4091BD0E5091BE0E609152
:10210000F8057091F9058091FA059091FB050E9400
:102110003A4020E030E0A9010E94E23D20E030E0BA
:10212000A9010E94E23D4B015C012091F404309131
:10213000F5044091F6045091F704C701B6010E94DE
:102140003A40A30192010E94E23D69A37AA38BA3C6
:102150009CA32091F8043091F9044091FA04509125
:10216000FB04C701B6010E943A40A50194010E94F8
:10217000E23D6DA37EA38FA398A72091BF0E30915F
:10218000C00E4091C10E5091C20E60911006709128
:10219000110680911206909113060E943A4020E0A9
:1021A00030E0A9010E94E23D4B015C012091FC045A
:1021B0003091FD044091FE045091FF04C701B60127
:1021C0000E943A409B01AC01C501B4010E94E23D6E
:1021D00069A77AA78BA79CA790E0692E95E0792E36
:1021E0000BE41DE020E1422E25E0522E7E866D8616
:1021F00094E0690E711CAD85BE8590962D913D9140
:102200004D915C9193976DA17EA18FA198A50E949D
:102210003A404B015C01ED85FE8520893189428978
:10222000538969A17AA18BA19CA10E943A409B018C
:10223000AC01C501B4010E94E23D4B015C01AD85DA
:10224000BE85D0962D913D914D915C91D39769A516
:102250007AA58BA59CA50E943A409B01AC01C501C3
:10226000B4010E94E23D4B015C01ED85FE852081B9
:10227000318142815381C701B6010E943A409B01DE
:10228000AC01C501B4010E94E23DD8016D937D937C
:102290008D939D938D014614570409F0A7CF80912B
:1022A0002F068130E1F5C092A50DD092A60DE092E7
:1022B000A70DF092A80D20919B0E30919C0E40919D
:1022C0009D0E50919E0E698D7A8D8B8D9C8D0E94F6
:1022D000E13D6093A90D7093AA0D8093AB0D90938F
:1022E000AC0D8D819E81AF81B8858093AD0D9093AB
:1022F000AE0DA093AF0DB093B00D2091A30E309111
:10230000A40E4091A50E5091A60E6D8D7E8D8F8DE1
:1023100098A10E94E13D8B018DA79D8769C08091A6
:102320002D06813059F589819A81AB81BC818093DA
:10233000A50D9093A60DA093A70DB093A80D898924
:102340009A89AB89BC898093A90D9093AA0DA0931B
:10235000AB0DB093AC0D89859A85AB85BC85809318
:10236000AD0D9093AE0DA093AF0DB093B00D0D8950
:102370001E899F899DA7A88DAD873AC080914B0D7E
:1023800090914C0DA0914D0DB0914E0D8093A50DE7
:102390009093A60DA093A70DB093A80D80914F0D1B
:1023A0009091500DA091510DB091520D8093A90DB7
:1023B0009093AA0DA093AB0DB093AC0D8091530DEB
:1023C0009091540DA091550DB091560D8093AD0D87
:1023D0009093AE0DA093AF0DB093B00D0091570D3B
:1023E0001091580DB091590DBDA7E0915A0DED8790
:1023F0008090A10D9090A20DA090A30DB090A40D7F
:102400002091A50D3091A60D4091A70D5091A80DDA
:10241000C501B4010E94E23D20917C0430917D040D
:1024200040917E0450917F040E943A402B013C0170
:102430002091A90D3091AA0D4091AB0D5091AC0D9A
:10244000C501B4010E94E23D2091800430918104D5
:1024500040918204509183040E943A409B01AC0158
:10246000C301B2010E94E23D2B013C012091AD0D60
:102470003091AE0D4091AF0D5091B00DC501B4013A
:102480000E94E23D209184043091850440918604AD
:10249000509187040E943A409B01AC01C301B201F4
:1024A0000E94E23D2B013C01A5019401B8018DA5DC
:1024B0009D850E94E23D20918804309189044091DD
:1024C0008A0450918B040E943A409B01AC01C301E5
:1024D000B2010E94E23D4B015C0120915B0D309105
:1024E0005C0D40915D0D50915E0D609164057091A1
:1024F000650580916605909167050E943A409B01B1
:10250000AC01C501B4010E94E23D4B015C0120E039
:1025100030E040E45FE36D817E818F8198859F7715
:102520000E94463E87FF05C060E070E080E89FE3C0
:1025300003C060E070E0CB01A50194010E943A4025
:102540006D877E878F87988B6093810D7093820D46
:102550008093830D9093840D8CE0282E84E0382E98
:1025600025E83DE03EA72DA738AA2FA600E010E001
:10257000EFA5F8A9E455FF4F2081318142815381B5
:102580006DA17EA18FA198A50E943A404B015C01EC
:10259000EFA5F8A9E056FF4F208131814281538198
:1025A00069A17AA18BA19CA10E943A409B01AC0138
:1025B000C501B4010E94E23D4B015C01EFA5F8A901
:1025C000E854FF4F208131814281538169A57AA56A
:1025D0008BA59CA50E943A409B01AC01C501B401AA
:1025E0000E94E23D4B015C01EFA5F8A9E452FF4FC8
:1025F00020813181428153816D817E818F819885D7
:102600000E943A402B013C01EFA5F8A9E053FF4F8F
:102610002081318142815381C701B6010E943A4035
:102620009B01AC01C301B2010E94E23D2B013C01C0
:10263000EFA5F8A9EC53FF4F2081318142815381EE
:102640006D857E858F8598890E943A409B01AC01FB
:10265000C301B2010E94E23D9B01AC01C501B4017E
:102660000E94E23DADA5BEA56D937D938D939D9394
:10267000BEA7ADA70F5F1F4FEFA5F8A93496F8AB23
:10268000EFA70330110509F073CF20915C0430915E
:102690005D0440915E0450915F0469817A818B8171
:1026A0009C810E943A404B015C012091640430916E
:1026B0006504409166045091670469897A898B8921
:1026C0009C890E943A409B01AC01C501B4010E9463
:1026D000E23D4B015C0120916C0430916D0440910E
:1026E0006E0450916F0469857A858B859C850E9464
:1026F0003A409B01AC01C501B4010E94E23D4B018F
:102700005C012091740430917504409176045091DD
:1027100077046D897E898F89988D0E943A409B014C
:10272000AC01C501B4010E94E23D2B013C01609364
:10273000630D7093640D8093650D9093660D2091E9
:1027400068043091690440916A0450916B0469896E
:102750007A898B899C890E943A404B015C012091C7
:102760006004309161044091620450916304698176
:102770007A818B819C810E943A409B01AC01C5010A
:10278000B4010E94E23D4B015C0120917004309144
:102790007104409172045091730469857A858B8528
:1027A0009C850E943A409B01AC01C501B4010E9486
:1027B000E23D4B015C012091780430917904409115
:1027C0007A0450917B046D897E898F89988D0E944F
:1027D0003A409B01AC01C501B4010E94E23D4B01AE
:1027E0005C016093670D7093680D8093690D909301
:1027F0006A0DA3019201C701B6010E94E13D2B01C0
:102800003C016093A10D7093A20D8093A30D909352
:10281000A40DA50194016D817E818F8198850E9410
:10282000E13D6D837E838F83988701E91DE024E07D
:1028300030E03AA329A3D10150962D913D914D91BD
:102840005C91539769897A898B899C890E943A4067
:102850006B017C01F10120813181428153816981C9
:102860007A818B819C810E943A409B01AC01C70117
:10287000B6010E94E23D6B017C01D10190962D9141
:102880003D914D915C91939769857A858B859C8567
:102890000E943A409B01AC01C701B6010E94E23D93
:1028A0006B017C01F10120A931A942A953A96D89CD
:1028B0007E898F89988D0E943A409B01AC01C701A7
:1028C000B6010E94E23D6B017C01F101E057FF4F30
:1028D00020813181428153816D817E818F819885F4
:1028E0000E943A404B015C01F101E058FF4F20810A
:1028F000318142815381C301B2010E943A409B0160
:10290000AC01C501B4010E94E23D4B015C01F10143
:10291000E05CFF4F20813181428153816D857E854E
:102920008F8598890E943A409B01AC01C501B40192
:102930000E94E23D9B01AC01C701B6010E94E23D4D
:10294000D8016D937D938D939D938D01E9A1FAA19B
:102950003197FAA3E9A3F4E02F0E311C29A13AA183
:10296000232B09F068CF8BE69DE00E947D076091E4
:102970006B0D70916C0D072E000C880B990B0E944B
:10298000E53E209144053091450540914605509122
:1029900047050E94E13D20911806309119064091AB
:1029A0001A0650911B060E943A404B015C0120918F
:1029B0005C0530915D0540915E0550915F05609129
:1029C000810D7091820D8091830D9091840D0E94F4
:1029D000463E682F661F6627661F88E00E943C0BF4
:1029E0006091CD0D7091CE0D8091CF0D9091D00D55
:1029F0000E94C90A9093CC0D8093CB0D0091810D5C
:102A00001091820D3091830D3D838091840D8983D7
:102A1000C0905405D0905505E0905605F0905705AC
:102A20009601A701B8018D8199810E943640181640
:102A30008CF0C0901C06D0901D06E0901E06F09011
:102A40001F069601A701B8018D8199810E94463E1B
:102A500087FF03C08601ED82F98220912006309124
:102A600021064091220650912306B8018D8199815B
:102A70000E943A400E94203F6B017C019DD581114C
:102A800020C0C701B6016DD581111BC020E030E028
:102A900040E853E4C701B6010E943A3F6B017C0154
:102AA0008B01ED82F98220E030E0A9010E94463ED0
:102AB00087FF0BC0C701B60190580E94B73E6195D1
:102AC00009C000E010E01D821982B8018D81998152
:102AD0000E94B73E70E080E090E00E94E33EAB01D0
:102AE000BC018091CB0D9091CC0D0E94B90A209130
:102AF00060053091610540916205509163056091D8
:102B0000810D7091820D8091830D9091840D0E94B2
:102B1000463E682F661F6627661F85E00E943C0BB5
:102B20006091BF0D7091C00D8091C10D9091C20D4B
:102B30000E94C90A9093BE0D8093BD0D0091810D36
:102B40001091820D9091830D9D83A091840DA98396
:102B5000C0905805D0905905E0905A05F0905B055B
:102B60009601A701B801892F9A2F0E9436401816A6
:102B70008CF0C0902406D0902506E0902606F090B8
:102B800027069601A701B8018D8199810E94463ED2
:102B900087FF03C08601ED82F982209128063091DB
:102BA000290640912A0650912B06B8018D81998102
:102BB0000E943A400E94203F6B017C01FDD48111AC
:102BC00020C0C701B601CDD481111BC020E030E088
:102BD00040E853E4C701B6010E943A3F6B017C0113
:102BE0008B01ED82F98220E030E0A9010E94463E8F
:102BF00087FF0BC0C701B60190580E94B73E619590
:102C000009C000E010E01D821982B8018D81998110
:102C10000E94B73E70E080E090E00E94E33EAB018E
:102C2000BC018091BD0D9091BE0D0E94B90A898DA5
:102C30009A8DAB8DBC8D80939B0E90939C0EA09330
:102C40009D0EB0939E0E20917005309171054091BC
:102C5000720550917305C501B4010E943A4020915C
:102C60009F0E3091A00E4091A10E5091A20E0E9495
:102C7000E23D60939F0E7093A00E8093A10E9093FF
:102C8000A20E8D8D9E8DAF8DB8A18093A30E9093D3
:102C9000A40EA093A50EB093A60E2091A70E30917E
:102CA000A80E4091A90E5091AA0E60917C057091DA
:102CB0007D0580917E0590917F050E943A4020918C
:102CC000910D3091920D4091930D5091940D0E9471
:102CD000E23D6093A70E7093A80E8093A90E909387
:102CE000AA0E2091AB0E3091AC0E4091AD0E5091DA
:102CF000AE0E609198057091990580919A0590911A
:102D00009B050E943A402091950D3091960D40917F
:102D1000970D5091980D0E94E23D6093AB0E709319
:102D2000AC0E8093AD0E9093AE0E2091AF0E30910D
:102D3000B00E4091B10E5091B20E6091B4057091F9
:102D4000B5058091B6059091B7050E943A40209153
:102D5000990D30919A0D40919B0D50919C0D0E94C0
:102D6000E23D6093AF0E7093B00E8093B10E9093DE
:102D7000B20E2091B30E3091B40E4091B50E509129
:102D8000B60E6091D0057091D1058091D2059091D9
:102D9000D3050E943A4020919D0D30919E0D4091A7
:102DA0009F0D5091A00D0E94E23D6093B30E709371
:102DB000B40E8093B50E9093B60E2091B70E30915D
:102DC000B80E4091B90E5091BA0E6091DC05709129
:102DD000DD058091DE059091DF050E943A4020914B
:102DE000850D3091860D4091870D5091880D0E9480
:102DF000E23D6093B70E7093B80E8093B90E909336
:102E0000BA0E2091BB0E3091BC0E4091BD0E509178
:102E1000BE0E6091F4057091F5058091F6059091D4
:102E2000F7050E943A402091890D30918A0D40911A
:102E30008B0D50918C0D0E94E23D6093BB0E709300
:102E4000BC0E8093BD0E9093BE0E2091BF0E3091AC
:102E5000C00E4091C10E5091C20E60910C0670914F
:102E60000D0680910E0690910F060E943A40209127
:102E70008D0D30918E0D40918F0D5091900D0E94CF
:102E8000E23D6093BF0E7093C00E8093C10E90938D
:102E9000C20E82E090E00E943728E091350DF0915B
:102EA000360D408151816281738180E090E00E9403
:102EB000332860912A0D70912B0D80912C0D9091EB
:102EC0002D0D0E94E33E26EA3BE944EC5BE30E94C1
:102ED0003A40AB01BC0181E090E00E943328809031
:102EE0002E0D90902F0DA090300DB090310D20E060
:102EF00030E040E85FEBC501B4010E94463EA0917E
:102F0000350DB091360DBA83A983882311F1CD9088
:102F1000DD90ED90FC90A7019601C501B4010E94DF
:102F2000E13D4B015C0120E030E040E054E3C701AB
:102F3000B6010E943A409B01AC01C501B4010E9458
:102F40003640181634F08BE696E09093900C809300
:102F50008F0C8091340D882331F08BE696E09093AE
:102F6000900C80938F0C8091220D9091230DA09155
:102F7000240DB091250DBC01CD016F5F7F4F8F4FA8
:102F80009F4F6093220D7093230D8093240D909397
:102F9000250D0E94E33E9B01AC016091260D7091CE
:102FA000270D8091280D9091290D0E943A40E981CA
:102FB000FA81608371838283938380912A0D90913B
:102FC0002B0DA0912C0DB0912D0D0196A11DB11DC1
:102FD00080932A0D90932B0DA0932C0DB0932D0D63
:102FE000E0960FB6F894DEBF0FBECDBFDF91CF9154
:102FF0001F910F91FF90EF90DF90CF90BF90AF9017
:103000009F908F907F906F905F904F903F902F9008
:1030100008952F923F924F925F926F927F928F927C
:103020009F92AF92BF92CF92DF92EF92FF920F9357
:103030001F93CF93DF9384E090E05CD2EFE8FCE055
:1030400080EBDF011D928A95E9F782E39DE097838B
:103050008683C5E3DDE0D093D00CC093CF0C06E2AD
:103060001DE0158B048BF093FA0CE093F90CF583BB
:10307000E48321E030E0DC012D933C938FE796E080
:103080009387828727E33DE03983288340E050E03F
:1030900060E87FEB40932E0D50932F0D6093300D21
:1030A0007093310D46EA5BE964EC7BE3D8014D9304
:1030B0005D936D937C931397C0E1DDE084EE97E51B
:1030C000AFE2B4EA88839983AA83BB8382EA9FE054
:1030D000A9E6B9E68093140D9093150DA093160DF3
:1030E000B093170D87ED91EDAAEDB7E98093180D18
:1030F0009093190DA0931A0DB0931B0D84E79CE2D9
:10310000ADE0B2E580931C0D90931D0DA0931E0DB4
:10311000B0931F0DA6E4B9E0B383A283E2E3F9E024
:103120001196FC93EE938DE997E0918380839383CE
:10313000828395838483978386839187808793870F
:1031400082879587848797878687918B808B938BDF
:10315000828B80E29DE015969C938E931497139634
:10316000DC93CE93129717963C932E93169726E7EF
:10317000EFE3FDE0DF011D922A95E9F7C5EBDDE005
:1031800024E131E0FE01A901119241505040E1F7E4
:10319000EEE1F9E024E1DF011D922A95E9F7DC0177
:1031A000ED93FC9383E190E09183808386EE93E03E
:1031B0009383828380EC93E0958384838CE693E011
:1031C0009783868388E593E09187808780E293E008
:1031D00090936A0E8093690E88E792E090936C0E4C
:1031E00080936B0E80E692E09093700E80936F0E4A
:1031F00088E492E09093720E8093710E88E292E0E0
:103200009093760E8093750E88E092E09093780EFE
:103210008093770E812C912C540183948092520ECE
:103220009092530EA092540EB092550E42E150E08F
:1032300063E170E081E090E00E94B609CC24C39481
:10324000C092560E1092570E8092580E9092590EC0
:10325000A0925A0EB0925B0E80E090E00E94700740
:10326000C0925C0E1092630E8092640E9092650E76
:10327000A092660EB092670E61E088E00E94350B66
:10328000C092680E1E86E1E1FEE092E3692E608244
:1032900023E3722E7092120E34E3232E2092130E2B
:1032A00045E3342E3092140E56E3452E4092150E0F
:1032B00067E3562E5092160EB8E3B093170E49E30B
:1032C0004093180E71E3D72ED092190E50E350930D
:1032D0001A0ED0921B0ED0921C0ED0921D0E609230
:1032E0001E0ED0921F0E7092200EFD8BEC8B86E08E
:1032F00090E0A0E0B0E0888F998FAA8FBB8F1B8AE7
:103300008F86988AA98ABA8AE12CF12C8701A801B4
:10331000970166E070E080E090E00E94100B9F8BC8
:103320008E8B688D798D8A8D9B8D0E94C90A9F8BAB
:103330008E8B0E94B80ACB8A10925D0E80925E0E30
:1033400090925F0EA092600EB092610E61E085E0F7
:103350000E94350BC092620E18826C8E7D8E2E8E6E
:103360003F8E48A259A288E38AA3A9E3ABA3DCA2BB
:10337000B0E3BDA3DEA2DFA2D8A669A6DAA67BA62B
:1033800081ED9DE09F838E8382E090E0A0E0B0E03D
:103390008A879B87AC87BD871D8289829A82AB8290
:1033A000BC82A801970162E070E080E090E00E949A
:1033B000100B998788876A857B858C859D850E94FF
:1033C000C90A998788870E94B80ACD8280914C05E6
:1033D00090914D05A0914E05B0914F0580939B0EA5
:1033E00090939C0EA0939D0EB0939E0E80917405B9
:1033F00090917505A0917605B091770580939F0E09
:103400009093A00EA093A10EB093A20E80915005B0
:1034100090915105A0915205B09153058093A30E50
:103420009093A40EA093A50EB093A60EDF91CF911A
:103430001F910F91FF90EF90DF90CF90BF90AF90D2
:103440009F908F907F906F905F904F903F902F90C4
:1034500008958091510E811103C081E08093510E37
:103460008091570E811103C081E08093570E8091A7
:10347000630E811103C081E08093630E8091C30DC0
:10348000811107C081E08093C30D83EC9DE00E9411
:10349000430B80915D0E811103C081E080935D0E2E
:1034A0008091B50D811107C081E08093B50D85EB4A
:1034B0009DE00C94430B089560E070E080E89FE786
:1034C000089560E070E080E89FE7089560E070E0B4
:1034D00080E89FEF089560E070E080E89FEF089536
:1034E00060E070E080EC9FEF089560E070E080ECB9
:1034F0009FEF0895F5DF6093D50E7093D60E8093FD
:10350000D70E9093D80EF1DF6093C90E7093CA0E58
:103510008093CB0E9093CC0ECFDF6093D10E70933F
:10352000D20E8093D30E9093D40ECBDF6093CD0E4A
:103530007093CE0E8093CF0E9093D00EC7DF609322
:10354000D90E7093DA0E8093DB0E9093DC0EC3DFFE
:103550006093DD0E7093DE0E8093DF0E9093E00E8D
:103560000895CF92DF92EF92FF92CF936B017C018F
:103570009B01AC016091CD0E7091CE0E8091CF0E6B
:103580009091D00E0E94463EC1E0882371F0A701C1
:1035900096016091DD0E7091DE0E8091DF0E9091AC
:1035A000E00E0E94463E8111C0E08C2FCF91FF902B
:1035B000EF90DF90CF9008950F931F938B019C01A4
:1035C0000027112720783F770115110520483F4734
:1035D00049F4AB01BC016F77772781E0452B462B7F
:1035E000472B09F480E01F910F910895EF92FF920D
:1035F0000F931F93CF93DF93DC01EA01F901149637
:103600008D919C91159712960D911C911397080F0F
:10361000191F2881398118964D915C91199742178D
:10362000530728F04D915C911197452B39F17801A2
:10363000E21AF30A18964D915C911997481B590BA1
:103640004E0D5F1D4617570794F1A901460F571FEE
:1036500040175107E0F0F182E082338322836E1934
:103660007F0975836483161617061CF4382F292FDB
:1036700002C030E020E03683278313C018968D9176
:103680009C911997821B930B8617970784F071837F
:103690006083338322831582148217821682888185
:1036A0009981680F791F7983688380E001C081E088
:1036B000DF91CF911F910F91FF90EF900895CF92DE
:1036C000DF92EF92FF92CF93DF936B017C0184E452
:1036D0008C9DE0018D9DD00D1124CE5AD64F8AA924
:1036E0009BA9009721F00E94A0411BAA1AAA84E47A
:1036F0008C9DF0018D9DF00D1124EE5AF64F86A998
:1037000097A9009711F00E94A04184E48C9DF001DC
:103710008D9DF00D1124EE5AF64F138A128A168AE7
:10372000178A108E118E128E138E148E158E168E91
:10373000178E10A211A281E090E093A382A315A29C
:1037400014A216A217A210A611A613A612A615A6B9
:1037500014A616A617A610AA11AA13AA12AA15AA89
:1037600014AA17AA16AA11AE10AE12AE13AE14AE5A
:1037700015AEDF01DE961D921D921D921C921397CD
:10378000EE5BFF4F11821082DF91CF91FF90EF909F
:10379000DF90CF9008950F931F93CF93DF93EB01AA
:1037A000DC018D919C91FC01A681B781E881F981B2
:1037B00023E0EE0FFF1F2A95E1F712962D913C9121
:1037C0001397E20FF31F00811181AC85BD859D0128
:1037D000220F331FDC0112968D919C911397D90112
:1037E000A80FB91F8D919C9124813581232B19F449
:1037F00061E070E002C062E070E0869F9001879F08
:10380000300D969F300D112488859985289FB00131
:10381000299F700D389F700D1124EC81FD812E9F22
:10382000C0012F9F900D3E9F900D1124800F911F7E
:10383000FA019183808373836283DF91CF911F911B
:103840000F9108952F923F924F925F926F927F92C5
:103850008F929F92AF92BF92CF92DF92EF92FF92A0
:103860000F931F93CF93DF9300D000D0CDB7DEB777
:10387000DC011496ED91FC9115970190F081E02DFB
:10388000808591859A838983A281B381BC83AB8330
:10389000FB0181909190A190B190C12CD12C760127
:1038A000C814D904EA04FB040CF05DC044805580C0
:1038B000668077804085518562857385CF0140960B
:1038C0009E838D83A081B1819D0183E0220F331FF0
:1038D0008A95E1F7A981BA8112968D919C911397EF
:1038E000D901A80FB91F2D903C9011970484F5853C
:1038F000E02DEE0FFF1F8B819C81E80FF91F0190D7
:10390000F081E02D14968D919C911597892B19F4D7
:1039100081E090E002C082E090E08E9F90018F9F56
:10392000300D9E9F300D1124249F8001259F100D86
:10393000349F100D1124249DC001259D900D349DB0
:10394000900D1124A8016D817E81820D931D0E942E
:103950002942ED81FE81E00FF11F9FEFC91AD90ABC
:10396000E90AF90A9DCF26960FB6F894DEBF0FBE7E
:10397000CDBFDF91CF911F910F91FF90EF90DF901E
:10398000CF90BF90AF909F908F907F906F905F90FF
:103990004F903F902F900895CF93DF93DB01A05D70
:1039A000B94F2C91222369F024E4269FF001279F30
:1039B000F00D1124EE5AF64FEF0119922A95E9F70E
:1039C0001C9224E4269FF001279FF00D1124EE5A4B
:1039D000F64F14821582168217821186108613867E
:1039E0001286118A108A17861686DF91CF9167CECC
:1039F0002F923F924F925F926F927F928F929F92FF
:103A0000AF92BF92CF92DF92EF92FF920F931F93EC
:103A1000CF93DF93CDB7DEB728970FB6F894DEBF0C
:103A20000FBECDBF24E4269FD001279FB00D1124E7
:103A3000AE5AB64FBC83AB8314960D911D912D9158
:103A40003C911797012B022B032B09F4C1C02A01CB
:103A50006B017C01612C712C812C912C5401B88755
:103A6000AF831496BC83AB83EF81F8853896FE83D1
:103A7000ED83EB81FC8180819181A281B3818816E5
:103A80009906AA06BB0694F5AD81BE81ED91FC9125
:103A9000E60DF71DB281B98323812A830B2F122FE4
:103AA000212C312C24143504A4F4D801ED91FC917F
:103AB000309749F0848195810E94A041F80180816E
:103AC00091810E94A041FFEF2F1A3F0A0E5F1F4F06
:103AD000E9CF89819A810E94A0412FEF821A920A30
:103AE000A20AB20A34E0630E711CC3CFAF81B8855D
:103AF00018968D919C9119970E94A041EF81F885AD
:103B000082859385892B81F100E010E01C821B8265
:103B100024E42C9DC0012D9D900D11249C01245A5C
:103B2000364F59012B813C81241535058CF4D50184
:103B3000ED91FC91E00FF11F848195810E94A041DD
:103B4000EB81FC813196FC83EB83025F1F4FEACF50
:103B500084E48C9DF0018D9DF00D1124EE5AF64FFA
:103B6000828593850E94A04184E48C9DD0018D9D27
:103B7000B00D1124AE5AB64FBC83AB8350968D91D5
:103B80009C9151970E94A041EB81FC81868597858D
:103B90000E94A041C701B60192DDC701B601289677
:103BA0000FB6F894DEBF0FBECDBFDF91CF911F914E
:103BB0000F91FF90EF90DF90CF90BF90AF909F90CC
:103BC0008F907F906F905F904F903F902F90E4CEBA
:103BD00028960FB6F894DEBF0FBECDBFDF91CF9110
:103BE0001F910F91FF90EF90DF90CF90BF90AF901B
:103BF0009F908F907F906F905F904F903F902F900D
:103C0000089524E4269FF001279FF00D1124EE5A19
:103C1000F64F828993890497029758F485E090E0E3
:103C2000938B828B8FEF9FEFDC01828F938FA48F1A
:103C3000B58F08952F923F924F925F926F927F922D
:103C40008F929F92AF92BF92CF92DF92EF92FF92AC
:103C50000F931F93CF93DF93CDB7DEB7AA970FB61D
:103C6000F894DEBF0FBECDBF9AA389A3788F6F8B68
:103C70007A01098B1A8B2B8B3C8B84E429893A8936
:103C8000829F6001839FD00C112486010E5A164F2B
:103C900089899A89AB89BC89F80180839183A28341
:103CA000B383AB01BC01CD01A3DED601AA5AB64F46
:103CB00084E0F70101900D928A95E1F71701F4E095
:103CC0002F0E311C64E070E0D80114968D919C9108
:103CD00015970E94EE40F80191878087892B09F49F
:103CE00081C11E8E1D8E198E1A8E1B8E1C8E18A3DE
:103CF0000F8F98012C5F3F4F38A72FA3A801485F73
:103D00005F4F5AA749A7EFA1F8A580819181A281B1
:103D1000B381298D3A8D4B8D5C8D281739074A0761
:103D20005B070CF0CEC0A9A5BAA58D919C91ED8D35
:103D3000FE8DE80FF91FFE8BED8BD101ED91FC910B
:103D4000EE0FFF1FA9A1BAA18D919C91E80FF91F59
:103D500080819181ED89FE8991838083D1011496C0
:103D60002D913D914D915C9117972BA33CA34DA3B1
:103D70005EA3B8E02B0E311C62E070E08F89988D55
:103D80000E94EE40ED89FE8993838283892B09F49A
:103D900029C1412C512C32012BA13CA14DA15EA186
:103DA00042165306640675060CF025C15101F4E075
:103DB000AF0EB11CD101ED90FC90EE0CFF1CED8913
:103DC000FE89028113810E0D1F1D68E070E081E005
:103DD00090E00E94EE40D8018D939C93ED89FE897E
:103DE00082819381FC01EE0DFF1DC080D180C11442
:103DF000D10409F4F7C084E0F501D60101900D92D9
:103E00008A95E1F7F8E02F0E311CF601808191814F
:103E1000A281B381181619061A061B060CF04BC0B6
:103E200064E070E00E94EE40D60115969C938E935C
:103E30001497892B09F4D6C0E12CF12C812C912CFC
:103E40005401F60180819181A281B381881699067F
:103E5000AA06BB0684F5F601048115810E0D1F1D0F
:103E600080E1F101DE01119601900D928A95E1F752
:103E7000F0E12F0E311CA801BE016F5F7F4FA9A199
:103E8000BAA114968D919C91159785DCF601268137
:103E90003781D80112968D919C911397820F931FB1
:103EA00097838683BFEF8B1A9B0AAB0ABB0AE4E0B9
:103EB000EE0EF11CC6CFFFEF4F1A5F0A6F0A7F0AA2
:103EC0006BCF6EE070E08F89988D0E94EE40AF8DD1
:103ED000B8A11B969C938E931A97A12CB12CC12C40
:103EE000D12CE12CF12C24E4E989FA892E9FC00120
:103EF0002F9F900D11249C01245A364F3E8B2D8B01
:103F000088248394912C4F89588DC416D5060CF0C3
:103F100041C0D1014D905D906D907D901D01ED8966
:103F2000FE89008111810A0D1B1D77FC5BC0D80141
:103F300011969C928E92411451046104710449F0CF
:103F4000C2010E940841F80195838483892B31F4D2
:103F500049C0D80115961C921E921497F8015382FD
:103F60004282848195819783868391878087138697
:103F7000128681E090E045284628472811F480E029
:103F800090E0E80EF91EFFEFCF1ADF0A2EE0A20E36
:103F9000B11CB9CF84E4A989BA898A9F80018B9F1B
:103FA000100D11240E5A164FF80115861486C701FC
:103FB00033E0880F991F3A95E1F70E940841D80134
:103FC00051969C938E935097892B61F0C701880F6F
:103FD000991F0E940841F80197878687892B11F065
:103FE00080E01CC04F89588D69897A898B899C89AA
:103FF000FFDC81E013C0298D3A8D4B8D5C8D2F5FE6
:104000003F4F4F4F5F4F298F3A8F4B8F5C8F4D8DB6
:104010005E8D4C5F5F4F5E8F4D8F75CEAA960FB64B
:10402000F894DEBF0FBECDBFDF91CF911F910F91EE
:10403000FF90EF90DF90CF90BF90AF909F908F90C8
:104040007F906F905F904F903F902F9008952F92A8
:104050003F924F925F926F927F928F929F92AF9218
:10406000BF92CF92DF92EF92FF920F931F93CF9365
:10407000DF93CDB7DEB768970FB6F894DEBF0FBEFB
:10408000CDBF9C8B8B8B69017A0124E42C9DC001F0
:104090002D9D900D11249C012E5A364F5901FB0184
:1040A00020813181F501358B248BDC01A859B64F75
:1040B000FB01349624E001900D922A95E1F7DC0192
:1040C000A459B64FFB01389624E001900D922A9531
:1040D000E1F7DC01A059B64FFB013C9624E00190CA
:1040E0000D922A95E1F7DC01A058B64FFB017096BE
:1040F00084E001900D928A95E1F78B010C5E1F4FD1
:10410000F50186A597A5A0A9B1A9181619060CF066
:1041100064C0880F991F880F991F0E940841F501FC
:1041200093AB82AB892B09F4B5C0812C912C412C27
:10413000512C32019501225D3F4F3E8B2D8BC501E5
:10414000C296988F8F8BF496FA8BE98BB301A201FC
:104150002FEF421A520A620A720AED89FE898081A3
:104160009181A281B381481759076A077B0754F5EB
:10417000EF89F88D20803180280C391C80E1F8010E
:10418000DE01119601900D928A95E1F7005F1F4FB5
:10419000A101BE016F5F7F4FEB89FC89848195810E
:1041A000FADAE989FA8920813181F10182819381EA
:1041B000820F931FE989FA8991838083F4E08F0E3F
:1041C000911CC4CFF50184A995A90E940841F5016D
:1041D00097AB86AB892B09F45DC0F8018081918192
:1041E000A281B38124E42C9DF0012D9DF00D1124BA
:1041F000EE5AF64FAC01BD014D7F21E030E0452B7A
:10420000462B472B11F020E030E033A322A324E417
:104210002C9DF0012D9DF00D1124EE5AF64F0197C3
:10422000A109B10921E030E00297A105B10510F024
:1042300020E030E035A324A324E42C9DC0012D9D73
:10424000900D1124DC01A858B64FF801349624E0F3
:1042500001900D922A95E1F7FC01EE5AF64F868DFA
:10426000978DA0A1B1A1B7FF10C0B095A095909572
:1042700081959F4FAF4FBF4F82AF93AFA4AFB5AF04
:10428000168E178E10A211A20AC012AE13AE14AE73
:1042900015AE05C0C701B60112DA81E001C080E0A9
:1042A00068960FB6F894DEBF0FBECDBFDF91CF91F9
:1042B0001F910F91FF90EF90DF90CF90BF90AF9044
:1042C0009F908F907F906F905F904F903F902F9036
:1042D0000895CF92DF92EF92FF92CF93DF931092E7
:1042E000DA0924E4269FF001279FF00D1124EE5AED
:1042F000F64F15A614A620E030E0C12CD12CDF012A
:104300001A96C1E0D0E0C416D506D4F4ED91FC9124
:104310001197E20FF31FE280F3801E141F0454F480
:10432000E480F580F782E682F186E08613861286C5
:10433000D183C083EFEFCE1ADE0A225F3F4FE3CF77
:1043400024E4269FF001279FF00D1124EE5AF64F2A
:1043500013A612A611AE10AEDF01DE961D921D92BD
:104360001D921C92139782E090E0938B828BDF91D9
:10437000CF91FF90EF90DF90CF90089524E4269F97
:10438000F001279FF00D1124EE5AF64F138A128A7E
:104390002FCB24E4269FF001279FF00D1124EE5A25
:1043A000F64F8289938981309105C8F08530910557
:1043B00018F0059769F008958FEF9FEFDC01828F69
:1043C000938FA48FB58F85E090E0938B828B0895B7
:1043D0008FEF9FEFDC01828F938FA48FB58F0895AD
:1043E00024E4249FF001259FF00D1124EE5AF64F8E
:1043F0002EE0AC01249FC001259F900D1124028462
:10440000F385E02DE80FF91F81E08093DA098285BA
:10441000938591878087408551852681378181E00A
:1044200090E04217530711F080E090E09183808381
:1044300008952F923F924F925F926F927F928F9248
:104440009F92AF92BF92CF92DF92EF92FF920F9323
:104450001F93CF93DF93CDB7DEB7C055D1090FB609
:10446000F894DEBF0FBECDBF9EAF8DAF4BA75CA74C
:104470006DA77EA76801790184E48C9D80018D9DE4
:10448000100D1124F801EE5AF64F2285338525963A
:104490003FAF2EAF259782899389029709F05FC1BC
:1044A00086A597A5A0A9B1A9892B8A2B8B2B29F4C6
:1044B00084E090E0938B828B52C1848995894DADC5
:1044C0005EAD4817590709F04AC186A997A998AB6C
:1044D0008FA71CAE1BAE1FAA18AE19AE1AAE8F0165
:1044E000DF019E962796BFAFAEAF2797F29629962B
:1044F000FFAFEEAF29979801285C3F4F2B963FAF57
:104500002EAF2B97A8014A5D5F4F2D965FAF4EAF40
:104510002D97C80182962F969FAF8EAF2F971A972F
:104520006196BFAFAEAF61972796EEADFFAD27970F
:1045300080819181A281B3812FA938AD49AD5AAD57
:10454000281739074A075B070CF0E8C02996EEAD3B
:10455000FFAD2997808191812BAD3CAD280F391F8C
:104560003CAB2BABD90112960D90BC91A02D21969E
:10457000BFAFAEAF2197B695A795B695A7952396F1
:10458000BFAFAEAF23972B96EEADFFAD2B978081DB
:104590009181892B09F497C02D96AEADBFAD2D97B3
:1045A0008D909D90AD90BC902FA438A8F9010190FA
:1045B000F081E02DFAABE9AB1EAA1DAA23968EADC1
:1045C0009FAD2397ADA9BEA9A817B9070CF07BC072
:1045D0002F96AEADBFAD2F978D919C91892B71F128
:1045E000E9A9FAA94080518062807380A3019201F9
:1045F000C501B4010E94463E181664F0D1012D9108
:104600003D914D915C91C501B4010E943640181650
:104610000CF48CC0A3019201C501B4010E94463E76
:1046200087FF0CC0F1012081318142815381C50196
:10463000B4010E94463E882309F478C06196AEAD6D
:10464000BFAD61978D919C91892B69F1E9A9FAA978
:104650004080518062807380A3019201C501B40142
:104660000E943640181664F4D1012D913D914D9170
:104670005C91C501B4010E94463E18160CF056C06C
:10468000A3019201C501B4010E94463E81110BC0F5
:10469000F1012081318142815381C501B4010E9421
:1046A000463E87FD43C02DA93EA92F5F3F4F3EAB3D
:1046B0002DAB34E0230E311C49A95AA94C5F5F4F42
:1046C0005AAB49AB7BCFEBA9FCA9608171812196E4
:1046D0004EAD5FAD21978FA598A90E9429422396E0
:1046E0008EAD9FAD2397880F991F880F991F2FA517
:1046F00038A9280F391F38AB2FA78FA998ADA9ADBE
:10470000BAAD0196A11DB11D8FAB98AFA9AFBAAFDD
:10471000ABADBCAD1496BCAFABAF06CF81E090E0C3
:10472000D801D9969C938E93D89719C084E48C9D18
:10473000F0018D9DF00D1124EE5AF64F868D978D68
:10474000A0A1B1A1892B8A2B8B2B09F059C284E03F
:1047500090E0938B828B86AD97AD93A782A784E47C
:104760008C9DF0018D9DF00D1124EE5AF64F82893B
:1047700093898230910579F482AD93ADA4ADB5AD46
:10478000181619061A061B060CF041C2E1E0F0E00B
:10479000FAABE9AB05C0049709F039C21AAA19AA05
:1047A0008EE02DAD3EAD829F8001839F100D1124C0
:1047B00025964EAD5FAD2597040F151FD8011296B3
:1047C0002D913C9113972115310509F420C21696BD
:1047D0008D919C9117979AA789A7FE01319684E144
:1047E000DF011D928A95E9F7C98ADA8AEB8AFC8A89
:1047F000E9A9FAA9EF2B09F451C084E48C9DF001DA
:104800008D9DF00D1124EE5AF64FDF01DE968D904E
:104810009D90AD90BC9082AD93ADA4ADB5AD881622
:104820009906AA06BB06D1F5D80114964D915C9164
:1048300015971896ED91FC911997349684E0DE0156
:10484000559601900D928A95E1F78D899E8908967B
:104850009E8B8D8BF80160857185860F971F9187E0
:10486000808780859185240F351F821B930B97FDD0
:1048700004C0840F951F9187808784E48C9DF0018C
:104880008D9DF00D1124E057F64F21E0821A91081A
:10489000A108B10880829182A282B3829E012B5E20
:1048A0003F4FAE01475D5F4F64E170E0C8010E9479
:1048B000F61A282E312C2114310409F08AC18CE01B
:1048C00090E0A0E0B0E08D839E83AF83B8879E0127
:1048D000235E3F4FAE01475D5F4F64E070E0C8016B
:1048E0000E94F61A282E312C2114310409F071C1CE
:1048F00080E190E0A0E0B0E08D839E83AF83B88735
:104900004D8D5E8DBE01655D7F4F8F8D98A10E949C
:1049100029428BA19CA1009761F06D8D7E8D4BE2A9
:1049200050E04C0F5D1F640F751F49A15AA10E94F2
:1049300029421DA21EA21FA218A68DAD9EAD880FF2
:10494000991F98AF8FAB24E42C9DC0012D9D900D35
:1049500011248E5A964FDC011496BCAFABAFFC010C
:1049600038962196FFAFEEAF21978DA09EA0AFA005
:10497000B8A4EBADFCAD80819181A281B381881692
:104980009906AA06BB060CF0CDC02196AEADBFAD10
:104990002197ED91FC91C401880F991F880F991FF1
:1049A000E80FF91FA081B1818C9181110AC0BFEF7E
:1049B0008B1A9B0AAB0ABB0A8DA29EA2AFA2B8A615
:1049C000D4CF8330A1F30280F381E02D2FA938AD3D
:1049D000E20FF31F408151815CAB4BAB452B39F3A8
:1049E00089859A85AB85BC850196A11DB11D8987F6
:1049F0009A87AB87BC879E01235E3F4FAE01475D20
:104A00005F4F64E070E0C8010E94F61A90E00097E2
:104A100009F0DEC08D819E81AF81B8850496A11D0D
:104A2000B11D8D839E83AF83B8874D8D5E8DBE0192
:104A30006B5D7F4F8F8D98A10E9429428BA19CA115
:104A4000009761F06D8D7E8DA5E2B0E0AC0FBD1FCB
:104A50006A0F7B1F49A15AA10E9429421EAA1DAAC2
:104A6000412C512C3201EBA9FCA980819181A281BA
:104A7000B381481659066A067B060CF098CFEBA95D
:104A8000FCA9848195812DA93EA9280F391F38AB37
:104A90002FA7D90112966D917C9113979E01235EE9
:104AA0003F4FAE01475D5F4FC8010E94F61A90E08C
:104AB000009709F08DC0EFA5F8A982819381092E96
:104AC000000CAA0BBB0B4D815E816F817885840F32
:104AD000951FA61FB71F8D839E83AF83B887608104
:104AE00071814D8D5E8D8F8D98A10E9429428BA181
:104AF0009CA1009761F0AFA5B8A96D917C912D8D17
:104B00003E8D620F731F49A15AA10E942942BFEF37
:104B10004B1A5B0A6B0A7B0AEDA9FEA93496FEAB21
:104B2000EDABA1CF89859A85AB85BC85892B8A2B76
:104B30008B2B09F44EC08AE190E0A0E0B0E08983BD
:104B40009A83AB83BC832DAD3EADC901330FAA0B55
:104B5000BB0B8D879E87AF87B88B4D895E89BE0161
:104B60006F5F7F4F8F89988D0E9429428B8D9C8D1E
:104B7000009761F06D897E8941E050E04C0F5D1F28
:104B8000640F751F498D5A8D0E94294289A59AA5E7
:104B9000D80117969C938E93169711961C921E928D
:104BA000E9A9FAA9EF2B99F184E48C9DF0018D9D80
:104BB000F00D1124E057F64F80819181A281B381DD
:104BC0000196A11DB11D80839183A283B3831FC071
:104BD0001C0129A93AA9232BD1F42328C1F084E48C
:104BE0008C9DF0018D9DF00D1124EE5AF64F81E061
:104BF00090E095A784A785E090E0938B828B07C017
:104C000083E090E0938B828B81E090E0A6CDC05B47
:104C1000DF4F0FB6F894DEBF0FBECDBFDF91CF914F
:104C20001F910F91FF90EF90DF90CF90BF90AF90CA
:104C30009F908F907F906F905F904F903F902F90BC
:104C40000895CF92DF92EF92FF920F931F9324E487
:104C5000269FF001279FF00D1124EE5AF64F22896E
:104C600033892115310509F453C06B017C012130D2
:104C70003105B9F482A593A59C012F5F3F4F33A75F
:104C800022A7092E000CAA0BBB0B028D138D248DBD
:104C9000358D80179107A207B307D1F5C701B6017B
:104CA00018DB84E48C9DF0018D9DF00D1124EE5AEB
:104CB000F64F82899389039759F582A593A59C01A4
:104CC0002F5F3F4F33A722A7092E000CAA0BBB0B67
:104CD000468D578D60A171A184179507A607B70768
:104CE000BCF086AD97AD93A782A784E090E0938B4C
:104CF000828B82AD93ADA4ADB5AD181619061A0618
:104D00001B0634F4EE5BFF4F81E090E091838083DB
:104D10001F910F91FF90EF90DF90CF90089524E4C2
:104D2000269FF001279FF00D1124EE5AF64F82893D
:104D300093890497B1F482A593A5019693A782A7BE
:104D4000092E000CAA0BBB0B46895789608D718D0B
:104D500084179507A607B70721F485E090E0938BA9
:104D6000828B08952F923F924F925F926F927F9223
:104D70008F929F92AF92BF92CF92DF92EF92FF926B
:104D80000F931F93CF93DF93CDB7DEB72E970FB658
:104D9000F894DEBF0FBECDBF49835A836B837C83FB
:104DA0004901442E552E24E4249DF001259DF00D4B
:104DB0001124EE5AF64F228833889101245031098C
:104DC0002230310508F0DFC0DC0111961C921E92E2
:104DD00013961C921E92129715861486A12CB12C44
:104DE00060E070E09F01265F3F4F38872F837F018F
:104DF0003CE0E30EF11CDF015096BA87A9879F01C2
:104E0000225F3F4F3C872B87681579050CF06FC0F8
:104E1000EF81F885A081B1819D012A0D3B1D3E8760
:104E20002D87D9012D913C911197232B09F059C061
:104E300018960D911C9119971296ED91FC9113976C
:104E4000FE83ED8316962D913C911797D7014D91D6
:104E50005C91DA01E3E0AA0FBB1FEA95E1F7E9856F
:104E6000FA85C080D180FD01EC0DFD1D440F551F5A
:104E7000AB85BC85CD90DC904C0D5D1DDA016D934A
:104E80007C93D7014D915C9111974F5F5F4F4D938C
:104E90005C9313830283AD85BE851B963C932E9352
:104EA0001A970217130748F4201B310B3183208314
:104EB000158214821782168214C0AD85BE851496A1
:104EC000CD90DC9015974D815E814C0D5D1D401B92
:104ED000510B518340832C193D0935832483D7829C
:104EE000C6826F5F7F4FBEE0AB0EB11C8DCF24E456
:104EF000249D8001259D100D11240E5A164FF80196
:104F000024853585DC0111963C932E934089518987
:104F100013965C934E9312974685578515965C932E
:104F20004E931497232BB1F5B5E02B16310491F570
:104F30001092DA09828D938DA48DB58DAE014F5FED
:104F40005F4F64E070E08F3F9F4FAF4FBF4F59F40A
:104F500080E290E00E94FF3469817A818B819C819C
:104F6000A4010CDA17C08FE190E00E94FF34D80151
:104F70009B961C921E929A9781E090E053969C9388
:104F80008E93529707C015861486FC0111821082F9
:104F9000138212822E960FB6F894DEBF0FBECDBFDD
:104FA000DF91CF911F910F91FF90EF90DF90CF9005
:104FB000BF90AF909F908F907F906F905F904F9039
:104FC0003F902F900895EF92FF920F931F93CF93EE
:104FD000DF937C018B01EA010E94E635811121C03B
:104FE0008091320690913306049711F183E090E0AE
:104FF00090933306809332061BC088818111F0CFD5
:1050000028ED38EB45E050E060E070E0CB010E9415
:105010006F38AE01B801C7010E947D38C8010E94F7
:1050200048388091DB099091DC09892B31F3D8CF86
:10503000DF91CF911F910F91FF90EF900895CF9343
:10504000DF9320913206309133062430310541F050
:10505000EB010E947D38CE01DF91CF910C9448384E
:10506000DF91CF9108950C945D3C0C94523C0C94CC
:10507000403C0C9458380C94E33B089560E070E099
:1050800080E090E00C94C1350895AF92BF92CF922A
:10509000DF92EF92FF920F931F93CF93DF931F92B4
:1050A0001F92CDB7DEB75C0169017A018B0180E008
:1050B00090E0C114D104E104F104F1F0C114D10471
:1050C00021E0E206F10410F4A60102C04FEF5FEF09
:1050D0009E012F5F3F4FB801C5010E94EE3C8F3FFC
:1050E0002FEF920749F029813A81C21AD30AE108C9
:1050F000F108020F131FDDCF0F900F90DF91CF91BA
:105100001F910F91FF90EF90DF90CF90BF90AF90E5
:10511000089508950895883008F070C0A82FB0E071
:10512000AA0FBB1FAC5CB94F11967C936E9390E0B5
:10513000FC013197E730F105A0F58827EE58FF4FC5
:105140008F4F0C94D240809169008C7F482B409304
:105150006900E89A089580916900837F440F551F84
:10516000440F551F482B40936900E99A0895809198
:1051700069008F7C74E0440F551F7A95E1F7482B46
:1051800040936900EA9A0895809169008F7366E000
:10519000440F551F6A95E1F7482B40936900EB9A3D
:1051A000089580916A008C7F482B40936A00EC9AA6
:1051B000089580916A00837F440F551F440F551F47
:1051C000482B40936A00ED9A089580916A008F7C85
:1051D00024E0440F551F2A95E1F7482B40936A00BD
:1051E000EE9A089580916A008F7396E0440F551FE0
:1051F0009A95E1F7482B40936A00EF9A08951F9221
:105200000F920FB60F9211240BB60F922F933F936C
:105210004F935F936F937F938F939F93AF93BF93BE
:10522000EF93FF93E0913806F09139061995FF91BD
:10523000EF91BF91AF919F918F917F916F915F910E
:105240004F913F912F910F900BBE0F900FBE0F907B
:105250001F9018951F920F920FB60F9211240BB644
:105260000F922F933F934F935F936F937F938F93FF
:105270009F93AF93BF93EF93FF93E0913A06F09122
:105280003B061995FF91EF91BF91AF919F918F913F
:105290007F916F915F914F913F912F910F900BBE36
:1052A0000F900FBE0F901F9018951F920F920FB680
:1052B0000F9211240BB60F922F933F934F935F934E
:1052C0006F937F938F939F93AF93BF93EF93FF93CE
:1052D000E0913C06F0913D061995FF91EF91BF9149
:1052E000AF919F918F917F916F915F914F913F917E
:1052F0002F910F900BBE0F900FBE0F901F9018951F
:105300001F920F920FB60F9211240BB60F922F938C
:105310003F934F935F936F937F938F939F93AF933D
:10532000BF93EF93FF93E0913E06F0913F061995EE
:10533000FF91EF91BF91AF919F918F917F916F916D
:105340005F914F913F912F910F900BBE0F900FBE29
:105350000F901F9018951F920F920FB60F92112465
:105360000BB60F922F933F934F935F936F937F935F
:105370008F939F93AF93BF93EF93FF93E091340686
:10538000F09135061995FF91EF91BF91AF919F91E3
:105390008F917F916F915F914F913F912F910F90DE
:1053A0000BBE0F900FBE0F901F9018951F920F927B
:1053B0000FB60F9211240BB60F922F933F934F937A
:1053C0005F936F937F938F939F93AF93BF93EF936D
:1053D000FF93E0913606F09137061995FF91EF9112
:1053E000BF91AF919F918F917F916F915F914F91FD
:1053F0003F912F910F900BBE0F900FBE0F901F90FB
:1054000018951F920F920FB60F9211240BB60F92A0
:105410002F933F934F935F936F937F938F939F93BC
:10542000AF93BF93EF93FF93E0914006F091410655
:105430001995FF91EF91BF91AF919F918F917F91BE
:105440006F915F914F913F912F910F900BBE0F90F5
:105450000FBE0F901F9018951F920F920FB60F92CC
:1054600011240BB60F922F933F934F935F936F933B
:105470007F938F939F93AF93BF93EF93FF93E091AD
:105480004206F09143061995FF91EF91BF91AF91BC
:105490009F918F917F916F915F914F913F912F914C
:1054A0000F900BBE0F900FBE0F901F9018951F927C
:1054B0000F920FB60F9211242F933F938F939F93C8
:1054C000AF93BF938091DE099091DF09A091E0092D
:1054D000B091E1093091DD0923E0230F2D3720F44D
:1054E0000196A11DB11D05C026E8230F0296A11D3E
:1054F000B11D2093DD098093DE099093DF09A0930D
:10550000E009B093E1098091E2099091E309A0914B
:10551000E409B091E5090196A11DB11D8093E2094E
:105520009093E309A093E409B093E509BF91AF918B
:105530009F918F913F912F910F900FBE0F901F90D1
:1055400018952FB7F8946091DE097091DF0980916A
:10555000E0099091E1092FBF08953FB7F894809139
:10556000E2099091E309A091E409B091E50926B51B
:10557000A89B05C02F3F19F00196A11DB11D3FBF8B
:10558000BA2FA92F982F8827820F911DA11DB11D19
:10559000BC01CD0142E0660F771F881F991F4A9515
:1055A000D1F708958F929F92AF92BF92CF92DF92E0
:1055B000EF92FF926B017C01D0DF4B015C01C114C3
:1055C000D104E104F104F1F0A4DDC7DFDC01CB017B
:1055D00088199909AA09BB09883E9340A105B1051C
:1055E00070F321E0C21AD108E108F10888EE880EB4
:1055F00083E0981EA11CB11CC114D104E104F10484
:1056000021F7DDCFFF90EF90DF90CF90BF90AF906C
:105610009F908F900895789484B5826084BD84B5FE
:10562000816084BD85B5826085BD85B5816085BD9D
:10563000EEE6F0E0808181608083E1E8F0E01082B6
:10564000808182608083808181608083E0E8F0E0F7
:10565000808181608083E1EBF0E0808184608083E1
:10566000E0EBF0E0808181608083E1E9F0E080811F
:1056700082608083808181608083E0E9F0E08081C6
:1056800081608083E1EAF0E08081826080838081B4
:1056900081608083E0EAF0E0808181608083E1E2E4
:1056A000F1E0808182608083808181608083E0E29C
:1056B000F1E0808181608083EAE7F0E080818460AE
:1056C000808380818260808380818160808380810B
:1056D000806880831092C10008951F93CF93DF9359
:1056E000182FEB0161E016D1209711F460E004C09F
:1056F000CF3FD10531F461E0812FDF91CF911F9130
:1057000045C1E12FF0E0E65AFE4FE4918E2F90E084
:10571000FC013197E231F10508F09DC08827E75878
:10572000FF4F8F4F0C94D24084B5806884BDC7BDB5
:1057300097C084B5806284BDC8BD92C0809180004E
:10574000806880938000D0938900C093880088C0CF
:1057500080918000806280938000D0938B00C09302
:105760008A007EC080918000886080938000D09302
:105770008D00C0938C0074C08091B00080688093CD
:10578000B000C093B3006CC08091B0008062809381
:10579000B000C093B40064C0809190008068809392
:1057A0009000D0939900C09398005AC080919000C7
:1057B000806280939000D0939B00C0939A0050C069
:1057C00080919000886080939000D0939D00C0935A
:1057D0009C0046C08091A00080688093A0008091CA
:1057E000A0008F7B8093A000D093A900C093A80055
:1057F00037C08091A00080628093A000D093AB005E
:10580000C093AA002DC08091A00088608093A00062
:10581000D093AD00C093AC0023C08091200180687C
:1058200080932001D0932901C093280119C0809151
:105830002001806280932001D0932B01C0932A0124
:105840000FC080912001886080932001D0932D01AA
:10585000C0932C0105C0C038D1050CF04CCF46CF09
:10586000DF91CF911F91089590E0FC013197E231D3
:10587000F10508F04EC08827E557FF4F8F4F0C9475
:10588000D240809180008F7703C0809180008F7D0F
:1058900080938000089580918000877FF9CF84B540
:1058A0008F7702C084B58F7D84BD08958091B0004C
:1058B0008F7703C08091B0008F7D8093B0000895F2
:1058C000809190008F7707C0809190008F7D03C0FA
:1058D00080919000877F8093900008958091A00030
:1058E0008F7707C08091A0008F7D03C08091A000BA
:1058F000877F8093A0000895809120018F7707C053
:10590000809120018F7D03C080912001877F80934B
:1059100020010895CF93DF9390E0FC01E056FE4F05
:105920002491FC01EA51FE4F8491882361F190E0BB
:10593000880F991FFC01EA5BFD4FC591D491FC01D2
:10594000E45DFD4FA591B491611109C09FB7F89432
:105950008881209582238883EC912E230BC06230AE
:1059600061F49FB7F8948881322F30958323888320
:10597000EC912E2B2C939FBF06C08FB7F894E88133
:105980002E2B28838FBFDF91CF9108951F93CF9344
:10599000DF93282F30E0F901E65AFE4F8491F90198
:1059A000E056FE4FD491F901EA51FE4FC491CC2349
:1059B000B9F0162F811158DFEC2FF0E0EE0FFF1F2A
:1059C000E45DFD4FA591B4919FB7F894111104C007
:1059D0008C91D095D82302C0EC91DE2BDC939FBF35
:1059E000DF91CF911F910895FC01918D228D892F18
:1059F00090E0805C9F4F821B91098F7399270895D7
:105A0000FC01918D828D981731F0828DE80FF11D88
:105A1000858D90E008958FEF9FEF0895FC01918DA3
:105A2000828D981761F0828DDF01A80FB11D5D9600
:105A30008C91928D9F5F9F73928F90E008958FEF6E
:105A40009FEF0895FC01538D448D252F30E0842F66
:105A500090E0821B930B541710F0CF960895019796
:105A60000895FC01848DDF01A80FB11DA35ABF4F1B
:105A70002C91848D90E001968F739927848FA6894D
:105A8000B7892C93A089B1898C91837080648C93A1
:105A9000938D848D981306C00288F389E02D808150
:105AA0008F7D80830895EF92FF920F931F93CF9382
:105AB000DF93EC0181E0888F9B8D8C8D981305C05E
:105AC000E889F989808185FD25C0F62E0B8D10E0CF
:105AD0000F5F1F4F0F731127E02E8C8DE8120BC044
