:10000000B6C100000C94BD2A0C94E82A0C94132B62
:100010000C943E2B0C94692B0C94942B0C94BF2BBA
:100020000C94EA2B0C9498080C943C090C947909D4
:10003000CFC100000C948A32CBC10000C9C10000BE
:10004000C7C10000C5C10000C3C10000C1C100009C
:10005000BFC10000BDC10000BBC100000C94152C45
:10006000B7C100000C94E32F0C941930B1C100000B
:10007000AFC10000ADC10000ABC10000A9C10000CC
:10008000A7C10000A5C10000A3C10000A1C10000DC
:100090000C946F300C94A5309BC10000F9C3000094
:1000A00097C1000095C1000093C1000091C10000FC
:1000B0008FC100008DC100008BC1000089C100000C
:1000C00087C1000085C100000C9413330C94FB30F1
:1000D0000C9431317DC100000C9487310C94BD31FA
:1000E00077C10000972A612A692A752A822AA32AE1
:1000F000B02A522D572D5C2D662D702DE92D7A2DAD
:10010000822D8A2D942D9E2DA82DB72DC12DE92D40
:10011000CB2DD52DDF2D0D2E102EFF2D032E092ECC
:10012000472E142E182E1E2E222E262E2C2E302E2A
:10013000342E472E3A2E3E2E422E633B213D863DE5
:10014000893D653C983C533B5A3B373B693D583DA4
:10015000653D893D893D893D223B00000A0B02092E
:100160000C0D0E0807030401000000000000000051
:10017000000000000000000000000000000000007F
:10018000000000000000121110000000000000003C
:10019000000000000000000000000000000000005F
:1001A0000102102020080810204010204080020189
:1001B000020108040201010204081020408080406E
:1001C000201008040201800402018040201008046D
:1001D000020108040201010204081020408001020B
:1001E00004081020408005050505070508080808D3
:1001F000020202020A0A08080404040401010101BF
:1002000001010101030303030303030304070707B9
:100210000C0C0C0C0C0C0C0C02020202060606065E
:10022000060606060B0B0B0B0B0B0B0B000022003C
:10023000250028002B002E003100340002010000B0
:10024000050108010B0100002100240027002A00FD
:100250002D003000330001010000040107010A01F4
:1002600002001D3A2774694E53E8F5D2CF9C81A64F
:10027000BBCDD0F7EAB9A4839E25381F02514C6B41
:1002800076879ABDA0F3EEC9D46F7255481B06213C
:100290003C4A57706D3E230419A2BF9885D6CBEC1B
:1002A000F1130E2934677A5D40FBE6C1DC8F92B50D
:1002B000A8DEC3E4F9AAB7908D362B0C11425F7803
:1002C000659489AEB3E0FDDAC77C61465B08153200
:1002D0002F5944637E2D30170AB1AC8B96C5D8FFD9
:1002E000E2263B1C01524F6875CED3F4E9BAA780D1
:1002F0009DEBF6D1CC9F82A5B8031E3924776A4DB9
:1003000050A1BC9B86D5C8EFF24954736E3D2007BF
:100310001A6C71564B1805223F8499BEA3F0EDCAA2
:10032000D735280F12415C7B66DDC0E7FAA9B4938C
:100330008EF8E5C2DF8C91B6AB100D2A3764795E7A
:1003400043B2AF8895C6DBFCE15A47607D2E33147B
:10035000097F6245580B16312C978AADB0E3FED960
:10036000C400470392074230CE305A31E63111249F
:100370001FBECFEFD1E2DEBFCDBF00E00CBF17E064
:10038000A0E0B2E0E4E0F8E800E00BBF02C00790B4
:100390000D92A63FB107D9F72EE0A6EFB7E001C056
:1003A0001D92A13FB207E1F711E0C7EBD1E000E0F9
:1003B00006C021970109802FFE010E949042C13B97
:1003C000D10780E00807A9F70E94083F0C94004479
:1003D00017CE80E090E0089580912A0890E0209167
:1003E0002B08821B9109089590912B0880912A086F
:1003F000981750F4E92FF0E0E45DF74F208130E0EA
:100400009F5F90932B0802C02FEF3FEFC901089523
:10041000E0912B0880912A08E81730F4F0E0E45DC1
:10042000F74F808190E008958FEF9FEF0895089532
:10043000CF93DF93EC01E0910208F091030830972D
:10044000F1F090912B0880912A089817C0F090E065
:10045000292F30E02617370754F4DE01A20FB31F0F
:100460004C91D901A45DB74F4C939F5FF1CF10928F
:100470002B0860932A08CB01DF91CF911994DF916B
:10048000CF910895E0910408F0910508309729F084
:10049000109208081092070819940895CF92DF92DD
:1004A000EF92FF920F931F93CF93DF937C01CB01C9
:1004B0008A0120910608222389F0EB016B01C40E0A
:1004C000D51ECC15DD0561F06991D701ED91FC9148
:1004D0000190F081E02DC7011995F3CF642F96D1DB
:1004E000C801DF91CF911F910F91FF90EF90DF90A6
:1004F000CF900895CF93DF931F92CDB7DEB7698376
:10050000209106082223D1F020910708203240F0E4
:1005100021E030E0FC013383228380E090E014C0CE
:1005200080910808E82FF0E0E75FF74F998190830A
:100530008F5F809308088093070804C061E0CE01B4
:10054000019664D181E090E00F90DF91CF91089502
:10055000FC011382128288EE93E0A0E0B0E0848375
:100560009583A683B78382E496E091838083089580
:1005700010922B0810922A0810920808109207086F
:1005800089D082E492E06FD188E192E067C181E096
:1005900080930608609329081092080810920708B3
:1005A00008950F93062F21E04091070869E078E055
:1005B00080912908D5D0109208081092070810924F
:1005C00006080F9108954F925F926F927F92AF92BB
:1005D000BF92CF92EF92FF920F931F93CF93DF932F
:1005E0005C01F62ED42F28013901EE2011F1CFDF66
:1005F000CE2DC43008F0C3E0C150C0F028E0C29F47
:10060000C0011124A301920104C056954795379566
:1006100027958A95D2F7CA01B901D501ED91FC91D0
:100620000190F081E02DC5011995E6CF60E0C5018C
:10063000B8DF4D2FD13208F040E22C2D6CE278E08B
:100640008F2D46D010922B0880932A08DF91CF91EE
:100650001F910F91FF90EF90CF90BF90AF907F9040
:100660006F905F904F900895CF92EF920F931F93EA
:10067000C22EE12C00E010E09801A5DF1F910F9140
:10068000EF90CF90089521E0EFCF61E08ACF86EF21
:1006900097E05ECF1092B90881E08093B70810927E
:1006A000B60861E084E10E94842E61E085E10E9449
:1006B000842EE9EBF0E080818E7F808380818D7FC6
:1006C000808388E48093B80085E48093BC0008951B
:1006D000413208F043C09091B9089111FCCF91E0EC
:1006E0009093B9082093B7082FEF20934C081092ED
:1006F0009108240F209390089093B8089091B8081F
:10070000880F892B8093B8088091B608813061F4F6
:100710001092B6088091B8088093BB008091BC000D
:1007200083FDF8CF85EC01C085EE8093BC008091FD
:10073000B9088130E1F380919108841710F4409159
:100740009108A2E9B8E0962FFB018E2F891B841730
:1007500018F48D918193F9CF842F089580E0089546
:100760000F93413208F04AC09091B9089111FCCF23
:1007700032E03093B9080093B7083FEF30934C084C
:100780001092910840939008562FA2E9B8E0FB011F
:100790003E2F351B341718F431913D93F9CF109249
:1007A000B8083091B808880F832B8093B8088091DF
:1007B000B608813061F41092B6088091B808809331
:1007C000BB008091BC0083FDF8CF85EC01C085EEB5
:1007D0008093BC00222321F08091B9088230D1F3AC
:1007E00080914C088F3F79F080914C08803241F025
:1007F00080914C08803331F094E005C091E003C053
:1008000092E001C093E0892F0F91089540916E0806
:10081000262F30E0240F311D21323105DCF42091E8
:10082000B9082430C9F4FC0180E090E0861758F440
:1008300030916E082191DC01A059B74FA30FB11D73
:100840002C930196F3CF80916E08680F60936E0829
:1008500080E0089581E0089582E008959093B308C0
:100860008093B20808959093B5088093B4080895D2
:1008700085ED8093BC008091BC0084FDFCCF10927C
:10088000B908089585EC8093BC001092B9080895CA
:100890001F920F920FB60F9211240BB60F922F9347
:1008A0003F934F935F936F937F938F939F93AF93F8
:1008B000BF93EF93FF938091B900887F803609F44E
:1008C0009DC070F5883209F45CC090F4803109F461
:1008D00055C038F4882309F4F3C0883009F44EC0B9
:1008E000F2C0883109F44DC0803209F45EC0EBC01B
:1008F000803409F469C050F4803309F456C0883359
:1009000009F0E1C080934C08BDDFDDC0803509F4FB
:100910004FC0883509F45DC0883409F0D4C0D2C016
:10092000883909F4C3C0A8F4883709F467C038F4DB
:10093000883609F463C0803709F460C0C4C08838C1
:1009400009F4B4C0803909F45FC0803809F0BBC035
:100950005BC0803B09F482C038F4803A09F466C079
:10096000883A09F47BC0AFC0803C09F4A3C0883C3E
:1009700009F4A0C0883B09F486C0A5C08091B808DE
:1009800010C09091910880919008981770F5E091AF
:10099000910881E08E0F80939108F0E0EE56F74FBA
:1009A00080818093BB0085EC82C080934C088AC014
:1009B000E091910881E08E0F809391088091BB00B7
:1009C000F0E0EE56F74F8083909191088091900867
:1009D0006AC0E091910881E08E0F80939108809128
:1009E000BB00F0E0EE56F74F80838091B70881118D
:1009F00069C081E08093B60884EA5DC083E080939B
:100A0000B90810924D08CFCF80914D08803208F080
:100A10004DC0E0914D0881E08E0F80934D0880918C
:100A2000BB00F0E0E25BF74F8083BDCF2BDF80910E
:100A30004D08803230F4E0914D08F0E0E25BF74F72
:100A4000108260914D0870E0E091B208F091B30817
:100A50008EE498E0199510924D0835C084E080939B
:100A6000B90810926F0810926E08E091B408F091E6
:100A7000B508199580916E08811105C081E08093B9
:100A80006E0810927008E0916F0881E08E0F8093DD
:100A90006F08F0E0E059F74F80818093BB009091A0
:100AA0006F0880916E08981708F47DCF85E88093D1
:100AB000BC0009C085EC8093BC001092B90803C04B
:100AC00010924C08D5DEFF91EF91BF91AF919F91AD
:100AD0008F917F916F915F914F913F912F910F90E7
:100AE0000BBE0F900FBE0F901F901895FF920F93A3
:100AF0001F93CF93DF93C62F142FF22E032F682F4F
:100B000086EF97E044DD6C2F86EF97E0F3DCCF2D86
:100B1000D02FCE01810F911D8C01C017D10729F074
:100B2000699186EF97E0E6DCF8CF86EF97E0ADDDE0
:100B300091E0811190E0892FDF91CF911F910F916A
:100B4000FF900895CF93DF931F92CDB7DEB749830F
:100B50009E012F5F3F4F41E0C9DF0F90DF91CF91A2
:100B600008953F924F925F926F927F928F929F92E1
:100B7000AF92BF92CF92DF92EF92FF920F931F93AB
:100B8000CF93DF9300D000D0CDB7DEB7D82EC62EDE
:100B90004D8379010E945F2C4B015C01312C1E8238
:100BA0009D81892F90E09C838B832801612C712C7F
:100BB000ED813E1698F56D2D86EF97E0E8DC6C2D03
:100BC00086EF97E097DC86EF97E05FDD6D2D86EF8F
:100BD00097E0DDDC4B815C814319510941325105BD
:100BE00014F040E250E06D2D86EF97E04CDD86EF8B
:100BF00097E0F2DB892B09F442C00115110569F178
:100C00000E945F2CDC01CB0188199909AA09BB0954
:100C100084159505A605B70500F131C0011511052C
:100C2000B9F10E945F2CDC01CB0188199909AA094E
:100C3000BB0920E030E080179107A207B30740F11D
:100C4000FD812F2F30E04E81842F440F990B8217A6
:100C50009307F4F48FEF8E831BC0F7012E81E20F10
:100C6000F11D27FDFA95FA83E98386EF97E0BCDB57
:100C7000E981FA818083FE81FF5FFE83B8CF86EF32
:100C800097E003DD8D81813208F080E2380E90CF4D
:100C90008E8126960FB6F894DEBF0FBECDBFDF91D2
:100CA000CF911F910F91FF90EF90DF90CF90BF9069
:100CB000AF909F908F907F906F905F904F903F90FC
:100CC00008950F931F9389019A0141E04ADF1F9114
:100CD0000F910895EF92FF920F931F93CF93DF939D
:100CE0001F92CDB7DEB7182F062FF42EE22E2091DB
:100CF000060230910702AE014F5F5F4FE2DF89814C
:100D000041E050E001C0440FFA94EAF7EE2011F000
:100D1000482B02C0409548234983602F812F12DF62
:100D20000F90DF91CF911F910F91FF90EF90089559
:100D3000DF92EF92FF920F931F93CF93DF931F9257
:100D4000CDB7DEB7182FF62EE42ED22E2091060254
:100D500030910702AE014F5F5F4FB3DF882331F15F
:100D60002E2D30E02D1931092F5F3F4F81E090E0AB
:100D700002C0880F991FDA94E2F70197022E01C092
:100D8000880F0A94EAF7402F50E0BA0102C0660FBC
:100D9000771F2A95E2F7482F4095998149238623AA
:100DA000482B49836F2D812FCDDE01C080E00F904D
:100DB000DF91CF911F910F91FF90EF90DF900895F9
:100DC00028E6FC01208308950F93062F23E042E0DC
:100DD0006AE1FC018081ACDF0F9108950F93062F2B
:100DE00022E044E06BE1FC018081A2DF0F910895D5
:100DF0000F93062F22E044E06CE1FC01808198DF34
:100E00000F9108950F931F93CF93DF93EC010091FF
:100E10000602109107029C012F5F3F4F42E063E4FE
:100E200088819FDE89819A81982789279827DF9179
:100E3000CF911F910F9108950F931F93CF93DF933D
:100E4000EC0100910602109107029C012F5F3F4FB9
:100E500042E065E4888185DE89819A819827892727
:100E60009827DF91CF911F910F9108950F931F93B2
:100E7000CF93DF93EC0100910602109107029C01D1
:100E80002F5F3F4F42E067E488816BDE89819A8162
:100E9000982789279827DF91CF911F910F91089567
:100EA000262F46E06BE6FC01808114CF0F93062FBE
:100EB00023E042E06BE6FC0180813ADF0F91089568
:100EC000CF93DF93EC0161E0F1DF60E0CE0186DFDC
:100ED00060E0CE018DDF60E0CE01DF91CF91E0CF09
:100EE000CF93C82F86EF97E043DB6C2F8AEB98E017
:100EF0006BDF8AEB98E0CF91E3CFCF93DF93EC01E8
:100F00008AEB98E07FDF998388838AEB98E094DF0F
:100F10009B838A838AEB98E0A9DF9D838C83DF9192
:100F2000CF9108958AEB98E04BCF9CB1892F8072C6
:100F300094FF03C081110FC002C0882361F080912B
:100F4000CD089091CE08A091CF08B091D00801961D
:100F5000A11DB11D0BC08091CD089091CE08A0912C
:100F6000CF08B091D0080197A109B1098093CD08AD
:100F70009093CE08A093CF08B093D008089599B16C
:100F8000892F847093FF03C0882379F002C08111F8
:100F90000CC08091DB089091DC08A091DD08B09135
:100FA000DE080196A11DB11D0BC08091DB08909158
:100FB000DC08A091DD08B091DE080197A109B10914
:100FC0008093DB089093DC08A093DD08B093DE08E3
:100FD00008952CB126FB882780F990E027FF03C0F5
:100FE000019779F402C0892B61F48091E90890910E
:100FF000EA08A091EB08B091EC080196A11DB11D83
:101000000BC08091E9089091EA08A091EB08B0919B
:10101000EC080197A109B1098093E9089093EA08C7
:10102000A093EB08B093EC0808959CB1892F8071D0
:1010300095FF03C0882379F002C081110CC0809114
:10104000CD089091CE08A091CF08B091D00801961C
:10105000A11DB11D0BC08091CD089091CE08A0912B
:10106000CF08B091D0080197A109B1098093CD08AC
:101070009093CE08A093CF08B093D008089599B16B
:10108000892F887092FF03C081110FC002C088238E
:1010900061F08091DB089091DC08A091DD08B091AF
:1010A000DE080196A11DB11D0BC08091DB08909157
:1010B000DC08A091DD08B091DE080197A109B10913
:1010C0008093DB089093DC08A093DD08B093DE08E2
:1010D00008952CB1822F807890E0880F892F881F87
:1010E000990B26FF03C0892B79F402C0019761F4A4
:1010F0008091E9089091EA08A091EB08B091EC0882
:101100000196A11DB11D0BC08091E9089091EA08DC
:10111000A091EB08B091EC080197A109B109809367
:10112000E9089093EA08A093EB08B093EC080895BF
:101130001F920F920FB60F9211242F933F934F934C
:101140005F938F939F93AF93BF9383B121E030E080
:10115000982F907285FD02C020E030E080744091AD
:101160000D0950910E092417350749F521E030E0AB
:10117000811102C020E030E030930C0920930B096C
:10118000882319F091110FC002C0992361F080915A
:10119000050990910609A0910709B09108090196E7
:1011A000A11DB11D41C08091050990910609A09132
:1011B0000709B09108090197A109B10916C0309338
:1011C0000E0920930D09992319F0882311F102C00B
:1011D00081111FC08091050990910609A09107090E
:1011E000B09108090196A11DB11D80930509909346
:1011F0000609A0930709B093080980910509909109
:101200000609A0910709B09108090197A109B10940
:101210001EC08091050990910609A0910709B0911F
:1012200008090197A109B10980930509909306095E
:10123000A0930709B09308098091050990910609C8
:10124000A0910709B09108090196A11DB11D8093D5
:10125000050990930609A0930709B0930809BF9167
:10126000AF919F918F915F914F913F912F910F90EF
:101270000FBE0F901F9018951F920F920FB60F92EE
:1012800011248F939F93AF93BF9380910601817038
:101290009091030190FF03C081110FC002C0882309
:1012A00061F08091F7089091F808A091F908B09149
:1012B000FA080196A11DB11D0BC08091F70890910D
:1012C000F808A091F908B091FA080197A109B109AD
:1012D0008093F7089093F808A093F908B093FA0860
:1012E000BF91AF919F918F910F900FBE0F901F9064
:1012F00018951F920F920FB60F9211248F939F9300
:10130000AF93BF938091030181709091060190FF8C
:1013100003C0882379F002C081110CC08091F708C6
:101320009091F808A091F908B091FA080196A11DD2
:10133000B11D0BC08091F7089091F808A091F908B1
:10134000B091FA080197A109B1098093F708909329
:10135000F808A093F908B093FA08BF91AF919F9154
:101360008F910F900FBE0F901F9018950F931F93A2
:10137000CF93DF938C018EE0809FE001819FD00DA1
:101380001124C753D74F798368835B834A8388814D
:10139000998160E00E94482E8A819B8160E00E94D2
:1013A000482E8881998161E00E94842E8A819B81E8
:1013B00061E00E94842E0230110509F47FC044F4DC
:1013C00001151105E9F00130110509F448C0BEC04E
:1013D0000330110509F4A6C00430110509F0B6C0A8
:1013E0008091680081608093680080916B008062CA
:1013F00080936B0080916B00806480936B00A6C02B
:101400008091C9089091CA0802978431910540F4EF
:10141000FC01E05BF94F8081082E000C990B02C0A3
:101420008FEF9FEF41E050E065E977E00E94492AA5
:101430008091CB089091CC0802978431910540F4BB
:10144000FC01E05BF94F8081082E000C990B02C073
:101450008FEF9FEF41E050E065E178E05DC0809163
:10146000D7089091D80802978431910540F4FC0187
:10147000E05BF94F8081082E000C990B02C08FEFC2
:101480009FEF41E050E06FE378E00E94492A8091AD
:10149000D9089091DA0802978431910540F4FC0153
:1014A000E05BF94F8081082E000C990B02C08FEF92
:1014B0009FEF41E050E06FEB77E02EC08091E508B0
:1014C0009091E60802978431910540F4FC01E05BBD
:1014D000F94F8081082E000C990B02C08FEF9FEF0F
:1014E00041E050E069E678E00E94492A8091E708EF
:1014F0009091E80802978431910540F4FC01E05B8B
:10150000F94F8081082E000C990B02C08FEF9FEFDE
:1015100041E050E069EE77E0DF91CF911F910F91AC
:101520000C94492A809168008460809368008091BF
:10153000680082608093680080916D008160809374
:101540006D0080916C00826080936C00DF91CF9180
:101550001F910F9108952EE0269FF001279FF00D17
:101560001124E753F74F648175818681978108952F
:101570000895CF93282F882351F0CB01BA01C22FB1
:101580000E9470408FEF8C0FCF910C942B2DCF9138
:1015900008950F931F938B019C0183E03695279547
:1015A000179507958A95D1F7F801E15FF64F2081ED
:1015B000422F50E0E62FE77021E030E002C0220F1A
:1015C000331FEA95E2F724233523232B19F0CB01AF
:1015D000019602C080E090E01F910F9108950F9353
:1015E0001F938B019C0183E03695279517950795EE
:1015F0008A95D1F7677081E090E001C0880F6A9505
:10160000EAF7F801E15FF64F452B21F480959081D0
:10161000892302C09081892B80831F910F910895A7
:10162000CF92DF92EF92FF92CF93DF936B017C0119
:1016300061E08C2D0E94482EE6012196AE01C70183
:10164000B601CDDFCE01DF91CF91FF90EF90DF901B
:10165000CF900895882341F06FEF680F70E080E02D
:1016600090E040E050E0BBCF0895662319F0613070
:1016700009F062E00C94482E662311F061E001C08D
:1016800060E00C94842ECF93DF93EC0189819A81E2
:10169000AB81BC810197A105B105C1F48D8188237F
:1016A000A9F06A857B858C859D8573DF99878887FE
:1016B00040E050E0BA015DDF6A857B858C859D85C1
:1016C00068DF99878887DF91CF91C4CFDF91CF9171
:1016D00008952F923F924F925F926F927F928F92D6
:1016E0009F92AF92BF92CF92DF92EF92FF920F93B1
:1016F0001F93CF93DF93CDB7DEB7E0970FB6F89483
:10170000DEBF0FBECDBF60906D0E70906E0E00916B
:101710006B0E10916C0E20912F0D3091300D3E8389
:101720002D83D9018D909D90AD90BC90F8012081C2
:10173000318142815381C501B4010E9404401816D1
:101740000CF054C0D8019C962D913D914D915C9127
:101750009F97C501B4010E94F44187FF4AC0E09100
:10176000CD0EF091CE0EFA83E9837F01EE0CFF1CC3
:10177000EE0CFF1C6801CE0CDF1CD6012D913D91B3
:101780004D915C91C501B4010E94044087FD06C0E3
:10179000B4E0EB0EF11CE00EF11E16C0F4E0CF1A1F
:1017A000D108D60114962D913D914D915C911797DA
:1017B000C501B4010E94044087FF1FC0E981FA817E
:1017C0003197FA83E983EACFD7012D913D914D916D
:1017D0005D917D01C501B4010E94F44187FD0DC0FA
:1017E000E981FA813196FA83E983EECF1A82198270
:1017F00004C0EAE0F0E0FA83E98329813A8130937A
:10180000CE0E2093CD0E220F331F220F331F3A8BA3
:10181000298BF901E00FF11FC080D180E280F380B5
:101820002C5F3F4F3A832983F901E00FF11F20809D
:10183000318042805380A2019101C701B6010E940C
:101840000440811140C0A7019601C501B4010E9466
:101850000440A989BA89A60DB71DBA87A98787FD53
:1018600017C0E981FA81E60DF71D80819181A2817F
:10187000B3818093410D9093420DA093430DB0939B
:10188000440DE985FA8584A995A9A6A9B7A912C02E
:10189000E985FA8580819181A281B3818093410D90
:1018A0009093420DA093430DB093440D80A991A94C
:1018B000A2A9B3A98093450D9093460DA093470D1F
:1018C000B093480DA2C0A5019401C201B1010E94CC
:1018D0009F3F4B015C01A7019601C201B1010E942B
:1018E0009F3F9B01AC01C501B4010E9408406B0100
:1018F0007C019B01AC0160E070E080E89FE30E9406
:101900009F3F4B015C01E989FA89E60DF71D1081C3
:1019100001812281298733813D87E981FA81E60DA2
:10192000F71D2080318042805380212F302F498540
:101930005D85C201B1010E9404408823B9F0A20173
:101940009101C501B4010E94F8411B012C01212F16
:10195000302F49855D85C701B6010E94F8419B0182
:10196000AC01C201B1010E94A03F04C0612F702FE1
:1019700089859D858B019C010093410D1093420D3B
:101980002093430D3093440D80E3680E711CE98968
:10199000FA89E60DF71D0081118192819D87A3814F
:1019A000A987E981FA81E60DF71D408051806280A8
:1019B0007380A3019201B801892F9A2F0E940440DD
:1019C0008823B1F098014D855985C701B6010E9461
:1019D000F8416B017C01A3019201C501B4010E9491
:1019E000F8419B01AC01C701B6010E94A03F03C0B2
:1019F000B8018D8599858B019C010093450D10934D
:101A0000460D2093470D3093480D2091450D3091A0
:101A1000460D4091470D5091480D6091410D7091D8
:101A2000420D8091430D9091440D0E94A03F609320
:101A3000490D70934A0D80934B0D90934C0D60901F
:101A4000750E7090760E0091730E1091740EED81EC
:101A5000FE8180809180A280B380D8012D913D913C
:101A60004D915C91C501B4010E94044018160CF020
:101A700052C0F8012489358946895789C501B401C6
:101A80000E94F44187FF4AC02091CF0E3091D00EC2
:101A90003A8329837901EE0CFF1CEE0CFF1C6801D0
:101AA000CE0CDF1CD6012D913D914D915C91C5016D
:101AB000B4010E94044087FD06C0B4E0EB0EF11CA7
:101AC000E00EF11E16C0F4E0CF1AD108D60114962C
:101AD0002D913D914D915C911797C501B4010E94E4
:101AE000044087FF1FC0E981FA813197FA83E983B7
:101AF000EACFD7012D913D914D915D917D01C501B9
:101B0000B4010E94F44187FD0DC0E981FA8131964C
:101B1000FA83E983EECF1A82198204C0E4E0F0E090
:101B2000FA83E98329813A813093D00E2093CF0E36
:101B3000220F331F220F331F3A8B298BF901E00F3D
:101B4000F11FC080D180E280F3802C5F3F4F3A8349
:101B50002983F901E00FF11F2080318042805380FA
:101B6000A2019101C701B6010E940440811140C049
:101B7000A7019601C501B4010E940440A989BA8950
:101B8000A60DB71DBA87A98787FD17C0E981FA811D
:101B9000E60DF71D80819181A281B3818093390D7B
:101BA00090933A0DA0933B0DB0933C0DE985FA85D7
:101BB000848D958DA68DB78D12C0E985FA858081BB
:101BC0009181A281B3818093390D90933A0DA093B6
:101BD0003B0DB0933C0D808D918DA28DB38D809384
:101BE0003D0D90933E0DA0933F0DB093400DA2C0CC
:101BF000A5019401C201B1010E949F3F4B015C010C
:101C0000A7019601C201B1010E949F3F9B01AC0157
:101C1000C501B4010E9408406B017C019B01AC012D
:101C200060E070E080E89FE30E949F3F4B015C0111
:101C3000E989FA89E60DF71D108101812281298742
:101C400033813D87E981FA81E60DF71D20803180DF
:101C500042805380212F302F49855D85C201B1011B
:101C60000E9404408823B9F0A2019101C501B4018A
:101C70000E94F8411B012C01212F302F49855D85E1
:101C8000C701B6010E94F8419B01AC01C201B1013C
:101C90000E94A03F04C0612F702F89859D858B0114
:101CA0009C010093390D10933A0D20933B0D309316
:101CB0003C0D88E1680E711CE989FA89E60DF71D73
:101CC0000081118192819D87A381A987E981FA8191
:101CD000E60DF71D4080518062807380A301920160
:101CE000B801892F9A2F0E9404408823B1F09801EF
:101CF0004D855985C701B6010E94F8416B017C01F1
:101D0000A3019201C501B4010E94F8419B01AC01FD
:101D1000C701B6010E94A03F03C0B8018D85998517
:101D20008B019C0100933D0D10933E0D20933F0DC0
:101D30003093400D20907B0E30907C0E0091790EF8
:101D400010917A0EED81FE81C080D180E280F38017
:101D5000D8012D913D914D915C91C701B6010E9432
:101D6000044018160CF052C0F801248935894689C0
:101D70005789C701B6010E94F44187FF4AC02091EC
:101D8000D10E3091D20E3A8329835901AA0CBB1C83
:101D9000AA0CBB1C48018A0C9B1CD4012D913D91BF
:101DA0004D915C91C701B6010E94044087FD06C0B9
:101DB000B4E0AB0EB11CA00EB11E16C0F4E08F1A39
:101DC0009108D40114962D913D914D915C911797F6
:101DD000C701B6010E94044087FF1FC0E981FA8154
:101DE0003197FA83E983EACFD5012D913D914D9149
:101DF0005D915D01C701B6010E94F44187FD0DC0F0
:101E0000E981FA813196FA83E983EECF1A82198249
:101E100004C0E4E0F0E0FA83E98329813A81309359
:101E2000D20E2093D10E220F331F220F331F3A8779
:101E30002987F901E00FF11F408051806280738093
:101E40002C5F3F4F3A832983F901E00FF11F808017
:101E50009180A280B380A5019401C301B2010E94C8
:101E6000044081111FC0A3019201C701B6010E9465
:101E7000044087FF06C089859A85820D931DFC0169
:101E800004C0E981FA81E20DF31D80819181A28174
:101E9000B3818093510D9093520DA093530DB09345
:101EA000540D63C0E985FA85E20DF31D20812D876D
:101EB0001181028133813987E981FA81E20DF31DB5
:101EC00080819181A281B38189839A83AB83BC8312
:101ED0009C01AD016D85712F802F99850E94044072
:101EE0008823A9F1A7019601C501B4010E949F3F73
:101EF0006B017C01A3019201C501B4010E949F3FC7
:101F00009B01AC01C701B6010E9408406B017C0136
:101F10009B01AC0160E070E080E89FE30E949F3F7E
:101F200029813A814B815C810E94F8414B015C011F
:101F30002D85312F402F5985C701B6010E94F841E8
:101F40009B01AC01C501B4010E94A03F04C06D8596
:101F5000712F802F99858B019C010093510D109357
:101F6000520D2093530D3093540D2090810E3090DC
:101F7000820E80907F0E9090800EAD81BE81CD90BC
:101F8000DD90ED90FC90F4012081318142815381FC
:101F9000C701B6010E94044018160CF053C0D401CA
:101FA0005C962D913D914D915C915F97C701B60173
:101FB0000E94F44187FF49C0E091D30EF091D40E06
:101FC000FA83E9838F01000F111F000F111F5401C5
:101FD000A00EB11ED5012D913D914D915C91C7018F
:101FE000B6010E94044087FD05C00C5F1F4F080D1D
:101FF000191D16C0F4E0AF1AB108D50114962D9141
:102000003D914D915C911797C701B6010E94044024
:1020100087FF1FC0E981FA813197FA83E983EACF0C
:10202000D8012D913D914D915D918D01C701B60172
:102030000E94F44187FD0DC0E981FA813196FA834F
:10204000E983EECF1A82198204C0E6E0F0E0FA8359
:10205000E98329813A813093D40E2093D30E220F45
:10206000331F220F331F3A832983F901E80DF91D2D
:10207000408051806280738089010C5F1F4FF401A2
:10208000E00FF11F80809180A280B380A5019401B0
:10209000C301B2010E94044081111EC0A30192013C
:1020A000C701B6010E94044087FF06C089819A815A
:1020B000820D931DFC0103C0F101E00FF11F80812F
:1020C0009181A281B38180934D0D90934E0DA09389
:1020D0004F0DB093500D64C0E981FA81E20DF31DFC
:1020E0002081298B31813D8782818D8393819983E2
:1020F000F101E00FF11F80819181A281B381898775
:102100009A87AB87BC879C01AD0169897D858D81EC
:1021100099810E9404408823A9F1A7019601C50175
:10212000B4010E949F3F6B017C01A3019201C50194
:10213000B4010E949F3F9B01AC01C701B6010E9400
:1021400008406B017C019B01AC0160E070E080E81D
:102150009FE30E949F3F29853A854B855C850E94BD
:10216000F8414B015C0129893D854D815981C701A9
:10217000B6010E94F8419B01AC01C501B4010E9467
:10218000A03F04C069897D858D8199818B019C0167
:1021900000934D0D10934E0D20934F0D3093500D25
:1021A00080912706813051F180912506813049F4D4
:1021B00080913D0D90913E0DA0913F0DB091400D4D
:1021C00015C080912406813049F48091490D909189
:1021D0004A0DA0914B0DB0914C0D08C08091510D4E
:1021E0009091520DA091530DB091540D80934D0DCF
:1021F00090934E0DA0934F0DB093500D20914D0D27
:1022000030914E0D40914F0D5091500D6091380519
:102210007091390580913A0590913B050E94F841F3
:102220006093A30D7093A40D8093A50D9093A60DBC
:1022300061E070E080E090E08ED96093B30D709320
:10224000B40D8093B50D9093B60D0E94A3402091DC
:1022500060053091610540916205509163050E94CF
:10226000F84120914005309141054091420550913F
:1022700043050E94F8416B017C016093630D7093EC
:10228000640D8093650D9093660D209164053091E7
:10229000650540916605509167050E94F841698F78
:1022A0007A8F8B8F9C8F8091A90E9091AA0EA0910E
:1022B000AB0EB091AC0E8D839E83AF83B8878093B5
:1022C000670D9093680DA093690DB0936A0D2091EE
:1022D0007005309171054091720550917305BC01F4
:1022E000CD010E94F8416D8F7E8F8F8F98A3209132
:1022F000B10E3091B20E4091B30E5091B40E609178
:1023000078057091790580917A0590917B050E94FE
:10231000F84120E030E0A9010E94A03F20E030E039
:10232000A9010E94A03F20E030E0A9010E94A03F47
:1023300069837A838B839C8360936B0D70936C0DA0
:1023400080936D0D90936E0D2091B50E3091B60E69
:102350004091B70E5091B80E60919405709195051B
:1023600080919605909197050E94F84120E030E019
:10237000A9010E94A03F20E030E0A9010E94A03FF7
:1023800020E030E0A9010E94A03F6D877E878F8703
:10239000988B2091B90E3091BA0E4091BB0E50919E
:1023A000BC0E6091B0057091B1058091B20590911D
:1023B000B3050E94F84120E030E0A9010E94A03F4F
:1023C00020E030E0A9010E94A03F69877A878B87CF
:1023D0009C8760936F0D7093700D8093710D909337
:1023E000720D2091BD0E3091BE0E4091BF0E5091E6
:1023F000C00E6091CC057091CD058091CE05909175
:10240000CF050E94F84120E030E0A9010E94A03FE2
:102410006D8B7E8B8F8B988F2091C10E3091C20E69
:102420004091C30E5091C40E6091D8057091D905AA
:102430008091DA059091DB050E94F84120E030E0C0
:10244000A9010E94A03F20E030E0A9010E94A03F26
:102450002B013C012091C50E3091C60E4091C70E54
:102460005091C80E6091F0057091F1058091F205D0
:102470009091F3050E94F84120E030E0A9010E940C
:10248000A03F20E030E0A9010E94A03F4B015C0189
:102490002091EC043091ED044091EE045091EF0452
:1024A000C701B6010E94F841A30192010E94A03F1A
:1024B00069A37AA38BA39CA32091F0043091F1042B
:1024C0004091F2045091F304C701B6010E94F84113
:1024D000A50194010E94A03F6DA37EA38FA398A79E
:1024E0002091C90E3091CA0E4091CB0E5091CC0E66
:1024F000609108067091090680910A0690910B067A
:102500000E94F84120E030E0A9010E94A03F4B0169
:102510005C012091F4043091F5044091F60450914F
:10252000F704C701B6010E94F8419B01AC01C50147
:10253000B4010E94A03F69A77AA78BA79CA798EF38
:10254000692E94E0792E03E71DE028E0422E25E075
:10255000522E7A8A698A94E0690E711CA989BA8917
:1025600090962D913D914D915C9193976DA17EA197
:102570008FA198A50E94F8414B015C01E989FA8975
:10258000208931894289538969A17AA18BA19CA1B3
:102590000E94F8419B01AC01C501B4010E94A03F1B
:1025A0004B015C01A989BA89D0962D913D914D913D
:1025B0005C91D39769A57AA58BA59CA50E94F8414B
:1025C0009B01AC01C501B4010E94A03F4B015C011D
:1025D000E989FA892081318142815381C701B6019D
:1025E0000E94F8419B01AC01C501B4010E94A03FCB
:1025F000D8016D937D938D939D938D01461457045F
:1026000009F0A7CF809128068130E1F5C092A70D8F
:10261000D092A80DE092A90DF092AA0D2091A50EDE
:102620003091A60E4091A70E5091A80E698D7A8D1B
:102630008B8D9C8D0E949F3F6093AB0D7093AC0D72
:102640008093AD0D9093AE0D8D819E81AF81B88545
:102650008093AF0D9093B00DA093B10DB093B20DD8
:102660002091AD0E3091AE0E4091AF0E5091B00E54
:102670006D8D7E8D8F8D98A10E949F3F8B018DA7C0
:10268000998B69C080912606813059F589819A819C
:10269000AB81BC818093A70D9093A80DA093A90D49
:1026A000B093AA0D8D859E85AF85B8898093AB0DBB
:1026B0009093AC0DA093AD0DB093AE0D89859A8526
:1026C000AB85BC858093AF0D9093B00DA093B10DF9
:1026D000B093B20D0D891E899F899DA7A88DA98BE6
:1026E0003AC08091730D9091740DA091750DB091C9
:1026F000760D8093A70D9093A80DA093A90DB0938C
:10270000AA0D8091770D9091780DA091790DB091DF
:102710007A0D8093AB0D9093AC0DA093AD0DB0935B
:10272000AE0D80917B0D90917C0DA0917D0DB091AF
:102730007E0D8093AF0D9093B00DA093B10DB0932B
:10274000B20D00917F0D1091800DB091810DBDA74C
:10275000E091820DE98B8090A30D9090A40DA09044
:10276000A50DB090A60D2091A70D3091A80D409118
:10277000A90D5091AA0DC501B4010E94A03F20915E
:1027800074043091750440917604509177040E944E
:10279000F8412B013C012091AB0D3091AC0D4091E3
:1027A000AD0D5091AE0DC501B4010E94A03F209126
:1027B00078043091790440917A0450917B040E940E
:1027C000F8419B01AC01C301B2010E94A03F2B0163
:1027D0003C012091AF0D3091B00D4091B10D509161
:1027E000B20DC501B4010E94A03F20917C0430913C
:1027F0007D0440917E0450917F040E94F8419B012A
:10280000AC01C301B2010E94A03F2B013C01A50114
:102810009401B8018DA599890E94A03F2091800460
:102820003091810440918204509183040E94F841C8
:102830009B01AC01C301B2010E94A03F4B015C01AE
:1028400020914D0D30914E0D40914F0D5091500DF6
:1028500060915C0570915D0580915E0590915F05CA
:102860000E94F8419B01AC01C501B4010E94A03F48
:102870004B015C0120E030E040E45FE36D817E814C
:102880008F8198859F770E94044087FF05C060E094
:1028900070E080E89FE303C060E070E0CB01A50139
:1028A00094010E94F841698B7A8B8B8B9C8B60938F
:1028B000830D7093840D8093850D9093860D84E035
:1028C000282E84E0382E27E83DE03EA72DA738AA21
:1028D0002FA600E010E0EFA5F8A9E455FF4F2081F6
:1028E0003181428153816DA17EA18FA198A50E9463
:1028F000F8414B015C01EFA5F8A9E056FF4F20819C
:1029000031814281538169A17AA18BA19CA10E944E
:10291000F8419B01AC01C501B4010E94A03F4B01ED
:102920005C01EFA5F8A9E854FF4F20813181428175
:10293000538169A57AA58BA59CA50E94F8419B01AE
:10294000AC01C501B4010E94A03F4B015C01EFA5A1
:10295000F8A9E452FF4F20813181428153816D817A
:102960007E818F8198850E94F8412B013C01EFA563
:10297000F8A9E053FF4F2081318142815381C70183
:10298000B6010E94F8419B01AC01C301B2010E9453
:10299000A03F2B013C01EFA5F8A9EC53FF4F20818C
:1029A00031814281538169897A898B899C890E940E
:1029B000F8419B01AC01C301B2010E94A03F9B0101
:1029C000AC01C501B4010E94A03FADA5BEA56D93A9
:1029D0007D938D939D93BEA7ADA70F5F1F4FEFA56E
:1029E000F8A93496F8ABEFA70330110509F073CFBF
:1029F000209154043091550440915604509157044D
:102A000069817A818B819C810E94F8414B015C0134
:102A100020915C0430915D0440915E0450915F040C
:102A20006D857E858F8598890E94F8419B01AC0158
:102A3000C501B4010E94A03F4B015C0120916404D8
:102A400030916504409166045091670469857A85E8
:102A50008B859C850E94F8419B01AC01C501B401A6
:102A60000E94A03F4B015C0120916C0430916D04E9
:102A700040916E0450916F046D897E898F89988D85
:102A80000E94F8419B01AC01C501B4010E94A03F26
:102A90002B013C016093550D7093560D8093570D9B
:102AA0009093580D2091600430916104409162042C
:102AB000509163046D857E858F8598890E94F841C9
:102AC0004B015C01209158043091590440915A0403
:102AD00050915B0469817A818B819C810E94F841CD
:102AE0009B01AC01C501B4010E94A03F4B015C01F8
:102AF000209168043091690440916A0450916B04FC
:102B000069857A858B859C850E94F8419B01AC0183
:102B1000C501B4010E94A03F4B015C0120917004EB
:102B20003091710440917204509173046D897E89D3
:102B30008F89988D0E94F8419B01AC01C501B401B9
:102B40000E94A03F4B015C016093590D70935A0D98
:102B500080935B0D90935C0DA3019201C701B601B8
:102B60000E949F3F2B013C016093A30D7093A40D25
:102B70008093A50D9093A60DA50194016D817E8192
:102B80008F8198850E949F3F6D837E838F83988776
:102B900003E91DE01AA219A2D10150962D913D9191
:102BA0004D915C9153976D857E858F8598890E94A4
:102BB000F8416B017C01F101208131814281538117
:102BC00069817A818B819C810E94F8419B01AC01D3
:102BD000C701B6010E94A03F6B017C01D101909614
:102BE0002D913D914D915C91939769857A858B8567
:102BF0009C850E94F8419B01AC01C701B6010E946F
:102C0000A03F6B017C01F10120A931A942A953A980
:102C10006D897E898F89988D0E94F8419B01AC0156
:102C2000C701B6010E94A03F6B017C01F101E05792
:102C3000FF4F20813181428153816D817E818F815F
:102C400098850E94F8414B015C01F101E058FF4F6B
:102C50002081318142815381C301B2010E94F84138
:102C60009B01AC01C501B4010E94A03F4B015C0176
:102C7000F101E05CFF4F20813181428153816989FC
:102C80007A898B899C890E94F8419B01AC01C5011E
:102C9000B4010E94A03F9B01AC01C701B6010E9494
:102CA000A03FD8016D937D938D939D938D01E9A1F4
:102CB000FAA13196FAA3E9A3F4E02F0E311C29A161
:102CC0003AA12430310509F067CF8DE59DE00E94DF
:102CD0007D0760915D0D70915E0D072E000C880BD5
:102CE000990B0E94A34020913C0530913D054091F5
:102CF0003E0550913F050E949F3F20911006309164
:102D0000110640911206509113060E94F8414B01A2
:102D10005C01209154053091550540915605509124
:102D200057056091830D7091840D8091850D909170
:102D3000860D0E940440682F661F6627661F88E084
:102D40000E943C0B6091CF0D7091D00D8091D10D00
:102D50009091D20D0E94C90A9093CE0D8093CD0D13
:102D60000091830D1091840D3091850D3D838091EC
:102D7000860D8983C0904C05D0904D05E0904E059E
:102D8000F0904F059601A701B8018D8199810E94AD
:102D9000F44118168CF0C0901406D0901506E090FF
:102DA0001606F09017069601A701B8018D8199814A
:102DB0000E94044087FF03C08601ED82F9822091C2
:102DC00018063091190640911A0650911B06B80159
:102DD0008D8199810E94F8410E94DE406B017C0147
:102DE000A9D5811120C0C701B60179D581111BC0B9
:102DF00020E030E040E853E4C701B6010E94F8400B
:102E00006B017C018B01ED82F98220E030E0A901A9
:102E10000E94044087FF0BC0C701B60190580E9472
:102E20007540619509C000E010E01D821982B8016B
:102E30008D8199810E94754070E080E090E00E9451
:102E4000A140AB01BC018091CD0D9091CE0D0E94AF
:102E5000B90A209158053091590540915A05509171
:102E60005B056091830D7091840D8091850D90912B
:102E7000860D0E940440682F661F6627661F85E046
:102E80000E943C0B6091C10D7091C20D8091C30DE9
:102E90009091C40D0E94C90A9093C00D8093BF0DFC
:102EA0000091830D1091840D9091850D9D83A091CB
:102EB000860DA983C0905005D0905105E090520531
:102EC000F09053059601A701B801892F9A2F0E940F
:102ED000F44118168CF0C0901C06D0901D06E090AE
:102EE0001E06F0901F069601A701B8018D819981F9
:102EF0000E94044087FF03C08601ED82F982209181
:102F00002006309121064091220650912306B801F7
:102F10008D8199810E94F8410E94DE406B017C0105
:102F200009D5811120C0C701B601D9D481111BC0B8
:102F300020E030E040E853E4C701B6010E94F840C9
:102F40006B017C018B01ED82F98220E030E0A90168
:102F50000E94044087FF0BC0C701B60190580E9431
:102F60007540619509C000E010E01D821982B8012A
:102F70008D8199810E94754070E080E090E00E9410
:102F8000A140AB01BC018091BF0D9091C00D0E948A
:102F9000B90A898D9A8DAB8DBC8D8093A50E9093C7
:102FA000A60EA093A70EB093A80E209168053091AD
:102FB000690540916A0550916B05C501B4010E94F5
:102FC000F8412091A90E3091AA0E4091AB0E50917C
:102FD000AC0E0E94A03F6093A90E7093AA0E80933E
:102FE000AB0E9093AC0E8D8D9E8DAF8DB8A180935E
:102FF000AD0E9093AE0EA093AF0EB093B00E209195
:10300000B10E3091B20E4091B30E5091B40E60915A
:1030100074057091750580917605909177050E94F1
:10302000F8412091930D3091940D4091950D509160
:10303000960D0E94A03F6093B10E7093B20E8093E4
:10304000B30E9093B40E2091B50E3091B60E409110
:10305000B70E5091B80E60919005709191058091D6
:103060009205909193050E94F8412091970D30911F
:10307000980D4091990D50919A0D0E94A03F609338
:10308000B50E7093B60E8093B70E9093B80E209144
:10309000B90E3091BA0E4091BB0E5091BC0E6091AA
:1030A000AC057091AD058091AE059091AF050E9481
:1030B000F84120919B0D30919C0D40919D0D5091B8
:1030C0009E0D0E94A03F6093B90E7093BA0E80933C
:1030D000BB0E9093BC0E2091BD0E3091BE0E409160
:1030E000BF0E5091C00E6091C8057091C9058091C6
:1030F000CA059091CB050E94F84120919F0D309117
:10310000A00D4091A10D5091A20D0E94A03F60938F
:10311000BD0E7093BE0E8093BF0E9093C00E209193
:10312000C10E3091C20E4091C30E5091C40E6091F9
:10313000D4057091D5058091D6059091D7050E9450
:10314000F8412091870D3091880D4091890D509163
:103150008A0D0E94A03F6093C10E7093C20E8093AF
:10316000C30E9093C40E2091C50E3091C60E4091AF
:10317000C70E5091C80E6091EC057091ED058091DD
:10318000EE059091EF050E94F84120918B0D309152
:103190008C0D40918D0D50918E0D0E94A03F60933B
:1031A000C50E7093C60E8093C70E9093C80E2091E3
:1031B000C90E3091CA0E4091CB0E5091CC0E609149
:1031C00004067091050680910606909107060E94FC
:1031D000F84120918F0D3091900D4091910D5091BB
:1031E000920D0E94A03F6093C90E7093CA0E809307
:1031F000CB0E9093CC0E82E090E00E94F529E091F6
:103200002F0DF091300D408151816281738180E0FA
:1032100090E00E94F1296091240D7091250D80911C
:10322000260D9091270D0E94A14026EA3BE944EC2F
:103230005BE30E94F841AB01BC0181E090E00E9499
:10324000F1298090280D9090290DA0902A0DB09022
:103250002B0D20E030E040E85FEBC501B4010E9497
:103260000440A0912F0DB091300DBA83A98388231B
:1032700011F1CD90DD90ED90FC90A7019601C50174
:10328000B4010E949F3F4B015C0120E030E040E030
:1032900054E3C701B6010E94F8419B01AC01C5018E
:1032A000B4010E94F441181634F084E696E090933D
:1032B0008A0C8093890C80912E0D882331F084E64E
:1032C00096E090938A0C8093890C80911C0D9091CC
:1032D0001D0DA0911E0DB0911F0DBC01CD016F5FA2
:1032E0007F4F8F4F9F4F60931C0D70931D0D8093E8
:1032F0001E0D90931F0D0E94A1409B01AC01609197
:10330000200D7091210D8091220D9091230D0E942E
:10331000F841E981FA81608371838283938380918C
:10332000240D9091250DA091260DB091270D0196A9
:10333000A11DB11D8093240D9093250DA093260D02
:10334000B093270DE0960FB6F894DEBF0FBECDBF49
:10335000DF91CF911F910F91FF90EF90DF90CF9071
:10336000BF90AF909F908F907F906F905F904F90A5
:103370003F902F9008952F923F924F925F926F92BD
:103380007F928F929F92AF92BF92CF92DF92EF92F5
:10339000FF920F931F93CF93DF9384E090E068D266
:1033A000E9E8FCE080EBDF011D928A95E9F78CE209
:1033B0009DE097838683CFE2DDE0D093CA0CC09373
:1033C000C90C00E21DE0158B048BF093F40CE09324
:1033D000F30CF583E48321E030E0DC012D933C9392
:1033E00088E796E09387828721E33DE0398328834D
:1033F00040E050E060E87FEB4093280D5093290DAA
:1034000060932A0D70932B0D46EA5BE964EC7BE335
:10341000D8014D935D936D937C931397CAE0DDE0E3
:1034200082E397E0AEE7B6E888839983AA83BB83FB
:103430008BE09DE3AAEFBBE880930E0D90930F0DF8
:10344000A093100DB093110D8EE19EE3A4EEB6ECA7
:103450008093120D9093130DA093140DB093150D3E
:1034600086E69AEFA2EEBFEF8093160D9093170DAC
:10347000A093180DB093190DA0E4B9E0B383A28313
:10348000ECE2F9E01196FC93EE9386E997E09183E4
:1034900080839383828395838483978386839187B4
:1034A0008087938782879587848797878687918B84
:1034B000808B938B828B8AE19DE015969C938E93F3
:1034C00014971396DC93CE93129717963C932E93F2
:1034D00016972EE7E9E3FDE0DF011D922A95E9F753
:1034E000C7EBDDE02EE131E0FE01A9011192415070
:1034F0005040E1F7E8E1F9E024E1DF011D922A956F
:10350000E9F7DC01ED93FC9383E190E09183808304
:103510008EED93E09383828388EB93E0958384839D
:1035200084E693E09783868380E593E091878087A4
:1035300080E293E090936C0E80936B0E80EC92E0AF
:1035400090936E0E80936D0E88EA92E09093740EC5
:103550008093730E88E792E09093760E8093750EB9
:1035600080E692E090937A0E8093790E88E492E060
:1035700090937C0E80937B0E88E292E09093800E75
:1035800080937F0E88E092E09093820E8093810E6C
:10359000812C912C540183948092540E9092550E5C
:1035A000A092560EB092570E42E150E063E170E0F7
:1035B00081E090E00E94B609CC24C394C092580EDA
:1035C0001092590E80925A0E90925B0EA0925C0E51
:1035D000B0925D0E80E090E00E947007C0925E0E97
:1035E0001092650E8092660E9092670EA092680E01
:1035F000B092690E61E088E00E94350BC0926A0EBD
:103600001E86E3E1FEE092E3692E608223E3722EE0
:103610007092140E34E3232E2092150E45E3342EBF
:103620003092160E56E3452E4092170E67E3562E43
:103630005092180EB8E3B093190E49E340931A0E56
:1036400071E3D72ED0921B0E50E350931C0ED092F4
:103650001D0ED0921E0ED0921F0E6092200ED092A0
:10366000210E7092220EFD8BEC8B86E090E0A0E0A4
:10367000B0E0888F998FAA8FBB8F1B8A8F86988A1C
:10368000A98ABA8AE12CF12C8701A801970166E08A
:1036900070E080E090E00E94100B9F8B8E8B688D15
:1036A000798D8A8D9B8D0E94C90A9F8B8E8B0E947B
:1036B000B80ACB8A10925F0E8092600E9092610ED3
:1036C000A092620EB092630E61E085E00E94350B1D
:1036D000C092640E18826C8E7D8E2E8E3F8E48A214
:1036E00059A288E38AA3A9E3ABA3DCA2B0E3BDA3FC
:1036F000DEA2DFA2D8A669A6DAA67BA683ED9DE0AE
:103700009F838E8382E090E0A0E0B0E08A879B8771
:10371000AC87BD871D8289829A82AB82BC82A80158
:10372000970162E070E080E090E00E94100B9987C2
:1037300088876A857B858C859D850E94C90A9987C3
:1037400088870E94B80ACD828091440590914505F2
:10375000A0914605B09147058093A50E9093A60EC3
:10376000A093A70EB093A80E80916C0590916D0563
:10377000A0916E05B0916F058093A90E9093AA0E4B
:10378000A093AB0EB093AC0E809148059091490583
:10379000A0914A05B0914B058093AD0E9093AE0E6B
:1037A000A093AF0EB093B00EDF91CF911F910F9108
:1037B000FF90EF90DF90CF90BF90AF909F908F9051
:1037C0007F906F905F904F903F902F9008958091E1
:1037D000530E811103C081E08093530E8091590EE6
:1037E000811103C081E08093590E8091650E811193
:1037F00003C081E08093650E8091C50D811107C0E3
:1038000081E08093C50D85EC9DE00E94430B809183
:103810005F0E811103C081E080935F0E8091B70D30
:10382000811107C081E08093B70D87EB9DE00C9478
:10383000430B089560E070E080E89FE7089560E042
:1038400070E080E89FE7089560E070E080E89FEF17
:10385000089560E070E080E89FEF089560E070E018
:1038600080EC9FEF089560E070E080EC9FEF08959A
:10387000F5DF6093E10E7093E20E8093E30E909378
:10388000E40EF1DF6093D50E7093D60E8093D70EC1
:103890009093D80ECFDF6093DD0E7093DE0E809391
:1038A000DF0E9093E00ECBDF6093D90E7093DA0EAB
:1038B0008093DB0E9093DC0EC7DF6093E50E709370
:1038C000E60E8093E70E9093E80EC3DF6093E90E57
:1038D0007093EA0E8093EB0E9093EC0E0895CF92C6
:1038E000DF92EF92FF92CF936B017C019B01AC01C1
:1038F0006091D90E7091DA0E8091DB0E9091DC0E02
:103900000E940440C1E0882371F0A70196016091F4
:10391000E90E7091EA0E8091EB0E9091EC0E0E94F0
:1039200004408111C0E08C2FCF91FF90EF90DF9089
:10393000CF9008950F931F938B019C0100271127AF
:1039400020783F770115110520483F4749F4AB0126
:10395000BC016F77772781E0452B462B472B09F475
:1039600080E01F910F910895EF92FF920F931F93A4
:10397000CF93DF93DC01EA01F90114968D919C91BC
:10398000159712960D911C911397080F191F2881F6
:10399000398118964D915C9119974217530728F079
:1039A0004D915C911197452B39F17801E21AF30A98
:1039B00018964D915C911997481B590B4E0D5F1D40
:1039C0004617570794F1A901460F571F4017510793
:1039D000E0F0F182E082338322836E197F097583E0
:1039E0006483161617061CF4382F292F02C030E006
:1039F00020E03683278313C018968D919C911997E8
:103A0000821B930B8617970784F07183608333833F
:103A10002283158214821782168288819981680F09
:103A2000791F7983688380E001C081E0DF91CF91C5
:103A30001F910F91FF90EF900895CF92DF92EF9238
:103A4000FF92CF93DF936B017C0184E48C9DE001B6
:103A50008D9DD00D1124C45BD64F8AA99BA90097D8
:103A600021F00E945E431BAA1AAA84E48C9DF001F7
:103A70008D9DF00D1124E45BF64F86A997A9009760
:103A800011F00E945E4384E48C9DF0018D9DF00D49
:103A90001124E45BF64F138A128A168A178A108E55
:103AA000118E128E138E148E158E168E178E10A2F6
:103AB00011A281E090E093A382A315A214A216A202
:103AC00017A210A611A613A612A615A614A616A62E
:103AD00017A610AA11AA13AA12AA15AA14AA17AAFD
:103AE00016AA11AE10AE12AE13AE14AE15AEDF01B3
:103AF000DE961D921D921D921C921397EE5BFF4F56
:103B000011821082DF91CF91FF90EF90DF90CF90E4
:103B100008950F931F93CF93DF93EB01DC018D91F9
:103B20009C91FC01A681B781E881F98123E0EE0F29
:103B3000FF1F2A95E1F712962D913C911397E20F02
:103B4000F31F00811181AC85BD859D01220F331FBC
:103B5000DC0112968D919C911397D901A80FB91F82
:103B60008D919C9124813581232B19F461E070E0C3
:103B700002C062E070E0869F9001879F300D969FA3
:103B8000300D112488859985289FB001299F700DDB
:103B9000389F700D1124EC81FD812E9FC0012F9F55
:103BA000900D3E9F900D1124800F911FFA0191837B
:103BB000808373836283DF91CF911F910F9108956A
:103BC0002F923F924F925F926F927F928F929F922D
:103BD000AF92BF92CF92DF92EF92FF920F931F931B
:103BE000CF93DF9300D000D0CDB7DEB7DC011496C1
:103BF000ED91FC9115970190F081E02D80859185E4
:103C00009A838983A281B381BC83AB83FB018190BA
:103C10009190A190B190C12CD12C7601C814D904F7
:103C2000EA04FB040CF05DC0448055806680778018
:103C30004085518562857385CF0140969E838D8333
:103C4000A081B1819D0183E0220F331F8A95E1F7A6
:103C5000A981BA8112968D919C911397D901A80FD1
:103C6000B91F2D903C9011970484F585E02DEE0F3F
:103C7000FF1F8B819C81E80FF91F0190F081E02DDF
:103C800014968D919C911597892B19F481E090E001
:103C900002C082E090E08E9F90018F9F300D9E9F2A
:103CA000300D1124249F8001259F100D349F100D8D
:103CB0001124249DC001259D900D349D900D11244B
:103CC000A8016D817E81820D931D0E94E743ED81E5
:103CD000FE81E00FF11F9FEFC91AD90AE90AF90A1C
:103CE0009DCF26960FB6F894DEBF0FBECDBFDF91F5
:103CF000CF911F910F91FF90EF90DF90CF90BF90E9
:103D0000AF909F908F907F906F905F904F903F907B
:103D10002F900895CF93DF93DB01A75DB94F2C91CE
:103D2000222369F024E4269FF001279FF00D11243F
:103D3000E45BF64FEF0119922A95E9F71C9224E40F
:103D4000269FF001279FF00D1124E45BF64F1482AB
:103D50001582168217821186108613861286118AA2
:103D6000108A17861686DF91CF9167CE2F923F92E9
:103D70004F925F926F927F928F929F92AF92BF927B
:103D8000CF92DF92EF92FF920F931F93CF93DF9327
:103D9000CDB7DEB728970FB6F894DEBF0FBECDBF04
:103DA00024E4269FD001279FB00D1124A45BB64FB9
:103DB000BC83AB8314960D911D912D913C91179767
:103DC000012B022B032B09F4C1C02A016B017C01DA
:103DD000612C712C812C912C5401B887AF831496DF
:103DE000BC83AB83EF81F8853896FE83ED83EB814E
:103DF000FC8180819181A281B38188169906AA06EF
:103E0000BB0694F5AD81BE81ED91FC91E60DF71DE9
:103E1000B281B98323812A830B2F122F212C312CBD
:103E200024143504A4F4D801ED91FC91309749F0A5
:103E3000848195810E945E43F801808191810E9476
:103E40005E43FFEF2F1A3F0A0E5F1F4FE9CF8981B4
:103E50009A810E945E432FEF821A920AA20AB20A46
:103E600034E0630E711CC3CFAF81B88518968D9175
:103E70009C9119970E945E43EF81F8858285938516
:103E8000892B81F100E010E01C821B8224E42C9D30
:103E9000C0012D9D900D11249C012A5A364F5901C5
:103EA0002B813C81241535058CF4D501ED91FC91D5
:103EB000E00FF11F848195810E945E43EB81FC81BC
:103EC0003196FC83EB83025F1F4FEACF84E48C9D25
:103ED000F0018D9DF00D1124E45BF64F82859385F2
:103EE0000E945E4384E48C9DD0018D9DB00D112411
:103EF000A45BB64FBC83AB8350968D919C91519738
:103F00000E945E43EB81FC81868597850E945E431B
:103F1000C701B60192DDC701B60128960FB6F89425
:103F2000DEBF0FBECDBFDF91CF911F910F91FF90EC
:103F3000EF90DF90CF90BF90AF909F908F907F9049
:103F40006F905F904F903F902F90E4CE28960FB6E1
:103F5000F894DEBF0FBECDBFDF91CF911F910F91BF
:103F6000FF90EF90DF90CF90BF90AF909F908F9099
:103F70007F906F905F904F903F902F90089524E432
:103F8000269FF001279FF00D1124E45BF64F8289F4
:103F900093890497029758F485E090E0938B828B85
:103FA0008FEF9FEFDC01828F938FA48FB58F0895E1
:103FB0002F923F924F925F926F927F928F929F9239
:103FC000AF92BF92CF92DF92EF92FF920F931F9327
:103FD000CF93DF93CDB7DEB7AA970FB6F894DEBFC5
:103FE0000FBECDBF9AA389A3788F6F8B7A01098BFF
:103FF0001A8B2B8B3C8B84E429893A89829F600140
:10400000839FD00C11248601045B164F89899A89FD
:10401000AB89BC89F80180839183A283B383AB0110
:10402000BC01CD01A3DED601A05BB64F84E0F70151
:1040300001900D928A95E1F71701F4E02F0E311CE3
:1040400064E070E0D80114968D919C9115970E94C0
:10405000AC42F80191878087892B09F481C11E8EBB
:104060001D8E198E1A8E1B8E1C8E18A30F8F980111
:104070002C5F3F4F38A72FA3A801485F5F4F5AA777
:1040800049A7EFA1F8A580819181A281B381298DF3
:104090003A8D4B8D5C8D281739074A075B070CF06A
:1040A000CEC0A9A5BAA58D919C91ED8DFE8DE80F8E
:1040B000F91FFE8BED8BD101ED91FC91EE0FFF1FEF
:1040C000A9A1BAA18D919C91E80FF91F80819181DE
:1040D000ED89FE8991838083D10114962D913D91C4
:1040E0004D915C9117972BA33CA34DA35EA3B8E021
:1040F0002B0E311C62E070E08F89988D0E94AC42DB
:10410000ED89FE8993838283892B09F429C1412C8F
:10411000512C32012BA13CA14DA15EA142165306A8
:10412000640675060CF025C15101F4E0AF0EB11C18
:10413000D101ED90FC90EE0CFF1CED89FE8902810F
:1041400013810E0D1F1D68E070E081E090E00E9479
:10415000AC42D8018D939C93ED89FE898281938135
:10416000FC01EE0DFF1DC080D180C114D10409F403
:10417000F7C084E0F501D60101900D928A95E1F730
:10418000F8E02F0E311CF60180819181A281B3816C
:10419000181619061A061B060CF04BC064E070E0F6
:1041A0000E94AC42D60115969C938E931497892B4E
:1041B00009F4D6C0E12CF12C812C912C5401F6018C
:1041C00080819181A281B38188169906AA06BB06D7
:1041D00084F5F601048115810E0D1F1D80E1F101AA
:1041E000DE01119601900D928A95E1F7F0E12F0E14
:1041F000311CA801BE016F5F7F4FA9A1BAA114961F
:104200008D919C91159785DCF60126813781D80127
:1042100012968D919C911397820F931F978386839B
:10422000BFEF8B1A9B0AAB0ABB0AE4E0EE0EF11C4F
:10423000C6CFFFEF4F1A5F0A6F0A7F0A6BCF6EE09F
:1042400070E08F89988D0E94AC42AF8DB8A11B960B
:104250009C938E931A97A12CB12CC12CD12CE12CBC
:10426000F12C24E4E989FA892E9FC0012F9F900D3B
:1042700011249C012A5A364F3E8B2D8B882483941F
:10428000912C4F89588DC416D5060CF041C0D10130
:104290004D905D906D907D901D01ED89FE890081AE
:1042A00011810A0D1B1D77FC5BC0D80111969C92F1
:1042B0008E92411451046104710449F0C2010E94BC
:1042C000C642F80195838483892B31F449C0D80113
:1042D00015961C921E921497F80153824282848193
:1042E000958197838683918780871386128681E0E4
:1042F00090E045284628472811F480E090E0E80E39
:10430000F91EFFEFCF1ADF0A2EE0A20EB11CB9CFC3
:1043100084E4A989BA898A9F80018B9F100D11249A
:10432000045B164FF80115861486C70133E0880F29
:10433000991F3A95E1F70E94C642D80151969C9385
:104340008E935097892B61F0C701880F991F0E94A7
:10435000C642F80197878687892B11F080E01CC040
:104360004F89588D69897A898B899C89FFDC81E026
:1043700013C0298D3A8D4B8D5C8D2F5F3F4F4F4F72
:104380005F4F298F3A8F4B8F5C8F4D8D5E8D4C5FC9
:104390005F4F5E8F4D8F75CEAA960FB6F894DEBF35
:1043A0000FBECDBFDF91CF911F910F91FF90EF9086
:1043B000DF90CF90BF90AF909F908F907F906F9045
:1043C0005F904F903F902F9008952F923F924F9281
:1043D0005F926F927F928F929F92AF92BF92CF9295
:1043E000DF92EF92FF920F931F93CF93DF93CDB79E
:1043F000DEB768970FB6F894DEBF0FBECDBF9C8BBB
:104400008B8B69017A0124E42C9DC0012D9D900DB8
:1044100011249C01245B364F5901FB01208131811D
:10442000F501358B248BDC01AE59B64FFB01349678
:1044300024E001900D922A95E1F7DC01AA59B64FCC
:10444000FB01389624E001900D922A95E1F7DC01FA
:10445000A659B64FFB013C9624E001900D922A9597
:10446000E1F7DC01A658B64FFB01709684E001909D
:104470000D928A95E1F78B010C5E1F4FF50186A521
:1044800097A5A0A9B1A9181619060CF064C0880F49
:10449000991F880F991F0E94C642F50193AB82AB0A
:1044A000892B09F4B5C0812C912C412C512C32015F
:1044B0009501225D3F4F3E8B2D8BC501C296988F93
:1044C0008F8BF496FA8BE98BB301A2012FEF421A7E
:1044D000520A620A720AED89FE8980819181A28165
:1044E000B381481759076A077B0754F5EF89F88DA0
:1044F00020803180280C391C80E1F801DE01119602
:1045000001900D928A95E1F7005F1F4FA101BE0156
:104510006F5F7F4FEB89FC8984819581FADAE989A5
:10452000FA8920813181F10182819381820F931F69
:10453000E989FA8991838083F4E08F0E911CC4CFBE
:10454000F50184A995A90E94C642F50197AB86ABF7
:10455000892B09F45DC0F80180819181A281B3812A
:1045600024E42C9DF0012D9DF00D1124E45BF64F09
:10457000AC01BD014D7F21E030E0452B462B472BA0
:1045800011F020E030E033A322A324E42C9DF001BD
:104590002D9DF00D1124E45BF64F0197A109B1099F
:1045A00021E030E00297A105B10510F020E030E0F5
:1045B00035A324A324E42C9DC0012D9D900D11242E
:1045C000DC01AE58B64FF801349624E001900D920C
:1045D0002A95E1F7FC01E45BF64F868D978DA0A14B
:1045E000B1A1B7FF10C0B095A095909581959F4F50
:1045F000AF4FBF4F82AF93AFA4AFB5AF168E178E3C
:1046000010A211A20AC012AE13AE14AE15AE05C0B0
:10461000C701B60112DA81E001C080E068960FB6EA
:10462000F894DEBF0FBECDBFDF91CF911F910F91E8
:10463000FF90EF90DF90CF90BF90AF909F908F90C2
:104640007F906F905F904F903F902F900895CF9202
:10465000DF92EF92FF92CF93DF931092D40924E47C
:10466000269FF001279FF00D1124E45BF64F15A65D
:1046700014A620E030E0C12CD12CDF011A96C1E055
:10468000D0E0C416D506D4F4ED91FC911197E20F59
:10469000F31FE280F3801E141F0454F4E480F580BD
:1046A000F782E682F186E08613861286D183C08384
:1046B000EFEFCE1ADE0A225F3F4FE3CF24E4269FBE
:1046C000F001279FF00D1124E45BF64F13A612A60C
:1046D00011AE10AEDF01DE961D921D921D921C924E
:1046E000139782E090E0938B828BDF91CF91FF90C4
:1046F000EF90DF90CF90089524E4269FF001279F4C
:10470000F00D1124E45BF64F138A128A2FCB24E4B8
:10471000269FF001279FF00D1124E45BF64F82895C
:10472000938981309105C8F08530910518F005977F
:1047300069F008958FEF9FEFDC01828F938FA48F34
:10474000B58F85E090E0938B828B08958FEF9FEF7C
:10475000DC01828F938FA48FB58F089524E4249F6A
:10476000F001259FF00D1124E45BF64F2EE0AC0123
:10477000249FC001259F900D11240284F385E02D14
:10478000E80FF91F81E08093D40982859385918792
:104790008087408551852681378181E090E04217EE
:1047A000530711F080E090E09183808308952F9269
:1047B0003F924F925F926F927F928F929F92AF92B1
:1047C000BF92CF92DF92EF92FF920F931F93CF93FE
:1047D000DF93CDB7DEB7C055D1090FB6F894DEBF71
:1047E0000FBECDBF9EAF8DAF4BA75CA76DA77EA7B9
:1047F0006801790184E48C9D80018D9D100D112448
:10480000F801E45BF64F2285338525963FAF2EAF46
:10481000259782899389029709F05FC186A597A59C
:10482000A0A9B1A9892B8A2B8B2B29F484E090E0D5
:10483000938B828B52C1848995894DAD5EAD4817AB
:10484000590709F04AC186A997A998AB8FA71CAE52
:104850001BAE1FAA18AE19AE1AAE8F01DF019E96CD
:104860002796BFAFAEAF2797F2962996FFAFEEAF70
:1048700029979801285C3F4F2B963FAF2EAF2B977F
:10488000A8014A5D5F4F2D965FAF4EAF2D97C801CF
:1048900082962F969FAF8EAF2F971A976196BFAFD4
:1048A000AEAF61972796EEADFFAD279780819181DE
:1048B000A281B3812FA938AD49AD5AAD2817390768
:1048C0004A075B070CF0E8C02996EEADFFAD2997CB
:1048D000808191812BAD3CAD280F391F3CAB2BABB8
:1048E000D90112960D90BC91A02D2196BFAFAEAF0D
:1048F0002197B695A795B695A7952396BFAFAEAF6E
:1049000023972B96EEADFFAD2B9780819181892B5C
:1049100009F497C02D96AEADBFAD2D978D909D90AB
:10492000AD90BC902FA438A8F9010190F081E02D42
:10493000FAABE9AB1EAA1DAA23968EAD9FAD2397B5
:10494000ADA9BEA9A817B9070CF07BC02F96AEADD4
:10495000BFAD2F978D919C91892B71F1E9A9FAA98F
:104960004080518062807380A3019201C501B4012F
:104970000E940440181664F0D1012D913D914D9193
:104980005C91C501B4010E94F44118160CF48CC06E
:10499000A3019201C501B4010E94044087FF0CC02D
:1049A000F1012081318142815381C501B4010E940E
:1049B0000440882309F478C06196AEADBFAD61971D
:1049C0008D919C91892B69F1E9A9FAA940805180C8
:1049D00062807380A3019201C501B4010E94F44179
:1049E000181664F4D1012D913D914D915C91C50152
:1049F000B4010E94044018160CF056C0A3019201A5
:104A0000C501B4010E94044081110BC0F101208155
:104A1000318142815381C501B4010E94044087FD68
:104A200043C02DA93EA92F5F3F4F3EAB2DAB34E0D5
:104A3000230E311C49A95AA94C5F5F4F5AAB49ABB1
:104A40007BCFEBA9FCA96081718121964EAD5FAD52
:104A500021978FA598A90E94E74323968EAD9FAD1D
:104A60002397880F991F880F991F2FA538A9280F02
:104A7000391F38AB2FA78FA998ADA9ADBAAD019654
:104A8000A11DB11D8FAB98AFA9AFBAAFABADBCAD97
:104A90001496BCAFABAF06CF81E090E0D801D996B9
:104AA0009C938E93D89719C084E48C9DF0018D9DC2
:104AB000F00D1124E45BF64F868D978DA0A1B1A176
:104AC000892B8A2B8B2B09F059C284E090E0938BC1
:104AD000828B86AD97AD93A782A784E48C9DF0016D
:104AE0008D9DF00D1124E45BF64F8289938982300D
:104AF000910579F482AD93ADA4ADB5AD1816190644
:104B00001A061B060CF041C2E1E0F0E0FAABE9AB9B
:104B100005C0049709F039C21AAA19AA8EE02DAD72
:104B20003EAD829F8001839F100D112425964EADCE
:104B30005FAD2597040F151FD80112962D913C915A
:104B400013972115310509F420C216968D919C9179
:104B500017979AA789A7FE01319684E1DF011D927C
:104B60008A95E9F7C98ADA8AEB8AFC8AE9A9FAA95F
:104B7000EF2B09F451C084E48C9DF0018D9DF00D64
:104B80001124E45BF64FDF01DE968D909D90AD9091
:104B9000BC9082AD93ADA4ADB5AD88169906AA06BA
:104BA000BB06D1F5D80114964D915C9115971896D6
:104BB000ED91FC911997349684E0DE0155960190B1
:104BC0000D928A95E1F78D899E8908969E8B8D8B33
:104BD000F80160857185860F971F91878087808592
:104BE0009185240F351F821B930B97FD04C0840F02
:104BF000951F9187808784E48C9DF0018D9DF00D39
:104C00001124E657F64F21E0821A9108A108B10855
:104C100080829182A282B3829E012B5E3F4FAE01C1
:104C2000475D5F4F64E170E0C8010E94B41C282E0C
:104C3000312C2114310409F08AC18CE090E0A0E00D
:104C4000B0E08D839E83AF83B8879E01235E3F4F84
:104C5000AE01475D5F4F64E070E0C8010E94B41C84
:104C6000282E312C2114310409F071C180E190E02B
:104C7000A0E0B0E08D839E83AF83B8874D8D5E8DBD
:104C8000BE01655D7F4F8F8D98A10E94E7438BA188
:104C90009CA1009761F06D8D7E8D4BE250E04C0F32
:104CA0005D1F640F751F49A15AA10E94E7431DA211
:104CB0001EA21FA218A68DAD9EAD880F991F98AF9A
:104CC0008FAB24E42C9DC0012D9D900D1124845B9D
:104CD000964FDC011496BCAFABAFFC013896219621
:104CE000FFAFEEAF21978DA09EA0AFA0B8A4EBAD13
:104CF000FCAD80819181A281B38188169906AA06B4
:104D0000BB060CF0CDC02196AEADBFAD2197ED91A5
:104D1000FC91C401880F991F880F991FE80FF91F94
:104D2000A081B1818C9181110AC0BFEF8B1A9B0ABF
:104D3000AB0ABB0A8DA29EA2AFA2B8A6D4CF833085
:104D4000A1F30280F381E02D2FA938ADE20FF31F0C
:104D5000408151815CAB4BAB452B39F389859A85FA
:104D6000AB85BC850196A11DB11D89879A87AB874C
:104D7000BC879E01235E3F4FAE01475D5F4F64E0FD
:104D800070E0C8010E94B41C90E0009709F0DEC0FA
:104D90008D819E81AF81B8850496A11DB11D8D8343
:104DA0009E83AF83B8874D8D5E8DBE016B5D7F4F57
:104DB0008F8D98A10E94E7438BA19CA1009761F081
:104DC0006D8D7E8DA5E2B0E0AC0FBD1F6A0F7B1F1D
:104DD00049A15AA10E94E7431EAA1DAA412C512CA9
:104DE0003201EBA9FCA980819181A281B38148168F
:104DF00059066A067B060CF098CFEBA9FCA98481C2
:104E000095812DA93EA9280F391F38AB2FA7D901AD
:104E100012966D917C9113979E01235E3F4FAE01D8
:104E2000475D5F4FC8010E94B41C90E0009709F0F5
:104E30008DC0EFA5F8A982819381092E000CAA0BE1
:104E4000BB0B4D815E816F817885840F951FA61FF6
:104E5000B71F8D839E83AF83B887608171814D8D2D
:104E60005E8D8F8D98A10E94E7438BA19CA1009736
:104E700061F0AFA5B8A96D917C912D8D3E8D620F2B
:104E8000731F49A15AA10E94E743BFEF4B1A5B0A67
:104E90006B0A7B0AEDA9FEA93496FEABEDABA1CF60
:104EA00089859A85AB85BC85892B8A2B8B2B09F448
:104EB0004EC08AE190E0A0E0B0E089839A83AB83A2
:104EC000BC832DAD3EADC901330FAA0BBB0B8D8743
:104ED0009E87AF87B88B4D895E89BE016F5F7F4F1C
:104EE0008F89988D0E94E7438B8D9C8D009761F090
:104EF0006D897E8941E050E04C0F5D1F640F751F86
:104F0000498D5A8D0E94E74389A59AA5D801179625
:104F10009C938E93169711961C921E92E9A9FAA95A
:104F2000EF2B99F184E48C9DF0018D9DF00D1124FF
:104F3000E657F64F80819181A281B3810196A11D30
:104F4000B11D80839183A283B3831FC01C0129A953
:104F50003AA9232BD1F42328C1F084E48C9DF001DD
:104F60008D9DF00D1124E45BF64F81E090E095A754
:104F700084A785E090E0938B828B07C083E090E06C
:104F8000938B828B81E090E0A6CDC05BDF4F0FB6A4
:104F9000F894DEBF0FBECDBFDF91CF911F910F916F
:104FA000FF90EF90DF90CF90BF90AF909F908F9049
:104FB0007F906F905F904F903F902F900895CF9289
:104FC000DF92EF92FF920F931F9324E4269FF0014C
:104FD000279FF00D1124E45BF64F228933892115B8
:104FE000310509F453C06B017C0121303105B9F45E
:104FF00082A593A59C012F5F3F4F33A722A7092EBF
:10500000000CAA0BBB0B028D138D248D358D8017E0
:105010009107A207B307D1F5C701B60118DB84E4F5
:105020008C9DF0018D9DF00D1124E45BF64F82897B
:105030009389039759F582A593A59C012F5F3F4F54
:1050400033A722A7092E000CAA0BBB0B468D578D48
:1050500060A171A184179507A607B707BCF086ADBC
:1050600097AD93A782A784E090E0938B828B82AD6B
:1050700093ADA4ADB5AD181619061A061B0634F487
:10508000EE5BFF4F81E090E0918380831F910F9151
:10509000FF90EF90DF90CF90089524E4269FF001D9
:1050A000279FF00D1124E45BF64F828993890497C2
:1050B000B1F482A593A5019693A782A7092E000CAF
:1050C000AA0BBB0B46895789608D718D8417950794
:1050D000A607B70721F485E090E0938B828B0895B3
:1050E0002F923F924F925F926F927F928F929F92F8
:1050F000AF92BF92CF92DF92EF92FF920F931F93E6
:10510000CF93DF93CDB7DEB72E970FB6F894DEBFFF
:105110000FBECDBF49835A836B837C834901442EE4
:10512000552E24E4249DF001259DF00D1124E45B0F
:10513000F64F2288338891012450310922303105FD
:1051400008F0DFC0DC0111961C921E9213961C928F
:105150001E92129715861486A12CB12C60E070E087
:105160009F01265F3F4F38872F837F013CE0E30E8E
:10517000F11CDF015096BA87A9879F01225F3F4F3C
:105180003C872B87681579050CF06FC0EF81F88597
:10519000A081B1819D012A0D3B1D3E872D87D9013C
:1051A0002D913C911197232B09F059C018960D9120
:1051B0001C9119971296ED91FC911397FE83ED8344
:1051C00016962D913C911797D7014D915C91DA017C
:1051D000E3E0AA0FBB1FEA95E1F7E985FA85C080F5
:1051E000D180FD01EC0DFD1D440F551FAB85BC8525
:1051F000CD90DC904C0D5D1DDA016D937C93D70151
:105200004D915C9111974F5F5F4F4D935C9313836A
:105210000283AD85BE851B963C932E931A97021789
:10522000130748F4201B310B31832083158214822D
:105230001782168214C0AD85BE851496CD90DC9081
:1052400015974D815E814C0D5D1D401B510B5183A7
:1052500040832C193D0935832483D782C6826F5F32
:105260007F4FBEE0AB0EB11C8DCF24E4249D8001A6
:10527000259D100D1124045B164FF80124853585FA
:10528000DC0111963C932E934089518913965C93CF
:105290004E9312974685578515965C934E931497B7
:1052A000232BB1F5B5E02B16310491F51092D409FA
:1052B000828D938DA48DB58DAE014F5F5F4F64E0FD
:1052C00070E08F3F9F4FAF4FBF4F59F480E290E0A7
:1052D0000E94BD3669817A818B819C81A4010CDAA0
:1052E00017C08FE190E00E94BD36D8019B961C92BA
:1052F0001E929A9781E090E053969C938E935297DA
:1053000007C015861486FC01118210821382128256
:105310002E960FB6F894DEBF0FBECDBFDF91CF91B2
:105320001F910F91FF90EF90DF90CF90BF90AF90C3
:105330009F908F907F906F905F904F903F902F90B5
:105340000895EF92FF920F931F93CF93DF937C0109
:105350008B01EA010E94A437811121C080912B06A4
:1053600090912C06049711F183E090E090932C0625
:1053700080932B061BC088818111F0CF28ED38EB7C
:1053800045E050E060E070E0CB010E942D3AAE01B4
:10539000B801C7010E943B3AC8010E94063A8091B9
:1053A000D5099091D609892B31F3D8CFDF91CF91D0
:1053B0001F910F91FF90EF900895CF93DF9320916D
:1053C0002B0630912C062430310541F0EB010E9470
:1053D0003B3ACE01DF91CF910C94063ADF91CF9109
:1053E00008950C941B3E0C94103E0C94FE3D0C94BE
:1053F000163A0C94A13D089560E070E080E090E0E2
:105400000C947F370895AF92BF92CF92DF92EF92C4
:10541000FF920F931F93CF93DF931F921F92CDB7ED
:10542000DEB75C0169017A018B0180E090E0C11474
:10543000D104E104F104F1F0C114D10421E0E20649
:10544000F10410F4A60102C04FEF5FEF9E012F5F41
:105450003F4FB801C5010E94AC3E8F3F2FEF92072E
:1054600049F029813A81C21AD30AE108F108020FF2
:10547000131FDDCF0F900F90DF91CF911F910F91F0
:10548000FF90EF90DF90CF90BF90AF900895089578
:105490000895883008F070C0A82FB0E0AA0FBB1F95
:1054A000A35DB94F11967C936E9390E0FC01319708
:1054B000E730F105A0F58827EE58FF4F8F4F0C9489
:1054C0009042809169008C7F482B40936900E89A54
:1054D000089580916900837F440F551F440F551F25
:1054E000482B40936900E99A0895809169008F7C68
:1054F00074E0440F551F7A95E1F7482B40936900FB
:10550000EA9A0895809169008F7366E0440F551FF1
:105510006A95E1F7482B40936900EB9A08958091D2
:105520006A008C7F482B40936A00EC9A0895809122
:105530006A00837F440F551F440F551F482B40932B
:105540006A00ED9A089580916A008F7C24E0440FF0
:10555000551F2A95E1F7482B40936A00EE9A08956B
:1055600080916A008F7396E0440F551F9A95E1F77A
:10557000482B40936A00EF9A08951F920F920FB63E
:105580000F9211240BB60F922F933F934F935F937B
:105590006F937F938F939F93AF93BF93EF93FF93FB
:1055A000E0913106F09132061995FF91EF91BF918C
:1055B000AF919F918F917F916F915F914F913F91AB
:1055C0002F910F900BBE0F900FBE0F901F9018954C
:1055D0001F920F920FB60F9211240BB60F922F93BA
:1055E0003F934F935F936F937F938F939F93AF936B
:1055F000BF93EF93FF93E0913306F0913406199532
:10560000FF91EF91BF91AF919F918F917F916F919A
:105610005F914F913F912F910F900BBE0F900FBE56
:105620000F901F9018951F920F920FB60F92112492
:105630000BB60F922F933F934F935F936F937F938C
:105640008F939F93AF93BF93EF93FF93E0913506B2
:10565000F09136061995FF91EF91BF91AF919F910F
:105660008F917F916F915F914F913F912F910F900B
:105670000BBE0F900FBE0F901F9018951F920F92A8
:105680000FB60F9211240BB60F922F933F934F93A7
:105690005F936F937F938F939F93AF93BF93EF939A
:1056A000FF93E0913706F09138061995FF91EF913D
:1056B000BF91AF919F918F917F916F915F914F912A
:1056C0003F912F910F900BBE0F900FBE0F901F9028
:1056D00018951F920F920FB60F9211240BB60F92CE
:1056E0002F933F934F935F936F937F938F939F93EA
:1056F000AF93BF93EF93FF93E0912D06F0912E06A9
:105700001995FF91EF91BF91AF919F918F917F91EB
:105710006F915F914F913F912F910F900BBE0F9022
:105720000FBE0F901F9018951F920F920FB60F92F9
:1057300011240BB60F922F933F934F935F936F9368
:105740007F938F939F93AF93BF93EF93FF93E091DA
:105750002F06F09130061995FF91EF91BF91AF910F
:105760009F918F917F916F915F914F913F912F9179
:105770000F900BBE0F900FBE0F901F9018951F92A9
:105780000F920FB60F9211240BB60F922F933F93E7
:105790004F935F936F937F938F939F93AF93BF9339
:1057A000EF93FF93E0913906F0913A061995FF9136
:1057B000EF91BF91AF919F918F917F916F915F9189
:1057C0004F913F912F910F900BBE0F900FBE0F90F6
:1057D0001F9018951F920F920FB60F9211240BB6BF
:1057E0000F922F933F934F935F936F937F938F937A
:1057F0009F93AF93BF93EF93FF93E0913B06F0919C
:105800003C061995FF91EF91BF91AF919F918F91B8
:105810007F916F915F914F913F912F910F900BBEB0
:105820000F900FBE0F901F9018951F920F920FB6FA
:105830000F9211242F933F938F939F93AF93BF9316
:105840008091D8099091D909A091DA09B091DB092A
:105850003091D70923E0230F2D3720F40196A11DA5
:10586000B11D05C026E8230F0296A11DB11D20938E
:10587000D7098093D8099093D909A093DA09B093F6
:10588000DB098091DC099091DD09A091DE09B091DE
:10589000DF090196A11DB11D8093DC099093DD09FC
:1058A000A093DE09B093DF09BF91AF919F918F91D3
:1058B0003F912F910F900FBE0F901F9018952FB70B
:1058C000F8946091D8097091D9098091DA09909182
:1058D000DB092FBF08953FB7F8948091DC099091C0
:1058E000DD09A091DE09B091DF0926B5A89B05C0AE
:1058F0002F3F19F00196A11DB11D3FBFBA2FA92F4F
:10590000982F8827820F911DA11DB11DBC01CD01CB
:1059100042E0660F771F881F991F4A95D1F70895B7
:105920008F929F92AF92BF92CF92DF92EF92FF92AF
:105930006B017C01D0DF4B015C01C114D104E10497
:10594000F104F1F0A4DDC7DFDC01CB01881999096E
:10595000AA09BB09883E9340A105B10570F321E077
:10596000C21AD108E108F10888EE880E83E0981E7B
:10597000A11CB11CC114D104E104F10421F7DDCF55
:10598000FF90EF90DF90CF90BF90AF909F908F905F
:105990000895789484B5826084BD84B5816084BDA7
:1059A00085B5826085BD85B5816085BDEEE6F0E098
:1059B000808181608083E1E8F0E0108280818260F4
:1059C0008083808181608083E0E8F0E08081816075
:1059D0008083E1EBF0E0808184608083E0EBF0E0A5
:1059E000808181608083E1E9F0E080818260808352
:1059F000808181608083E0E9F0E080818160808344
:105A0000E1EAF0E080818260808380818160808330
:105A1000E0EAF0E0808181608083E1E2F1E0808172
:105A200082608083808181608083E0E2F1E0808118
:105A300081608083EAE7F0E08081846080838081F8
:105A400082608083808181608083808180688083A0
:105A50001092C10008951F93CF93DF93182FEB018D
:105A600061E016D1209711F460E004C0CF3FD1056A
:105A700031F461E0812FDF91CF911F9145C1E12F7A
:105A8000F0E0E65AFE4FE4918E2F90E0FC01319752
:105A9000E231F10508F09DC08827E758FF4F8F4F8E
:105AA0000C94904284B5806884BDC7BD97C084B50E
:105AB000806284BDC8BD92C0809180008068809360
:105AC0008000D0938900C093880088C080918000B6
:105AD000806280938000D0938B00C0938A007EC048
