:10000000B6C100000C94351F0C94601F0C948B1F1C
:100010000C94B61F0C94E11F0C940C200C94372008
:100020000C9462200C9498080C943C090C94790967
:10003000CFC100000C940227CBC10000C9C1000051
:10004000C7C10000C5C10000C3C10000C1C100009C
:10005000BFC10000BDC10000BBC100000C948D20D9
:10006000B7C100000C945B240C949124B1C1000032
:10007000AFC10000ADC10000ABC10000A9C10000CC
:10008000A7C10000A5C10000A3C10000A1C10000DC
:100090000C94E7240C941D259BC10000F9C30000BB
:1000A00097C1000095C1000093C1000091C10000FC
:1000B0008FC100008DC100008BC1000089C100000C
:1000C00087C1000085C100000C948B270C94732518
:1000D0000C94A9257DC100000C94FF250C943526B5
:1000E00077C100000F1FD91EE11EED1EFA1E1B1F57
:1000F000281FCA21CF21D421DE21E8216122F2214B
:10010000FA2102220C22162220222F2239226122D9
:1001100043224D2257228522882277227B22812268
:10012000BF228C22902296229A229E22A422A822CA
:10013000AC22BF22B222B622BA22DB2F9931FE3185
:100140000132DD301031CB2FD22FAF2FE131D03142
:10015000DD310132013201329A2F00000A0B02090F
:100160000C0D0E0807030401000000000000000051
:10017000000000000000000000000000000000007F
:10018000000000000000121110000000000000003C
:10019000000000000000000000000000000000005F
:1001A0000102102020080810204010204080020189
:1001B000020108040201010204081020408080406E
:1001C000201008040201800402018040201008046D
:1001D000020108040201010204081020408001020B
:1001E00004081020408005050505070508080808D3
:1001F000020202020A0A08080404040401010101BF
:1002000001010101030303030303030304070707B9
:100210000C0C0C0C0C0C0C0C02020202060606065E
:10022000060606060B0B0B0B0B0B0B0B000022003C
:10023000250028002B002E003100340002010000B0
:10024000050108010B0100002100240027002A00FD
:100250002D003000330001010000040107010A01F4
:1002600002001D3A2774694E53E8F5D2CF9C81A64F
:10027000BBCDD0F7EAB9A4839E25381F02514C6B41
:1002800076879ABDA0F3EEC9D46F7255481B06213C
:100290003C4A57706D3E230419A2BF9885D6CBEC1B
:1002A000F1130E2934677A5D40FBE6C1DC8F92B50D
:1002B000A8DEC3E4F9AAB7908D362B0C11425F7803
:1002C000659489AEB3E0FDDAC77C61465B08153200
:1002D0002F5944637E2D30170AB1AC8B96C5D8FFD9
:1002E000E2263B1C01524F6875CED3F4E9BAA780D1
:1002F0009DEBF6D1CC9F82A5B8031E3924776A4DB9
:1003000050A1BC9B86D5C8EFF24954736E3D2007BF
:100310001A6C71564B1805223F8499BEA3F0EDCAA2
:10032000D735280F12415C7B66DDC0E7FAA9B4938C
:100330008EF8E5C2DF8C91B6AB100D2A3764795E7A
:1003400043B2AF8895C6DBFCE15A47607D2E33147B
:10035000097F6245580B16312C978AADB0E3FED960
:10036000C40047039207BA244625D2255E261124ED
:100370001FBECFEFD1E2DEBFCDBF00E00CBF14E067
:10038000A0E0B2E0E8E0F0E700E00BBF02C00790B9
:100390000D92A23CB107D9F72AE0A2ECB4E001C06B
:1003A0001D92A436B207E1F711E0C7EBD1E000E0FF
:1003B00006C021970109802FFE010E949236C13BA1
:1003C000D10780E00807A9F70E9480330C94023817
:1003D00017CE80E090E008958091F60490E020919F
:1003E000F704821B910908959091F7048091F60417
:1003F000981750F4E92FF0E0E850FB4F208130E0EF
:100400009F5F9093F70402C02FEF3FEFC90108955B
:10041000E091F7048091F604E81730F4F0E0E8503A
:10042000FB4F808190E008958FEF9FEF089508952E
:10043000CF93DF93EC01E091CE04F091CF0430979D
:10044000F1F09091F7048091F6049817C0F090E0D5
:10045000292F30E02617370754F4DE01A20FB31F0F
:100460004C91D901A850BB4F4C939F5FF1CF109294
:10047000F7046093F604CB01DF91CF911994DF91DB
:10048000CF910895E091D004F091D104309729F0F4
:100490001092D4041092D30419940895CF92DF924D
:1004A000EF92FF920F931F93CF93DF937C01CB01C9
:1004B0008A012091D204222389F0EB016B01C40E42
:1004C000D51ECC15DD0561F06991D701ED91FC9148
:1004D0000190F081E02DC7011995F3CF642F96D1DB
:1004E000C801DF91CF911F910F91FF90EF90DF90A6
:1004F000CF900895CF93DF931F92CDB7DEB7698376
:100500002091D2042223D1F02091D304203240F054
:1005100021E030E0FC013383228380E090E014C0CE
:100520008091D404E82FF0E0EB52FB4F9981908347
:100530008F5F8093D4048093D30404C061E0CE0124
:10054000019664D181E090E00F90DF91CF91089502
:10055000FC011382128288EE93E0A0E0B0E0848375
:100560009583A683B78381E293E091838083089586
:100570001092F7041092F6041092D4041092D3044F
:1005800089D082E492E06FD188E192E067C181E096
:100590008093D2046093F5041092D4041092D30493
:1005A00008950F93062F21E04091D30465ED74E088
:1005B0008091F504D5D01092D4041092D3041092F7
:1005C000D2040F9108954F925F926F927F92AF92F3
:1005D000BF92CF92EF92FF920F931F93CF93DF932F
:1005E0005C01F62ED42F28013901EE2011F1CFDF66
:1005F000CE2DC43008F0C3E0C150C0F028E0C29F47
:10060000C0011124A301920104C056954795379566
:1006100027958A95D2F7CA01B901D501ED91FC91D0
:100620000190F081E02DC5011995E6CF60E0C5018C
:10063000B8DF4D2FD13208F040E22C2D68EF74E086
:100640008F2D46D01092F7048093F604DF91CF915E
:100650001F910F91FF90EF90CF90BF90AF907F9040
:100660006F905F904F900895CF92EF920F931F93EA
:10067000C22EE12C00E010E09801A5DF1F910F9140
:10068000EF90CF90089521E0EFCF61E08ACF82EC28
:1006900094E05ECF1092850581E0809383051092EF
:1006A000820561E084E10E94FC2261E085E10E9414
:1006B000FC22E9EBF0E080818E7F808380818D7F5A
:1006C000808388E48093B80085E48093BC0008951B
:1006D000413208F043C0909185059111FCCF91E023
:1006E00090938505209383052FEF20931805109292
:1006F0005D05240F20935C059093840590918405FB
:10070000880F892B8093840580918205813061F464
:1007100010928205809184058093BB008091BC007B
:1007200083FDF8CF85EC01C085EE8093BC008091FD
:1007300085058130E1F380915D05841710F44091C7
:100740005D05AEE5B5E0962FFB018E2F891B841762
:1007500018F48D918193F9CF842F089580E0089546
:100760000F93413208F04AC0909185059111FCCF5A
:1007700032E030938505009383053FEF30931805F1
:1007800010925D0540935C05562FAEE5B5E0FB0188
:100790003E2F351B341718F431913D93F9CF109249
:1007A000840530918405880F832B80938405809184
:1007B0008205813061F410928205809184058093D6
:1007C000BB008091BC0083FDF8CF85EC01C085EEB5
:1007D0008093BC00222321F0809185058230D1F3E3
:1007E000809118058F3F79F080911805803241F093
:1007F00080911805803331F094E005C091E003C08A
:1008000092E001C093E0892F0F91089540913A053D
:10081000262F30E0240F311D21323105DCF42091E8
:1008200085052430C9F4FC0180E090E0861758F477
:1008300030913A052191DC01A45CBA4FA30FB11DA0
:100840002C930196F3CF80913A05680F60933A0597
:1008500080E0089581E0089582E0089590937F05F7
:1008600080937E0508959093810580938005089577
:1008700085ED8093BC008091BC0084FDFCCF10927C
:100880008505089585EC8093BC0010928505089538
:100890001F920F920FB60F9211240BB60F922F9347
:1008A0003F934F935F936F937F938F939F93AF93F8
:1008B000BF93EF93FF938091B900887F803609F44E
:1008C0009DC070F5883209F45CC090F4803109F461
:1008D00055C038F4882309F4F3C0883009F44EC0B9
:1008E000F2C0883109F44DC0803209F45EC0EBC01B
:1008F000803409F469C050F4803309F456C0883359
:1009000009F0E1C080931805BDDFDDC0803509F432
:100910004FC0883509F45DC0883409F0D4C0D2C016
:10092000883909F4C3C0A8F4883709F467C038F4DB
:10093000883609F463C0803709F460C0C4C08838C1
:1009400009F4B4C0803909F45FC0803809F0BBC035
:100950005BC0803B09F482C038F4803A09F466C079
:10096000883A09F47BC0AFC0803C09F4A3C0883C3E
:1009700009F4A0C0883B09F486C0A5C08091840515
:1009800010C090915D0580915C05981770F5E0911D
:100990005D0581E08E0F80935D05F0E0E25AFA4F2D
:1009A00080818093BB0085EC82C0809318058AC04B
:1009B000E0915D0581E08E0F80935D058091BB0025
:1009C000F0E0E25AFA4F808390915D0580915C05DA
:1009D0006AC0E0915D0581E08E0F80935D05809196
:1009E000BB00F0E0E25AFA4F8083809183058111C9
:1009F00069C081E08093820584EA5DC083E08093D2
:100A0000850510921905CFCF80911905803208F025
:100A10004DC0E091190581E08E0F809319058091FA
:100A2000BB00F0E0E65EFA4F8083BDCF2BDF809104
:100A30001905803230F4E0911905F0E0E65EFA4FD6
:100A400010826091190570E0E0917E05F0917F05BC
:100A50008AE195E019951092190535C084E08093DC
:100A6000850510923B0510923A05E0918005F091C2
:100A70008105199580913A05811105C081E0809327
:100A80003A0510923C05E0913B0581E08E0F809382
:100A90003B05F0E0E45CFA4F80818093BB009091CD
:100AA0003B0580913A05981708F47DCF85E880933F
:100AB000BC0009C085EC8093BC001092850503C082
:100AC00010921805D5DEFF91EF91BF91AF919F91E4
:100AD0008F917F916F915F914F913F912F910F90E7
:100AE0000BBE0F900FBE0F901F901895FF920F93A3
:100AF0001F93CF93DF93C62F142FF22E032F682F4F
:100B000082EC94E044DD6C2F82EC94E0F3DCCF2D9A
:100B1000D02FCE01810F911D8C01C017D10729F074
:100B2000699182EC94E0E6DCF8CF82EC94E0ADDDF4
:100B300091E0811190E0892FDF91CF911F910F916A
:100B4000FF900895CF93DF931F92CDB7DEB749830F
:100B50009E012F5F3F4F41E0C9DF0F90DF91CF91A2
:100B600008953F924F925F926F927F928F929F92E1
:100B7000AF92BF92CF92DF92EF92FF920F931F93AB
:100B8000CF93DF9300D000D0CDB7DEB7D82EC62EDE
:100B90004D8379010E94D7204B015C01312C1E82CC
:100BA0009D81892F90E09C838B832801612C712C7F
:100BB000ED813E1698F56D2D82EC94E0E8DC6C2D0D
:100BC00082EC94E097DC82EC94E05FDD6D2D82ECAA
:100BD00094E0DDDC4B815C814319510941325105C0
:100BE00014F040E250E06D2D82EC94E04CDD82EC9C
:100BF00094E0F2DB892B09F442C00115110569F17B
:100C00000E94D720DC01CB0188199909AA09BB09E8
:100C100084159505A605B70500F131C0011511052C
:100C2000B9F10E94D720DC01CB0188199909AA09E2
:100C3000BB0920E030E080179107A207B30740F11D
:100C4000FD812F2F30E04E81842F440F990B8217A6
:100C50009307F4F48FEF8E831BC0F7012E81E20F10
:100C6000F11D27FDFA95FA83E98382EC94E0BCDB61
:100C7000E981FA818083FE81FF5FFE83B8CF82EC39
:100C800094E003DD8D81813208F080E2380E90CF50
:100C90008E8126960FB6F894DEBF0FBECDBFDF91D2
:100CA000CF911F910F91FF90EF90DF90CF90BF9069
:100CB000AF909F908F907F906F905F904F903F90FC
:100CC00008950F931F9389019A0141E04ADF1F9114
:100CD0000F910895EF92FF920F931F93CF93DF939D
:100CE0001F92CDB7DEB7182F062FF42EE22E2091DB
:100CF000060230910702AE014F5F5F4FE2DF89814C
:100D000041E050E001C0440FFA94EAF7EE2011F000
:100D1000482B02C0409548234983602F812F12DF62
:100D20000F90DF91CF911F910F91FF90EF90089559
:100D3000DF92EF92FF920F931F93CF93DF931F9257
:100D4000CDB7DEB7182FF62EE42ED22E2091060254
:100D500030910702AE014F5F5F4FB3DF882331F15F
:100D60002E2D30E02D1931092F5F3F4F81E090E0AB
:100D700002C0880F991FDA94E2F70197022E01C092
:100D8000880F0A94EAF7402F50E0BA0102C0660FBC
:100D9000771F2A95E2F7482F4095998149238623AA
:100DA000482B49836F2D812FCDDE01C080E00F904D
:100DB000DF91CF911F910F91FF90EF90DF900895F9
:100DC00028E6FC01208308950F93062F23E042E0DC
:100DD0006AE1FC018081ACDF0F9108950F93062F2B
:100DE00022E044E06BE1FC018081A2DF0F910895D5
:100DF0000F93062F22E044E06CE1FC01808198DF34
:100E00000F9108950F931F93CF93DF93EC010091FF
:100E10000602109107029C012F5F3F4F42E063E4FE
:100E200088819FDE89819A81982789279827DF9179
:100E3000CF911F910F9108950F931F93CF93DF933D
:100E4000EC0100910602109107029C012F5F3F4FB9
:100E500042E065E4888185DE89819A819827892727
:100E60009827DF91CF911F910F9108950F931F93B2
:100E7000CF93DF93EC0100910602109107029C01D1
:100E80002F5F3F4F42E067E488816BDE89819A8162
:100E9000982789279827DF91CF911F910F91089567
:100EA000262F46E06BE6FC01808114CF0F93062FBE
:100EB00023E042E06BE6FC0180813ADF0F91089568
:100EC000CF93DF93EC0161E0F1DF60E0CE0186DFDC
:100ED00060E0CE018DDF60E0CE01DF91CF91E0CF09
:100EE000CF93C82F82EC94E043DB6C2F86E895E02B
:100EF0006BDF86E895E0CF91E3CFCF93DF93EC01F2
:100F000086E895E07FDF9983888386E895E094DF23
:100F10009B838A8386E895E0A9DF9D838C83DF919C
:100F2000CF91089586E895E04BCF9CB1892F8072D0
:100F300094FF03C081110FC002C0882361F080912B
:100F4000990590919A05A0919B05B0919C050196F9
:100F5000A11DB11D0BC08091990590919A05A0919A
:100F60009B05B0919C050197A109B1098093990552
:100F700090939A05A0939B05B0939C05089599B111
:100F8000892F847093FF03C0882379F002C08111F8
:100F90000CC08091A7059091A805A091A905B091DA
:100FA000AA050196A11DB11D0BC08091A7059091C6
:100FB000A805A091A905B091AA050197A109B109B9
:100FC0008093A7059093A805A093A905B093AA05BF
:100FD00008952CB126FB882780F990E027FF03C0F5
:100FE000019779F402C0892B61F48091B505909145
:100FF000B605A091B705B091B8050196A11DB11D28
:101000000BC08091B5059091B605A091B705B09140
:10101000B8050197A109B1098093B5059093B6056C
:10102000A093B705B093B80508959CB1892F80713E
:1010300095FF03C0882379F002C081110CC0809114
:10104000990590919A05A0919B05B0919C050196F8
:10105000A11DB11D0BC08091990590919A05A09199
:101060009B05B0919C050197A109B1098093990551
:1010700090939A05A0939B05B0939C05089599B110
:10108000892F887092FF03C081110FC002C088238E
:1010900061F08091A7059091A805A091A905B09154
:1010A000AA050196A11DB11D0BC08091A7059091C5
:1010B000A805A091A905B091AA050197A109B109B8
:1010C0008093A7059093A805A093A905B093AA05BE
:1010D00008952CB1822F807890E0880F892F881F87
:1010E000990B26FF03C0892B79F402C0019761F4A4
:1010F0008091B5059091B605A091B705B091B8055E
:101100000196A11DB11D0BC08091B5059091B6054A
:10111000A091B705B091B8050197A109B1098093D5
:10112000B5059093B605A093B705B093B80508959B
:101130001F920F920FB60F9211242F933F934F934C
:101140005F938F939F93AF93BF9383B121E030E080
:10115000982F907285FD02C020E030E080744091AD
:10116000D9055091DA052417350749F521E030E01B
:10117000811102C020E030E03093D8052093D705DC
:10118000882319F091110FC002C0992361F080915A
:10119000D1059091D205A091D305B091D4050196C7
:1011A000A11DB11D41C08091D1059091D205A091A2
:1011B000D305B091D4050197A109B10916C03093A8
:1011C000DA052093D905992319F0882311F102C07B
:1011D00081111FC08091D1059091D205A091D305B6
:1011E000B091D4050196A11DB11D8093D1059093B6
:1011F000D205A093D305B093D4058091D1059091E9
:10120000D205A091D305B091D4050197A109B109E8
:101210001EC08091D1059091D205A091D305B091C7
:10122000D4050197A109B1098093D1059093D20506
:10123000A093D305B093D4058091D1059091D205A8
:10124000A091D305B091D4050196A11DB11D809345
:10125000D1059093D205A093D305B093D405BF9147
:10126000AF919F918F915F914F913F912F910F90EF
:101270000FBE0F901F9018951F920F920FB60F92EE
:1012800011248F939F93AF93BF9380910601817038
:101290009091030190FF03C081110FC002C0882309
:1012A00061F08091C3059091C405A091C505B091EE
:1012B000C6050196A11DB11D0BC08091C30590917B
:1012C000C405A091C505B091C6050197A109B10952
:1012D0008093C3059093C405A093C505B093C6053C
:1012E000BF91AF919F918F910F900FBE0F901F9064
:1012F00018951F920F920FB60F9211248F939F9300
:10130000AF93BF938091030181709091060190FF8C
:1013100003C0882379F002C081110CC08091C305FD
:101320009091C405A091C505B091C6050196A11D77
:10133000B11D0BC08091C3059091C405A091C50556
:10134000B091C6050197A109B1098093C305909397
:10135000C405A093C505B093C605BF91AF919F91F9
:101360008F910F900FBE0F901F9018950F931F93A2
:10137000CF93DF938C018EE0809FE001819FD00DA1
:101380001124CB56DA4F798368835B834A83888143
:10139000998160E00E94C0228A819B8160E00E9466
:1013A000C0228881998161E00E94FC228A819B8110
:1013B00061E00E94FC220230110509F47FC044F470
:1013C00001151105E9F00130110509F448C0BEC04E
:1013D0000330110509F4A6C00430110509F0B6C0A8
:1013E0008091680081608093680080916B008062CA
:1013F00080936B0080916B00806480936B00A6C02B
:10140000809195059091960502978431910540F45D
:10141000FC01E15DFC4F8081082E000C990B02C09D
:101420008FEF9FEF41E050E065E977E00E94C11E39
:10143000809197059091980502978431910540F429
:10144000FC01E15DFC4F8081082E000C990B02C06D
:101450008FEF9FEF41E050E065E178E05DC0809163
:10146000A3059091A40502978431910540F4FC01F5
:10147000E15DFC4F8081082E000C990B02C08FEFBC
:101480009FEF41E050E06FE378E00E94C11E809141
:10149000A5059091A60502978431910540F4FC01C1
:1014A000E15DFC4F8081082E000C990B02C08FEF8C
:1014B0009FEF41E050E06FEB77E02EC08091B105E7
:1014C0009091B20502978431910540F4FC01E15DF1
:1014D000FC4F8081082E000C990B02C08FEF9FEF0C
:1014E00041E050E069E678E00E94C11E8091B305BA
:1014F0009091B40502978431910540F4FC01E15DBF
:10150000FC4F8081082E000C990B02C08FEF9FEFDB
:1015100041E050E069EE77E0DF91CF911F910F91AC
:101520000C94C11E80916800846080936800809153
:10153000680082608093680080916D008160809374
:101540006D0080916C00826080936C00DF91CF9180
:101550001F910F9108952EE0269FF001279FF00D17
:101560001124EB56FA4F6481758186819781089525
:101570000895CF93282F882351F0CB01BA01C22FB1
:101580000E9472348FEF8C0FCF910C94A321CF91D6
:1015900008950F931F938B019C0183E03695279547
:1015A000179507958A95D1F7F801E552FA4F2081F2
:1015B000422F50E0E62FE77021E030E002C0220F1A
:1015C000331FEA95E2F724233523232B19F0CB01AF
:1015D000019602C080E090E01F910F9108950F9353
:1015E0001F938B019C0183E03695279517950795EE
:1015F0008A95D1F7677081E090E001C0880F6A9505
:10160000EAF7F801E552FA4F452B21F480959081D5
:10161000892302C09081892B80831F910F910895A7
:10162000CF92DF92EF92FF92CF93DF936B017C0119
:1016300061E08C2D0E94C022E6012196AE01C70117
:10164000B601CDDFCE01DF91CF91FF90EF90DF901B
:10165000CF900895882341F06FEF680F70E080E02D
:1016600090E040E050E0BBCF0895662319F0613070
:1016700009F062E00C94C022662311F061E001C021
:1016800060E00C94FC22CF93DF93EC0189819A8176
:10169000AB81BC810197A105B105C1F48D8188237F
:1016A000A9F06A857B858C859D8573DF99878887FE
:1016B00040E050E0BA015DDF6A857B858C859D85C1
:1016C00068DF99878887DF91CF91C4CFDF91CF9171
:1016D00008952F923F924F925F926F927F928F92D6
:1016E0009F92AF92BF92CF92DF92EF92FF920F93B1
:1016F0001F93CF93DF93CDB7DEB72E970FB6F89435
:10170000DEBF0FBECDBF61E070E080E090E023DF80
:101710000E94A5342091E0023091E1024091E20262
:101720005091E3020E94FA352091A8023091A9025B
:101730004091AA025091AB020E94FA356093150ABB
:101740007093160A8093170A9093180A8090090ADA
:1017500090900A0AA0900B0AB0900C0A8092190A85
:1017600090921A0AA0921B0AB0921C0A2091AC0215
:101770003091AD024091AE025091AF02C501B4016B
:101780000E94FA352091110A3091120A4091130AF1
:101790005091140A0E9409342091C4023091C5026C
:1017A0004091C6025091C7020E94FA356F83788734
:1017B00089879A872091C8023091C9024091CA0254
:1017C0005091CB02C501B4010E94FA3520910D0A57
:1017D00030910E0A40910F0A5091100A0E940A346B
:1017E0002F81388549855A850E940A346B017C0116
:1017F0004090CC025090CD026090CE027090CF020B
:10180000A30192010E94F635181684F04090C002A0
:101810005090C1026090C2027090C302A301920175
:10182000C701B6010E946E3487FF09C040921D0AAD
:1018300050921E0A60921F0A7092200A08C0C0923D
:101840001D0AD0921E0AE0921F0AF092200A4090D0
:101850001D0A50901E0A60901F0A7090200AA7016E
:101860009601C301B2010E9409342091BC0230915B
:10187000BD024091BE025091BF020E94FA356B87B3
:101880007C878D879E87C501B4019F7720E030E07B
:1018900040E45FE30E946E3487FD04C060E070E0C6
:1018A000CB0104C060E070E080E89FE3A3019201F7
:1018B0000E94FA35462E772E682E592ECE010196BB
:1018C0001CDB2091D8023091D9024091DA0250916C
:1018D000DB02642D772D862D952D0E946E34682FA6
:1018E000661F6627661F88E0C7DE609167097091F2
:1018F00068098091690990916A094BDE90936609A5
:10190000809365092090D0023090D1020091D202DC
:101910001091D3029101A801642D772D862D952D6C
:101920000E94F6351816B4F02090F8023090F902B3
:101930000091FA021091FB029101A801642D772D0C
:10194000862D952D0E946E3487FD04C0242C372CE3
:10195000062D152D2091FC023091FD024091FE02D2
:101960005091FF02B101C8010E94FA350E94E03493
:101970006B017C0157D4811121C0C701B60127D466
:1019800081111CC020E030E040E853E4C701B601FB
:101990000E94FA346B017C01162F0D2D3E2C2F2C4A
:1019A00020E030E0A9010E946E3487FF0BC0C70120
:1019B000B60190580E94773461950AC010E000E0AB
:1019C000312C212C612F702F832D922D0E94773482
:1019D00070E080E090E00E94A334AB01BC018091F4
:1019E000650990916609C5DD2091DC023091DD0228
:1019F0004091DE025091DF02642D772D862D952DCA
:101A00000E946E34682F661F6627661F85E034DEED
:101A10002090D4023090D5020091D6021091D702C6
:101A20009101A801642D772D862D952D0E94F63504
:101A3000181694F0209000033090010300910203E7
:101A4000109103039101A801642D772D862D952D0A
:101A50000E946E3487FF04C0422C732C602E512EDE
:101A60006091590970915A0980915B0990915C09C4
:101A700090DD909358098093570920910403309189
:101A800005034091060350910703642D772D862DA1
:101A9000952D0E94FA350E94E0342B013C01C2D3FF
:101AA00081111FC0C301B20192D381111AC020E07D
:101AB00030E040E853E4C301B2010E94FA342B0144
:101AC0003C011B01830120E030E0A9010E946E343B
:101AD00087FF0BC0C301B20190580E947734619513
:101AE00008C0212C312C00E010E0B101C8010E9497
:101AF000773470E080E090E00E94A334AB01BC0139
:101B0000809157099091580934DD69817A81072EB7
:101B1000000C880B990B0E94A5342091A4023091EF
:101B2000A5024091A6025091A7020E94093420917B
:101B3000F4023091F5024091F6025091F7020E94B2
:101B4000FA352091E4023091E5024091E60250918D
:101B5000E7020E94FA352091090A30910A0A409161
:101B60000B0A50910C0A0E940A346093090A709380
:101B70000A0A80930B0A90930C0A2091190A30915B
:101B80001A0A40911B0A50911C0A6091B002709190
:101B9000B1028091B2029091B3020E94FA352B8576
:101BA0003C854D855E850E940A342091EC0230917F
:101BB000ED024091EE025091EF020E94FA35209121
:101BC0000D0A30910E0A40910F0A5091100A0E949E
:101BD0000A3460930D0A70930E0A80930F0A909353
:101BE000100A2091F0023091F1024091F2025091DE
:101BF000F3026F81788589859A850E94FA35209154
:101C0000110A3091120A4091130A5091140A0E944D
:101C10000A346093110A7093120A8093130A909306
:101C2000140A81E090E00E946D1E4091370A5091A5
:101C3000380A6091390A70913A0A80E090E00E9477
:101C4000691E8090430A9090440AA090450AB09083
:101C5000460A20E030E040E85FEBC501B4010E9495
:101C60006E34882331F1C090370AD090380AE09062
:101C7000390AF0903A0AA7019601C501B4010E9401
:101C800009344B015C0120E030E040E054E3C7013F
:101C9000B6010E94FA359B01AC01C501B4010E9456
:101CA000F635181634F083E493E09093220A80937B
:101CB000210A8091470A882331F083E493E09093CE
:101CC000220A8093210A80913B0A90913C0AA091BC
:101CD0003D0AB0913E0ABC01CD016F5F7F4F8F4F2F
:101CE0009F4F60933B0A70933C0A80933D0A909308
:101CF0003E0A0E94A3349B01AC0160913F0A70919F
:101D0000400A8091410A9091420A0E94FA356093FC
:101D1000370A7093380A8093390A90933A0A2E96BC
:101D20000FB6F894DEBF0FBECDBFDF91CF911F91EC
:101D30000F91FF90EF90DF90CF90BF90AF909F906A
:101D40008F907F906F905F904F903F902F9008956D
:101D50002F923F924F925F926F927F928F929F92BB
:101D6000AF92BF92CF92DF92EF92FF920F931F93A9
:101D7000CF93DF9384E090E0F3D1E1E2FAE087E2F1
:101D8000DF011D928A95E9F780E090E0A0E8BFEBC3
:101D900082A393A3A4A3B5A38AE097EDA3EABBE330
:101DA000868F978FA0A3B1A38BE795EBA4EDBEEC34
:101DB00084839583A683B78386E691E3A1ECB8E399
:101DC00080879187A287B3878FE69CEDA6EEB5E466
:101DD00084879587A687B78787EE96E1ABE5B2EC57
:101DE000808B918BA28BB38BC6E0D6E0D383C2836A
:101DF000A8EFB5E0B983A88383E694E011969C939D
:101E00008E9313969C938E93129715969C938E9314
:101E1000149717969C938E93169719969C938E936E
:101E200018971B969C938E931A971D969C938E934E
:101E30001C9785E39AE09D838C8385E29AE09B83DF
:101E40008A8387E39AE09F838E838CE0A5E1BAE0E2
:101E5000ED0119928A95E9F7CFE4D9E086ECDE012D
:101E60001D928A95E9F724EE35E084E1D9011D92AF
:101E70008A95E9F7358B248B83E190E0F901918312
:101E800080838EE792E09383828388E592E0958356
:101E9000848384E192E09783868388E092E091874F
:101EA0008087812C912C540183948092EC0990922C
:101EB000ED09A092EE09B092EF0942E150E063E132
:101EC00070E081E090E052DACC24C394C092F00933
:101ED0001092F1098092F2099092F309A092F4090C
:101EE000B092F50980E090E00E947007C092F60978
:101EF0001092FD098092FE099092FF09A092000ABB
:101F0000B092010A61E088E0B0DBC092020A1E864E
:101F1000EBEAF9E092E3692E608223E3722E70927D
:101F2000AC0934E3232E2092AD0945E3342E3092E0
:101F3000AE0956E3452E4092AF0967E3562E509204
:101F4000B00988E38093B109A9E3A093B20971E3D2
:101F5000D72ED092B309B0E3B093B409D092B509AB
:101F6000D092B609D092B7096092B809D092B90957
:101F70007092BA09FD8BEC8B86E090E0A0E0B0E0B7
:101F8000888F998FAA8FBB8F1B8A8F86988AA98A80
:101F9000BA8AE12CF12C8701A801970166E070E074
:101FA00080E090E03DDB9F8B8E8B688D798D8A8DF4
:101FB0009B8DEFDA9F8B8E8BDBDACB8A1092F70941
:101FC0008092F8099092F909A092FA09B092FB095F
:101FD00061E085E04ADBC092FC0918826C8E7D8E40
:101FE0002E8E3F8E48A259A2E8E3EAA3F9E3FBA3B1
:101FF000DCA280E38DA3DEA2DFA2D8A669A6DAA6C2
:102000007BA68BE699E09F838E8382E090E0A0E040
:10201000B0E08A879B87AC87BD871D8289829A82C0
:10202000AB82BC82A801970162E070E080E090E0A2
:10203000F7DA998788876A857B858C859D85A9DAFB
:102040009987888795DACD82E4EAF2E08091E80208
:102050009091E902A091EA02B091EB028093090A03
:1020600090930A0AA0930B0AB0930C0A848995896D
:10207000A689B78980930D0A90930E0AA0930F0A40
:10208000B093100A80899189A289B3898093110A3B
:102090009093120AA093130AB093140ADF91CF9180
:1020A0001F910F91FF90EF90DF90CF90BF90AF9076
:1020B0009F908F907F906F905F904F903F902F9068
:1020C00008958091EB09811103C081E08093EB09B1
:1020D0008091F109811103C081E08093F109809121
:1020E000FD09811103C081E08093FD0980915D09A4
:1020F000811106C081E080935D098DE599E0C3DA26
:102100008091F709811103C081E08093F7098091E4
:102110004F09811106C081E080934F098FE499E057
:10212000B2CA089560E070E080E89FE7089560E03B
:1021300070E080E89FE7089560E070E080E89FEF3E
:10214000089560E070E080E89FEF089560E070E03F
:1021500080EC9FEF089560E070E080EC9FEF0895C1
:10216000F5DF6093540A7093550A8093560A909352
:10217000570AF1DF6093480A7093490A80934A0A2C
:1021800090934B0ACFDF6093500A7093510A80936B
:10219000520A9093530ACBDF60934C0A70934D0A16
:1021A00080934E0A90934F0AC7DF6093580A70934A
:1021B000590A80935A0A90935B0AC3DF60935C0AC2
:1021C00070935D0A80935E0A90935F0A0895CF92A0
:1021D000DF92EF92FF92CF936B017C019B01AC01E8
:1021E00060914C0A70914D0A80914E0A90914F0A6D
:1021F0000E946E34C1E0882371F0A70196016091BE
:102200005C0A70915D0A80915E0A90915F0A0E945B
:102210006E348111C0E08C2FCF91FF90EF90DF9052
:10222000CF9008950F931F938B019C0100271127D6
:1022300020783F770115110520483F4749F4AB014D
:10224000BC016F77772781E0452B462B472B09F49C
:1022500080E01F910F910895EF92FF920F931F93CB
:10226000CF93DF93DC01EA01F90114968D919C91E3
:10227000159712960D911C911397080F191F28811D
:10228000398118964D915C9119974217530728F0A0
:102290004D915C911197452B39F17801E21AF30ABF
:1022A00018964D915C911997481B590B4E0D5F1D67
:1022B0004617570794F1A901460F571F40175107BA
:1022C000E0F0F182E082338322836E197F09758307
:1022D0006483161617061CF4382F292F02C030E02D
:1022E00020E03683278313C018968D919C9119970F
:1022F000821B930B8617970784F071836083338367
:102300002283158214821782168288819981680F30
:10231000791F7983688380E001C081E0DF91CF91EC
:102320001F910F91FF90EF900895CF92DF92EF925F
:10233000FF92CF93DF936B017C0184E48C9DE001DD
:102340008D9DD00D1124CE5ED94F8AA99BA90097EF
:1023500021F00E9460371BAA1AAA84E48C9DF00128
:102360008D9DF00D1124EE5EF94F86A997A9009777
:1023700011F00E94603784E48C9DF0018D9DF00D7A
:102380001124EE5EF94F138A128A168A178A108E6C
:10239000118E128E138E148E158E168E178E10A21D
:1023A00011A281E090E093A382A315A214A216A229
:1023B00017A210A611A613A612A615A614A616A655
:1023C00017A610AA11AA13AA12AA15AA14AA17AA24
:1023D00016AA11AE10AE12AE13AE14AE15AEDF01DA
:1023E000DE961D921D921D921C921397EE5BFF4F7D
:1023F00011821082DF91CF91FF90EF90DF90CF900C
:1024000008950F931F93CF93DF93EB01DC018D9120
:102410009C91FC01A681B781E881F98123E0EE0F50
:10242000FF1F2A95E1F712962D913C911397E20F29
:10243000F31F00811181AC85BD859D01220F331FE3
:10244000DC0112968D919C911397D901A80FB91FA9
:102450008D919C9124813581232B19F461E070E0EA
:1024600002C062E070E0869F9001879F300D969FCA
:10247000300D112488859985289FB001299F700D02
:10248000389F700D1124EC81FD812E9FC0012F9F7C
:10249000900D3E9F900D1124800F911FFA019183A2
:1024A000808373836283DF91CF911F910F91089591
:1024B0002F923F924F925F926F927F928F929F9254
:1024C000AF92BF92CF92DF92EF92FF920F931F9342
:1024D000CF93DF9300D000D0CDB7DEB7DC011496E8
:1024E000ED91FC9115970190F081E02D808591850B
:1024F0009A838983A281B381BC83AB83FB018190E2
:102500009190A190B190C12CD12C7601C814D9041E
:10251000EA04FB040CF05DC044805580668077803F
:102520004085518562857385CF0140969E838D835A
:10253000A081B1819D0183E0220F331F8A95E1F7CD
:10254000A981BA8112968D919C911397D901A80FF8
:10255000B91F2D903C9011970484F585E02DEE0F66
:10256000FF1F8B819C81E80FF91F0190F081E02D06
:1025700014968D919C911597892B19F481E090E028
:1025800002C082E090E08E9F90018F9F300D9E9F51
:10259000300D1124249F8001259F100D349F100DB4
:1025A0001124249DC001259D900D349D900D112472
:1025B000A8016D817E81820D931D0E94E937ED8116
:1025C000FE81E00FF11F9FEFC91AD90AE90AF90A43
:1025D0009DCF26960FB6F894DEBF0FBECDBFDF911C
:1025E000CF911F910F91FF90EF90DF90CF90BF9010
:1025F000AF909F908F907F906F905F904F903F90A3
:102600002F900895CF93DF93DB01A85FBC4F2C91EF
:10261000222369F024E4269FF001279FF00D112466
:10262000EE5EF94FEF0119922A95E9F71C9224E426
:10263000269FF001279FF00D1124EE5EF94F1482C2
:102640001582168217821186108613861286118AC9
:10265000108A17861686DF91CF9167CE2F923F9210
:102660004F925F926F927F928F929F92AF92BF92A2
:10267000CF92DF92EF92FF920F931F93CF93DF934E
:10268000CDB7DEB728970FB6F894DEBF0FBECDBF2B
:1026900024E4269FD001279FB00D1124AE5EB94FD0
:1026A000BC83AB8314960D911D912D913C9117978E
:1026B000012B022B032B09F4C1C02A016B017C0101
:1026C000612C712C812C912C5401B887AF83149606
:1026D000BC83AB83EF81F8853896FE83ED83EB8175
:1026E000FC8180819181A281B38188169906AA0616
:1026F000BB0694F5AD81BE81ED91FC91E60DF71D11
:10270000B281B98323812A830B2F122F212C312CE4
:1027100024143504A4F4D801ED91FC91309749F0CC
:10272000848195810E946037F801808191810E94A7
:102730006037FFEF2F1A3F0A0E5F1F4FE9CF8981E5
:102740009A810E9460372FEF821A920AA20AB20A77
:1027500034E0630E711CC3CFAF81B88518968D919C
:102760009C9119970E946037EF81F8858285938547
:10277000892B81F100E010E01C821B8224E42C9D57
:10278000C0012D9D900D11249C01245E394F5901EB
:102790002B813C81241535058CF4D501ED91FC91FC
:1027A000E00FF11F848195810E946037EB81FC81ED
:1027B0003196FC83EB83025F1F4FEACF84E48C9D4C
:1027C000F0018D9DF00D1124EE5EF94F8285938509
:1027D0000E94603784E48C9DD0018D9DB00D112442
:1027E000AE5EB94FBC83AB8350968D919C9151974F
:1027F0000E946037EB81FC81868597850E94603757
:10280000C701B60192DDC701B60128960FB6F8944C
:10281000DEBF0FBECDBFDF91CF911F910F91FF9013
:10282000EF90DF90CF90BF90AF909F908F907F9070
:102830006F905F904F903F902F90E4CE28960FB608
:10284000F894DEBF0FBECDBFDF91CF911F910F91E6
:10285000FF90EF90DF90CF90BF90AF909F908F90C0
:102860007F906F905F904F903F902F90089524E459
:10287000269FF001279FF00D1124EE5EF94F82890B
:1028800093890497029758F485E090E0938B828BAC
:102890008FEF9FEFDC01828F938FA48FB58F089508
:1028A0002F923F924F925F926F927F928F929F9260
:1028B000AF92BF92CF92DF92EF92FF920F931F934E
:1028C000CF93DF93CDB7DEB7AA970FB6F894DEBFEC
:1028D0000FBECDBF9AA389A3788F6F8B7A01098B26
:1028E0001A8B2B8B3C8B84E429893A89829F600167
:1028F000839FD00C112486010E5E194F89899A8915
:10290000AB89BC89F80180839183A283B383AB0137
:10291000BC01CD01A3DED601AA5EB94F84E0F70168
:1029200001900D928A95E1F71701F4E02F0E311C0A
:1029300064E070E0D80114968D919C9115970E94E7
:10294000AE36F80191878087892B09F481C11E8EEC
:102950001D8E198E1A8E1B8E1C8E18A30F8F980138
:102960002C5F3F4F38A72FA3A801485F5F4F5AA79E
:1029700049A7EFA1F8A580819181A281B381298D1A
:102980003A8D4B8D5C8D281739074A075B070CF091
:10299000CEC0A9A5BAA58D919C91ED8DFE8DE80FB5
:1029A000F91FFE8BED8BD101ED91FC91EE0FFF1F16
:1029B000A9A1BAA18D919C91E80FF91F8081918105
:1029C000ED89FE8991838083D10114962D913D91EB
:1029D0004D915C9117972BA33CA34DA35EA3B8E048
:1029E0002B0E311C62E070E08F89988D0E94AE360C
:1029F000ED89FE8993838283892B09F429C1412CB7
:102A0000512C32012BA13CA14DA15EA142165306CF
:102A1000640675060CF025C15101F4E0AF0EB11C3F
:102A2000D101ED90FC90EE0CFF1CED89FE89028136
:102A300013810E0D1F1D68E070E081E090E00E94A0
:102A4000AE36D8018D939C93ED89FE898281938166
:102A5000FC01EE0DFF1DC080D180C114D10409F42A
:102A6000F7C084E0F501D60101900D928A95E1F757
:102A7000F8E02F0E311CF60180819181A281B38193
:102A8000181619061A061B060CF04BC064E070E01D
:102A90000E94AE36D60115969C938E931497892B7F
:102AA00009F4D6C0E12CF12C812C912C5401F601B3
:102AB00080819181A281B38188169906AA06BB06FE
:102AC00084F5F601048115810E0D1F1D80E1F101D1
:102AD000DE01119601900D928A95E1F7F0E12F0E3B
:102AE000311CA801BE016F5F7F4FA9A1BAA1149646
:102AF0008D919C91159785DCF60126813781D8014F
:102B000012968D919C911397820F931F97838683C2
:102B1000BFEF8B1A9B0AAB0ABB0AE4E0EE0EF11C76
:102B2000C6CFFFEF4F1A5F0A6F0A7F0A6BCF6EE0C6
:102B300070E08F89988D0E94AE36AF8DB8A11B963C
:102B40009C938E931A97A12CB12CC12CD12CE12CE3
:102B5000F12C24E4E989FA892E9FC0012F9F900D62
:102B600011249C01245E394F3E8B2D8B8824839445
:102B7000912C4F89588DC416D5060CF041C0D10157
:102B80004D905D906D907D901D01ED89FE890081D5
:102B900011810A0D1B1D77FC5BC0D80111969C9218
:102BA0008E92411451046104710449F0C2010E94E3
:102BB000C836F80195838483892B31F449C0D80144
:102BC00015961C921E921497F801538242828481BA
:102BD000958197838683918780871386128681E00B
:102BE00090E045284628472811F480E090E0E80E60
:102BF000F91EFFEFCF1ADF0A2EE0A20EB11CB9CFEB
:102C000084E4A989BA898A9F80018B9F100D1124C1
:102C10000E5E194FF80115861486C70133E0880F40
:102C2000991F3A95E1F70E94C836D80151969C93B6
:102C30008E935097892B61F0C701880F991F0E94CE
:102C4000C836F80197878687892B11F080E01CC071
:102C50004F89588D69897A898B899C89FFDC81E04D
:102C600013C0298D3A8D4B8D5C8D2F5F3F4F4F4F99
:102C70005F4F298F3A8F4B8F5C8F4D8D5E8D4C5FF0
:102C80005F4F5E8F4D8F75CEAA960FB6F894DEBF5C
:102C90000FBECDBFDF91CF911F910F91FF90EF90AD
:102CA000DF90CF90BF90AF909F908F907F906F906C
:102CB0005F904F903F902F9008952F923F924F92A8
:102CC0005F926F927F928F929F92AF92BF92CF92BC
:102CD000DF92EF92FF920F931F93CF93DF93CDB7C5
:102CE000DEB768970FB6F894DEBF0FBECDBF9C8BE2
:102CF0008B8B69017A0124E42C9DC0012D9D900DE0
:102D000011249C012E5E394F5901FB012081318134
:102D1000F501358B248BDC01A85DB94FFB0134969E
:102D200024E001900D922A95E1F7DC01A45DB94FF2
:102D3000FB01389624E001900D922A95E1F7DC0121
:102D4000A05DB94FFB013C9624E001900D922A95BD
:102D5000E1F7DC01A05CB94FFB01709684E00190C3
:102D60000D928A95E1F78B010C5E1F4FF50186A548
:102D700097A5A0A9B1A9181619060CF064C0880F70
:102D8000991F880F991F0E94C836F50193AB82AB3B
:102D9000892B09F4B5C0812C912C412C512C320186
:102DA0009501225D3F4F3E8B2D8BC501C296988FBA
:102DB0008F8BF496FA8BE98BB301A2012FEF421AA5
:102DC000520A620A720AED89FE8980819181A2818C
:102DD000B381481759076A077B0754F5EF89F88DC7
:102DE00020803180280C391C80E1F801DE01119629
:102DF00001900D928A95E1F7005F1F4FA101BE017E
:102E00006F5F7F4FEB89FC8984819581FADAE989CC
:102E1000FA8920813181F10182819381820F931F90
:102E2000E989FA8991838083F4E08F0E911CC4CFE5
:102E3000F50184A995A90E94C836F50197AB86AB28
:102E4000892B09F45DC0F80180819181A281B38151
:102E500024E42C9DF0012D9DF00D1124EE5EF94F20
:102E6000AC01BD014D7F21E030E0452B462B472BC7
:102E700011F020E030E033A322A324E42C9DF001E4
:102E80002D9DF00D1124EE5EF94F0197A109B109B6
:102E900021E030E00297A105B10510F020E030E01C
:102EA00035A324A324E42C9DC0012D9D900D112455
:102EB000DC01A85CB94FF801349624E001900D9232
:102EC0002A95E1F7FC01EE5EF94F868D978DA0A162
:102ED000B1A1B7FF10C0B095A095909581959F4F77
:102EE000AF4FBF4F82AF93AFA4AFB5AF168E178E63
:102EF00010A211A20AC012AE13AE14AE15AE05C0D8
:102F0000C701B60112DA81E001C080E068960FB611
:102F1000F894DEBF0FBECDBFDF91CF911F910F910F
:102F2000FF90EF90DF90CF90BF90AF909F908F90E9
:102F30007F906F905F904F903F902F900895CF9229
:102F4000DF92EF92FF92CF93DF9310929A0624E4E0
:102F5000269FF001279FF00D1124EE5EF94F15A674
:102F600014A620E030E0C12CD12CDF011A96C1E07C
:102F7000D0E0C416D506D4F4ED91FC911197E20F80
:102F8000F31FE280F3801E141F0454F4E480F580E4
:102F9000F782E682F186E08613861286D183C083AB
:102FA000EFEFCE1ADE0A225F3F4FE3CF24E4269FE5
:102FB000F001279FF00D1124EE5EF94F13A612A623
:102FC00011AE10AEDF01DE961D921D921D921C9275
:102FD000139782E090E0938B828BDF91CF91FF90EB
:102FE000EF90DF90CF90089524E4269FF001279F73
:102FF000F00D1124EE5EF94F138A128A2FCB24E4D0
:10300000269FF001279FF00D1124EE5EF94F828973
:10301000938981309105C8F08530910518F00597A6
:1030200069F008958FEF9FEFDC01828F938FA48F5B
:10303000B58F85E090E0938B828B08958FEF9FEFA3
:10304000DC01828F938FA48FB58F089524E4249F91
:10305000F001259FF00D1124EE5EF94F2EE0AC013A
:10306000249FC001259F900D11240284F385E02D3B
:10307000E80FF91F81E080939A06828593859187F6
:103080008087408551852681378181E090E0421715
:10309000530711F080E090E09183808308952F9290
:1030A0003F924F925F926F927F928F929F92AF92D8
:1030B000BF92CF92DF92EF92FF920F931F93CF9325
:1030C000DF93CDB7DEB7C055D1090FB6F894DEBF98
:1030D0000FBECDBF9EAF8DAF4BA75CA76DA77EA7E0
:1030E0006801790184E48C9D80018D9D100D11246F
:1030F000F801EE5EF94F2285338525963FAF2EAF5E
:10310000259782899389029709F05FC186A597A5C3
:10311000A0A9B1A9892B8A2B8B2B29F484E090E0FC
:10312000938B828B52C1848995894DAD5EAD4817D2
:10313000590709F04AC186A997A998AB8FA71CAE79
:103140001BAE1FAA18AE19AE1AAE8F01DF019E96F4
:103150002796BFAFAEAF2797F2962996FFAFEEAF97
:1031600029979801285C3F4F2B963FAF2EAF2B97A6
:10317000A8014A5D5F4F2D965FAF4EAF2D97C801F6
:1031800082962F969FAF8EAF2F971A976196BFAFFB
:10319000AEAF61972796EEADFFAD27978081918105
:1031A000A281B3812FA938AD49AD5AAD281739078F
:1031B0004A075B070CF0E8C02996EEADFFAD2997F2
:1031C000808191812BAD3CAD280F391F3CAB2BABDF
:1031D000D90112960D90BC91A02D2196BFAFAEAF34
:1031E0002197B695A795B695A7952396BFAFAEAF95
:1031F00023972B96EEADFFAD2B9780819181892B84
:1032000009F497C02D96AEADBFAD2D978D909D90D2
:10321000AD90BC902FA438A8F9010190F081E02D69
:10322000FAABE9AB1EAA1DAA23968EAD9FAD2397DC
:10323000ADA9BEA9A817B9070CF07BC02F96AEADFB
:10324000BFAD2F978D919C91892B71F1E9A9FAA9B6
:103250004080518062807380A3019201C501B40156
:103260000E946E34181664F0D1012D913D914D915C
:103270005C91C501B4010E94F63518160CF48CC09F
:10328000A3019201C501B4010E946E3487FF0CC0F6
:10329000F1012081318142815381C501B4010E9435
:1032A0006E34882309F478C06196AEADBFAD6197E6
:1032B0008D919C91892B69F1E9A9FAA940805180EF
:1032C00062807380A3019201C501B4010E94F635AA
:1032D000181664F4D1012D913D914D915C91C50179
:1032E000B4010E946E3418160CF056C0A30192016E
:1032F000C501B4010E946E3481110BC0F10120811F
:10330000318142815381C501B4010E946E3487FD31
:1033100043C02DA93EA92F5F3F4F3EAB2DAB34E0FC
:10332000230E311C49A95AA94C5F5F4F5AAB49ABD8
:103330007BCFEBA9FCA96081718121964EAD5FAD79
:1033400021978FA598A90E94E93723968EAD9FAD4E
:103350002397880F991F880F991F2FA538A9280F29
:10336000391F38AB2FA78FA998ADA9ADBAAD01967B
:10337000A11DB11D8FAB98AFA9AFBAAFABADBCADBE
:103380001496BCAFABAF06CF81E090E0D801D996E0
:103390009C938E93D89719C084E48C9DF0018D9DE9
:1033A000F00D1124EE5EF94F868D978DA0A1B1A18D
:1033B000892B8A2B8B2B09F059C284E090E0938BE8
:1033C000828B86AD97AD93A782A784E48C9DF00194
:1033D0008D9DF00D1124EE5EF94F82899389823024
:1033E000910579F482AD93ADA4ADB5AD181619066B
:1033F0001A061B060CF041C2E1E0F0E0FAABE9ABC3
:1034000005C0049709F039C21AAA19AA8EE02DAD99
:103410003EAD829F8001839F100D112425964EADF5
:103420005FAD2597040F151FD80112962D913C9181
:1034300013972115310509F420C216968D919C91A0
:1034400017979AA789A7FE01319684E1DF011D92A3
:103450008A95E9F7C98ADA8AEB8AFC8AE9A9FAA986
:10346000EF2B09F451C084E48C9DF0018D9DF00D8B
:103470001124EE5EF94FDF01DE968D909D90AD90A8
:10348000BC9082AD93ADA4ADB5AD88169906AA06E1
:10349000BB06D1F5D80114964D915C9115971896FD
:1034A000ED91FC911997349684E0DE0155960190D8
:1034B0000D928A95E1F78D899E8908969E8B8D8B5A
:1034C000F80160857185860F971F918780878085B9
:1034D0009185240F351F821B930B97FD04C0840F29
:1034E000951F9187808784E48C9DF0018D9DF00D60
:1034F0001124E05BF94F21E0821A9108A108B1087C
:1035000080829182A282B3829E012B5E3F4FAE01E8
:10351000475D5F4F64E170E0C8010E942C11282EC6
:10352000312C2114310409F08AC18CE090E0A0E034
:10353000B0E08D839E83AF83B8879E01235E3F4FAB
:10354000AE01475D5F4F64E070E0C8010E942C113E
:10355000282E312C2114310409F071C180E190E052
:10356000A0E0B0E08D839E83AF83B8874D8D5E8DE4
:10357000BE01655D7F4F8F8D98A10E94E9378BA1B9
:103580009CA1009761F06D8D7E8D4BE250E04C0F59
:103590005D1F640F751F49A15AA10E94E9371DA242
:1035A0001EA21FA218A68DAD9EAD880F991F98AFC1
:1035B0008FAB24E42C9DC0012D9D900D11248E5EB7
:1035C000994FDC011496BCAFABAFFC013896219645
:1035D000FFAFEEAF21978DA09EA0AFA0B8A4EBAD3A
:1035E000FCAD80819181A281B38188169906AA06DB
:1035F000BB060CF0CDC02196AEADBFAD2197ED91CD
:10360000FC91C401880F991F880F991FE80FF91FBB
:10361000A081B1818C9181110AC0BFEF8B1A9B0AE6
:10362000AB0ABB0A8DA29EA2AFA2B8A6D4CF8330AC
:10363000A1F30280F381E02D2FA938ADE20FF31F33
:10364000408151815CAB4BAB452B39F389859A8521
:10365000AB85BC850196A11DB11D89879A87AB8773
:10366000BC879E01235E3F4FAE01475D5F4F64E024
:1036700070E0C8010E942C1190E0009709F0DEC0B4
:103680008D819E81AF81B8850496A11DB11D8D836A
:103690009E83AF83B8874D8D5E8DBE016B5D7F4F7E
:1036A0008F8D98A10E94E9378BA19CA1009761F0B2
:1036B0006D8D7E8DA5E2B0E0AC0FBD1F6A0F7B1F44
:1036C00049A15AA10E94E9371EAA1DAA412C512CDA
:1036D0003201EBA9FCA980819181A281B3814816B6
:1036E00059066A067B060CF098CFEBA9FCA98481E9
:1036F00095812DA93EA9280F391F38AB2FA7D901D5
:1037000012966D917C9113979E01235E3F4FAE01FF
:10371000475D5F4FC8010E942C1190E0009709F0AF
:103720008DC0EFA5F8A982819381092E000CAA0B08
:10373000BB0B4D815E816F817885840F951FA61F1D
:10374000B71F8D839E83AF83B887608171814D8D54
:103750005E8D8F8D98A10E94E9378BA19CA1009767
:1037600061F0AFA5B8A96D917C912D8D3E8D620F52
:10377000731F49A15AA10E94E937BFEF4B1A5B0A98
:103780006B0A7B0AEDA9FEA93496FEABEDABA1CF87
:1037900089859A85AB85BC85892B8A2B8B2B09F46F
:1037A0004EC08AE190E0A0E0B0E089839A83AB83C9
:1037B000BC832DAD3EADC901330FAA0BBB0B8D876A
:1037C0009E87AF87B88B4D895E89BE016F5F7F4F43
:1037D0008F89988D0E94E9378B8D9C8D009761F0C1
:1037E0006D897E8941E050E04C0F5D1F640F751FAD
:1037F000498D5A8D0E94E93789A59AA5D801179657
:103800009C938E93169711961C921E92E9A9FAA981
:10381000EF2B99F184E48C9DF0018D9DF00D112426
:10382000E05BF94F80819181A281B3810196A11D56
:10383000B11D80839183A283B3831FC01C0129A97A
:103840003AA9232BD1F42328C1F084E48C9DF00104
:103850008D9DF00D1124EE5EF94F81E090E095A76B
:1038600084A785E090E0938B828B07C083E090E093
:10387000938B828B81E090E0A6CDC05BDF4F0FB6CB
:10388000F894DEBF0FBECDBFDF91CF911F910F9196
:10389000FF90EF90DF90CF90BF90AF909F908F9070
:1038A0007F906F905F904F903F902F900895CF92B0
:1038B000DF92EF92FF920F931F9324E4269FF00173
:1038C000279FF00D1124EE5EF94F228933892115CF
:1038D000310509F453C06B017C0121303105B9F485
:1038E00082A593A59C012F5F3F4F33A722A7092EE6
:1038F000000CAA0BBB0B028D138D248D358D801708
:103900009107A207B307D1F5C701B60118DB84E41C
:103910008C9DF0018D9DF00D1124EE5EF94F828992
:103920009389039759F582A593A59C012F5F3F4F7B
:1039300033A722A7092E000CAA0BBB0B468D578D6F
:1039400060A171A184179507A607B707BCF086ADE3
:1039500097AD93A782A784E090E0938B828B82AD92
:1039600093ADA4ADB5AD181619061A061B0634F4AE
:10397000EE5BFF4F81E090E0918380831F910F9178
:10398000FF90EF90DF90CF90089524E4269FF00100
:10399000279FF00D1124EE5EF94F828993890497D9
:1039A000B1F482A593A5019693A782A7092E000CD6
:1039B000AA0BBB0B46895789608D718D84179507BB
:1039C000A607B70721F485E090E0938B828B0895DA
:1039D0002F923F924F925F926F927F928F929F921F
:1039E000AF92BF92CF92DF92EF92FF920F931F930D
:1039F000CF93DF93CDB7DEB72E970FB6F894DEBF27
:103A00000FBECDBF49835A836B837C834901442E0B
:103A1000552E24E4249DF001259DF00D1124EE5E29
:103A2000F94F228833889101245031092230310521
:103A300008F0DFC0DC0111961C921E9213961C92B6
:103A40001E92129715861486A12CB12C60E070E0AE
:103A50009F01265F3F4F38872F837F013CE0E30EB5
:103A6000F11CDF015096BA87A9879F01225F3F4F63
:103A70003C872B87681579050CF06FC0EF81F885BE
:103A8000A081B1819D012A0D3B1D3E872D87D90163
:103A90002D913C911197232B09F059C018960D9147
:103AA0001C9119971296ED91FC911397FE83ED836B
:103AB00016962D913C911797D7014D915C91DA01A3
:103AC000E3E0AA0FBB1FEA95E1F7E985FA85C0801C
:103AD000D180FD01EC0DFD1D440F551FAB85BC854C
:103AE000CD90DC904C0D5D1DDA016D937C93D70178
:103AF0004D915C9111974F5F5F4F4D935C93138392
:103B00000283AD85BE851B963C932E931A970217B0
:103B1000130748F4201B310B318320831582148254
:103B20001782168214C0AD85BE851496CD90DC90A8
:103B300015974D815E814C0D5D1D401B510B5183CE
:103B400040832C193D0935832483D782C6826F5F59
:103B50007F4FBEE0AB0EB11C8DCF24E4249D8001CD
:103B6000259D100D11240E5E194FF8012485358511
:103B7000DC0111963C932E934089518913965C93F6
:103B80004E9312974685578515965C934E931497DE
:103B9000232BB1F5B5E02B16310491F510929A065E
:103BA000828D938DA48DB58DAE014F5F5F4F64E024
:103BB00070E08F3F9F4FAF4FBF4F59F480E290E0CE
:103BC0000E94352B69817A818B819C81A4010CDA5A
:103BD00017C08FE190E00E94352BD8019B961C9274
:103BE0001E929A9781E090E053969C938E93529701
:103BF00007C015861486FC0111821082138212827E
:103C00002E960FB6F894DEBF0FBECDBFDF91CF91D9
:103C10001F910F91FF90EF90DF90CF90BF90AF90EA
:103C20009F908F907F906F905F904F903F902F90DC
:103C30000895EF92FF920F931F93CF93DF937C0130
:103C40008B01EA010E941C2C811121C080910A0382
:103C500090910B03049711F183E090E090930B0394
:103C600080930A031BC088818111F0CF28ED38EBC7
:103C700045E050E060E070E0CB010E94A52EAE016F
:103C8000B801C7010E94B32EC8010E947E2E809108
:103C90009B0690919C06892B31F3D8CFDF91CF9171
:103CA0001F910F91FF90EF900895CF93DF93209194
:103CB0000A0330910B032430310541F0EB010E94DF
:103CC000B32ECE01DF91CF910C947E2EDF91CF9158
:103CD00008950C9493320C9488320C9476320C94A0
:103CE0008E2E0C941932089560E070E080E090E030
:103CF0000C94F72B0895AF92BF92CF92DF92EF9280
:103D0000FF920F931F93CF93DF931F921F92CDB714
:103D1000DEB75C0169017A018B0180E090E0C1149B
:103D2000D104E104F104F1F0C114D10421E0E20670
:103D3000F10410F4A60102C04FEF5FEF9E012F5F68
:103D40003F4FB801C5010E9424338F3F2FEF9207E8
:103D500049F029813A81C21AD30AE108F108020F19
:103D6000131FDDCF0F900F90DF91CF911F910F9117
:103D7000FF90EF90DF90CF90BF90AF90089508959F
:103D80000895883008F070C0A82FB0E0AA0FBB1FBC
:103D9000A45FBC4F11967C936E9390E0FC01319729
:103DA000E730F105A0F58827EE58FF4F8F4F0C94B0
:103DB0009236809169008C7F482B40936900E89A85
:103DC000089580916900837F440F551F440F551F4C
:103DD000482B40936900E99A0895809169008F7C8F
:103DE00074E0440F551F7A95E1F7482B4093690022
:103DF000EA9A0895809169008F7366E0440F551F19
:103E00006A95E1F7482B40936900EB9A08958091F9
:103E10006A008C7F482B40936A00EC9A0895809149
:103E20006A00837F440F551F440F551F482B409352
:103E30006A00ED9A089580916A008F7C24E0440F17
:103E4000551F2A95E1F7482B40936A00EE9A089592
:103E500080916A008F7396E0440F551F9A95E1F7A1
:103E6000482B40936A00EF9A08951F920F920FB665
:103E70000F9211240BB60F922F933F934F935F93A2
:103E80006F937F938F939F93AF93BF93EF93FF9322
:103E9000E0911003F09111031995FF91EF91BF91FB
:103EA000AF919F918F917F916F915F914F913F91D2
:103EB0002F910F900BBE0F900FBE0F901F90189573
:103EC0001F920F920FB60F9211240BB60F922F93E1
:103ED0003F934F935F936F937F938F939F93AF9392
:103EE000BF93EF93FF93E0911203F09113031995A1
:103EF000FF91EF91BF91AF919F918F917F916F91C2
:103F00005F914F913F912F910F900BBE0F900FBE7D
:103F10000F901F9018951F920F920FB60F921124B9
:103F20000BB60F922F933F934F935F936F937F93B3
:103F30008F939F93AF93BF93EF93FF93E0911403FD
:103F4000F09115031995FF91EF91BF91AF919F915A
:103F50008F917F916F915F914F913F912F910F9032
:103F60000BBE0F900FBE0F901F9018951F920F92CF
:103F70000FB60F9211240BB60F922F933F934F93CE
:103F80005F936F937F938F939F93AF93BF93EF93C1
:103F9000FF93E0911603F09117031995FF91EF91AC
:103FA000BF91AF919F918F917F916F915F914F9151
:103FB0003F912F910F900BBE0F900FBE0F901F904F
:103FC00018951F920F920FB60F9211240BB60F92F5
:103FD0002F933F934F935F936F937F938F939F9311
:103FE000AF93BF93EF93FF93E0910C03F0910D0318
:103FF0001995FF91EF91BF91AF919F918F917F9113
:104000006F915F914F913F912F910F900BBE0F9049
:104010000FBE0F901F9018951F920F920FB60F9220
:1040200011240BB60F922F933F934F935F936F938F
:104030007F938F939F93AF93BF93EF93FF93E09101
:104040000E03F0910F031995FF91EF91BF91AF917E
:104050009F918F917F916F915F914F913F912F91A0
:104060000F900BBE0F900FBE0F901F9018951F92D0
:104070000F920FB60F9211240BB60F922F933F930E
:104080004F935F936F937F938F939F93AF93BF9360
:10409000EF93FF93E0911803F09119031995FF91A5
:1040A000EF91BF91AF919F918F917F916F915F91B0
:1040B0004F913F912F910F900BBE0F900FBE0F901D
:1040C0001F9018951F920F920FB60F9211240BB6E6
:1040D0000F922F933F934F935F936F937F938F93A1
:1040E0009F93AF93BF93EF93FF93E0911A03F091E7
:1040F0001B031995FF91EF91BF91AF919F918F9104
:104100007F916F915F914F913F912F910F900BBED7
:104110000F900FBE0F901F9018951F920F920FB621
:104120000F9211242F933F938F939F93AF93BF933D
:1041300080919E0690919F06A091A006B091A10645
:1041400030919D0623E0230F2D3720F40196A11D09
:10415000B11D05C026E8230F0296A11DB11D2093B5
:104160009D0680939E0690939F06A093A006B09311
:10417000A1068091A2069091A306A091A406B091F9
:10418000A5060196A11DB11D8093A2069093A306DA
:10419000A093A406B093A506BF91AF919F918F9174
:1041A0003F912F910F900FBE0F901F9018952FB732
:1041B000F89460919E0670919F068091A006909160
:1041C000A1062FBF08953FB7F8948091A206909161
:1041D000A306A091A406B091A50626B5A89B05C08C
:1041E0002F3F19F00196A11DB11D3FBFBA2FA92F76
:1041F000982F8827820F911DA11DB11DBC01CD01F3
:1042000042E0660F771F881F991F4A95D1F70895DE
:104210008F929F92AF92BF92CF92DF92EF92FF92D6
:104220006B017C01D0DF4B015C01C114D104E104BE
:10423000F104F1F0A4DDC7DFDC01CB018819990995
:10424000AA09BB09883E9340A105B10570F321E09E
:10425000C21AD108E108F10888EE880E83E0981EA2
:10426000A11CB11CC114D104E104F10421F7DDCF7C
:10427000FF90EF90DF90CF90BF90AF909F908F9086
:104280000895789484B5826084BD84B5816084BDCE
:1042900085B5826085BD85B5816085BDEEE6F0E0BF
:1042A000808181608083E1E8F0E01082808182601B
:1042B0008083808181608083E0E8F0E0808181609C
:1042C0008083E1EBF0E0808184608083E0EBF0E0CC
:1042D000808181608083E1E9F0E080818260808379
:1042E000808181608083E0E9F0E08081816080836B
:1042F000E1EAF0E080818260808380818160808358
:10430000E0EAF0E0808181608083E1E2F1E0808199
:1043100082608083808181608083E0E2F1E080813F
:1043200081608083EAE7F0E080818460808380811F
:1043300082608083808181608083808180688083C7
:104340001092C10008951F93CF93DF93182FEB01B4
:1043500061E016D1209711F460E004C0CF3FD10591
:1043600031F461E0812FDF91CF911F9145C1E12FA1
:10437000F0E0E65AFE4FE4918E2F90E0FC01319779
:10438000E231F10508F09DC08827E758FF4F8F4FB5
:104390000C94923684B5806884BDC7BD97C084B53F
:1043A000806284BDC8BD92C0809180008068809387
:1043B0008000D0938900C093880088C080918000DD
:1043C000806280938000D0938B00C0938A007EC06F
:1043D00080918000886080938000D0938D00C0938E
:1043E0008C0074C08091B00080688093B000C0934E
:1043F000B3006CC08091B00080628093B000C09325
:10440000B40064C080919000806880939000D09345
:104410009900C09398005AC0809190008062809368
:104420009000D0939B00C0939A0050C08091900060
:10443000886080939000D0939D00C0939C0046C0FC
:104440008091A00080688093A0008091A0008F7B65
:104450008093A000D093A900C093A80037C080919A
:10446000A00080628093A000D093AB00C093AA000C
:104470002DC08091A00088608093A000D093AD00F3
:10448000C093AC0023C080912001806880932001FC
:10449000D0932901C093280119C080912001806226
:1044A00080932001D0932B01C0932A010FC08091EB
:1044B0002001886080932001D0932D01C0932C01AE
:1044C00005C0C038D1050CF04CCF46CFDF91CF915D
:1044D0001F91089590E0FC013197E231F10508F059
:1044E0004EC08827E557FF4F8F4F0C94923680912E
:1044F00080008F7703C0809180008F7D8093800043
:10450000089580918000877FF9CF84B58F7702C0AE
:1045100084B58F7D84BD08958091B0008F7703C0EE
:104520008091B0008F7D8093B000089580919000BD
:104530008F7707C0809190008F7D03C0809190009D
:10454000877F8093900008958091A0008F7707C0A7
:104550008091A0008F7D03C08091A000877F809311
:10456000A0000895809120018F7707C080912001DD
:104570008F7D03C080912001877F80932001089563
:10458000CF93DF9390E0FC01E056FE4F2491FC01B5
:10459000EA51FE4F8491882361F190E0880F991FC2
:1045A000FC01EA5BFD4FC591D491FC01E45DFD4F38
:1045B000A591B491611109C09FB7F89488812095A5
:1045C00082238883EC912E230BC0623061F49FB765
:1045D000F8948881322F309583238883EC912E2B99
:1045E0002C939FBF06C08FB7F894E8812E2B2883A9
:1045F0008FBFDF91CF9108951F93CF93DF93282F23
:1046000030E0F901E65AFE4F8491F901E056FE4F81
:10461000D491F901EA51FE4FC491CC23B9F0162F81
:10462000811158DFEC2FF0E0EE0FFF1FE45DFD4F2E
:10463000A591B4919FB7F894111104C08C91D095B5
:10464000D82302C0EC91DE2BDC939FBFDF91CF918A
:104650001F910895FC01918D228D892F90E0805C3F
:104660009F4F821B91098F7399270895FC01918DAB
:10467000828D981731F0828DE80FF11D858D90E0C5
:1046800008958FEF9FEF0895FC01918D828D98170B
:1046900061F0828DDF01A80FB11D5D968C91928D26
:1046A0009F5F9F73928F90E008958FEF9FEF089523
:1046B000FC01538D448D252F30E0842F90E0821B28
:1046C000930B541710F0CF96089501970895FC01AD
:1046D000848DDF01A80FB11DA35ABF4F2C91848D8B
:1046E00090E001968F739927848FA689B7892C93C0
:1046F000A089B1898C91837080648C93938D848D13
:10470000981306C00288F389E02D80818F7D808315
:104710000895EF92FF920F931F93CF93DF93EC01D5
:1047200081E0888F9B8D8C8D981305C0E889F9896D
:10473000808185FD25C0F62E0B8D10E00F5F1F4F89
:104740000F731127E02E8C8DE8120BC00FB607FCFB
:10475000FACFE889F989808185FFF5CFCE01B7DFEF
:10476000F2CF8B8DFE01E80FF11DE35AFF4FF0826F
:104770009FB7F8940B8FEA89FB89808180620AC019
:104780009FB7F894EE89FF896083E889F989808171
:104790008370806480839FBF81E090E0DF91CF9140
:1047A0001F910F91FF90EF900895CF93DF93EC014D
:1047B000888D8823C1F0EA89FB89808185FD05C049
:1047C000A889B9898C9186FD0EC00FB607FCF5CF7C
:1047D000808185FFF2CFA889B9898C9185FFEDCFC3
:1047E000CE0175DFE8CFDF91CF910895CF92DF92B0
:1047F000EF92FF921F93CF93DF93EC016A017B014D
:10480000122FE889F98982E080834115514E6105B4
:104810007105B1F060E079E08DE390E0A7019601C9
:104820000E947036DA01C9010197A109B109B69554
:10483000A795979587959C01211580E13807A8F0E9
:10484000E889F989108260E874E88EE190E0A701B8
:1048500096010E947036DA01C9010197A109B109D8
:10486000B695A795979587959C01EC85FD85308336
:10487000EE85FF852083188EEC89FD891083EA89F7
:10488000FB89808180618083EA89FB8980818860DF
:104890008083EA89FB89808180688083EA89FB893B
:1048A00080818F7D8083DF91CF911F91FF90EF906A
:1048B000DF90CF9008951F920F920FB60F921124A0
:1048C0000BB60F922F938F939F93EF93FF93E091EB
:1048D000B606F091B7068081E091BC06F091BD0666
:1048E00082FD12C090818091BF068F5F8F732091EF
:1048F000C006821751F0E091BF06F0E0EA55F94F8B
:10490000958F8093BF0601C08081FF91EF919F91A9
:104910008F912F910F900BBE0F900FBE0F901F9095
:1049200018951F920F920FB60F9211240BB60F928B
:104930002F933F934F935F936F937F938F939F93A7
:10494000AF93BF93EF93FF9386EA96E0C0DEFF91AB
:10495000EF91BF91AF919F918F917F916F915F91F7
:104960004F913F912F910F900BBE0F900FBE0F9064
:104970001F901895E6EAF6E01382128288EE93E023
:10498000A0E0B0E084839583A683B7838AE694E0B1
:104990009183808385EC90E09587848784EC90E018
:1049A0009787868780EC90E0918B808B81EC90E0FC
:1049B000938B828B82EC90E0958B848B86EC90E0DD
:1049C000978B868B118E128E138E148E08951F92E4
:1049D0000F920FB60F9211240BB60F922F938F9355
:1049E0009F93EF93FF93E0915307F09154078081D9
:1049F000E0915907F0915A0782FD12C09081809191
:104A00005C078F5F8F7320915D07821751F0E091F3
:104A10005C07F0E0ED5BF84F958F80935C0701C079
:104A20008081FF91EF919F918F912F910F900BBEFD
:104A30000F900FBE0F901F9018951F920F920FB6F8
:104A40000F9211240BB60F922F933F934F935F93C6
:104A50006F937F938F939F93AF93BF93EF93FF9346
:104A600083E497E034DEFF91EF91BF91AF919F9186
:104A70008F917F916F915F914F913F912F910F9007
:104A80000BBE0F900FBE0F901F901895E3E4F7E058
:104A90001382128288EE93E0A0E0B0E084839583D5
:104AA000A683B7838AE694E0918380838DEC90E0BF
:104AB000958784878CEC90E09787868788EC90E0D8
:104AC000918B808B89EC90E0938B828B8AEC90E0C9
:104AD000958B848B8EEC90E0978B868B118E128E4B
:104AE000138E148E08951F920F920FB60F921124F9
:104AF0000BB60F922F938F939F93EF93FF93E091B9
:104B0000F007F091F1078081E091F607F091F70747
:104B100082FD12C090818091F9078F5F8F73209181
:104B2000FA07821751F0E091F907F0E0E052F84FF0
:104B3000958F8093F90701C08081FF91EF919F913C
:104B40008F912F910F900BBE0F900FBE0F901F9063
:104B500018951F920F920FB60F9211240BB60F9259
:104B60002F933F934F935F936F937F938F939F9375
:104B7000AF93BF93EF93FF9380EE97E0A8DDFF9193
:104B8000EF91BF91AF919F918F917F916F915F91C5
:104B90004F913F912F910F900BBE0F900FBE0F9032
:104BA0001F901895E0EEF7E01382128288EE93E0F2
:104BB000A0E0B0E084839583A683B7838AE694E07F
:104BC0009183808385ED90E09587848784ED90E0E4
:104BD0009787868780ED90E0918B808B81ED90E0C8
:104BE000938B828B82ED90E0958B848B86ED90E0A9
:104BF000978B868B118E128E138E148E08951F92B2
:104C00000F920FB60F9211240BB60F922F938F9322
:104C10009F93EF93FF93E0918D08F0918E08808130
:104C2000E0919308F091940882FD12C090818091E8
:104C300096088F5F8F7320919708821751F0E0914B
:104C40009608F0E0E358F74F958F8093960801C0DF
:104C50008081FF91EF919F918F912F910F900BBECB
:104C60000F900FBE0F901F9018951F920F920FB6C6
:104C70000F9211240BB60F922F933F934F935F9394
:104C80006F937F938F939F93AF93BF93EF93FF9314
:104C90008DE798E01CDDFF91EF91BF91AF919F915F
:104CA0008F917F916F915F914F913F912F910F90D5
:104CB0000BBE0F900FBE0F901F901895EDE7F8E018
:104CC0001382128288EE93E0A0E0B0E084839583A3
:104CD000A683B7838AE694E09183808385E391E09D
:104CE0009587848784E391E09787868780E391E0C6
:104CF000918B808B81E391E0938B828B82E391E0B7
:104D0000958B848B86E391E0978B868B118E128E28
:104D1000138E148E0895CF92DF92EF92FF920F932D
:104D20001F93CF93DF936C017A018B01C0E0D0E039
:104D3000CE15DF0581F0D8016D918D01D601ED9181
:104D4000FC910190F081E02DC6011995892B11F09D
:104D50002196EECF7E01C701DF91CF911F910F9178
:104D6000FF90EF90DF90CF9008958230A9F028F463
:104D7000882349F0813051F00895843021F1E8F022
:104D8000853039F1089510926E00089580916F007A
:104D90008D7F80936F000895809170008D7F809348
:104DA000700081E08093B0008091B100887F8460C2
:104DB0008093B1001092B3000895809171008D7FAF
:104DC000809371000895809172008D7F80937200AE
:104DD0000895809173008D7F809373000895CF9321
:104DE000C82F80911C03C81307C0E0E6F2E084914D
:104DF0009FEF90931C0301C08FEFB7DF60E08C2F13
:104E0000CF91FACB1F920F920FB60F9211240BB6CF
:104E10000F922F933F934F935F936F937F938F9353
:104E20009F93AF93BF93EF93FF9380911D09909150
:104E30001E09A0911F09B0912009892B8A2B8B2B69
:104E400051F190911A09E0911B09F0911C098081A0
:104E50008927808380911D0990911E09A0911F09C7
:104E6000B0912009181619061A061B06BCF4809189
:104E70001D0990911E09A0911F09B0912009019769
:104E8000A109B10980931D0990931E09A0931F09E0
:104E9000B093200903C080911C03A1DFFF91EF9123
:104EA000BF91AF919F918F917F916F915F914F9142
:104EB0003F912F910F900BBE0F900FBE0F901F9040
:104EC000189540E052EC61E070E080E090E006D0A0
:104ED00061E08DE055DB60E08DE08ECB81309105A7
:104EE00071F01CF4892B39F008958230910559F046
:104EF000039769F0089526E086EA96E00BC026E065
:104F000083E497E007C026E080EE97E003C026E048
:104F10008DE798E06BCC1F920F920FB60F92112481
:104F20000BB60F922F933F934F935F936F937F93A3
:104F30008F939F93AF93BF93EF93FF938EE19BEF7C
:104F4000909325018093240180914D0990914E0901
:104F5000019719F461E08DE04FDB0E946433FF910B
:104F6000EF91BF91AF919F918F917F916F915F91E1
:104F70004F913F912F910F900BBE0F900FBE0F904E
:104F80001F9018958EE19BEF90932501809324014B
:104F9000A3E7B0E08C918E7F8C93E0E2F1E080811A
:104FA0008C7F8083E1E2F1E08081877E8083808155
:104FB0008360808380818B7F80838C9181608C93E0
:104FC000089581E008956F927F928F929F92AF92A1
:104FD000BF92CF92DF92EF92FF920F931F93CF93E6
:104FE000DF933C017B015A0101E010E00E151F0523
:104FF00064F568018FEFC81AD80AE801CC0FDD1FED
:10500000CA0DDB1D8880998081149104E1F068E766
:1050100074E0C4010E94F937892B19F419821882AF
:1050200012C06BE774E0C4010E94F937892B59F470
:10503000EC14FD0441F06801E2E0CE0ED11C1982AF
:1050400018821B821A828601D1CF81E0F30180830E
:10505000B501C7010E94BE32F3019283818380E0D3
:1050600090E0DF91CF911F910F91FF90EF90DF9033
:10507000CF90BF90AF909F908F907F906F9008954A
:1050800081E299E0089580E008950F931F93CF93F4
:10509000DF938B01BA01E901198218829801012E70
:1050A000000C440B550BFC01818192810E947B1EF8
:1050B000019621F01983088380E001C081E0DF912F
:1050C000CF911F910F9108950F931F93CF93DF936B
:1050D0001F921F92CDB7DEB7FB018A01B9019E0175
:1050E0002F5F3F4FAF01FC01818192810E94D53239
:1050F000019639F089819A81F8019183808380E05B
:1051000001C081E00F900F90DF91CF911F910F911F
:105110000895FC01808108950895089581E0FB01C0
:10512000808380E008950895109249090895FC0154
:10513000818192810C94B532CF93DF93CDB7DEB7E6
:105140002A970FB6F894DEBF0FBECDBFAC01CB01DE
:1051500060E070E049835A836B837C83092E000CE6
:10516000AA0BBB0B8D839E83AF83B8879E01275FFD
:105170003F4FAE014F5F5F4F68E070E080913809AC
:105180009091390982DF811108C081E029853A8533
:105190002830310519F480E001C081E02A960FB66D
:1051A000F894DEBF0FBECDBFDF91CF9108950F936E
:1051B0001F93CF93DF931F921F92CDB7DEB78B0162
:1051C0009E012F5F3F4FAC018091380990913909C2
:1051D0005CDF811108C081E029813A812017310705
:1051E00019F480E001C081E00F900F90DF91CF9122
:1051F0001F910F910895CF93DF93EC0110923C091A
:1052000010923B091092480910924709AC0160E0E6
:1052100070E0CB010E94F417AE0161E070E080E025
:1052200090E00E94F4178091380990913909DF913C
:10523000CF9179CF4F925F926F927F928F929F9290
:10524000AF92BF92CF92DF92EF92FF920F931F9394
:10525000CF93DF931F921F92CDB7DEB79C016C01F5
:1052600097FF03C087E0C80ED11C43E0D594C794D4
:105270004A95E1F7C90168E070E00E945D365C0183
:1052800089010E5F1F4F8091360990913709801771
:1052900091070CF0AEC080913409909135090097C8
:1052A00031F00E9460371092370910923609C80118
:1052B0000E94C8369093350980933409892B19F4DC
:1052C00000E010E033C0109337090093360991C015
:1052D00089819A81E80EF91E8AE0E816F10409F046
:1052E00078C149E050E060E070E08DE399E00E9411
:1052F00056336091470970914809882309F49BC18E
:105300008091450990E08617970781F4BC018EEEE5
:1053100090E012DF80914709909148090196992702
:1053200090934809809347090F5F1F4F0C151D0587
:105330000CF47BC1AB2809F460C1C12CD12C7601DF
:1053400000E010E09801235C364FAE014F5F5F4FE5
:1053500061E070E08091380990913909B5DE8111E2
:105360004CC18FEFC81AD80AE80AF80A80E9C816B3
:105370008FE5D80681E0E806F1043CF0609147092A
:10538000709148098DEE90E02DC089819A81080FB7
:10539000191F0A30110541F549E050E060E070E066
:1053A0008DE399E00E945633609147097091480956
:1053B0008823B1F08091450990E08617970709F09E
:1053C0001CC1BC018EEE90E0B7DE80914709909140
:1053D00048090196992790934809809347090DC180
:1053E0008FEE90E0A9DEA9CF0A3011050CF4AACF08
:1053F00004C100E010E00C151D050CF078C0412C34
:10540000512C3201E12CF12C480193E0880C991CBD
:105410009A95E1F72091340930913509C701880D3B
:10542000991D280F391FAE014F5F5F4F61E070E09B
:10543000809138099091390947DE8111DEC08FEFE4
:10544000481A580A680A780A80E948168FE558060B
:1054500081E0680671043CF0609147097091480949
:105460008DEE90E037C089819A81E80EF91E8AE0BE
:10547000E816F104B1F549E050E0B4018091340937
:10548000909135090E9456336091470970914809FF
:105490008823F1F08091340990913509FC01E80DE1
:1054A000F91D808590E08617970709F0A4CFBC010D
:1054B0008EEE90E041DE8091470990914809019677
:1054C000992790934809809347090F5F1F4F93CF07
:1054D0008FEE90E031DE412C512C3201E12CF12C89
:1054E00099CF8AE0E816F1040CF494CF84CFA1148C
:1054F000B10409F4A3C0412C512C3201E12CF12C50
:105500009701235C364FAE014F5F5F4F61E070E063
:105510008091380990913909D7DD81116EC08FEFE4
:10552000481A580A680A780A80E948168FE558062A
:1055300081E0680671043CF0609147097091480968
:105540008DEE90E03EC089819A81E80EF91E8AE0D6
:10555000E816F104C1F549E050E060E070E08DE349
:1055600099E00E9456336091470970914809882359
:1055700031F18091450990E08617970709F05EC0E8
:10558000BC018EEE90E0D8DD83E0000F111F8A95FC
:10559000E1F78091340990913509A5016DE379E037
:1055A000800F911F0E94E937809147099091480927
:1055B0000196992790934809809347093FC08FEE41
:1055C00090E0BADD98CF8AE0E816F1040CF498CFA9
:1055D00035C08AE0E816F1040CF0A8CE9701235CF0
:1055E000364FAE014F5F5F4F61E070E08091380948
:1055F0009091390969DD882319F080E090E022C09C
:105600008FEF481A580A680A780A80E948168FE529
:10561000580681E0680671040CF45ACE609147097F
:10562000709148098DEE90E087DD412C512C3201BC
:10563000E12CF12CD3CF8FEE90E0F6CF809134099E
:10564000909135090F900F90DF91CF911F910F919D
:10565000FF90EF90DF90CF90BF90AF909F908F9092
:105660007F906F905F904F900895CF92DF92EF926E
:10567000FF920F931F93CF93DF931F92CDB7DEB7A7
:105680006C017B018A01452B39F0AB0160E070E0D1
:10569000C8010E9452338983B701C6014DDD8111D3
:1056A0000DC00115110551F0B701C80180DD811150
:1056B00005C061E070E0CE01019679DD0F90DF91C9
:1056C000CF911F910F91FF90EF90DF90CF900895B1
:1056D000CF92DF92EF92FF92CF93DF93CDB7DEB7F9
:1056E00028970FB6F894DEBF0FBECDBF6B01E12C3B
:1056F000F12CC982DA82EB82FC822D833E834F83B8
:105700005887AE014F5F5F4F68E070E0AEDF2896CC
:105710000FB6F894DEBF0FBECDBFDF91CF91FF90E3
:10572000EF90DF90CF9008958F929F92AF92BF92AB
:10573000CF92DF92EF92FF920F931F93CF93DF935D
:10574000EC017B01CA01690175DD009749F42FEF77
:105750003FEFA90161E070E0CE01BADF81E03AC01D
:10576000FC0180809180A280B380CB31D10561F0B3
:10577000CC31D105E9F4BC016C5F7F4FA5019401E8
:10578000C7010E945D1609C0AC014C5F5F4F9501D7
:105790008401B601C7010E945014F82E882341F0FD
:1057A000A501940161E070E0CE0192DF8F2D12C05F
:1057B000A501940160E070E0CE01DF91CF911F91CF
:1057C0000F91FF90EF90DF90CF90BF90AF909F90A0
:1057D0008F907ECFDF91CF911F910F91FF90EF902F
:1057E000DF90CF90BF90AF909F908F9008950F93D0
:1057F0001F93CF93DF93EC018B0142DC9093390927
:1058000080933809009739F0A801BE01DCDBEC0178
:10581000892B19F40BC0C7E8D4E080913809909126
:1058200039097ADC1092390910923809CE01DF91DA
:10583000CF911F910F910895809138099091390966
:1058400068CC2F923F924F925F926F927F928F928D
:105850009F92AF92BF92CF92DF92EF92FF920F93FF
:105860001F93CF93DF93CDB7DEB76B970FB6F89446
:10587000DEBF0FBECDBF20913C09222309F425C213
:105880005D8B4C8B688B798B8A8B9B8B9A01AB01E0
:10589000BC01CE0101967C010E94E81C10E038E0BA
:1058A000232E312CEA8EFB8E89819A8118161906D7
:1058B0000CF006C21F861E861D861C8689819A8171
:1058C000AC85BD85A817B9070CF0EFC1EB81FC8151
:1058D000AE85BF85EA0FFB1F2081318130933309EC
:1058E00020933209848195814281538150933109FB
:1058F000409330094681578150932F0940932E09D8
:10590000820F931F9C01990F440B550B2E8B3F8BDD
:10591000488F598FC12CD12C76012E893F89488D13
:10592000598DC216D306E406F50608F0A2C11F82FF
:1059300060913209709133098B01072E000C220B04
:10594000330BD701C6010496A11DB11D8017910725
:10595000A207B30728F4E0913009F09131090AC099
:10596000E4E0F0E0E61BF70BEC0DFD1D80912E0945
:1059700090912F09E80FF91F4080512C612C712C58
:10598000D701C6010596A11DB11D80179107A20779
:10599000B30728F4E0913009F09131090AC0E5E03D
:1059A000F0E0E61BF70BEC0DFD1D80912E099091A8
:1059B0002F09E80FF91F8081582AD701C6010696E2
:1059C000A11DB11D80179107A207B30728F4E0912C
:1059D0003009F09131090AC0E6E0F0E0E61BF70B70
:1059E000EC0DFD1D80912E0990912F09E80FF91FF4
:1059F0008081682AD701C6010796A11DB11D8017B5
:105A00009107A207B30728F4E0913009F09131091A
:105A10000AC0E7E0F0E0E61BF70BEC0DFD1D8091FE
:105A20002E0990912F09E80FF91F8081782A4601ED
:105A3000570148E0840E911CA11CB11C08151905E2
:105A40002A053B0508F4B4C0C016D106E206F306E9
:105A500038F480913009909131098C0D9D1D09C059
:105A6000C601861B970B20912E0930912F09820FBA
:105A7000931F68E070E09BDBE0913209F0913309FD
:105A80009F010F2E000C440B550BD301C201880D52
:105A9000991DAA1DBB1D281739074A075B07C8F0C7
:105AA00082169306A406B50638F420913009309189
:105AB0003109C601089609C0C1018E1B9F0B8C0DD0
:105AC0009D1D20912E0930912F09820F931FB20145
:105AD00099C08601BF01685071096C197D09821651
